{
	"SimpleAuction.sol": {
		"SimpleAuction": {
			"abi": [
				{
					"inputs": [
						{
							"internalType": "uint256",
							"name": "_biddingTime",
							"type": "uint256"
						},
						{
							"internalType": "address payable",
							"name": "_beneficiary",
							"type": "address"
						}
					],
					"stateMutability": "nonpayable",
					"type": "constructor"
				},
				{
					"anonymous": false,
					"inputs": [
						{
							"indexed": false,
							"internalType": "address",
							"name": "winner",
							"type": "address"
						},
						{
							"indexed": false,
							"internalType": "uint256",
							"name": "amount",
							"type": "uint256"
						}
					],
					"name": "AuctionEnded",
					"type": "event"
				},
				{
					"anonymous": false,
					"inputs": [
						{
							"indexed": false,
							"internalType": "address",
							"name": "bidder",
							"type": "address"
						},
						{
							"indexed": false,
							"internalType": "uint256",
							"name": "amount",
							"type": "uint256"
						}
					],
					"name": "HighestBidIncreased",
					"type": "event"
				},
				{
					"inputs": [],
					"name": "auctionEnd",
					"outputs": [],
					"stateMutability": "nonpayable",
					"type": "function"
				},
				{
					"inputs": [],
					"name": "auctionEndTime",
					"outputs": [
						{
							"internalType": "uint256",
							"name": "",
							"type": "uint256"
						}
					],
					"stateMutability": "view",
					"type": "function"
				},
				{
					"inputs": [],
					"name": "beneficiary",
					"outputs": [
						{
							"internalType": "address payable",
							"name": "",
							"type": "address"
						}
					],
					"stateMutability": "view",
					"type": "function"
				},
				{
					"inputs": [],
					"name": "bid",
					"outputs": [],
					"stateMutability": "payable",
					"type": "function"
				},
				{
					"inputs": [],
					"name": "highestBid",
					"outputs": [
						{
							"internalType": "uint256",
							"name": "",
							"type": "uint256"
						}
					],
					"stateMutability": "view",
					"type": "function"
				},
				{
					"inputs": [],
					"name": "highestBidder",
					"outputs": [
						{
							"internalType": "address",
							"name": "",
							"type": "address"
						}
					],
					"stateMutability": "view",
					"type": "function"
				},
				{
					"inputs": [],
					"name": "withdraw",
					"outputs": [
						{
							"internalType": "bool",
							"name": "",
							"type": "bool"
						}
					],
					"stateMutability": "nonpayable",
					"type": "function"
				}
			],
			"devdoc": {
				"kind": "dev",
				"methods": {},
				"version": 1
			},
			"evm": {
				"assembly": "    /* \"SimpleAuction.sol\":72:4530  contract SimpleAuction {... */\n  mstore(0x40, 0x80)\n    /* \"SimpleAuction.sol\":1130:1320  constructor(... */\n  callvalue\n  dup1\n  iszero\n  tag_1\n  jumpi\n  0x00\n  dup1\n  revert\ntag_1:\n  pop\n  mload(0x40)\n  sub(codesize, bytecodeSize)\n  dup1\n  bytecodeSize\n  dup4\n  codecopy\n  dup2\n  dup2\n  add\n  0x40\n  mstore\n  dup2\n  add\n  swap1\n  tag_2\n  swap2\n  swap1\n  tag_3\n  jump\t// in\ntag_2:\n    /* \"SimpleAuction.sol\":1242:1254  _beneficiary */\n  dup1\n    /* \"SimpleAuction.sol\":1228:1239  beneficiary */\n  0x00\n  dup1\n    /* \"SimpleAuction.sol\":1228:1254  beneficiary = _beneficiary */\n  0x0100\n  exp\n  dup2\n  sload\n  dup2\n  0xffffffffffffffffffffffffffffffffffffffff\n  mul\n  not\n  and\n  swap1\n  dup4\n  0xffffffffffffffffffffffffffffffffffffffff\n  and\n  mul\n  or\n  swap1\n  sstore\n  pop\n    /* \"SimpleAuction.sol\":1300:1312  _biddingTime */\n  dup2\n    /* \"SimpleAuction.sol\":1282:1297  block.timestamp */\n  timestamp\n    /* \"SimpleAuction.sol\":1282:1312  block.timestamp + _biddingTime */\n  tag_6\n  swap2\n  swap1\n  tag_7\n  jump\t// in\ntag_6:\n    /* \"SimpleAuction.sol\":1265:1279  auctionEndTime */\n  0x01\n    /* \"SimpleAuction.sol\":1265:1312  auctionEndTime = block.timestamp + _biddingTime */\n  dup2\n  swap1\n  sstore\n  pop\n    /* \"SimpleAuction.sol\":1130:1320  constructor(... */\n  pop\n  pop\n    /* \"SimpleAuction.sol\":72:4530  contract SimpleAuction {... */\n  jump(tag_8)\n    /* \"#utility.yul\":88:205   */\ntag_10:\n    /* \"#utility.yul\":197:198   */\n  0x00\n    /* \"#utility.yul\":194:195   */\n  dup1\n    /* \"#utility.yul\":187:199   */\n  revert\n    /* \"#utility.yul\":334:411   */\ntag_12:\n    /* \"#utility.yul\":371:378   */\n  0x00\n    /* \"#utility.yul\":400:405   */\n  dup2\n    /* \"#utility.yul\":389:405   */\n  swap1\n  pop\n    /* \"#utility.yul\":334:411   */\n  swap2\n  swap1\n  pop\n  jump\t// out\n    /* \"#utility.yul\":417:539   */\ntag_13:\n    /* \"#utility.yul\":490:514   */\n  tag_26\n    /* \"#utility.yul\":508:513   */\n  dup2\n    /* \"#utility.yul\":490:514   */\n  tag_12\n  jump\t// in\ntag_26:\n    /* \"#utility.yul\":483:488   */\n  dup2\n    /* \"#utility.yul\":480:515   */\n  eq\n    /* \"#utility.yul\":470:533   */\n  tag_27\n  jumpi\n    /* \"#utility.yul\":529:530   */\n  0x00\n    /* \"#utility.yul\":526:527   */\n  dup1\n    /* \"#utility.yul\":519:531   */\n  revert\n    /* \"#utility.yul\":470:533   */\ntag_27:\n    /* \"#utility.yul\":417:539   */\n  pop\n  jump\t// out\n    /* \"#utility.yul\":545:688   */\ntag_14:\n    /* \"#utility.yul\":602:607   */\n  0x00\n    /* \"#utility.yul\":633:639   */\n  dup2\n    /* \"#utility.yul\":627:640   */\n  mload\n    /* \"#utility.yul\":618:640   */\n  swap1\n  pop\n    /* \"#utility.yul\":649:682   */\n  tag_29\n    /* \"#utility.yul\":676:681   */\n  dup2\n    /* \"#utility.yul\":649:682   */\n  tag_13\n  jump\t// in\ntag_29:\n    /* \"#utility.yul\":545:688   */\n  swap3\n  swap2\n  pop\n  pop\n  jump\t// out\n    /* \"#utility.yul\":694:820   */\ntag_15:\n    /* \"#utility.yul\":731:738   */\n  0x00\n    /* \"#utility.yul\":771:813   */\n  0xffffffffffffffffffffffffffffffffffffffff\n    /* \"#utility.yul\":764:769   */\n  dup3\n    /* \"#utility.yul\":760:814   */\n  and\n    /* \"#utility.yul\":749:814   */\n  swap1\n  pop\n    /* \"#utility.yul\":694:820   */\n  swap2\n  swap1\n  pop\n  jump\t// out\n    /* \"#utility.yul\":826:930   */\ntag_16:\n    /* \"#utility.yul\":871:878   */\n  0x00\n    /* \"#utility.yul\":900:924   */\n  tag_32\n    /* \"#utility.yul\":918:923   */\n  dup3\n    /* \"#utility.yul\":900:924   */\n  tag_15\n  jump\t// in\ntag_32:\n    /* \"#utility.yul\":889:924   */\n  swap1\n  pop\n    /* \"#utility.yul\":826:930   */\n  swap2\n  swap1\n  pop\n  jump\t// out\n    /* \"#utility.yul\":936:1074   */\ntag_17:\n    /* \"#utility.yul\":1017:1049   */\n  tag_34\n    /* \"#utility.yul\":1043:1048   */\n  dup2\n    /* \"#utility.yul\":1017:1049   */\n  tag_16\n  jump\t// in\ntag_34:\n    /* \"#utility.yul\":1010:1015   */\n  dup2\n    /* \"#utility.yul\":1007:1050   */\n  eq\n    /* \"#utility.yul\":997:1068   */\n  tag_35\n  jumpi\n    /* \"#utility.yul\":1064:1065   */\n  0x00\n    /* \"#utility.yul\":1061:1062   */\n  dup1\n    /* \"#utility.yul\":1054:1066   */\n  revert\n    /* \"#utility.yul\":997:1068   */\ntag_35:\n    /* \"#utility.yul\":936:1074   */\n  pop\n  jump\t// out\n    /* \"#utility.yul\":1080:1239   */\ntag_18:\n    /* \"#utility.yul\":1145:1150   */\n  0x00\n    /* \"#utility.yul\":1176:1182   */\n  dup2\n    /* \"#utility.yul\":1170:1183   */\n  mload\n    /* \"#utility.yul\":1161:1183   */\n  swap1\n  pop\n    /* \"#utility.yul\":1192:1233   */\n  tag_37\n    /* \"#utility.yul\":1227:1232   */\n  dup2\n    /* \"#utility.yul\":1192:1233   */\n  tag_17\n  jump\t// in\ntag_37:\n    /* \"#utility.yul\":1080:1239   */\n  swap3\n  swap2\n  pop\n  pop\n  jump\t// out\n    /* \"#utility.yul\":1245:1768   */\ntag_3:\n    /* \"#utility.yul\":1332:1338   */\n  0x00\n    /* \"#utility.yul\":1340:1346   */\n  dup1\n    /* \"#utility.yul\":1389:1391   */\n  0x40\n    /* \"#utility.yul\":1377:1386   */\n  dup4\n    /* \"#utility.yul\":1368:1375   */\n  dup6\n    /* \"#utility.yul\":1364:1387   */\n  sub\n    /* \"#utility.yul\":1360:1392   */\n  slt\n    /* \"#utility.yul\":1357:1476   */\n  iszero\n  tag_39\n  jumpi\n    /* \"#utility.yul\":1395:1474   */\n  tag_40\n  tag_10\n  jump\t// in\ntag_40:\n    /* \"#utility.yul\":1357:1476   */\ntag_39:\n    /* \"#utility.yul\":1515:1516   */\n  0x00\n    /* \"#utility.yul\":1540:1604   */\n  tag_41\n    /* \"#utility.yul\":1596:1603   */\n  dup6\n    /* \"#utility.yul\":1587:1593   */\n  dup3\n    /* \"#utility.yul\":1576:1585   */\n  dup7\n    /* \"#utility.yul\":1572:1594   */\n  add\n    /* \"#utility.yul\":1540:1604   */\n  tag_14\n  jump\t// in\ntag_41:\n    /* \"#utility.yul\":1530:1604   */\n  swap3\n  pop\n    /* \"#utility.yul\":1486:1614   */\n  pop\n    /* \"#utility.yul\":1653:1655   */\n  0x20\n    /* \"#utility.yul\":1679:1751   */\n  tag_42\n    /* \"#utility.yul\":1743:1750   */\n  dup6\n    /* \"#utility.yul\":1734:1740   */\n  dup3\n    /* \"#utility.yul\":1723:1732   */\n  dup7\n    /* \"#utility.yul\":1719:1741   */\n  add\n    /* \"#utility.yul\":1679:1751   */\n  tag_18\n  jump\t// in\ntag_42:\n    /* \"#utility.yul\":1669:1751   */\n  swap2\n  pop\n    /* \"#utility.yul\":1624:1761   */\n  pop\n    /* \"#utility.yul\":1245:1768   */\n  swap3\n  pop\n  swap3\n  swap1\n  pop\n  jump\t// out\n    /* \"#utility.yul\":1774:1954   */\ntag_19:\n    /* \"#utility.yul\":1822:1899   */\n  0x4e487b7100000000000000000000000000000000000000000000000000000000\n    /* \"#utility.yul\":1819:1820   */\n  0x00\n    /* \"#utility.yul\":1812:1900   */\n  mstore\n    /* \"#utility.yul\":1919:1923   */\n  0x11\n    /* \"#utility.yul\":1916:1917   */\n  0x04\n    /* \"#utility.yul\":1909:1924   */\n  mstore\n    /* \"#utility.yul\":1943:1947   */\n  0x24\n    /* \"#utility.yul\":1940:1941   */\n  0x00\n    /* \"#utility.yul\":1933:1948   */\n  revert\n    /* \"#utility.yul\":1960:2151   */\ntag_7:\n    /* \"#utility.yul\":2000:2003   */\n  0x00\n    /* \"#utility.yul\":2019:2039   */\n  tag_45\n    /* \"#utility.yul\":2037:2038   */\n  dup3\n    /* \"#utility.yul\":2019:2039   */\n  tag_12\n  jump\t// in\ntag_45:\n    /* \"#utility.yul\":2014:2039   */\n  swap2\n  pop\n    /* \"#utility.yul\":2053:2073   */\n  tag_46\n    /* \"#utility.yul\":2071:2072   */\n  dup4\n    /* \"#utility.yul\":2053:2073   */\n  tag_12\n  jump\t// in\ntag_46:\n    /* \"#utility.yul\":2048:2073   */\n  swap3\n  pop\n    /* \"#utility.yul\":2096:2097   */\n  dup3\n    /* \"#utility.yul\":2093:2094   */\n  dup3\n    /* \"#utility.yul\":2089:2098   */\n  add\n    /* \"#utility.yul\":2082:2098   */\n  swap1\n  pop\n    /* \"#utility.yul\":2117:2120   */\n  dup1\n    /* \"#utility.yul\":2114:2115   */\n  dup3\n    /* \"#utility.yul\":2111:2121   */\n  gt\n    /* \"#utility.yul\":2108:2144   */\n  iszero\n  tag_47\n  jumpi\n    /* \"#utility.yul\":2124:2142   */\n  tag_48\n  tag_19\n  jump\t// in\ntag_48:\n    /* \"#utility.yul\":2108:2144   */\ntag_47:\n    /* \"#utility.yul\":1960:2151   */\n  swap3\n  swap2\n  pop\n  pop\n  jump\t// out\n    /* \"SimpleAuction.sol\":72:4530  contract SimpleAuction {... */\ntag_8:\n  dataSize(sub_0)\n  dup1\n  dataOffset(sub_0)\n  0x00\n  codecopy\n  0x00\n  return\nstop\n\nsub_0: assembly {\n        /* \"SimpleAuction.sol\":72:4530  contract SimpleAuction {... */\n      mstore(0x40, 0x80)\n      jumpi(tag_1, lt(calldatasize, 0x04))\n      shr(0xe0, calldataload(0x00))\n      dup1\n      0x3ccfd60b\n      gt\n      tag_9\n      jumpi\n      dup1\n      0x3ccfd60b\n      eq\n      tag_5\n      jumpi\n      dup1\n      0x4b449cba\n      eq\n      tag_6\n      jumpi\n      dup1\n      0x91f90157\n      eq\n      tag_7\n      jumpi\n      dup1\n      0xd57bde79\n      eq\n      tag_8\n      jumpi\n      jump(tag_1)\n    tag_9:\n      dup1\n      0x1998aeef\n      eq\n      tag_2\n      jumpi\n      dup1\n      0x2a24f46c\n      eq\n      tag_3\n      jumpi\n      dup1\n      0x38af3eed\n      eq\n      tag_4\n      jumpi\n    tag_1:\n      0x00\n      dup1\n      revert\n        /* \"SimpleAuction.sol\":1494:2647  function bid() public payable {... */\n    tag_2:\n      tag_10\n      tag_11\n      jump\t// in\n    tag_10:\n      stop\n        /* \"SimpleAuction.sol\":3410:4527  function auctionEnd() public {... */\n    tag_3:\n      callvalue\n      dup1\n      iszero\n      tag_12\n      jumpi\n      0x00\n      dup1\n      revert\n    tag_12:\n      pop\n      tag_13\n      tag_14\n      jump\t// in\n    tag_13:\n      stop\n        /* \"SimpleAuction.sol\":250:284  address payable public beneficiary */\n    tag_4:\n      callvalue\n      dup1\n      iszero\n      tag_15\n      jumpi\n      0x00\n      dup1\n      revert\n    tag_15:\n      pop\n      tag_16\n      tag_17\n      jump\t// in\n    tag_16:\n      mload(0x40)\n      tag_18\n      swap2\n      swap1\n      tag_19\n      jump\t// in\n    tag_18:\n      mload(0x40)\n      dup1\n      swap2\n      sub\n      swap1\n      return\n        /* \"SimpleAuction.sol\":2697:3323  function withdraw() public returns (bool) {... */\n    tag_5:\n      callvalue\n      dup1\n      iszero\n      tag_20\n      jumpi\n      0x00\n      dup1\n      revert\n    tag_20:\n      pop\n      tag_21\n      tag_22\n      jump\t// in\n    tag_21:\n      mload(0x40)\n      tag_23\n      swap2\n      swap1\n      tag_24\n      jump\t// in\n    tag_23:\n      mload(0x40)\n      dup1\n      swap2\n      sub\n      swap1\n      return\n        /* \"SimpleAuction.sol\":291:317  uint public auctionEndTime */\n    tag_6:\n      callvalue\n      dup1\n      iszero\n      tag_25\n      jumpi\n      0x00\n      dup1\n      revert\n    tag_25:\n      pop\n      tag_26\n      tag_27\n      jump\t// in\n    tag_26:\n      mload(0x40)\n      tag_28\n      swap2\n      swap1\n      tag_29\n      jump\t// in\n    tag_28:\n      mload(0x40)\n      dup1\n      swap2\n      sub\n      swap1\n      return\n        /* \"SimpleAuction.sol\":364:392  address public highestBidder */\n    tag_7:\n      callvalue\n      dup1\n      iszero\n      tag_30\n      jumpi\n      0x00\n      dup1\n      revert\n    tag_30:\n      pop\n      tag_31\n      tag_32\n      jump\t// in\n    tag_31:\n      mload(0x40)\n      tag_33\n      swap2\n      swap1\n      tag_34\n      jump\t// in\n    tag_33:\n      mload(0x40)\n      dup1\n      swap2\n      sub\n      swap1\n      return\n        /* \"SimpleAuction.sol\":399:421  uint public highestBid */\n    tag_8:\n      callvalue\n      dup1\n      iszero\n      tag_35\n      jumpi\n      0x00\n      dup1\n      revert\n    tag_35:\n      pop\n      tag_36\n      tag_37\n      jump\t// in\n    tag_36:\n      mload(0x40)\n      tag_38\n      swap2\n      swap1\n      tag_29\n      jump\t// in\n    tag_38:\n      mload(0x40)\n      dup1\n      swap2\n      sub\n      swap1\n      return\n        /* \"SimpleAuction.sol\":1494:2647  function bid() public payable {... */\n    tag_11:\n        /* \"SimpleAuction.sol\":1867:1881  auctionEndTime */\n      sload(0x01)\n        /* \"SimpleAuction.sol\":1848:1863  block.timestamp */\n      timestamp\n        /* \"SimpleAuction.sol\":1848:1881  block.timestamp <= auctionEndTime */\n      gt\n      iszero\n        /* \"SimpleAuction.sol\":1826:1931  require(... */\n      tag_40\n      jumpi\n      mload(0x40)\n      0x08c379a000000000000000000000000000000000000000000000000000000000\n      dup2\n      mstore\n      0x04\n      add\n      tag_41\n      swap1\n      tag_42\n      jump\t// in\n    tag_41:\n      mload(0x40)\n      dup1\n      swap2\n      sub\n      swap1\n      revert\n    tag_40:\n        /* \"SimpleAuction.sol\":2049:2059  highestBid */\n      sload(0x03)\n        /* \"SimpleAuction.sol\":2037:2046  msg.value */\n      callvalue\n        /* \"SimpleAuction.sol\":2037:2059  msg.value > highestBid */\n      gt\n        /* \"SimpleAuction.sol\":2015:2117  require(... */\n      tag_43\n      jumpi\n      mload(0x40)\n      0x08c379a000000000000000000000000000000000000000000000000000000000\n      dup2\n      mstore\n      0x04\n      add\n      tag_44\n      swap1\n      tag_45\n      jump\t// in\n    tag_44:\n      mload(0x40)\n      dup1\n      swap2\n      sub\n      swap1\n      revert\n    tag_43:\n        /* \"SimpleAuction.sol\":2148:2149  0 */\n      0x00\n        /* \"SimpleAuction.sol\":2134:2144  highestBid */\n      sload(0x03)\n        /* \"SimpleAuction.sol\":2134:2149  highestBid != 0 */\n      eq\n        /* \"SimpleAuction.sol\":2130:2512  if (highestBid != 0) {... */\n      tag_46\n      jumpi\n        /* \"SimpleAuction.sol\":2490:2500  highestBid */\n      sload(0x03)\n        /* \"SimpleAuction.sol\":2457:2471  pendingReturns */\n      0x04\n        /* \"SimpleAuction.sol\":2457:2486  pendingReturns[highestBidder] */\n      0x00\n        /* \"SimpleAuction.sol\":2472:2485  highestBidder */\n      0x02\n      0x00\n      swap1\n      sload\n      swap1\n      0x0100\n      exp\n      swap1\n      div\n      0xffffffffffffffffffffffffffffffffffffffff\n      and\n        /* \"SimpleAuction.sol\":2457:2486  pendingReturns[highestBidder] */\n      0xffffffffffffffffffffffffffffffffffffffff\n      and\n      0xffffffffffffffffffffffffffffffffffffffff\n      and\n      dup2\n      mstore\n      0x20\n      add\n      swap1\n      dup2\n      mstore\n      0x20\n      add\n      0x00\n      keccak256\n      0x00\n        /* \"SimpleAuction.sol\":2457:2500  pendingReturns[highestBidder] += highestBid */\n      dup3\n      dup3\n      sload\n      tag_47\n      swap2\n      swap1\n      tag_48\n      jump\t// in\n    tag_47:\n      swap3\n      pop\n      pop\n      dup2\n      swap1\n      sstore\n      pop\n        /* \"SimpleAuction.sol\":2130:2512  if (highestBid != 0) {... */\n    tag_46:\n        /* \"SimpleAuction.sol\":2538:2548  msg.sender */\n      caller\n        /* \"SimpleAuction.sol\":2522:2535  highestBidder */\n      0x02\n      0x00\n        /* \"SimpleAuction.sol\":2522:2548  highestBidder = msg.sender */\n      0x0100\n      exp\n      dup2\n      sload\n      dup2\n      0xffffffffffffffffffffffffffffffffffffffff\n      mul\n      not\n      and\n      swap1\n      dup4\n      0xffffffffffffffffffffffffffffffffffffffff\n      and\n      mul\n      or\n      swap1\n      sstore\n      pop\n        /* \"SimpleAuction.sol\":2572:2581  msg.value */\n      callvalue\n        /* \"SimpleAuction.sol\":2559:2569  highestBid */\n      0x03\n        /* \"SimpleAuction.sol\":2559:2581  highestBid = msg.value */\n      dup2\n      swap1\n      sstore\n      pop\n        /* \"SimpleAuction.sol\":2597:2639  HighestBidIncreased(msg.sender, msg.value) */\n      0xf4757a49b326036464bec6fe419a4ae38c8a02ce3e68bf0809674f6aab8ad300\n        /* \"SimpleAuction.sol\":2617:2627  msg.sender */\n      caller\n        /* \"SimpleAuction.sol\":2629:2638  msg.value */\n      callvalue\n        /* \"SimpleAuction.sol\":2597:2639  HighestBidIncreased(msg.sender, msg.value) */\n      mload(0x40)\n      tag_49\n      swap3\n      swap2\n      swap1\n      tag_50\n      jump\t// in\n    tag_49:\n      mload(0x40)\n      dup1\n      swap2\n      sub\n      swap1\n      log1\n        /* \"SimpleAuction.sol\":1494:2647  function bid() public payable {... */\n      jump\t// out\n        /* \"SimpleAuction.sol\":3410:4527  function auctionEnd() public {... */\n    tag_14:\n        /* \"SimpleAuction.sol\":4238:4252  auctionEndTime */\n      sload(0x01)\n        /* \"SimpleAuction.sol\":4219:4234  block.timestamp */\n      timestamp\n        /* \"SimpleAuction.sol\":4219:4252  block.timestamp >= auctionEndTime */\n      lt\n      iszero\n        /* \"SimpleAuction.sol\":4211:4279  require(block.timestamp >= auctionEndTime, \"Auction not yet ended.\") */\n      tag_52\n      jumpi\n      mload(0x40)\n      0x08c379a000000000000000000000000000000000000000000000000000000000\n      dup2\n      mstore\n      0x04\n      add\n      tag_53\n      swap1\n      tag_54\n      jump\t// in\n    tag_53:\n      mload(0x40)\n      dup1\n      swap2\n      sub\n      swap1\n      revert\n    tag_52:\n        /* \"SimpleAuction.sol\":4299:4304  ended */\n      0x05\n      0x00\n      swap1\n      sload\n      swap1\n      0x0100\n      exp\n      swap1\n      div\n      0xff\n      and\n        /* \"SimpleAuction.sol\":4298:4304  !ended */\n      iszero\n        /* \"SimpleAuction.sol\":4290:4344  require(!ended, \"auctionEnd has already been called.\") */\n      tag_55\n      jumpi\n      mload(0x40)\n      0x08c379a000000000000000000000000000000000000000000000000000000000\n      dup2\n      mstore\n      0x04\n      add\n      tag_56\n      swap1\n      tag_57\n      jump\t// in\n    tag_56:\n      mload(0x40)\n      dup1\n      swap2\n      sub\n      swap1\n      revert\n    tag_55:\n        /* \"SimpleAuction.sol\":4388:4392  true */\n      0x01\n        /* \"SimpleAuction.sol\":4380:4385  ended */\n      0x05\n      0x00\n        /* \"SimpleAuction.sol\":4380:4392  ended = true */\n      0x0100\n      exp\n      dup2\n      sload\n      dup2\n      0xff\n      mul\n      not\n      and\n      swap1\n      dup4\n      iszero\n      iszero\n      mul\n      or\n      swap1\n      sstore\n      pop\n        /* \"SimpleAuction.sol\":4408:4447  AuctionEnded(highestBidder, highestBid) */\n      0xdaec4582d5d9595688c8c98545fdd1c696d41c6aeaeb636737e84ed2f5c00eda\n        /* \"SimpleAuction.sol\":4421:4434  highestBidder */\n      0x02\n      0x00\n      swap1\n      sload\n      swap1\n      0x0100\n      exp\n      swap1\n      div\n      0xffffffffffffffffffffffffffffffffffffffff\n      and\n        /* \"SimpleAuction.sol\":4436:4446  highestBid */\n      sload(0x03)\n        /* \"SimpleAuction.sol\":4408:4447  AuctionEnded(highestBidder, highestBid) */\n      mload(0x40)\n      tag_58\n      swap3\n      swap2\n      swap1\n      tag_50\n      jump\t// in\n    tag_58:\n      mload(0x40)\n      dup1\n      swap2\n      sub\n      swap1\n      log1\n        /* \"SimpleAuction.sol\":4487:4498  beneficiary */\n      0x00\n      dup1\n      sload\n      swap1\n      0x0100\n      exp\n      swap1\n      div\n      0xffffffffffffffffffffffffffffffffffffffff\n      and\n        /* \"SimpleAuction.sol\":4487:4507  beneficiary.transfer */\n      0xffffffffffffffffffffffffffffffffffffffff\n      and\n        /* \"SimpleAuction.sol\":4487:4519  beneficiary.transfer(highestBid) */\n      0x08fc\n        /* \"SimpleAuction.sol\":4508:4518  highestBid */\n      sload(0x03)\n        /* \"SimpleAuction.sol\":4487:4519  beneficiary.transfer(highestBid) */\n      swap1\n      dup2\n      iszero\n      mul\n      swap1\n      mload(0x40)\n      0x00\n      mload(0x40)\n      dup1\n      dup4\n      sub\n      dup2\n      dup6\n      dup9\n      dup9\n      call\n      swap4\n      pop\n      pop\n      pop\n      pop\n      iszero\n      dup1\n      iszero\n      tag_60\n      jumpi\n      returndatasize\n      0x00\n      dup1\n      returndatacopy\n      revert(0x00, returndatasize)\n    tag_60:\n      pop\n        /* \"SimpleAuction.sol\":3410:4527  function auctionEnd() public {... */\n      jump\t// out\n        /* \"SimpleAuction.sol\":250:284  address payable public beneficiary */\n    tag_17:\n      0x00\n      dup1\n      sload\n      swap1\n      0x0100\n      exp\n      swap1\n      div\n      0xffffffffffffffffffffffffffffffffffffffff\n      and\n      dup2\n      jump\t// out\n        /* \"SimpleAuction.sol\":2697:3323  function withdraw() public returns (bool) {... */\n    tag_22:\n        /* \"SimpleAuction.sol\":2733:2737  bool */\n      0x00\n        /* \"SimpleAuction.sol\":2750:2761  uint amount */\n      dup1\n        /* \"SimpleAuction.sol\":2764:2778  pendingReturns */\n      0x04\n        /* \"SimpleAuction.sol\":2764:2790  pendingReturns[msg.sender] */\n      0x00\n        /* \"SimpleAuction.sol\":2779:2789  msg.sender */\n      caller\n        /* \"SimpleAuction.sol\":2764:2790  pendingReturns[msg.sender] */\n      0xffffffffffffffffffffffffffffffffffffffff\n      and\n      0xffffffffffffffffffffffffffffffffffffffff\n      and\n      dup2\n      mstore\n      0x20\n      add\n      swap1\n      dup2\n      mstore\n      0x20\n      add\n      0x00\n      keccak256\n      sload\n        /* \"SimpleAuction.sol\":2750:2790  uint amount = pendingReturns[msg.sender] */\n      swap1\n      pop\n        /* \"SimpleAuction.sol\":2814:2815  0 */\n      0x00\n        /* \"SimpleAuction.sol\":2805:2811  amount */\n      dup2\n        /* \"SimpleAuction.sol\":2805:2815  amount > 0 */\n      gt\n        /* \"SimpleAuction.sol\":2801:3294  if (amount > 0) {... */\n      iszero\n      tag_62\n      jumpi\n        /* \"SimpleAuction.sol\":3049:3050  0 */\n      0x00\n        /* \"SimpleAuction.sol\":3020:3034  pendingReturns */\n      0x04\n        /* \"SimpleAuction.sol\":3020:3046  pendingReturns[msg.sender] */\n      0x00\n        /* \"SimpleAuction.sol\":3035:3045  msg.sender */\n      caller\n        /* \"SimpleAuction.sol\":3020:3046  pendingReturns[msg.sender] */\n      0xffffffffffffffffffffffffffffffffffffffff\n      and\n      0xffffffffffffffffffffffffffffffffffffffff\n      and\n      dup2\n      mstore\n      0x20\n      add\n      swap1\n      dup2\n      mstore\n      0x20\n      add\n      0x00\n      keccak256\n        /* \"SimpleAuction.sol\":3020:3050  pendingReturns[msg.sender] = 0 */\n      dup2\n      swap1\n      sstore\n      pop\n        /* \"SimpleAuction.sol\":3080:3090  msg.sender */\n      caller\n        /* \"SimpleAuction.sol\":3072:3096  payable(msg.sender).send */\n      0xffffffffffffffffffffffffffffffffffffffff\n      and\n        /* \"SimpleAuction.sol\":3072:3104  payable(msg.sender).send(amount) */\n      0x08fc\n        /* \"SimpleAuction.sol\":3097:3103  amount */\n      dup3\n        /* \"SimpleAuction.sol\":3072:3104  payable(msg.sender).send(amount) */\n      swap1\n      dup2\n      iszero\n      mul\n      swap1\n      mload(0x40)\n      0x00\n      mload(0x40)\n      dup1\n      dup4\n      sub\n      dup2\n      dup6\n      dup9\n      dup9\n      call\n      swap4\n      pop\n      pop\n      pop\n      pop\n        /* \"SimpleAuction.sol\":3067:3283  if (!payable(msg.sender).send(amount)) {... */\n      tag_64\n      jumpi\n        /* \"SimpleAuction.sol\":3230:3236  amount */\n      dup1\n        /* \"SimpleAuction.sol\":3201:3215  pendingReturns */\n      0x04\n        /* \"SimpleAuction.sol\":3201:3227  pendingReturns[msg.sender] */\n      0x00\n        /* \"SimpleAuction.sol\":3216:3226  msg.sender */\n      caller\n        /* \"SimpleAuction.sol\":3201:3227  pendingReturns[msg.sender] */\n      0xffffffffffffffffffffffffffffffffffffffff\n      and\n      0xffffffffffffffffffffffffffffffffffffffff\n      and\n      dup2\n      mstore\n      0x20\n      add\n      swap1\n      dup2\n      mstore\n      0x20\n      add\n      0x00\n      keccak256\n        /* \"SimpleAuction.sol\":3201:3236  pendingReturns[msg.sender] = amount */\n      dup2\n      swap1\n      sstore\n      pop\n        /* \"SimpleAuction.sol\":3262:3267  false */\n      0x00\n        /* \"SimpleAuction.sol\":3255:3267  return false */\n      swap2\n      pop\n      pop\n      jump(tag_61)\n        /* \"SimpleAuction.sol\":3067:3283  if (!payable(msg.sender).send(amount)) {... */\n    tag_64:\n        /* \"SimpleAuction.sol\":2801:3294  if (amount > 0) {... */\n    tag_62:\n        /* \"SimpleAuction.sol\":3311:3315  true */\n      0x01\n        /* \"SimpleAuction.sol\":3304:3315  return true */\n      swap2\n      pop\n      pop\n        /* \"SimpleAuction.sol\":2697:3323  function withdraw() public returns (bool) {... */\n    tag_61:\n      swap1\n      jump\t// out\n        /* \"SimpleAuction.sol\":291:317  uint public auctionEndTime */\n    tag_27:\n      sload(0x01)\n      dup2\n      jump\t// out\n        /* \"SimpleAuction.sol\":364:392  address public highestBidder */\n    tag_32:\n      0x02\n      0x00\n      swap1\n      sload\n      swap1\n      0x0100\n      exp\n      swap1\n      div\n      0xffffffffffffffffffffffffffffffffffffffff\n      and\n      dup2\n      jump\t// out\n        /* \"SimpleAuction.sol\":399:421  uint public highestBid */\n    tag_37:\n      sload(0x03)\n      dup2\n      jump\t// out\n        /* \"#utility.yul\":7:133   */\n    tag_65:\n        /* \"#utility.yul\":44:51   */\n      0x00\n        /* \"#utility.yul\":84:126   */\n      0xffffffffffffffffffffffffffffffffffffffff\n        /* \"#utility.yul\":77:82   */\n      dup3\n        /* \"#utility.yul\":73:127   */\n      and\n        /* \"#utility.yul\":62:127   */\n      swap1\n      pop\n        /* \"#utility.yul\":7:133   */\n      swap2\n      swap1\n      pop\n      jump\t// out\n        /* \"#utility.yul\":139:243   */\n    tag_66:\n        /* \"#utility.yul\":184:191   */\n      0x00\n        /* \"#utility.yul\":213:237   */\n      tag_87\n        /* \"#utility.yul\":231:236   */\n      dup3\n        /* \"#utility.yul\":213:237   */\n      tag_65\n      jump\t// in\n    tag_87:\n        /* \"#utility.yul\":202:237   */\n      swap1\n      pop\n        /* \"#utility.yul\":139:243   */\n      swap2\n      swap1\n      pop\n      jump\t// out\n        /* \"#utility.yul\":249:391   */\n    tag_67:\n        /* \"#utility.yul\":352:384   */\n      tag_89\n        /* \"#utility.yul\":378:383   */\n      dup2\n        /* \"#utility.yul\":352:384   */\n      tag_66\n      jump\t// in\n    tag_89:\n        /* \"#utility.yul\":347:350   */\n      dup3\n        /* \"#utility.yul\":340:385   */\n      mstore\n        /* \"#utility.yul\":249:391   */\n      pop\n      pop\n      jump\t// out\n        /* \"#utility.yul\":397:651   */\n    tag_19:\n        /* \"#utility.yul\":506:510   */\n      0x00\n        /* \"#utility.yul\":544:546   */\n      0x20\n        /* \"#utility.yul\":533:542   */\n      dup3\n        /* \"#utility.yul\":529:547   */\n      add\n        /* \"#utility.yul\":521:547   */\n      swap1\n      pop\n        /* \"#utility.yul\":557:644   */\n      tag_91\n        /* \"#utility.yul\":641:642   */\n      0x00\n        /* \"#utility.yul\":630:639   */\n      dup4\n        /* \"#utility.yul\":626:643   */\n      add\n        /* \"#utility.yul\":617:623   */\n      dup5\n        /* \"#utility.yul\":557:644   */\n      tag_67\n      jump\t// in\n    tag_91:\n        /* \"#utility.yul\":397:651   */\n      swap3\n      swap2\n      pop\n      pop\n      jump\t// out\n        /* \"#utility.yul\":657:747   */\n    tag_68:\n        /* \"#utility.yul\":691:698   */\n      0x00\n        /* \"#utility.yul\":734:739   */\n      dup2\n        /* \"#utility.yul\":727:740   */\n      iszero\n        /* \"#utility.yul\":720:741   */\n      iszero\n        /* \"#utility.yul\":709:741   */\n      swap1\n      pop\n        /* \"#utility.yul\":657:747   */\n      swap2\n      swap1\n      pop\n      jump\t// out\n        /* \"#utility.yul\":753:862   */\n    tag_69:\n        /* \"#utility.yul\":834:855   */\n      tag_94\n        /* \"#utility.yul\":849:854   */\n      dup2\n        /* \"#utility.yul\":834:855   */\n      tag_68\n      jump\t// in\n    tag_94:\n        /* \"#utility.yul\":829:832   */\n      dup3\n        /* \"#utility.yul\":822:856   */\n      mstore\n        /* \"#utility.yul\":753:862   */\n      pop\n      pop\n      jump\t// out\n        /* \"#utility.yul\":868:1078   */\n    tag_24:\n        /* \"#utility.yul\":955:959   */\n      0x00\n        /* \"#utility.yul\":993:995   */\n      0x20\n        /* \"#utility.yul\":982:991   */\n      dup3\n        /* \"#utility.yul\":978:996   */\n      add\n        /* \"#utility.yul\":970:996   */\n      swap1\n      pop\n        /* \"#utility.yul\":1006:1071   */\n      tag_96\n        /* \"#utility.yul\":1068:1069   */\n      0x00\n        /* \"#utility.yul\":1057:1066   */\n      dup4\n        /* \"#utility.yul\":1053:1070   */\n      add\n        /* \"#utility.yul\":1044:1050   */\n      dup5\n        /* \"#utility.yul\":1006:1071   */\n      tag_69\n      jump\t// in\n    tag_96:\n        /* \"#utility.yul\":868:1078   */\n      swap3\n      swap2\n      pop\n      pop\n      jump\t// out\n        /* \"#utility.yul\":1084:1161   */\n    tag_70:\n        /* \"#utility.yul\":1121:1128   */\n      0x00\n        /* \"#utility.yul\":1150:1155   */\n      dup2\n        /* \"#utility.yul\":1139:1155   */\n      swap1\n      pop\n        /* \"#utility.yul\":1084:1161   */\n      swap2\n      swap1\n      pop\n      jump\t// out\n        /* \"#utility.yul\":1167:1285   */\n    tag_71:\n        /* \"#utility.yul\":1254:1278   */\n      tag_99\n        /* \"#utility.yul\":1272:1277   */\n      dup2\n        /* \"#utility.yul\":1254:1278   */\n      tag_70\n      jump\t// in\n    tag_99:\n        /* \"#utility.yul\":1249:1252   */\n      dup3\n        /* \"#utility.yul\":1242:1279   */\n      mstore\n        /* \"#utility.yul\":1167:1285   */\n      pop\n      pop\n      jump\t// out\n        /* \"#utility.yul\":1291:1513   */\n    tag_29:\n        /* \"#utility.yul\":1384:1388   */\n      0x00\n        /* \"#utility.yul\":1422:1424   */\n      0x20\n        /* \"#utility.yul\":1411:1420   */\n      dup3\n        /* \"#utility.yul\":1407:1425   */\n      add\n        /* \"#utility.yul\":1399:1425   */\n      swap1\n      pop\n        /* \"#utility.yul\":1435:1506   */\n      tag_101\n        /* \"#utility.yul\":1503:1504   */\n      0x00\n        /* \"#utility.yul\":1492:1501   */\n      dup4\n        /* \"#utility.yul\":1488:1505   */\n      add\n        /* \"#utility.yul\":1479:1485   */\n      dup5\n        /* \"#utility.yul\":1435:1506   */\n      tag_71\n      jump\t// in\n    tag_101:\n        /* \"#utility.yul\":1291:1513   */\n      swap3\n      swap2\n      pop\n      pop\n      jump\t// out\n        /* \"#utility.yul\":1519:1615   */\n    tag_72:\n        /* \"#utility.yul\":1556:1563   */\n      0x00\n        /* \"#utility.yul\":1585:1609   */\n      tag_103\n        /* \"#utility.yul\":1603:1608   */\n      dup3\n        /* \"#utility.yul\":1585:1609   */\n      tag_65\n      jump\t// in\n    tag_103:\n        /* \"#utility.yul\":1574:1609   */\n      swap1\n      pop\n        /* \"#utility.yul\":1519:1615   */\n      swap2\n      swap1\n      pop\n      jump\t// out\n        /* \"#utility.yul\":1621:1739   */\n    tag_73:\n        /* \"#utility.yul\":1708:1732   */\n      tag_105\n        /* \"#utility.yul\":1726:1731   */\n      dup2\n        /* \"#utility.yul\":1708:1732   */\n      tag_72\n      jump\t// in\n    tag_105:\n        /* \"#utility.yul\":1703:1706   */\n      dup3\n        /* \"#utility.yul\":1696:1733   */\n      mstore\n        /* \"#utility.yul\":1621:1739   */\n      pop\n      pop\n      jump\t// out\n        /* \"#utility.yul\":1745:1967   */\n    tag_34:\n        /* \"#utility.yul\":1838:1842   */\n      0x00\n        /* \"#utility.yul\":1876:1878   */\n      0x20\n        /* \"#utility.yul\":1865:1874   */\n      dup3\n        /* \"#utility.yul\":1861:1879   */\n      add\n        /* \"#utility.yul\":1853:1879   */\n      swap1\n      pop\n        /* \"#utility.yul\":1889:1960   */\n      tag_107\n        /* \"#utility.yul\":1957:1958   */\n      0x00\n        /* \"#utility.yul\":1946:1955   */\n      dup4\n        /* \"#utility.yul\":1942:1959   */\n      add\n        /* \"#utility.yul\":1933:1939   */\n      dup5\n        /* \"#utility.yul\":1889:1960   */\n      tag_73\n      jump\t// in\n    tag_107:\n        /* \"#utility.yul\":1745:1967   */\n      swap3\n      swap2\n      pop\n      pop\n      jump\t// out\n        /* \"#utility.yul\":1973:2142   */\n    tag_74:\n        /* \"#utility.yul\":2057:2068   */\n      0x00\n        /* \"#utility.yul\":2091:2097   */\n      dup3\n        /* \"#utility.yul\":2086:2089   */\n      dup3\n        /* \"#utility.yul\":2079:2098   */\n      mstore\n        /* \"#utility.yul\":2131:2135   */\n      0x20\n        /* \"#utility.yul\":2126:2129   */\n      dup3\n        /* \"#utility.yul\":2122:2136   */\n      add\n        /* \"#utility.yul\":2107:2136   */\n      swap1\n      pop\n        /* \"#utility.yul\":1973:2142   */\n      swap3\n      swap2\n      pop\n      pop\n      jump\t// out\n        /* \"#utility.yul\":2148:2320   */\n    tag_75:\n        /* \"#utility.yul\":2288:2312   */\n      0x41756374696f6e20616c726561647920656e6465642e00000000000000000000\n        /* \"#utility.yul\":2284:2285   */\n      0x00\n        /* \"#utility.yul\":2276:2282   */\n      dup3\n        /* \"#utility.yul\":2272:2286   */\n      add\n        /* \"#utility.yul\":2265:2313   */\n      mstore\n        /* \"#utility.yul\":2148:2320   */\n      pop\n      jump\t// out\n        /* \"#utility.yul\":2326:2692   */\n    tag_76:\n        /* \"#utility.yul\":2468:2471   */\n      0x00\n        /* \"#utility.yul\":2489:2556   */\n      tag_111\n        /* \"#utility.yul\":2553:2555   */\n      0x16\n        /* \"#utility.yul\":2548:2551   */\n      dup4\n        /* \"#utility.yul\":2489:2556   */\n      tag_74\n      jump\t// in\n    tag_111:\n        /* \"#utility.yul\":2482:2556   */\n      swap2\n      pop\n        /* \"#utility.yul\":2565:2658   */\n      tag_112\n        /* \"#utility.yul\":2654:2657   */\n      dup3\n        /* \"#utility.yul\":2565:2658   */\n      tag_75\n      jump\t// in\n    tag_112:\n        /* \"#utility.yul\":2683:2685   */\n      0x20\n        /* \"#utility.yul\":2678:2681   */\n      dup3\n        /* \"#utility.yul\":2674:2686   */\n      add\n        /* \"#utility.yul\":2667:2686   */\n      swap1\n      pop\n        /* \"#utility.yul\":2326:2692   */\n      swap2\n      swap1\n      pop\n      jump\t// out\n        /* \"#utility.yul\":2698:3117   */\n    tag_42:\n        /* \"#utility.yul\":2864:2868   */\n      0x00\n        /* \"#utility.yul\":2902:2904   */\n      0x20\n        /* \"#utility.yul\":2891:2900   */\n      dup3\n        /* \"#utility.yul\":2887:2905   */\n      add\n        /* \"#utility.yul\":2879:2905   */\n      swap1\n      pop\n        /* \"#utility.yul\":2951:2960   */\n      dup2\n        /* \"#utility.yul\":2945:2949   */\n      dup2\n        /* \"#utility.yul\":2941:2961   */\n      sub\n        /* \"#utility.yul\":2937:2938   */\n      0x00\n        /* \"#utility.yul\":2926:2935   */\n      dup4\n        /* \"#utility.yul\":2922:2939   */\n      add\n        /* \"#utility.yul\":2915:2962   */\n      mstore\n        /* \"#utility.yul\":2979:3110   */\n      tag_114\n        /* \"#utility.yul\":3105:3109   */\n      dup2\n        /* \"#utility.yul\":2979:3110   */\n      tag_76\n      jump\t// in\n    tag_114:\n        /* \"#utility.yul\":2971:3110   */\n      swap1\n      pop\n        /* \"#utility.yul\":2698:3117   */\n      swap2\n      swap1\n      pop\n      jump\t// out\n        /* \"#utility.yul\":3123:3303   */\n    tag_77:\n        /* \"#utility.yul\":3263:3295   */\n      0x546865726520616c7265616479206973206120686967686572206269642e0000\n        /* \"#utility.yul\":3259:3260   */\n      0x00\n        /* \"#utility.yul\":3251:3257   */\n      dup3\n        /* \"#utility.yul\":3247:3261   */\n      add\n        /* \"#utility.yul\":3240:3296   */\n      mstore\n        /* \"#utility.yul\":3123:3303   */\n      pop\n      jump\t// out\n        /* \"#utility.yul\":3309:3675   */\n    tag_78:\n        /* \"#utility.yul\":3451:3454   */\n      0x00\n        /* \"#utility.yul\":3472:3539   */\n      tag_117\n        /* \"#utility.yul\":3536:3538   */\n      0x1e\n        /* \"#utility.yul\":3531:3534   */\n      dup4\n        /* \"#utility.yul\":3472:3539   */\n      tag_74\n      jump\t// in\n    tag_117:\n        /* \"#utility.yul\":3465:3539   */\n      swap2\n      pop\n        /* \"#utility.yul\":3548:3641   */\n      tag_118\n        /* \"#utility.yul\":3637:3640   */\n      dup3\n        /* \"#utility.yul\":3548:3641   */\n      tag_77\n      jump\t// in\n    tag_118:\n        /* \"#utility.yul\":3666:3668   */\n      0x20\n        /* \"#utility.yul\":3661:3664   */\n      dup3\n        /* \"#utility.yul\":3657:3669   */\n      add\n        /* \"#utility.yul\":3650:3669   */\n      swap1\n      pop\n        /* \"#utility.yul\":3309:3675   */\n      swap2\n      swap1\n      pop\n      jump\t// out\n        /* \"#utility.yul\":3681:4100   */\n    tag_45:\n        /* \"#utility.yul\":3847:3851   */\n      0x00\n        /* \"#utility.yul\":3885:3887   */\n      0x20\n        /* \"#utility.yul\":3874:3883   */\n      dup3\n        /* \"#utility.yul\":3870:3888   */\n      add\n        /* \"#utility.yul\":3862:3888   */\n      swap1\n      pop\n        /* \"#utility.yul\":3934:3943   */\n      dup2\n        /* \"#utility.yul\":3928:3932   */\n      dup2\n        /* \"#utility.yul\":3924:3944   */\n      sub\n        /* \"#utility.yul\":3920:3921   */\n      0x00\n        /* \"#utility.yul\":3909:3918   */\n      dup4\n        /* \"#utility.yul\":3905:3922   */\n      add\n        /* \"#utility.yul\":3898:3945   */\n      mstore\n        /* \"#utility.yul\":3962:4093   */\n      tag_120\n        /* \"#utility.yul\":4088:4092   */\n      dup2\n        /* \"#utility.yul\":3962:4093   */\n      tag_78\n      jump\t// in\n    tag_120:\n        /* \"#utility.yul\":3954:4093   */\n      swap1\n      pop\n        /* \"#utility.yul\":3681:4100   */\n      swap2\n      swap1\n      pop\n      jump\t// out\n        /* \"#utility.yul\":4106:4286   */\n    tag_79:\n        /* \"#utility.yul\":4154:4231   */\n      0x4e487b7100000000000000000000000000000000000000000000000000000000\n        /* \"#utility.yul\":4151:4152   */\n      0x00\n        /* \"#utility.yul\":4144:4232   */\n      mstore\n        /* \"#utility.yul\":4251:4255   */\n      0x11\n        /* \"#utility.yul\":4248:4249   */\n      0x04\n        /* \"#utility.yul\":4241:4256   */\n      mstore\n        /* \"#utility.yul\":4275:4279   */\n      0x24\n        /* \"#utility.yul\":4272:4273   */\n      0x00\n        /* \"#utility.yul\":4265:4280   */\n      revert\n        /* \"#utility.yul\":4292:4483   */\n    tag_48:\n        /* \"#utility.yul\":4332:4335   */\n      0x00\n        /* \"#utility.yul\":4351:4371   */\n      tag_123\n        /* \"#utility.yul\":4369:4370   */\n      dup3\n        /* \"#utility.yul\":4351:4371   */\n      tag_70\n      jump\t// in\n    tag_123:\n        /* \"#utility.yul\":4346:4371   */\n      swap2\n      pop\n        /* \"#utility.yul\":4385:4405   */\n      tag_124\n        /* \"#utility.yul\":4403:4404   */\n      dup4\n        /* \"#utility.yul\":4385:4405   */\n      tag_70\n      jump\t// in\n    tag_124:\n        /* \"#utility.yul\":4380:4405   */\n      swap3\n      pop\n        /* \"#utility.yul\":4428:4429   */\n      dup3\n        /* \"#utility.yul\":4425:4426   */\n      dup3\n        /* \"#utility.yul\":4421:4430   */\n      add\n        /* \"#utility.yul\":4414:4430   */\n      swap1\n      pop\n        /* \"#utility.yul\":4449:4452   */\n      dup1\n        /* \"#utility.yul\":4446:4447   */\n      dup3\n        /* \"#utility.yul\":4443:4453   */\n      gt\n        /* \"#utility.yul\":4440:4476   */\n      iszero\n      tag_125\n      jumpi\n        /* \"#utility.yul\":4456:4474   */\n      tag_126\n      tag_79\n      jump\t// in\n    tag_126:\n        /* \"#utility.yul\":4440:4476   */\n    tag_125:\n        /* \"#utility.yul\":4292:4483   */\n      swap3\n      swap2\n      pop\n      pop\n      jump\t// out\n        /* \"#utility.yul\":4489:4821   */\n    tag_50:\n        /* \"#utility.yul\":4610:4614   */\n      0x00\n        /* \"#utility.yul\":4648:4650   */\n      0x40\n        /* \"#utility.yul\":4637:4646   */\n      dup3\n        /* \"#utility.yul\":4633:4651   */\n      add\n        /* \"#utility.yul\":4625:4651   */\n      swap1\n      pop\n        /* \"#utility.yul\":4661:4732   */\n      tag_128\n        /* \"#utility.yul\":4729:4730   */\n      0x00\n        /* \"#utility.yul\":4718:4727   */\n      dup4\n        /* \"#utility.yul\":4714:4731   */\n      add\n        /* \"#utility.yul\":4705:4711   */\n      dup6\n        /* \"#utility.yul\":4661:4732   */\n      tag_73\n      jump\t// in\n    tag_128:\n        /* \"#utility.yul\":4742:4814   */\n      tag_129\n        /* \"#utility.yul\":4810:4812   */\n      0x20\n        /* \"#utility.yul\":4799:4808   */\n      dup4\n        /* \"#utility.yul\":4795:4813   */\n      add\n        /* \"#utility.yul\":4786:4792   */\n      dup5\n        /* \"#utility.yul\":4742:4814   */\n      tag_71\n      jump\t// in\n    tag_129:\n        /* \"#utility.yul\":4489:4821   */\n      swap4\n      swap3\n      pop\n      pop\n      pop\n      jump\t// out\n        /* \"#utility.yul\":4827:4999   */\n    tag_80:\n        /* \"#utility.yul\":4967:4991   */\n      0x41756374696f6e206e6f742079657420656e6465642e00000000000000000000\n        /* \"#utility.yul\":4963:4964   */\n      0x00\n        /* \"#utility.yul\":4955:4961   */\n      dup3\n        /* \"#utility.yul\":4951:4965   */\n      add\n        /* \"#utility.yul\":4944:4992   */\n      mstore\n        /* \"#utility.yul\":4827:4999   */\n      pop\n      jump\t// out\n        /* \"#utility.yul\":5005:5371   */\n    tag_81:\n        /* \"#utility.yul\":5147:5150   */\n      0x00\n        /* \"#utility.yul\":5168:5235   */\n      tag_132\n        /* \"#utility.yul\":5232:5234   */\n      0x16\n        /* \"#utility.yul\":5227:5230   */\n      dup4\n        /* \"#utility.yul\":5168:5235   */\n      tag_74\n      jump\t// in\n    tag_132:\n        /* \"#utility.yul\":5161:5235   */\n      swap2\n      pop\n        /* \"#utility.yul\":5244:5337   */\n      tag_133\n        /* \"#utility.yul\":5333:5336   */\n      dup3\n        /* \"#utility.yul\":5244:5337   */\n      tag_80\n      jump\t// in\n    tag_133:\n        /* \"#utility.yul\":5362:5364   */\n      0x20\n        /* \"#utility.yul\":5357:5360   */\n      dup3\n        /* \"#utility.yul\":5353:5365   */\n      add\n        /* \"#utility.yul\":5346:5365   */\n      swap1\n      pop\n        /* \"#utility.yul\":5005:5371   */\n      swap2\n      swap1\n      pop\n      jump\t// out\n        /* \"#utility.yul\":5377:5796   */\n    tag_54:\n        /* \"#utility.yul\":5543:5547   */\n      0x00\n        /* \"#utility.yul\":5581:5583   */\n      0x20\n        /* \"#utility.yul\":5570:5579   */\n      dup3\n        /* \"#utility.yul\":5566:5584   */\n      add\n        /* \"#utility.yul\":5558:5584   */\n      swap1\n      pop\n        /* \"#utility.yul\":5630:5639   */\n      dup2\n        /* \"#utility.yul\":5624:5628   */\n      dup2\n        /* \"#utility.yul\":5620:5640   */\n      sub\n        /* \"#utility.yul\":5616:5617   */\n      0x00\n        /* \"#utility.yul\":5605:5614   */\n      dup4\n        /* \"#utility.yul\":5601:5618   */\n      add\n        /* \"#utility.yul\":5594:5641   */\n      mstore\n        /* \"#utility.yul\":5658:5789   */\n      tag_135\n        /* \"#utility.yul\":5784:5788   */\n      dup2\n        /* \"#utility.yul\":5658:5789   */\n      tag_81\n      jump\t// in\n    tag_135:\n        /* \"#utility.yul\":5650:5789   */\n      swap1\n      pop\n        /* \"#utility.yul\":5377:5796   */\n      swap2\n      swap1\n      pop\n      jump\t// out\n        /* \"#utility.yul\":5802:6024   */\n    tag_82:\n        /* \"#utility.yul\":5942:5976   */\n      0x61756374696f6e456e642068617320616c7265616479206265656e2063616c6c\n        /* \"#utility.yul\":5938:5939   */\n      0x00\n        /* \"#utility.yul\":5930:5936   */\n      dup3\n        /* \"#utility.yul\":5926:5940   */\n      add\n        /* \"#utility.yul\":5919:5977   */\n      mstore\n        /* \"#utility.yul\":6011:6016   */\n      0x65642e0000000000000000000000000000000000000000000000000000000000\n        /* \"#utility.yul\":6006:6008   */\n      0x20\n        /* \"#utility.yul\":5998:6004   */\n      dup3\n        /* \"#utility.yul\":5994:6009   */\n      add\n        /* \"#utility.yul\":5987:6017   */\n      mstore\n        /* \"#utility.yul\":5802:6024   */\n      pop\n      jump\t// out\n        /* \"#utility.yul\":6030:6396   */\n    tag_83:\n        /* \"#utility.yul\":6172:6175   */\n      0x00\n        /* \"#utility.yul\":6193:6260   */\n      tag_138\n        /* \"#utility.yul\":6257:6259   */\n      0x23\n        /* \"#utility.yul\":6252:6255   */\n      dup4\n        /* \"#utility.yul\":6193:6260   */\n      tag_74\n      jump\t// in\n    tag_138:\n        /* \"#utility.yul\":6186:6260   */\n      swap2\n      pop\n        /* \"#utility.yul\":6269:6362   */\n      tag_139\n        /* \"#utility.yul\":6358:6361   */\n      dup3\n        /* \"#utility.yul\":6269:6362   */\n      tag_82\n      jump\t// in\n    tag_139:\n        /* \"#utility.yul\":6387:6389   */\n      0x40\n        /* \"#utility.yul\":6382:6385   */\n      dup3\n        /* \"#utility.yul\":6378:6390   */\n      add\n        /* \"#utility.yul\":6371:6390   */\n      swap1\n      pop\n        /* \"#utility.yul\":6030:6396   */\n      swap2\n      swap1\n      pop\n      jump\t// out\n        /* \"#utility.yul\":6402:6821   */\n    tag_57:\n        /* \"#utility.yul\":6568:6572   */\n      0x00\n        /* \"#utility.yul\":6606:6608   */\n      0x20\n        /* \"#utility.yul\":6595:6604   */\n      dup3\n        /* \"#utility.yul\":6591:6609   */\n      add\n        /* \"#utility.yul\":6583:6609   */\n      swap1\n      pop\n        /* \"#utility.yul\":6655:6664   */\n      dup2\n        /* \"#utility.yul\":6649:6653   */\n      dup2\n        /* \"#utility.yul\":6645:6665   */\n      sub\n        /* \"#utility.yul\":6641:6642   */\n      0x00\n        /* \"#utility.yul\":6630:6639   */\n      dup4\n        /* \"#utility.yul\":6626:6643   */\n      add\n        /* \"#utility.yul\":6619:6666   */\n      mstore\n        /* \"#utility.yul\":6683:6814   */\n      tag_141\n        /* \"#utility.yul\":6809:6813   */\n      dup2\n        /* \"#utility.yul\":6683:6814   */\n      tag_83\n      jump\t// in\n    tag_141:\n        /* \"#utility.yul\":6675:6814   */\n      swap1\n      pop\n        /* \"#utility.yul\":6402:6821   */\n      swap2\n      swap1\n      pop\n      jump\t// out\n\n    auxdata: 0xa26469706673582212204a3140cc5f60b32af06f7e6953483914f3215ecab127cd22418aea6c6f60b03b64736f6c63430008160033\n}\n",
				"bytecode": {
					"linkReferences": {},
					"object": "608060405234801562000010575f80fd5b5060405162000b3e38038062000b3e83398181016040528101906200003691906200012e565b805f806101000a81548173ffffffffffffffffffffffffffffffffffffffff021916908373ffffffffffffffffffffffffffffffffffffffff1602179055508142620000839190620001a0565b6001819055505050620001da565b5f80fd5b5f819050919050565b620000a98162000095565b8114620000b4575f80fd5b50565b5f81519050620000c7816200009e565b92915050565b5f73ffffffffffffffffffffffffffffffffffffffff82169050919050565b5f620000f882620000cd565b9050919050565b6200010a81620000ec565b811462000115575f80fd5b50565b5f815190506200012881620000ff565b92915050565b5f806040838503121562000147576200014662000091565b5b5f6200015685828601620000b7565b9250506020620001698582860162000118565b9150509250929050565b7f4e487b71000000000000000000000000000000000000000000000000000000005f52601160045260245ffd5b5f620001ac8262000095565b9150620001b98362000095565b9250828201905080821115620001d457620001d362000173565b5b92915050565b61095680620001e85f395ff3fe60806040526004361061006f575f3560e01c80633ccfd60b1161004d5780633ccfd60b146100bd5780634b449cba146100e757806391f9015714610111578063d57bde791461013b5761006f565b80631998aeef146100735780632a24f46c1461007d57806338af3eed14610093575b5f80fd5b61007b610165565b005b348015610088575f80fd5b506100916102f0565b005b34801561009e575f80fd5b506100a7610461565b6040516100b4919061060d565b60405180910390f35b3480156100c8575f80fd5b506100d1610484565b6040516100de9190610640565b60405180910390f35b3480156100f2575f80fd5b506100fb61059d565b6040516101089190610671565b60405180910390f35b34801561011c575f80fd5b506101256105a3565b60405161013291906106aa565b60405180910390f35b348015610146575f80fd5b5061014f6105c8565b60405161015c9190610671565b60405180910390f35b6001544211156101aa576040517f08c379a00000000000000000000000000000000000000000000000000000000081526004016101a19061071d565b60405180910390fd5b60035434116101ee576040517f08c379a00000000000000000000000000000000000000000000000000000000081526004016101e590610785565b60405180910390fd5b5f6003541461026e5760035460045f60025f9054906101000a900473ffffffffffffffffffffffffffffffffffffffff1673ffffffffffffffffffffffffffffffffffffffff1673ffffffffffffffffffffffffffffffffffffffff1681526020019081526020015f205f82825461026691906107d0565b925050819055505b3360025f6101000a81548173ffffffffffffffffffffffffffffffffffffffff021916908373ffffffffffffffffffffffffffffffffffffffff160217905550346003819055507ff4757a49b326036464bec6fe419a4ae38c8a02ce3e68bf0809674f6aab8ad30033346040516102e6929190610803565b60405180910390a1565b600154421015610335576040517f08c379a000000000000000000000000000000000000000000000000000000000815260040161032c90610874565b60405180910390fd5b60055f9054906101000a900460ff1615610384576040517f08c379a000000000000000000000000000000000000000000000000000000000815260040161037b90610902565b60405180910390fd5b600160055f6101000a81548160ff0219169083151502179055507fdaec4582d5d9595688c8c98545fdd1c696d41c6aeaeb636737e84ed2f5c00eda60025f9054906101000a900473ffffffffffffffffffffffffffffffffffffffff166003546040516103f2929190610803565b60405180910390a15f8054906101000a900473ffffffffffffffffffffffffffffffffffffffff1673ffffffffffffffffffffffffffffffffffffffff166108fc60035490811502906040515f60405180830381858888f1935050505015801561045e573d5f803e3d5ffd5b50565b5f8054906101000a900473ffffffffffffffffffffffffffffffffffffffff1681565b5f8060045f3373ffffffffffffffffffffffffffffffffffffffff1673ffffffffffffffffffffffffffffffffffffffff1681526020019081526020015f205490505f811115610594575f60045f3373ffffffffffffffffffffffffffffffffffffffff1673ffffffffffffffffffffffffffffffffffffffff1681526020019081526020015f20819055503373ffffffffffffffffffffffffffffffffffffffff166108fc8290811502906040515f60405180830381858888f19350505050610593578060045f3373ffffffffffffffffffffffffffffffffffffffff1673ffffffffffffffffffffffffffffffffffffffff1681526020019081526020015f20819055505f91505061059a565b5b60019150505b90565b60015481565b60025f9054906101000a900473ffffffffffffffffffffffffffffffffffffffff1681565b60035481565b5f73ffffffffffffffffffffffffffffffffffffffff82169050919050565b5f6105f7826105ce565b9050919050565b610607816105ed565b82525050565b5f6020820190506106205f8301846105fe565b92915050565b5f8115159050919050565b61063a81610626565b82525050565b5f6020820190506106535f830184610631565b92915050565b5f819050919050565b61066b81610659565b82525050565b5f6020820190506106845f830184610662565b92915050565b5f610694826105ce565b9050919050565b6106a48161068a565b82525050565b5f6020820190506106bd5f83018461069b565b92915050565b5f82825260208201905092915050565b7f41756374696f6e20616c726561647920656e6465642e000000000000000000005f82015250565b5f6107076016836106c3565b9150610712826106d3565b602082019050919050565b5f6020820190508181035f830152610734816106fb565b9050919050565b7f546865726520616c7265616479206973206120686967686572206269642e00005f82015250565b5f61076f601e836106c3565b915061077a8261073b565b602082019050919050565b5f6020820190508181035f83015261079c81610763565b9050919050565b7f4e487b71000000000000000000000000000000000000000000000000000000005f52601160045260245ffd5b5f6107da82610659565b91506107e583610659565b92508282019050808211156107fd576107fc6107a3565b5b92915050565b5f6040820190506108165f83018561069b565b6108236020830184610662565b9392505050565b7f41756374696f6e206e6f742079657420656e6465642e000000000000000000005f82015250565b5f61085e6016836106c3565b91506108698261082a565b602082019050919050565b5f6020820190508181035f83015261088b81610852565b9050919050565b7f61756374696f6e456e642068617320616c7265616479206265656e2063616c6c5f8201527f65642e0000000000000000000000000000000000000000000000000000000000602082015250565b5f6108ec6023836106c3565b91506108f782610892565b604082019050919050565b5f6020820190508181035f830152610919816108e0565b905091905056fea26469706673582212204a3140cc5f60b32af06f7e6953483914f3215ecab127cd22418aea6c6f60b03b64736f6c63430008160033",
					"opcodes": "PUSH1 0x80 PUSH1 0x40 MSTORE CALLVALUE DUP1 ISZERO PUSH3 0x10 JUMPI PUSH0 DUP1 REVERT JUMPDEST POP PUSH1 0x40 MLOAD PUSH3 0xB3E CODESIZE SUB DUP1 PUSH3 0xB3E DUP4 CODECOPY DUP2 DUP2 ADD PUSH1 0x40 MSTORE DUP2 ADD SWAP1 PUSH3 0x36 SWAP2 SWAP1 PUSH3 0x12E JUMP JUMPDEST DUP1 PUSH0 DUP1 PUSH2 0x100 EXP DUP2 SLOAD DUP2 PUSH20 0xFFFFFFFFFFFFFFFFFFFFFFFFFFFFFFFFFFFFFFFF MUL NOT AND SWAP1 DUP4 PUSH20 0xFFFFFFFFFFFFFFFFFFFFFFFFFFFFFFFFFFFFFFFF AND MUL OR SWAP1 SSTORE POP DUP2 TIMESTAMP PUSH3 0x83 SWAP2 SWAP1 PUSH3 0x1A0 JUMP JUMPDEST PUSH1 0x1 DUP2 SWAP1 SSTORE POP POP POP PUSH3 0x1DA JUMP JUMPDEST PUSH0 DUP1 REVERT JUMPDEST PUSH0 DUP2 SWAP1 POP SWAP2 SWAP1 POP JUMP JUMPDEST PUSH3 0xA9 DUP2 PUSH3 0x95 JUMP JUMPDEST DUP2 EQ PUSH3 0xB4 JUMPI PUSH0 DUP1 REVERT JUMPDEST POP JUMP JUMPDEST PUSH0 DUP2 MLOAD SWAP1 POP PUSH3 0xC7 DUP2 PUSH3 0x9E JUMP JUMPDEST SWAP3 SWAP2 POP POP JUMP JUMPDEST PUSH0 PUSH20 0xFFFFFFFFFFFFFFFFFFFFFFFFFFFFFFFFFFFFFFFF DUP3 AND SWAP1 POP SWAP2 SWAP1 POP JUMP JUMPDEST PUSH0 PUSH3 0xF8 DUP3 PUSH3 0xCD JUMP JUMPDEST SWAP1 POP SWAP2 SWAP1 POP JUMP JUMPDEST PUSH3 0x10A DUP2 PUSH3 0xEC JUMP JUMPDEST DUP2 EQ PUSH3 0x115 JUMPI PUSH0 DUP1 REVERT JUMPDEST POP JUMP JUMPDEST PUSH0 DUP2 MLOAD SWAP1 POP PUSH3 0x128 DUP2 PUSH3 0xFF JUMP JUMPDEST SWAP3 SWAP2 POP POP JUMP JUMPDEST PUSH0 DUP1 PUSH1 0x40 DUP4 DUP6 SUB SLT ISZERO PUSH3 0x147 JUMPI PUSH3 0x146 PUSH3 0x91 JUMP JUMPDEST JUMPDEST PUSH0 PUSH3 0x156 DUP6 DUP3 DUP7 ADD PUSH3 0xB7 JUMP JUMPDEST SWAP3 POP POP PUSH1 0x20 PUSH3 0x169 DUP6 DUP3 DUP7 ADD PUSH3 0x118 JUMP JUMPDEST SWAP2 POP POP SWAP3 POP SWAP3 SWAP1 POP JUMP JUMPDEST PUSH32 0x4E487B7100000000000000000000000000000000000000000000000000000000 PUSH0 MSTORE PUSH1 0x11 PUSH1 0x4 MSTORE PUSH1 0x24 PUSH0 REVERT JUMPDEST PUSH0 PUSH3 0x1AC DUP3 PUSH3 0x95 JUMP JUMPDEST SWAP2 POP PUSH3 0x1B9 DUP4 PUSH3 0x95 JUMP JUMPDEST SWAP3 POP DUP3 DUP3 ADD SWAP1 POP DUP1 DUP3 GT ISZERO PUSH3 0x1D4 JUMPI PUSH3 0x1D3 PUSH3 0x173 JUMP JUMPDEST JUMPDEST SWAP3 SWAP2 POP POP JUMP JUMPDEST PUSH2 0x956 DUP1 PUSH3 0x1E8 PUSH0 CODECOPY PUSH0 RETURN INVALID PUSH1 0x80 PUSH1 0x40 MSTORE PUSH1 0x4 CALLDATASIZE LT PUSH2 0x6F JUMPI PUSH0 CALLDATALOAD PUSH1 0xE0 SHR DUP1 PUSH4 0x3CCFD60B GT PUSH2 0x4D JUMPI DUP1 PUSH4 0x3CCFD60B EQ PUSH2 0xBD JUMPI DUP1 PUSH4 0x4B449CBA EQ PUSH2 0xE7 JUMPI DUP1 PUSH4 0x91F90157 EQ PUSH2 0x111 JUMPI DUP1 PUSH4 0xD57BDE79 EQ PUSH2 0x13B JUMPI PUSH2 0x6F JUMP JUMPDEST DUP1 PUSH4 0x1998AEEF EQ PUSH2 0x73 JUMPI DUP1 PUSH4 0x2A24F46C EQ PUSH2 0x7D JUMPI DUP1 PUSH4 0x38AF3EED EQ PUSH2 0x93 JUMPI JUMPDEST PUSH0 DUP1 REVERT JUMPDEST PUSH2 0x7B PUSH2 0x165 JUMP JUMPDEST STOP JUMPDEST CALLVALUE DUP1 ISZERO PUSH2 0x88 JUMPI PUSH0 DUP1 REVERT JUMPDEST POP PUSH2 0x91 PUSH2 0x2F0 JUMP JUMPDEST STOP JUMPDEST CALLVALUE DUP1 ISZERO PUSH2 0x9E JUMPI PUSH0 DUP1 REVERT JUMPDEST POP PUSH2 0xA7 PUSH2 0x461 JUMP JUMPDEST PUSH1 0x40 MLOAD PUSH2 0xB4 SWAP2 SWAP1 PUSH2 0x60D JUMP JUMPDEST PUSH1 0x40 MLOAD DUP1 SWAP2 SUB SWAP1 RETURN JUMPDEST CALLVALUE DUP1 ISZERO PUSH2 0xC8 JUMPI PUSH0 DUP1 REVERT JUMPDEST POP PUSH2 0xD1 PUSH2 0x484 JUMP JUMPDEST PUSH1 0x40 MLOAD PUSH2 0xDE SWAP2 SWAP1 PUSH2 0x640 JUMP JUMPDEST PUSH1 0x40 MLOAD DUP1 SWAP2 SUB SWAP1 RETURN JUMPDEST CALLVALUE DUP1 ISZERO PUSH2 0xF2 JUMPI PUSH0 DUP1 REVERT JUMPDEST POP PUSH2 0xFB PUSH2 0x59D JUMP JUMPDEST PUSH1 0x40 MLOAD PUSH2 0x108 SWAP2 SWAP1 PUSH2 0x671 JUMP JUMPDEST PUSH1 0x40 MLOAD DUP1 SWAP2 SUB SWAP1 RETURN JUMPDEST CALLVALUE DUP1 ISZERO PUSH2 0x11C JUMPI PUSH0 DUP1 REVERT JUMPDEST POP PUSH2 0x125 PUSH2 0x5A3 JUMP JUMPDEST PUSH1 0x40 MLOAD PUSH2 0x132 SWAP2 SWAP1 PUSH2 0x6AA JUMP JUMPDEST PUSH1 0x40 MLOAD DUP1 SWAP2 SUB SWAP1 RETURN JUMPDEST CALLVALUE DUP1 ISZERO PUSH2 0x146 JUMPI PUSH0 DUP1 REVERT JUMPDEST POP PUSH2 0x14F PUSH2 0x5C8 JUMP JUMPDEST PUSH1 0x40 MLOAD PUSH2 0x15C SWAP2 SWAP1 PUSH2 0x671 JUMP JUMPDEST PUSH1 0x40 MLOAD DUP1 SWAP2 SUB SWAP1 RETURN JUMPDEST PUSH1 0x1 SLOAD TIMESTAMP GT ISZERO PUSH2 0x1AA JUMPI PUSH1 0x40 MLOAD PUSH32 0x8C379A000000000000000000000000000000000000000000000000000000000 DUP2 MSTORE PUSH1 0x4 ADD PUSH2 0x1A1 SWAP1 PUSH2 0x71D JUMP JUMPDEST PUSH1 0x40 MLOAD DUP1 SWAP2 SUB SWAP1 REVERT JUMPDEST PUSH1 0x3 SLOAD CALLVALUE GT PUSH2 0x1EE JUMPI PUSH1 0x40 MLOAD PUSH32 0x8C379A000000000000000000000000000000000000000000000000000000000 DUP2 MSTORE PUSH1 0x4 ADD PUSH2 0x1E5 SWAP1 PUSH2 0x785 JUMP JUMPDEST PUSH1 0x40 MLOAD DUP1 SWAP2 SUB SWAP1 REVERT JUMPDEST PUSH0 PUSH1 0x3 SLOAD EQ PUSH2 0x26E JUMPI PUSH1 0x3 SLOAD PUSH1 0x4 PUSH0 PUSH1 0x2 PUSH0 SWAP1 SLOAD SWAP1 PUSH2 0x100 EXP SWAP1 DIV PUSH20 0xFFFFFFFFFFFFFFFFFFFFFFFFFFFFFFFFFFFFFFFF AND PUSH20 0xFFFFFFFFFFFFFFFFFFFFFFFFFFFFFFFFFFFFFFFF AND PUSH20 0xFFFFFFFFFFFFFFFFFFFFFFFFFFFFFFFFFFFFFFFF AND DUP2 MSTORE PUSH1 0x20 ADD SWAP1 DUP2 MSTORE PUSH1 0x20 ADD PUSH0 KECCAK256 PUSH0 DUP3 DUP3 SLOAD PUSH2 0x266 SWAP2 SWAP1 PUSH2 0x7D0 JUMP JUMPDEST SWAP3 POP POP DUP2 SWAP1 SSTORE POP JUMPDEST CALLER PUSH1 0x2 PUSH0 PUSH2 0x100 EXP DUP2 SLOAD DUP2 PUSH20 0xFFFFFFFFFFFFFFFFFFFFFFFFFFFFFFFFFFFFFFFF MUL NOT AND SWAP1 DUP4 PUSH20 0xFFFFFFFFFFFFFFFFFFFFFFFFFFFFFFFFFFFFFFFF AND MUL OR SWAP1 SSTORE POP CALLVALUE PUSH1 0x3 DUP2 SWAP1 SSTORE POP PUSH32 0xF4757A49B326036464BEC6FE419A4AE38C8A02CE3E68BF0809674F6AAB8AD300 CALLER CALLVALUE PUSH1 0x40 MLOAD PUSH2 0x2E6 SWAP3 SWAP2 SWAP1 PUSH2 0x803 JUMP JUMPDEST PUSH1 0x40 MLOAD DUP1 SWAP2 SUB SWAP1 LOG1 JUMP JUMPDEST PUSH1 0x1 SLOAD TIMESTAMP LT ISZERO PUSH2 0x335 JUMPI PUSH1 0x40 MLOAD PUSH32 0x8C379A000000000000000000000000000000000000000000000000000000000 DUP2 MSTORE PUSH1 0x4 ADD PUSH2 0x32C SWAP1 PUSH2 0x874 JUMP JUMPDEST PUSH1 0x40 MLOAD DUP1 SWAP2 SUB SWAP1 REVERT JUMPDEST PUSH1 0x5 PUSH0 SWAP1 SLOAD SWAP1 PUSH2 0x100 EXP SWAP1 DIV PUSH1 0xFF AND ISZERO PUSH2 0x384 JUMPI PUSH1 0x40 MLOAD PUSH32 0x8C379A000000000000000000000000000000000000000000000000000000000 DUP2 MSTORE PUSH1 0x4 ADD PUSH2 0x37B SWAP1 PUSH2 0x902 JUMP JUMPDEST PUSH1 0x40 MLOAD DUP1 SWAP2 SUB SWAP1 REVERT JUMPDEST PUSH1 0x1 PUSH1 0x5 PUSH0 PUSH2 0x100 EXP DUP2 SLOAD DUP2 PUSH1 0xFF MUL NOT AND SWAP1 DUP4 ISZERO ISZERO MUL OR SWAP1 SSTORE POP PUSH32 0xDAEC4582D5D9595688C8C98545FDD1C696D41C6AEAEB636737E84ED2F5C00EDA PUSH1 0x2 PUSH0 SWAP1 SLOAD SWAP1 PUSH2 0x100 EXP SWAP1 DIV PUSH20 0xFFFFFFFFFFFFFFFFFFFFFFFFFFFFFFFFFFFFFFFF AND PUSH1 0x3 SLOAD PUSH1 0x40 MLOAD PUSH2 0x3F2 SWAP3 SWAP2 SWAP1 PUSH2 0x803 JUMP JUMPDEST PUSH1 0x40 MLOAD DUP1 SWAP2 SUB SWAP1 LOG1 PUSH0 DUP1 SLOAD SWAP1 PUSH2 0x100 EXP SWAP1 DIV PUSH20 0xFFFFFFFFFFFFFFFFFFFFFFFFFFFFFFFFFFFFFFFF AND PUSH20 0xFFFFFFFFFFFFFFFFFFFFFFFFFFFFFFFFFFFFFFFF AND PUSH2 0x8FC PUSH1 0x3 SLOAD SWAP1 DUP2 ISZERO MUL SWAP1 PUSH1 0x40 MLOAD PUSH0 PUSH1 0x40 MLOAD DUP1 DUP4 SUB DUP2 DUP6 DUP9 DUP9 CALL SWAP4 POP POP POP POP ISZERO DUP1 ISZERO PUSH2 0x45E JUMPI RETURNDATASIZE PUSH0 DUP1 RETURNDATACOPY RETURNDATASIZE PUSH0 REVERT JUMPDEST POP JUMP JUMPDEST PUSH0 DUP1 SLOAD SWAP1 PUSH2 0x100 EXP SWAP1 DIV PUSH20 0xFFFFFFFFFFFFFFFFFFFFFFFFFFFFFFFFFFFFFFFF AND DUP2 JUMP JUMPDEST PUSH0 DUP1 PUSH1 0x4 PUSH0 CALLER PUSH20 0xFFFFFFFFFFFFFFFFFFFFFFFFFFFFFFFFFFFFFFFF AND PUSH20 0xFFFFFFFFFFFFFFFFFFFFFFFFFFFFFFFFFFFFFFFF AND DUP2 MSTORE PUSH1 0x20 ADD SWAP1 DUP2 MSTORE PUSH1 0x20 ADD PUSH0 KECCAK256 SLOAD SWAP1 POP PUSH0 DUP2 GT ISZERO PUSH2 0x594 JUMPI PUSH0 PUSH1 0x4 PUSH0 CALLER PUSH20 0xFFFFFFFFFFFFFFFFFFFFFFFFFFFFFFFFFFFFFFFF AND PUSH20 0xFFFFFFFFFFFFFFFFFFFFFFFFFFFFFFFFFFFFFFFF AND DUP2 MSTORE PUSH1 0x20 ADD SWAP1 DUP2 MSTORE PUSH1 0x20 ADD PUSH0 KECCAK256 DUP2 SWAP1 SSTORE POP CALLER PUSH20 0xFFFFFFFFFFFFFFFFFFFFFFFFFFFFFFFFFFFFFFFF AND PUSH2 0x8FC DUP3 SWAP1 DUP2 ISZERO MUL SWAP1 PUSH1 0x40 MLOAD PUSH0 PUSH1 0x40 MLOAD DUP1 DUP4 SUB DUP2 DUP6 DUP9 DUP9 CALL SWAP4 POP POP POP POP PUSH2 0x593 JUMPI DUP1 PUSH1 0x4 PUSH0 CALLER PUSH20 0xFFFFFFFFFFFFFFFFFFFFFFFFFFFFFFFFFFFFFFFF AND PUSH20 0xFFFFFFFFFFFFFFFFFFFFFFFFFFFFFFFFFFFFFFFF AND DUP2 MSTORE PUSH1 0x20 ADD SWAP1 DUP2 MSTORE PUSH1 0x20 ADD PUSH0 KECCAK256 DUP2 SWAP1 SSTORE POP PUSH0 SWAP2 POP POP PUSH2 0x59A JUMP JUMPDEST JUMPDEST PUSH1 0x1 SWAP2 POP POP JUMPDEST SWAP1 JUMP JUMPDEST PUSH1 0x1 SLOAD DUP2 JUMP JUMPDEST PUSH1 0x2 PUSH0 SWAP1 SLOAD SWAP1 PUSH2 0x100 EXP SWAP1 DIV PUSH20 0xFFFFFFFFFFFFFFFFFFFFFFFFFFFFFFFFFFFFFFFF AND DUP2 JUMP JUMPDEST PUSH1 0x3 SLOAD DUP2 JUMP JUMPDEST PUSH0 PUSH20 0xFFFFFFFFFFFFFFFFFFFFFFFFFFFFFFFFFFFFFFFF DUP3 AND SWAP1 POP SWAP2 SWAP1 POP JUMP JUMPDEST PUSH0 PUSH2 0x5F7 DUP3 PUSH2 0x5CE JUMP JUMPDEST SWAP1 POP SWAP2 SWAP1 POP JUMP JUMPDEST PUSH2 0x607 DUP2 PUSH2 0x5ED JUMP JUMPDEST DUP3 MSTORE POP POP JUMP JUMPDEST PUSH0 PUSH1 0x20 DUP3 ADD SWAP1 POP PUSH2 0x620 PUSH0 DUP4 ADD DUP5 PUSH2 0x5FE JUMP JUMPDEST SWAP3 SWAP2 POP POP JUMP JUMPDEST PUSH0 DUP2 ISZERO ISZERO SWAP1 POP SWAP2 SWAP1 POP JUMP JUMPDEST PUSH2 0x63A DUP2 PUSH2 0x626 JUMP JUMPDEST DUP3 MSTORE POP POP JUMP JUMPDEST PUSH0 PUSH1 0x20 DUP3 ADD SWAP1 POP PUSH2 0x653 PUSH0 DUP4 ADD DUP5 PUSH2 0x631 JUMP JUMPDEST SWAP3 SWAP2 POP POP JUMP JUMPDEST PUSH0 DUP2 SWAP1 POP SWAP2 SWAP1 POP JUMP JUMPDEST PUSH2 0x66B DUP2 PUSH2 0x659 JUMP JUMPDEST DUP3 MSTORE POP POP JUMP JUMPDEST PUSH0 PUSH1 0x20 DUP3 ADD SWAP1 POP PUSH2 0x684 PUSH0 DUP4 ADD DUP5 PUSH2 0x662 JUMP JUMPDEST SWAP3 SWAP2 POP POP JUMP JUMPDEST PUSH0 PUSH2 0x694 DUP3 PUSH2 0x5CE JUMP JUMPDEST SWAP1 POP SWAP2 SWAP1 POP JUMP JUMPDEST PUSH2 0x6A4 DUP2 PUSH2 0x68A JUMP JUMPDEST DUP3 MSTORE POP POP JUMP JUMPDEST PUSH0 PUSH1 0x20 DUP3 ADD SWAP1 POP PUSH2 0x6BD PUSH0 DUP4 ADD DUP5 PUSH2 0x69B JUMP JUMPDEST SWAP3 SWAP2 POP POP JUMP JUMPDEST PUSH0 DUP3 DUP3 MSTORE PUSH1 0x20 DUP3 ADD SWAP1 POP SWAP3 SWAP2 POP POP JUMP JUMPDEST PUSH32 0x41756374696F6E20616C726561647920656E6465642E00000000000000000000 PUSH0 DUP3 ADD MSTORE POP JUMP JUMPDEST PUSH0 PUSH2 0x707 PUSH1 0x16 DUP4 PUSH2 0x6C3 JUMP JUMPDEST SWAP2 POP PUSH2 0x712 DUP3 PUSH2 0x6D3 JUMP JUMPDEST PUSH1 0x20 DUP3 ADD SWAP1 POP SWAP2 SWAP1 POP JUMP JUMPDEST PUSH0 PUSH1 0x20 DUP3 ADD SWAP1 POP DUP2 DUP2 SUB PUSH0 DUP4 ADD MSTORE PUSH2 0x734 DUP2 PUSH2 0x6FB JUMP JUMPDEST SWAP1 POP SWAP2 SWAP1 POP JUMP JUMPDEST PUSH32 0x546865726520616C7265616479206973206120686967686572206269642E0000 PUSH0 DUP3 ADD MSTORE POP JUMP JUMPDEST PUSH0 PUSH2 0x76F PUSH1 0x1E DUP4 PUSH2 0x6C3 JUMP JUMPDEST SWAP2 POP PUSH2 0x77A DUP3 PUSH2 0x73B JUMP JUMPDEST PUSH1 0x20 DUP3 ADD SWAP1 POP SWAP2 SWAP1 POP JUMP JUMPDEST PUSH0 PUSH1 0x20 DUP3 ADD SWAP1 POP DUP2 DUP2 SUB PUSH0 DUP4 ADD MSTORE PUSH2 0x79C DUP2 PUSH2 0x763 JUMP JUMPDEST SWAP1 POP SWAP2 SWAP1 POP JUMP JUMPDEST PUSH32 0x4E487B7100000000000000000000000000000000000000000000000000000000 PUSH0 MSTORE PUSH1 0x11 PUSH1 0x4 MSTORE PUSH1 0x24 PUSH0 REVERT JUMPDEST PUSH0 PUSH2 0x7DA DUP3 PUSH2 0x659 JUMP JUMPDEST SWAP2 POP PUSH2 0x7E5 DUP4 PUSH2 0x659 JUMP JUMPDEST SWAP3 POP DUP3 DUP3 ADD SWAP1 POP DUP1 DUP3 GT ISZERO PUSH2 0x7FD JUMPI PUSH2 0x7FC PUSH2 0x7A3 JUMP JUMPDEST JUMPDEST SWAP3 SWAP2 POP POP JUMP JUMPDEST PUSH0 PUSH1 0x40 DUP3 ADD SWAP1 POP PUSH2 0x816 PUSH0 DUP4 ADD DUP6 PUSH2 0x69B JUMP JUMPDEST PUSH2 0x823 PUSH1 0x20 DUP4 ADD DUP5 PUSH2 0x662 JUMP JUMPDEST SWAP4 SWAP3 POP POP POP JUMP JUMPDEST PUSH32 0x41756374696F6E206E6F742079657420656E6465642E00000000000000000000 PUSH0 DUP3 ADD MSTORE POP JUMP JUMPDEST PUSH0 PUSH2 0x85E PUSH1 0x16 DUP4 PUSH2 0x6C3 JUMP JUMPDEST SWAP2 POP PUSH2 0x869 DUP3 PUSH2 0x82A JUMP JUMPDEST PUSH1 0x20 DUP3 ADD SWAP1 POP SWAP2 SWAP1 POP JUMP JUMPDEST PUSH0 PUSH1 0x20 DUP3 ADD SWAP1 POP DUP2 DUP2 SUB PUSH0 DUP4 ADD MSTORE PUSH2 0x88B DUP2 PUSH2 0x852 JUMP JUMPDEST SWAP1 POP SWAP2 SWAP1 POP JUMP JUMPDEST PUSH32 0x61756374696F6E456E642068617320616C7265616479206265656E2063616C6C PUSH0 DUP3 ADD MSTORE PUSH32 0x65642E0000000000000000000000000000000000000000000000000000000000 PUSH1 0x20 DUP3 ADD MSTORE POP JUMP JUMPDEST PUSH0 PUSH2 0x8EC PUSH1 0x23 DUP4 PUSH2 0x6C3 JUMP JUMPDEST SWAP2 POP PUSH2 0x8F7 DUP3 PUSH2 0x892 JUMP JUMPDEST PUSH1 0x40 DUP3 ADD SWAP1 POP SWAP2 SWAP1 POP JUMP JUMPDEST PUSH0 PUSH1 0x20 DUP3 ADD SWAP1 POP DUP2 DUP2 SUB PUSH0 DUP4 ADD MSTORE PUSH2 0x919 DUP2 PUSH2 0x8E0 JUMP JUMPDEST SWAP1 POP SWAP2 SWAP1 POP JUMP INVALID LOG2 PUSH5 0x6970667358 0x22 SLT KECCAK256 0x4A BALANCE BLOCKHASH 0xCC PUSH0 PUSH1 0xB3 0x2A CREATE PUSH16 0x7E6953483914F3215ECAB127CD22418A 0xEA PUSH13 0x6F60B03B64736F6C6343000816 STOP CALLER "
				},
				"gasEstimates": {
					"creation": {
						"codeDepositCost": "478000",
						"executionCost": "infinite",
						"totalCost": "infinite"
					},
					"external": {
						"auctionEnd()": "infinite",
						"auctionEndTime()": "2447",
						"beneficiary()": "2550",
						"bid()": "infinite",
						"highestBid()": "2491",
						"highestBidder()": "2552",
						"withdraw()": "infinite"
					}
				},
				"methodIdentifiers": {
					"auctionEnd()": "2a24f46c",
					"auctionEndTime()": "4b449cba",
					"beneficiary()": "38af3eed",
					"bid()": "1998aeef",
					"highestBid()": "d57bde79",
					"highestBidder()": "91f90157",
					"withdraw()": "3ccfd60b"
				}
			},
			"storageLayout": {
				"storage": [
					{
						"astId": 3,
						"contract": "SimpleAuction.sol:SimpleAuction",
						"label": "beneficiary",
						"offset": 0,
						"slot": "0",
						"type": "t_address_payable"
					},
					{
						"astId": 5,
						"contract": "SimpleAuction.sol:SimpleAuction",
						"label": "auctionEndTime",
						"offset": 0,
						"slot": "1",
						"type": "t_uint256"
					},
					{
						"astId": 7,
						"contract": "SimpleAuction.sol:SimpleAuction",
						"label": "highestBidder",
						"offset": 0,
						"slot": "2",
						"type": "t_address"
					},
					{
						"astId": 9,
						"contract": "SimpleAuction.sol:SimpleAuction",
						"label": "highestBid",
						"offset": 0,
						"slot": "3",
						"type": "t_uint256"
					},
					{
						"astId": 13,
						"contract": "SimpleAuction.sol:SimpleAuction",
						"label": "pendingReturns",
						"offset": 0,
						"slot": "4",
						"type": "t_mapping(t_address,t_uint256)"
					},
					{
						"astId": 15,
						"contract": "SimpleAuction.sol:SimpleAuction",
						"label": "ended",
						"offset": 0,
						"slot": "5",
						"type": "t_bool"
					}
				],
				"types": {
					"t_address": {
						"encoding": "inplace",
						"label": "address",
						"numberOfBytes": "20"
					},
					"t_address_payable": {
						"encoding": "inplace",
						"label": "address payable",
						"numberOfBytes": "20"
					},
					"t_bool": {
						"encoding": "inplace",
						"label": "bool",
						"numberOfBytes": "1"
					},
					"t_mapping(t_address,t_uint256)": {
						"encoding": "mapping",
						"key": "t_address",
						"label": "mapping(address => uint256)",
						"numberOfBytes": "32",
						"value": "t_uint256"
					},
					"t_uint256": {
						"encoding": "inplace",
						"label": "uint256",
						"numberOfBytes": "32"
					}
				}
			},
			"userdoc": {
				"kind": "user",
				"methods": {
					"auctionEnd()": {
						"notice": "End the auction and send the highest bid to the beneficiary."
					},
					"bid()": {
						"notice": "Bid on the auction with the value sent together with this transaction. The value will only be refunded if the auction is not won."
					},
					"constructor": {
						"notice": "Create a simple auction with `_biddingTime` seconds bidding time on behalf of the beneficiary address `_beneficiary`."
					},
					"withdraw()": {
						"notice": "Withdraw a bid that was overbid."
					}
				},
				"version": 1
			}
		}
	}
}