{
	"contracts/SimpleBank.sol": {
		"SimpleBank": {
			"abi": [
				{
					"inputs": [
						{
							"internalType": "address",
							"name": "account",
							"type": "address"
						}
					],
					"name": "checkBalance",
					"outputs": [
						{
							"internalType": "uint256",
							"name": "",
							"type": "uint256"
						}
					],
					"stateMutability": "view",
					"type": "function"
				},
				{
					"inputs": [],
					"name": "deposit",
					"outputs": [],
					"stateMutability": "payable",
					"type": "function"
				},
				{
					"inputs": [
						{
							"internalType": "address",
							"name": "to",
							"type": "address"
						},
						{
							"internalType": "uint256",
							"name": "amount",
							"type": "uint256"
						}
					],
					"name": "transfer",
					"outputs": [],
					"stateMutability": "nonpayable",
					"type": "function"
				},
				{
					"inputs": [
						{
							"internalType": "uint256",
							"name": "amount",
							"type": "uint256"
						}
					],
					"name": "withdraw",
					"outputs": [],
					"stateMutability": "nonpayable",
					"type": "function"
				}
			],
			"devdoc": {
				"kind": "dev",
				"methods": {},
				"version": 1
			},
			"evm": {
				"assembly": "    /* \"contracts/SimpleBank.sol\":57:1153  contract SimpleBank {... */\n  mstore(0x40, 0x80)\n  callvalue\n  dup1\n  iszero\n  tag_1\n  jumpi\n  0x00\n  dup1\n  revert\ntag_1:\n  pop\n  dataSize(sub_0)\n  dup1\n  dataOffset(sub_0)\n  0x00\n  codecopy\n  0x00\n  return\nstop\n\nsub_0: assembly {\n        /* \"contracts/SimpleBank.sol\":57:1153  contract SimpleBank {... */\n      mstore(0x40, 0x80)\n      jumpi(tag_1, lt(calldatasize, 0x04))\n      shr(0xe0, calldataload(0x00))\n      dup1\n      0x2e1a7d4d\n      eq\n      tag_2\n      jumpi\n      dup1\n      0x5f515226\n      eq\n      tag_3\n      jumpi\n      dup1\n      0xa9059cbb\n      eq\n      tag_4\n      jumpi\n      dup1\n      0xd0e30db0\n      eq\n      tag_5\n      jumpi\n    tag_1:\n      0x00\n      dup1\n      revert\n        /* \"contracts/SimpleBank.sol\":370:686  function withdraw(uint256 amount) public {... */\n    tag_2:\n      callvalue\n      dup1\n      iszero\n      tag_6\n      jumpi\n      0x00\n      dup1\n      revert\n    tag_6:\n      pop\n      tag_7\n      0x04\n      dup1\n      calldatasize\n      sub\n      dup2\n      add\n      swap1\n      tag_8\n      swap2\n      swap1\n      tag_9\n      jump\t// in\n    tag_8:\n      tag_10\n      jump\t// in\n    tag_7:\n      stop\n        /* \"contracts/SimpleBank.sol\":1041:1151  function checkBalance(address account) public view returns (uint256) {... */\n    tag_3:\n      callvalue\n      dup1\n      iszero\n      tag_11\n      jumpi\n      0x00\n      dup1\n      revert\n    tag_11:\n      pop\n      tag_12\n      0x04\n      dup1\n      calldatasize\n      sub\n      dup2\n      add\n      swap1\n      tag_13\n      swap2\n      swap1\n      tag_14\n      jump\t// in\n    tag_13:\n      tag_15\n      jump\t// in\n    tag_12:\n      mload(0x40)\n      tag_16\n      swap2\n      swap1\n      tag_17\n      jump\t// in\n    tag_16:\n      mload(0x40)\n      dup1\n      swap2\n      sub\n      swap1\n      return\n        /* \"contracts/SimpleBank.sol\":692:1035  function transfer(address to, uint256 amount) public {... */\n    tag_4:\n      callvalue\n      dup1\n      iszero\n      tag_18\n      jumpi\n      0x00\n      dup1\n      revert\n    tag_18:\n      pop\n      tag_19\n      0x04\n      dup1\n      calldatasize\n      sub\n      dup2\n      add\n      swap1\n      tag_20\n      swap2\n      swap1\n      tag_21\n      jump\t// in\n    tag_20:\n      tag_22\n      jump\t// in\n    tag_19:\n      stop\n        /* \"contracts/SimpleBank.sol\":205:364  function deposit() public payable {... */\n    tag_5:\n      tag_23\n      tag_24\n      jump\t// in\n    tag_23:\n      stop\n        /* \"contracts/SimpleBank.sol\":370:686  function withdraw(uint256 amount) public {... */\n    tag_10:\n        /* \"contracts/SimpleBank.sol\":438:439  0 */\n      0x00\n        /* \"contracts/SimpleBank.sol\":429:435  amount */\n      dup2\n        /* \"contracts/SimpleBank.sol\":429:439  amount > 0 */\n      gt\n        /* \"contracts/SimpleBank.sol\":421:486  require(amount > 0, \"Withdrawal amount should be greater than 0\") */\n      tag_26\n      jumpi\n      mload(0x40)\n      0x08c379a000000000000000000000000000000000000000000000000000000000\n      dup2\n      mstore\n      0x04\n      add\n      tag_27\n      swap1\n      tag_28\n      jump\t// in\n    tag_27:\n      mload(0x40)\n      dup1\n      swap2\n      sub\n      swap1\n      revert\n    tag_26:\n        /* \"contracts/SimpleBank.sol\":159:166  1 ether */\n      0x0de0b6b3a7640000\n        /* \"contracts/SimpleBank.sol\":527:533  amount */\n      dup2\n        /* \"contracts/SimpleBank.sol\":504:512  balances */\n      0x00\n        /* \"contracts/SimpleBank.sol\":504:524  balances[msg.sender] */\n      dup1\n        /* \"contracts/SimpleBank.sol\":513:523  msg.sender */\n      caller\n        /* \"contracts/SimpleBank.sol\":504:524  balances[msg.sender] */\n      0xffffffffffffffffffffffffffffffffffffffff\n      and\n      0xffffffffffffffffffffffffffffffffffffffff\n      and\n      dup2\n      mstore\n      0x20\n      add\n      swap1\n      dup2\n      mstore\n      0x20\n      add\n      0x00\n      keccak256\n      sload\n        /* \"contracts/SimpleBank.sol\":504:533  balances[msg.sender] - amount */\n      tag_29\n      swap2\n      swap1\n      tag_30\n      jump\t// in\n    tag_29:\n        /* \"contracts/SimpleBank.sol\":504:551  balances[msg.sender] - amount >= minimumBalance */\n      lt\n      iszero\n        /* \"contracts/SimpleBank.sol\":496:592  require(balances[msg.sender] - amount >= minimumBalance, \"Minimum balance should be maintained\") */\n      tag_31\n      jumpi\n      mload(0x40)\n      0x08c379a000000000000000000000000000000000000000000000000000000000\n      dup2\n      mstore\n      0x04\n      add\n      tag_32\n      swap1\n      tag_33\n      jump\t// in\n    tag_32:\n      mload(0x40)\n      dup1\n      swap2\n      sub\n      swap1\n      revert\n    tag_31:\n        /* \"contracts/SimpleBank.sol\":627:633  amount */\n      dup1\n        /* \"contracts/SimpleBank.sol\":603:611  balances */\n      0x00\n        /* \"contracts/SimpleBank.sol\":603:623  balances[msg.sender] */\n      dup1\n        /* \"contracts/SimpleBank.sol\":612:622  msg.sender */\n      caller\n        /* \"contracts/SimpleBank.sol\":603:623  balances[msg.sender] */\n      0xffffffffffffffffffffffffffffffffffffffff\n      and\n      0xffffffffffffffffffffffffffffffffffffffff\n      and\n      dup2\n      mstore\n      0x20\n      add\n      swap1\n      dup2\n      mstore\n      0x20\n      add\n      0x00\n      keccak256\n      0x00\n        /* \"contracts/SimpleBank.sol\":603:633  balances[msg.sender] -= amount */\n      dup3\n      dup3\n      sload\n      tag_34\n      swap2\n      swap1\n      tag_30\n      jump\t// in\n    tag_34:\n      swap3\n      pop\n      pop\n      dup2\n      swap1\n      sstore\n      pop\n        /* \"contracts/SimpleBank.sol\":651:661  msg.sender */\n      caller\n        /* \"contracts/SimpleBank.sol\":643:671  payable(msg.sender).transfer */\n      0xffffffffffffffffffffffffffffffffffffffff\n      and\n        /* \"contracts/SimpleBank.sol\":643:679  payable(msg.sender).transfer(amount) */\n      0x08fc\n        /* \"contracts/SimpleBank.sol\":672:678  amount */\n      dup3\n        /* \"contracts/SimpleBank.sol\":643:679  payable(msg.sender).transfer(amount) */\n      swap1\n      dup2\n      iszero\n      mul\n      swap1\n      mload(0x40)\n      0x00\n      mload(0x40)\n      dup1\n      dup4\n      sub\n      dup2\n      dup6\n      dup9\n      dup9\n      call\n      swap4\n      pop\n      pop\n      pop\n      pop\n      iszero\n      dup1\n      iszero\n      tag_36\n      jumpi\n      returndatasize\n      0x00\n      dup1\n      returndatacopy\n      revert(0x00, returndatasize)\n    tag_36:\n      pop\n        /* \"contracts/SimpleBank.sol\":370:686  function withdraw(uint256 amount) public {... */\n      pop\n      jump\t// out\n        /* \"contracts/SimpleBank.sol\":1041:1151  function checkBalance(address account) public view returns (uint256) {... */\n    tag_15:\n        /* \"contracts/SimpleBank.sol\":1101:1108  uint256 */\n      0x00\n        /* \"contracts/SimpleBank.sol\":1127:1135  balances */\n      dup1\n        /* \"contracts/SimpleBank.sol\":1127:1144  balances[account] */\n      0x00\n        /* \"contracts/SimpleBank.sol\":1136:1143  account */\n      dup4\n        /* \"contracts/SimpleBank.sol\":1127:1144  balances[account] */\n      0xffffffffffffffffffffffffffffffffffffffff\n      and\n      0xffffffffffffffffffffffffffffffffffffffff\n      and\n      dup2\n      mstore\n      0x20\n      add\n      swap1\n      dup2\n      mstore\n      0x20\n      add\n      0x00\n      keccak256\n      sload\n        /* \"contracts/SimpleBank.sol\":1120:1144  return balances[account] */\n      swap1\n      pop\n        /* \"contracts/SimpleBank.sol\":1041:1151  function checkBalance(address account) public view returns (uint256) {... */\n      swap2\n      swap1\n      pop\n      jump\t// out\n        /* \"contracts/SimpleBank.sol\":692:1035  function transfer(address to, uint256 amount) public {... */\n    tag_22:\n        /* \"contracts/SimpleBank.sol\":777:778  0 */\n      0x00\n        /* \"contracts/SimpleBank.sol\":763:779  to != address(0) */\n      0xffffffffffffffffffffffffffffffffffffffff\n      and\n        /* \"contracts/SimpleBank.sol\":763:765  to */\n      dup3\n        /* \"contracts/SimpleBank.sol\":763:779  to != address(0) */\n      0xffffffffffffffffffffffffffffffffffffffff\n      and\n      sub\n        /* \"contracts/SimpleBank.sol\":755:809  require(to != address(0), \"Invalid recipient address\") */\n      tag_39\n      jumpi\n      mload(0x40)\n      0x08c379a000000000000000000000000000000000000000000000000000000000\n      dup2\n      mstore\n      0x04\n      add\n      tag_40\n      swap1\n      tag_41\n      jump\t// in\n    tag_40:\n      mload(0x40)\n      dup1\n      swap2\n      sub\n      swap1\n      revert\n    tag_39:\n        /* \"contracts/SimpleBank.sol\":836:837  0 */\n      0x00\n        /* \"contracts/SimpleBank.sol\":827:833  amount */\n      dup2\n        /* \"contracts/SimpleBank.sol\":827:837  amount > 0 */\n      gt\n        /* \"contracts/SimpleBank.sol\":819:882  require(amount > 0, \"Transfer amount should be greater than 0\") */\n      tag_42\n      jumpi\n      mload(0x40)\n      0x08c379a000000000000000000000000000000000000000000000000000000000\n      dup2\n      mstore\n      0x04\n      add\n      tag_43\n      swap1\n      tag_44\n      jump\t// in\n    tag_43:\n      mload(0x40)\n      dup1\n      swap2\n      sub\n      swap1\n      revert\n    tag_42:\n        /* \"contracts/SimpleBank.sol\":924:930  amount */\n      dup1\n        /* \"contracts/SimpleBank.sol\":900:908  balances */\n      0x00\n        /* \"contracts/SimpleBank.sol\":900:920  balances[msg.sender] */\n      dup1\n        /* \"contracts/SimpleBank.sol\":909:919  msg.sender */\n      caller\n        /* \"contracts/SimpleBank.sol\":900:920  balances[msg.sender] */\n      0xffffffffffffffffffffffffffffffffffffffff\n      and\n      0xffffffffffffffffffffffffffffffffffffffff\n      and\n      dup2\n      mstore\n      0x20\n      add\n      swap1\n      dup2\n      mstore\n      0x20\n      add\n      0x00\n      keccak256\n      sload\n        /* \"contracts/SimpleBank.sol\":900:930  balances[msg.sender] >= amount */\n      lt\n      iszero\n        /* \"contracts/SimpleBank.sol\":892:955  require(balances[msg.sender] >= amount, \"Insufficient balance\") */\n      tag_45\n      jumpi\n      mload(0x40)\n      0x08c379a000000000000000000000000000000000000000000000000000000000\n      dup2\n      mstore\n      0x04\n      add\n      tag_46\n      swap1\n      tag_47\n      jump\t// in\n    tag_46:\n      mload(0x40)\n      dup1\n      swap2\n      sub\n      swap1\n      revert\n    tag_45:\n        /* \"contracts/SimpleBank.sol\":990:996  amount */\n      dup1\n        /* \"contracts/SimpleBank.sol\":966:974  balances */\n      0x00\n        /* \"contracts/SimpleBank.sol\":966:986  balances[msg.sender] */\n      dup1\n        /* \"contracts/SimpleBank.sol\":975:985  msg.sender */\n      caller\n        /* \"contracts/SimpleBank.sol\":966:986  balances[msg.sender] */\n      0xffffffffffffffffffffffffffffffffffffffff\n      and\n      0xffffffffffffffffffffffffffffffffffffffff\n      and\n      dup2\n      mstore\n      0x20\n      add\n      swap1\n      dup2\n      mstore\n      0x20\n      add\n      0x00\n      keccak256\n      0x00\n        /* \"contracts/SimpleBank.sol\":966:996  balances[msg.sender] -= amount */\n      dup3\n      dup3\n      sload\n      tag_48\n      swap2\n      swap1\n      tag_30\n      jump\t// in\n    tag_48:\n      swap3\n      pop\n      pop\n      dup2\n      swap1\n      sstore\n      pop\n        /* \"contracts/SimpleBank.sol\":1022:1028  amount */\n      dup1\n        /* \"contracts/SimpleBank.sol\":1006:1014  balances */\n      0x00\n        /* \"contracts/SimpleBank.sol\":1006:1018  balances[to] */\n      dup1\n        /* \"contracts/SimpleBank.sol\":1015:1017  to */\n      dup5\n        /* \"contracts/SimpleBank.sol\":1006:1018  balances[to] */\n      0xffffffffffffffffffffffffffffffffffffffff\n      and\n      0xffffffffffffffffffffffffffffffffffffffff\n      and\n      dup2\n      mstore\n      0x20\n      add\n      swap1\n      dup2\n      mstore\n      0x20\n      add\n      0x00\n      keccak256\n      0x00\n        /* \"contracts/SimpleBank.sol\":1006:1028  balances[to] += amount */\n      dup3\n      dup3\n      sload\n      tag_49\n      swap2\n      swap1\n      tag_50\n      jump\t// in\n    tag_49:\n      swap3\n      pop\n      pop\n      dup2\n      swap1\n      sstore\n      pop\n        /* \"contracts/SimpleBank.sol\":692:1035  function transfer(address to, uint256 amount) public {... */\n      pop\n      pop\n      jump\t// out\n        /* \"contracts/SimpleBank.sol\":205:364  function deposit() public payable {... */\n    tag_24:\n        /* \"contracts/SimpleBank.sol\":269:270  0 */\n      0x00\n        /* \"contracts/SimpleBank.sol\":257:266  msg.value */\n      callvalue\n        /* \"contracts/SimpleBank.sol\":257:270  msg.value > 0 */\n      gt\n        /* \"contracts/SimpleBank.sol\":249:314  require(msg.value > 0, \"Deposit amount should be greater than 0\") */\n      tag_52\n      jumpi\n      mload(0x40)\n      0x08c379a000000000000000000000000000000000000000000000000000000000\n      dup2\n      mstore\n      0x04\n      add\n      tag_53\n      swap1\n      tag_54\n      jump\t// in\n    tag_53:\n      mload(0x40)\n      dup1\n      swap2\n      sub\n      swap1\n      revert\n    tag_52:\n        /* \"contracts/SimpleBank.sol\":348:357  msg.value */\n      callvalue\n        /* \"contracts/SimpleBank.sol\":324:332  balances */\n      0x00\n        /* \"contracts/SimpleBank.sol\":324:344  balances[msg.sender] */\n      dup1\n        /* \"contracts/SimpleBank.sol\":333:343  msg.sender */\n      caller\n        /* \"contracts/SimpleBank.sol\":324:344  balances[msg.sender] */\n      0xffffffffffffffffffffffffffffffffffffffff\n      and\n      0xffffffffffffffffffffffffffffffffffffffff\n      and\n      dup2\n      mstore\n      0x20\n      add\n      swap1\n      dup2\n      mstore\n      0x20\n      add\n      0x00\n      keccak256\n      0x00\n        /* \"contracts/SimpleBank.sol\":324:357  balances[msg.sender] += msg.value */\n      dup3\n      dup3\n      sload\n      tag_55\n      swap2\n      swap1\n      tag_50\n      jump\t// in\n    tag_55:\n      swap3\n      pop\n      pop\n      dup2\n      swap1\n      sstore\n      pop\n        /* \"contracts/SimpleBank.sol\":205:364  function deposit() public payable {... */\n      jump\t// out\n        /* \"#utility.yul\":88:205   */\n    tag_57:\n        /* \"#utility.yul\":197:198   */\n      0x00\n        /* \"#utility.yul\":194:195   */\n      dup1\n        /* \"#utility.yul\":187:199   */\n      revert\n        /* \"#utility.yul\":334:411   */\n    tag_59:\n        /* \"#utility.yul\":371:378   */\n      0x00\n        /* \"#utility.yul\":400:405   */\n      dup2\n        /* \"#utility.yul\":389:405   */\n      swap1\n      pop\n        /* \"#utility.yul\":334:411   */\n      swap2\n      swap1\n      pop\n      jump\t// out\n        /* \"#utility.yul\":417:539   */\n    tag_60:\n        /* \"#utility.yul\":490:514   */\n      tag_87\n        /* \"#utility.yul\":508:513   */\n      dup2\n        /* \"#utility.yul\":490:514   */\n      tag_59\n      jump\t// in\n    tag_87:\n        /* \"#utility.yul\":483:488   */\n      dup2\n        /* \"#utility.yul\":480:515   */\n      eq\n        /* \"#utility.yul\":470:533   */\n      tag_88\n      jumpi\n        /* \"#utility.yul\":529:530   */\n      0x00\n        /* \"#utility.yul\":526:527   */\n      dup1\n        /* \"#utility.yul\":519:531   */\n      revert\n        /* \"#utility.yul\":470:533   */\n    tag_88:\n        /* \"#utility.yul\":417:539   */\n      pop\n      jump\t// out\n        /* \"#utility.yul\":545:684   */\n    tag_61:\n        /* \"#utility.yul\":591:596   */\n      0x00\n        /* \"#utility.yul\":629:635   */\n      dup2\n        /* \"#utility.yul\":616:636   */\n      calldataload\n        /* \"#utility.yul\":607:636   */\n      swap1\n      pop\n        /* \"#utility.yul\":645:678   */\n      tag_90\n        /* \"#utility.yul\":672:677   */\n      dup2\n        /* \"#utility.yul\":645:678   */\n      tag_60\n      jump\t// in\n    tag_90:\n        /* \"#utility.yul\":545:684   */\n      swap3\n      swap2\n      pop\n      pop\n      jump\t// out\n        /* \"#utility.yul\":690:1019   */\n    tag_9:\n        /* \"#utility.yul\":749:755   */\n      0x00\n        /* \"#utility.yul\":798:800   */\n      0x20\n        /* \"#utility.yul\":786:795   */\n      dup3\n        /* \"#utility.yul\":777:784   */\n      dup5\n        /* \"#utility.yul\":773:796   */\n      sub\n        /* \"#utility.yul\":769:801   */\n      slt\n        /* \"#utility.yul\":766:885   */\n      iszero\n      tag_92\n      jumpi\n        /* \"#utility.yul\":804:883   */\n      tag_93\n      tag_57\n      jump\t// in\n    tag_93:\n        /* \"#utility.yul\":766:885   */\n    tag_92:\n        /* \"#utility.yul\":924:925   */\n      0x00\n        /* \"#utility.yul\":949:1002   */\n      tag_94\n        /* \"#utility.yul\":994:1001   */\n      dup5\n        /* \"#utility.yul\":985:991   */\n      dup3\n        /* \"#utility.yul\":974:983   */\n      dup6\n        /* \"#utility.yul\":970:992   */\n      add\n        /* \"#utility.yul\":949:1002   */\n      tag_61\n      jump\t// in\n    tag_94:\n        /* \"#utility.yul\":939:1002   */\n      swap2\n      pop\n        /* \"#utility.yul\":895:1012   */\n      pop\n        /* \"#utility.yul\":690:1019   */\n      swap3\n      swap2\n      pop\n      pop\n      jump\t// out\n        /* \"#utility.yul\":1025:1151   */\n    tag_62:\n        /* \"#utility.yul\":1062:1069   */\n      0x00\n        /* \"#utility.yul\":1102:1144   */\n      0xffffffffffffffffffffffffffffffffffffffff\n        /* \"#utility.yul\":1095:1100   */\n      dup3\n        /* \"#utility.yul\":1091:1145   */\n      and\n        /* \"#utility.yul\":1080:1145   */\n      swap1\n      pop\n        /* \"#utility.yul\":1025:1151   */\n      swap2\n      swap1\n      pop\n      jump\t// out\n        /* \"#utility.yul\":1157:1253   */\n    tag_63:\n        /* \"#utility.yul\":1194:1201   */\n      0x00\n        /* \"#utility.yul\":1223:1247   */\n      tag_97\n        /* \"#utility.yul\":1241:1246   */\n      dup3\n        /* \"#utility.yul\":1223:1247   */\n      tag_62\n      jump\t// in\n    tag_97:\n        /* \"#utility.yul\":1212:1247   */\n      swap1\n      pop\n        /* \"#utility.yul\":1157:1253   */\n      swap2\n      swap1\n      pop\n      jump\t// out\n        /* \"#utility.yul\":1259:1381   */\n    tag_64:\n        /* \"#utility.yul\":1332:1356   */\n      tag_99\n        /* \"#utility.yul\":1350:1355   */\n      dup2\n        /* \"#utility.yul\":1332:1356   */\n      tag_63\n      jump\t// in\n    tag_99:\n        /* \"#utility.yul\":1325:1330   */\n      dup2\n        /* \"#utility.yul\":1322:1357   */\n      eq\n        /* \"#utility.yul\":1312:1375   */\n      tag_100\n      jumpi\n        /* \"#utility.yul\":1371:1372   */\n      0x00\n        /* \"#utility.yul\":1368:1369   */\n      dup1\n        /* \"#utility.yul\":1361:1373   */\n      revert\n        /* \"#utility.yul\":1312:1375   */\n    tag_100:\n        /* \"#utility.yul\":1259:1381   */\n      pop\n      jump\t// out\n        /* \"#utility.yul\":1387:1526   */\n    tag_65:\n        /* \"#utility.yul\":1433:1438   */\n      0x00\n        /* \"#utility.yul\":1471:1477   */\n      dup2\n        /* \"#utility.yul\":1458:1478   */\n      calldataload\n        /* \"#utility.yul\":1449:1478   */\n      swap1\n      pop\n        /* \"#utility.yul\":1487:1520   */\n      tag_102\n        /* \"#utility.yul\":1514:1519   */\n      dup2\n        /* \"#utility.yul\":1487:1520   */\n      tag_64\n      jump\t// in\n    tag_102:\n        /* \"#utility.yul\":1387:1526   */\n      swap3\n      swap2\n      pop\n      pop\n      jump\t// out\n        /* \"#utility.yul\":1532:1861   */\n    tag_14:\n        /* \"#utility.yul\":1591:1597   */\n      0x00\n        /* \"#utility.yul\":1640:1642   */\n      0x20\n        /* \"#utility.yul\":1628:1637   */\n      dup3\n        /* \"#utility.yul\":1619:1626   */\n      dup5\n        /* \"#utility.yul\":1615:1638   */\n      sub\n        /* \"#utility.yul\":1611:1643   */\n      slt\n        /* \"#utility.yul\":1608:1727   */\n      iszero\n      tag_104\n      jumpi\n        /* \"#utility.yul\":1646:1725   */\n      tag_105\n      tag_57\n      jump\t// in\n    tag_105:\n        /* \"#utility.yul\":1608:1727   */\n    tag_104:\n        /* \"#utility.yul\":1766:1767   */\n      0x00\n        /* \"#utility.yul\":1791:1844   */\n      tag_106\n        /* \"#utility.yul\":1836:1843   */\n      dup5\n        /* \"#utility.yul\":1827:1833   */\n      dup3\n        /* \"#utility.yul\":1816:1825   */\n      dup6\n        /* \"#utility.yul\":1812:1834   */\n      add\n        /* \"#utility.yul\":1791:1844   */\n      tag_65\n      jump\t// in\n    tag_106:\n        /* \"#utility.yul\":1781:1844   */\n      swap2\n      pop\n        /* \"#utility.yul\":1737:1854   */\n      pop\n        /* \"#utility.yul\":1532:1861   */\n      swap3\n      swap2\n      pop\n      pop\n      jump\t// out\n        /* \"#utility.yul\":1867:1985   */\n    tag_66:\n        /* \"#utility.yul\":1954:1978   */\n      tag_108\n        /* \"#utility.yul\":1972:1977   */\n      dup2\n        /* \"#utility.yul\":1954:1978   */\n      tag_59\n      jump\t// in\n    tag_108:\n        /* \"#utility.yul\":1949:1952   */\n      dup3\n        /* \"#utility.yul\":1942:1979   */\n      mstore\n        /* \"#utility.yul\":1867:1985   */\n      pop\n      pop\n      jump\t// out\n        /* \"#utility.yul\":1991:2213   */\n    tag_17:\n        /* \"#utility.yul\":2084:2088   */\n      0x00\n        /* \"#utility.yul\":2122:2124   */\n      0x20\n        /* \"#utility.yul\":2111:2120   */\n      dup3\n        /* \"#utility.yul\":2107:2125   */\n      add\n        /* \"#utility.yul\":2099:2125   */\n      swap1\n      pop\n        /* \"#utility.yul\":2135:2206   */\n      tag_110\n        /* \"#utility.yul\":2203:2204   */\n      0x00\n        /* \"#utility.yul\":2192:2201   */\n      dup4\n        /* \"#utility.yul\":2188:2205   */\n      add\n        /* \"#utility.yul\":2179:2185   */\n      dup5\n        /* \"#utility.yul\":2135:2206   */\n      tag_66\n      jump\t// in\n    tag_110:\n        /* \"#utility.yul\":1991:2213   */\n      swap3\n      swap2\n      pop\n      pop\n      jump\t// out\n        /* \"#utility.yul\":2219:2693   */\n    tag_21:\n        /* \"#utility.yul\":2287:2293   */\n      0x00\n        /* \"#utility.yul\":2295:2301   */\n      dup1\n        /* \"#utility.yul\":2344:2346   */\n      0x40\n        /* \"#utility.yul\":2332:2341   */\n      dup4\n        /* \"#utility.yul\":2323:2330   */\n      dup6\n        /* \"#utility.yul\":2319:2342   */\n      sub\n        /* \"#utility.yul\":2315:2347   */\n      slt\n        /* \"#utility.yul\":2312:2431   */\n      iszero\n      tag_112\n      jumpi\n        /* \"#utility.yul\":2350:2429   */\n      tag_113\n      tag_57\n      jump\t// in\n    tag_113:\n        /* \"#utility.yul\":2312:2431   */\n    tag_112:\n        /* \"#utility.yul\":2470:2471   */\n      0x00\n        /* \"#utility.yul\":2495:2548   */\n      tag_114\n        /* \"#utility.yul\":2540:2547   */\n      dup6\n        /* \"#utility.yul\":2531:2537   */\n      dup3\n        /* \"#utility.yul\":2520:2529   */\n      dup7\n        /* \"#utility.yul\":2516:2538   */\n      add\n        /* \"#utility.yul\":2495:2548   */\n      tag_65\n      jump\t// in\n    tag_114:\n        /* \"#utility.yul\":2485:2548   */\n      swap3\n      pop\n        /* \"#utility.yul\":2441:2558   */\n      pop\n        /* \"#utility.yul\":2597:2599   */\n      0x20\n        /* \"#utility.yul\":2623:2676   */\n      tag_115\n        /* \"#utility.yul\":2668:2675   */\n      dup6\n        /* \"#utility.yul\":2659:2665   */\n      dup3\n        /* \"#utility.yul\":2648:2657   */\n      dup7\n        /* \"#utility.yul\":2644:2666   */\n      add\n        /* \"#utility.yul\":2623:2676   */\n      tag_61\n      jump\t// in\n    tag_115:\n        /* \"#utility.yul\":2613:2676   */\n      swap2\n      pop\n        /* \"#utility.yul\":2568:2686   */\n      pop\n        /* \"#utility.yul\":2219:2693   */\n      swap3\n      pop\n      swap3\n      swap1\n      pop\n      jump\t// out\n        /* \"#utility.yul\":2699:2868   */\n    tag_67:\n        /* \"#utility.yul\":2783:2794   */\n      0x00\n        /* \"#utility.yul\":2817:2823   */\n      dup3\n        /* \"#utility.yul\":2812:2815   */\n      dup3\n        /* \"#utility.yul\":2805:2824   */\n      mstore\n        /* \"#utility.yul\":2857:2861   */\n      0x20\n        /* \"#utility.yul\":2852:2855   */\n      dup3\n        /* \"#utility.yul\":2848:2862   */\n      add\n        /* \"#utility.yul\":2833:2862   */\n      swap1\n      pop\n        /* \"#utility.yul\":2699:2868   */\n      swap3\n      swap2\n      pop\n      pop\n      jump\t// out\n        /* \"#utility.yul\":2874:3103   */\n    tag_68:\n        /* \"#utility.yul\":3014:3048   */\n      0x5769746864726177616c20616d6f756e742073686f756c642062652067726561\n        /* \"#utility.yul\":3010:3011   */\n      0x00\n        /* \"#utility.yul\":3002:3008   */\n      dup3\n        /* \"#utility.yul\":2998:3012   */\n      add\n        /* \"#utility.yul\":2991:3049   */\n      mstore\n        /* \"#utility.yul\":3083:3095   */\n      0x746572207468616e203000000000000000000000000000000000000000000000\n        /* \"#utility.yul\":3078:3080   */\n      0x20\n        /* \"#utility.yul\":3070:3076   */\n      dup3\n        /* \"#utility.yul\":3066:3081   */\n      add\n        /* \"#utility.yul\":3059:3096   */\n      mstore\n        /* \"#utility.yul\":2874:3103   */\n      pop\n      jump\t// out\n        /* \"#utility.yul\":3109:3475   */\n    tag_69:\n        /* \"#utility.yul\":3251:3254   */\n      0x00\n        /* \"#utility.yul\":3272:3339   */\n      tag_119\n        /* \"#utility.yul\":3336:3338   */\n      0x2a\n        /* \"#utility.yul\":3331:3334   */\n      dup4\n        /* \"#utility.yul\":3272:3339   */\n      tag_67\n      jump\t// in\n    tag_119:\n        /* \"#utility.yul\":3265:3339   */\n      swap2\n      pop\n        /* \"#utility.yul\":3348:3441   */\n      tag_120\n        /* \"#utility.yul\":3437:3440   */\n      dup3\n        /* \"#utility.yul\":3348:3441   */\n      tag_68\n      jump\t// in\n    tag_120:\n        /* \"#utility.yul\":3466:3468   */\n      0x40\n        /* \"#utility.yul\":3461:3464   */\n      dup3\n        /* \"#utility.yul\":3457:3469   */\n      add\n        /* \"#utility.yul\":3450:3469   */\n      swap1\n      pop\n        /* \"#utility.yul\":3109:3475   */\n      swap2\n      swap1\n      pop\n      jump\t// out\n        /* \"#utility.yul\":3481:3900   */\n    tag_28:\n        /* \"#utility.yul\":3647:3651   */\n      0x00\n        /* \"#utility.yul\":3685:3687   */\n      0x20\n        /* \"#utility.yul\":3674:3683   */\n      dup3\n        /* \"#utility.yul\":3670:3688   */\n      add\n        /* \"#utility.yul\":3662:3688   */\n      swap1\n      pop\n        /* \"#utility.yul\":3734:3743   */\n      dup2\n        /* \"#utility.yul\":3728:3732   */\n      dup2\n        /* \"#utility.yul\":3724:3744   */\n      sub\n        /* \"#utility.yul\":3720:3721   */\n      0x00\n        /* \"#utility.yul\":3709:3718   */\n      dup4\n        /* \"#utility.yul\":3705:3722   */\n      add\n        /* \"#utility.yul\":3698:3745   */\n      mstore\n        /* \"#utility.yul\":3762:3893   */\n      tag_122\n        /* \"#utility.yul\":3888:3892   */\n      dup2\n        /* \"#utility.yul\":3762:3893   */\n      tag_69\n      jump\t// in\n    tag_122:\n        /* \"#utility.yul\":3754:3893   */\n      swap1\n      pop\n        /* \"#utility.yul\":3481:3900   */\n      swap2\n      swap1\n      pop\n      jump\t// out\n        /* \"#utility.yul\":3906:4086   */\n    tag_70:\n        /* \"#utility.yul\":3954:4031   */\n      0x4e487b7100000000000000000000000000000000000000000000000000000000\n        /* \"#utility.yul\":3951:3952   */\n      0x00\n        /* \"#utility.yul\":3944:4032   */\n      mstore\n        /* \"#utility.yul\":4051:4055   */\n      0x11\n        /* \"#utility.yul\":4048:4049   */\n      0x04\n        /* \"#utility.yul\":4041:4056   */\n      mstore\n        /* \"#utility.yul\":4075:4079   */\n      0x24\n        /* \"#utility.yul\":4072:4073   */\n      0x00\n        /* \"#utility.yul\":4065:4080   */\n      revert\n        /* \"#utility.yul\":4092:4286   */\n    tag_30:\n        /* \"#utility.yul\":4132:4136   */\n      0x00\n        /* \"#utility.yul\":4152:4172   */\n      tag_125\n        /* \"#utility.yul\":4170:4171   */\n      dup3\n        /* \"#utility.yul\":4152:4172   */\n      tag_59\n      jump\t// in\n    tag_125:\n        /* \"#utility.yul\":4147:4172   */\n      swap2\n      pop\n        /* \"#utility.yul\":4186:4206   */\n      tag_126\n        /* \"#utility.yul\":4204:4205   */\n      dup4\n        /* \"#utility.yul\":4186:4206   */\n      tag_59\n      jump\t// in\n    tag_126:\n        /* \"#utility.yul\":4181:4206   */\n      swap3\n      pop\n        /* \"#utility.yul\":4230:4231   */\n      dup3\n        /* \"#utility.yul\":4227:4228   */\n      dup3\n        /* \"#utility.yul\":4223:4232   */\n      sub\n        /* \"#utility.yul\":4215:4232   */\n      swap1\n      pop\n        /* \"#utility.yul\":4254:4255   */\n      dup2\n        /* \"#utility.yul\":4248:4252   */\n      dup2\n        /* \"#utility.yul\":4245:4256   */\n      gt\n        /* \"#utility.yul\":4242:4279   */\n      iszero\n      tag_127\n      jumpi\n        /* \"#utility.yul\":4259:4277   */\n      tag_128\n      tag_70\n      jump\t// in\n    tag_128:\n        /* \"#utility.yul\":4242:4279   */\n    tag_127:\n        /* \"#utility.yul\":4092:4286   */\n      swap3\n      swap2\n      pop\n      pop\n      jump\t// out\n        /* \"#utility.yul\":4292:4515   */\n    tag_71:\n        /* \"#utility.yul\":4432:4466   */\n      0x4d696e696d756d2062616c616e63652073686f756c64206265206d61696e7461\n        /* \"#utility.yul\":4428:4429   */\n      0x00\n        /* \"#utility.yul\":4420:4426   */\n      dup3\n        /* \"#utility.yul\":4416:4430   */\n      add\n        /* \"#utility.yul\":4409:4467   */\n      mstore\n        /* \"#utility.yul\":4501:4507   */\n      0x696e656400000000000000000000000000000000000000000000000000000000\n        /* \"#utility.yul\":4496:4498   */\n      0x20\n        /* \"#utility.yul\":4488:4494   */\n      dup3\n        /* \"#utility.yul\":4484:4499   */\n      add\n        /* \"#utility.yul\":4477:4508   */\n      mstore\n        /* \"#utility.yul\":4292:4515   */\n      pop\n      jump\t// out\n        /* \"#utility.yul\":4521:4887   */\n    tag_72:\n        /* \"#utility.yul\":4663:4666   */\n      0x00\n        /* \"#utility.yul\":4684:4751   */\n      tag_131\n        /* \"#utility.yul\":4748:4750   */\n      0x24\n        /* \"#utility.yul\":4743:4746   */\n      dup4\n        /* \"#utility.yul\":4684:4751   */\n      tag_67\n      jump\t// in\n    tag_131:\n        /* \"#utility.yul\":4677:4751   */\n      swap2\n      pop\n        /* \"#utility.yul\":4760:4853   */\n      tag_132\n        /* \"#utility.yul\":4849:4852   */\n      dup3\n        /* \"#utility.yul\":4760:4853   */\n      tag_71\n      jump\t// in\n    tag_132:\n        /* \"#utility.yul\":4878:4880   */\n      0x40\n        /* \"#utility.yul\":4873:4876   */\n      dup3\n        /* \"#utility.yul\":4869:4881   */\n      add\n        /* \"#utility.yul\":4862:4881   */\n      swap1\n      pop\n        /* \"#utility.yul\":4521:4887   */\n      swap2\n      swap1\n      pop\n      jump\t// out\n        /* \"#utility.yul\":4893:5312   */\n    tag_33:\n        /* \"#utility.yul\":5059:5063   */\n      0x00\n        /* \"#utility.yul\":5097:5099   */\n      0x20\n        /* \"#utility.yul\":5086:5095   */\n      dup3\n        /* \"#utility.yul\":5082:5100   */\n      add\n        /* \"#utility.yul\":5074:5100   */\n      swap1\n      pop\n        /* \"#utility.yul\":5146:5155   */\n      dup2\n        /* \"#utility.yul\":5140:5144   */\n      dup2\n        /* \"#utility.yul\":5136:5156   */\n      sub\n        /* \"#utility.yul\":5132:5133   */\n      0x00\n        /* \"#utility.yul\":5121:5130   */\n      dup4\n        /* \"#utility.yul\":5117:5134   */\n      add\n        /* \"#utility.yul\":5110:5157   */\n      mstore\n        /* \"#utility.yul\":5174:5305   */\n      tag_134\n        /* \"#utility.yul\":5300:5304   */\n      dup2\n        /* \"#utility.yul\":5174:5305   */\n      tag_72\n      jump\t// in\n    tag_134:\n        /* \"#utility.yul\":5166:5305   */\n      swap1\n      pop\n        /* \"#utility.yul\":4893:5312   */\n      swap2\n      swap1\n      pop\n      jump\t// out\n        /* \"#utility.yul\":5318:5493   */\n    tag_73:\n        /* \"#utility.yul\":5458:5485   */\n      0x496e76616c696420726563697069656e74206164647265737300000000000000\n        /* \"#utility.yul\":5454:5455   */\n      0x00\n        /* \"#utility.yul\":5446:5452   */\n      dup3\n        /* \"#utility.yul\":5442:5456   */\n      add\n        /* \"#utility.yul\":5435:5486   */\n      mstore\n        /* \"#utility.yul\":5318:5493   */\n      pop\n      jump\t// out\n        /* \"#utility.yul\":5499:5865   */\n    tag_74:\n        /* \"#utility.yul\":5641:5644   */\n      0x00\n        /* \"#utility.yul\":5662:5729   */\n      tag_137\n        /* \"#utility.yul\":5726:5728   */\n      0x19\n        /* \"#utility.yul\":5721:5724   */\n      dup4\n        /* \"#utility.yul\":5662:5729   */\n      tag_67\n      jump\t// in\n    tag_137:\n        /* \"#utility.yul\":5655:5729   */\n      swap2\n      pop\n        /* \"#utility.yul\":5738:5831   */\n      tag_138\n        /* \"#utility.yul\":5827:5830   */\n      dup3\n        /* \"#utility.yul\":5738:5831   */\n      tag_73\n      jump\t// in\n    tag_138:\n        /* \"#utility.yul\":5856:5858   */\n      0x20\n        /* \"#utility.yul\":5851:5854   */\n      dup3\n        /* \"#utility.yul\":5847:5859   */\n      add\n        /* \"#utility.yul\":5840:5859   */\n      swap1\n      pop\n        /* \"#utility.yul\":5499:5865   */\n      swap2\n      swap1\n      pop\n      jump\t// out\n        /* \"#utility.yul\":5871:6290   */\n    tag_41:\n        /* \"#utility.yul\":6037:6041   */\n      0x00\n        /* \"#utility.yul\":6075:6077   */\n      0x20\n        /* \"#utility.yul\":6064:6073   */\n      dup3\n        /* \"#utility.yul\":6060:6078   */\n      add\n        /* \"#utility.yul\":6052:6078   */\n      swap1\n      pop\n        /* \"#utility.yul\":6124:6133   */\n      dup2\n        /* \"#utility.yul\":6118:6122   */\n      dup2\n        /* \"#utility.yul\":6114:6134   */\n      sub\n        /* \"#utility.yul\":6110:6111   */\n      0x00\n        /* \"#utility.yul\":6099:6108   */\n      dup4\n        /* \"#utility.yul\":6095:6112   */\n      add\n        /* \"#utility.yul\":6088:6135   */\n      mstore\n        /* \"#utility.yul\":6152:6283   */\n      tag_140\n        /* \"#utility.yul\":6278:6282   */\n      dup2\n        /* \"#utility.yul\":6152:6283   */\n      tag_74\n      jump\t// in\n    tag_140:\n        /* \"#utility.yul\":6144:6283   */\n      swap1\n      pop\n        /* \"#utility.yul\":5871:6290   */\n      swap2\n      swap1\n      pop\n      jump\t// out\n        /* \"#utility.yul\":6296:6523   */\n    tag_75:\n        /* \"#utility.yul\":6436:6470   */\n      0x5472616e7366657220616d6f756e742073686f756c6420626520677265617465\n        /* \"#utility.yul\":6432:6433   */\n      0x00\n        /* \"#utility.yul\":6424:6430   */\n      dup3\n        /* \"#utility.yul\":6420:6434   */\n      add\n        /* \"#utility.yul\":6413:6471   */\n      mstore\n        /* \"#utility.yul\":6505:6515   */\n      0x72207468616e2030000000000000000000000000000000000000000000000000\n        /* \"#utility.yul\":6500:6502   */\n      0x20\n        /* \"#utility.yul\":6492:6498   */\n      dup3\n        /* \"#utility.yul\":6488:6503   */\n      add\n        /* \"#utility.yul\":6481:6516   */\n      mstore\n        /* \"#utility.yul\":6296:6523   */\n      pop\n      jump\t// out\n        /* \"#utility.yul\":6529:6895   */\n    tag_76:\n        /* \"#utility.yul\":6671:6674   */\n      0x00\n        /* \"#utility.yul\":6692:6759   */\n      tag_143\n        /* \"#utility.yul\":6756:6758   */\n      0x28\n        /* \"#utility.yul\":6751:6754   */\n      dup4\n        /* \"#utility.yul\":6692:6759   */\n      tag_67\n      jump\t// in\n    tag_143:\n        /* \"#utility.yul\":6685:6759   */\n      swap2\n      pop\n        /* \"#utility.yul\":6768:6861   */\n      tag_144\n        /* \"#utility.yul\":6857:6860   */\n      dup3\n        /* \"#utility.yul\":6768:6861   */\n      tag_75\n      jump\t// in\n    tag_144:\n        /* \"#utility.yul\":6886:6888   */\n      0x40\n        /* \"#utility.yul\":6881:6884   */\n      dup3\n        /* \"#utility.yul\":6877:6889   */\n      add\n        /* \"#utility.yul\":6870:6889   */\n      swap1\n      pop\n        /* \"#utility.yul\":6529:6895   */\n      swap2\n      swap1\n      pop\n      jump\t// out\n        /* \"#utility.yul\":6901:7320   */\n    tag_44:\n        /* \"#utility.yul\":7067:7071   */\n      0x00\n        /* \"#utility.yul\":7105:7107   */\n      0x20\n        /* \"#utility.yul\":7094:7103   */\n      dup3\n        /* \"#utility.yul\":7090:7108   */\n      add\n        /* \"#utility.yul\":7082:7108   */\n      swap1\n      pop\n        /* \"#utility.yul\":7154:7163   */\n      dup2\n        /* \"#utility.yul\":7148:7152   */\n      dup2\n        /* \"#utility.yul\":7144:7164   */\n      sub\n        /* \"#utility.yul\":7140:7141   */\n      0x00\n        /* \"#utility.yul\":7129:7138   */\n      dup4\n        /* \"#utility.yul\":7125:7142   */\n      add\n        /* \"#utility.yul\":7118:7165   */\n      mstore\n        /* \"#utility.yul\":7182:7313   */\n      tag_146\n        /* \"#utility.yul\":7308:7312   */\n      dup2\n        /* \"#utility.yul\":7182:7313   */\n      tag_76\n      jump\t// in\n    tag_146:\n        /* \"#utility.yul\":7174:7313   */\n      swap1\n      pop\n        /* \"#utility.yul\":6901:7320   */\n      swap2\n      swap1\n      pop\n      jump\t// out\n        /* \"#utility.yul\":7326:7496   */\n    tag_77:\n        /* \"#utility.yul\":7466:7488   */\n      0x496e73756666696369656e742062616c616e6365000000000000000000000000\n        /* \"#utility.yul\":7462:7463   */\n      0x00\n        /* \"#utility.yul\":7454:7460   */\n      dup3\n        /* \"#utility.yul\":7450:7464   */\n      add\n        /* \"#utility.yul\":7443:7489   */\n      mstore\n        /* \"#utility.yul\":7326:7496   */\n      pop\n      jump\t// out\n        /* \"#utility.yul\":7502:7868   */\n    tag_78:\n        /* \"#utility.yul\":7644:7647   */\n      0x00\n        /* \"#utility.yul\":7665:7732   */\n      tag_149\n        /* \"#utility.yul\":7729:7731   */\n      0x14\n        /* \"#utility.yul\":7724:7727   */\n      dup4\n        /* \"#utility.yul\":7665:7732   */\n      tag_67\n      jump\t// in\n    tag_149:\n        /* \"#utility.yul\":7658:7732   */\n      swap2\n      pop\n        /* \"#utility.yul\":7741:7834   */\n      tag_150\n        /* \"#utility.yul\":7830:7833   */\n      dup3\n        /* \"#utility.yul\":7741:7834   */\n      tag_77\n      jump\t// in\n    tag_150:\n        /* \"#utility.yul\":7859:7861   */\n      0x20\n        /* \"#utility.yul\":7854:7857   */\n      dup3\n        /* \"#utility.yul\":7850:7862   */\n      add\n        /* \"#utility.yul\":7843:7862   */\n      swap1\n      pop\n        /* \"#utility.yul\":7502:7868   */\n      swap2\n      swap1\n      pop\n      jump\t// out\n        /* \"#utility.yul\":7874:8293   */\n    tag_47:\n        /* \"#utility.yul\":8040:8044   */\n      0x00\n        /* \"#utility.yul\":8078:8080   */\n      0x20\n        /* \"#utility.yul\":8067:8076   */\n      dup3\n        /* \"#utility.yul\":8063:8081   */\n      add\n        /* \"#utility.yul\":8055:8081   */\n      swap1\n      pop\n        /* \"#utility.yul\":8127:8136   */\n      dup2\n        /* \"#utility.yul\":8121:8125   */\n      dup2\n        /* \"#utility.yul\":8117:8137   */\n      sub\n        /* \"#utility.yul\":8113:8114   */\n      0x00\n        /* \"#utility.yul\":8102:8111   */\n      dup4\n        /* \"#utility.yul\":8098:8115   */\n      add\n        /* \"#utility.yul\":8091:8138   */\n      mstore\n        /* \"#utility.yul\":8155:8286   */\n      tag_152\n        /* \"#utility.yul\":8281:8285   */\n      dup2\n        /* \"#utility.yul\":8155:8286   */\n      tag_78\n      jump\t// in\n    tag_152:\n        /* \"#utility.yul\":8147:8286   */\n      swap1\n      pop\n        /* \"#utility.yul\":7874:8293   */\n      swap2\n      swap1\n      pop\n      jump\t// out\n        /* \"#utility.yul\":8299:8490   */\n    tag_50:\n        /* \"#utility.yul\":8339:8342   */\n      0x00\n        /* \"#utility.yul\":8358:8378   */\n      tag_154\n        /* \"#utility.yul\":8376:8377   */\n      dup3\n        /* \"#utility.yul\":8358:8378   */\n      tag_59\n      jump\t// in\n    tag_154:\n        /* \"#utility.yul\":8353:8378   */\n      swap2\n      pop\n        /* \"#utility.yul\":8392:8412   */\n      tag_155\n        /* \"#utility.yul\":8410:8411   */\n      dup4\n        /* \"#utility.yul\":8392:8412   */\n      tag_59\n      jump\t// in\n    tag_155:\n        /* \"#utility.yul\":8387:8412   */\n      swap3\n      pop\n        /* \"#utility.yul\":8435:8436   */\n      dup3\n        /* \"#utility.yul\":8432:8433   */\n      dup3\n        /* \"#utility.yul\":8428:8437   */\n      add\n        /* \"#utility.yul\":8421:8437   */\n      swap1\n      pop\n        /* \"#utility.yul\":8456:8459   */\n      dup1\n        /* \"#utility.yul\":8453:8454   */\n      dup3\n        /* \"#utility.yul\":8450:8460   */\n      gt\n        /* \"#utility.yul\":8447:8483   */\n      iszero\n      tag_156\n      jumpi\n        /* \"#utility.yul\":8463:8481   */\n      tag_157\n      tag_70\n      jump\t// in\n    tag_157:\n        /* \"#utility.yul\":8447:8483   */\n    tag_156:\n        /* \"#utility.yul\":8299:8490   */\n      swap3\n      swap2\n      pop\n      pop\n      jump\t// out\n        /* \"#utility.yul\":8496:8722   */\n    tag_79:\n        /* \"#utility.yul\":8636:8670   */\n      0x4465706f73697420616d6f756e742073686f756c642062652067726561746572\n        /* \"#utility.yul\":8632:8633   */\n      0x00\n        /* \"#utility.yul\":8624:8630   */\n      dup3\n        /* \"#utility.yul\":8620:8634   */\n      add\n        /* \"#utility.yul\":8613:8671   */\n      mstore\n        /* \"#utility.yul\":8705:8714   */\n      0x207468616e203000000000000000000000000000000000000000000000000000\n        /* \"#utility.yul\":8700:8702   */\n      0x20\n        /* \"#utility.yul\":8692:8698   */\n      dup3\n        /* \"#utility.yul\":8688:8703   */\n      add\n        /* \"#utility.yul\":8681:8715   */\n      mstore\n        /* \"#utility.yul\":8496:8722   */\n      pop\n      jump\t// out\n        /* \"#utility.yul\":8728:9094   */\n    tag_80:\n        /* \"#utility.yul\":8870:8873   */\n      0x00\n        /* \"#utility.yul\":8891:8958   */\n      tag_160\n        /* \"#utility.yul\":8955:8957   */\n      0x27\n        /* \"#utility.yul\":8950:8953   */\n      dup4\n        /* \"#utility.yul\":8891:8958   */\n      tag_67\n      jump\t// in\n    tag_160:\n        /* \"#utility.yul\":8884:8958   */\n      swap2\n      pop\n        /* \"#utility.yul\":8967:9060   */\n      tag_161\n        /* \"#utility.yul\":9056:9059   */\n      dup3\n        /* \"#utility.yul\":8967:9060   */\n      tag_79\n      jump\t// in\n    tag_161:\n        /* \"#utility.yul\":9085:9087   */\n      0x40\n        /* \"#utility.yul\":9080:9083   */\n      dup3\n        /* \"#utility.yul\":9076:9088   */\n      add\n        /* \"#utility.yul\":9069:9088   */\n      swap1\n      pop\n        /* \"#utility.yul\":8728:9094   */\n      swap2\n      swap1\n      pop\n      jump\t// out\n        /* \"#utility.yul\":9100:9519   */\n    tag_54:\n        /* \"#utility.yul\":9266:9270   */\n      0x00\n        /* \"#utility.yul\":9304:9306   */\n      0x20\n        /* \"#utility.yul\":9293:9302   */\n      dup3\n        /* \"#utility.yul\":9289:9307   */\n      add\n        /* \"#utility.yul\":9281:9307   */\n      swap1\n      pop\n        /* \"#utility.yul\":9353:9362   */\n      dup2\n        /* \"#utility.yul\":9347:9351   */\n      dup2\n        /* \"#utility.yul\":9343:9363   */\n      sub\n        /* \"#utility.yul\":9339:9340   */\n      0x00\n        /* \"#utility.yul\":9328:9337   */\n      dup4\n        /* \"#utility.yul\":9324:9341   */\n      add\n        /* \"#utility.yul\":9317:9364   */\n      mstore\n        /* \"#utility.yul\":9381:9512   */\n      tag_163\n        /* \"#utility.yul\":9507:9511   */\n      dup2\n        /* \"#utility.yul\":9381:9512   */\n      tag_80\n      jump\t// in\n    tag_163:\n        /* \"#utility.yul\":9373:9512   */\n      swap1\n      pop\n        /* \"#utility.yul\":9100:9519   */\n      swap2\n      swap1\n      pop\n      jump\t// out\n\n    auxdata: 0xa264697066735822122027ebc5b65fb369b8fd78553be46e59aef1895c9a25653f54f71689831043eab564736f6c63430008160033\n}\n",
				"bytecode": {
					"linkReferences": {},
					"object": "608060405234801561000f575f80fd5b50610a258061001d5f395ff3fe60806040526004361061003e575f3560e01c80632e1a7d4d146100425780635f5152261461006a578063a9059cbb146100a6578063d0e30db0146100ce575b5f80fd5b34801561004d575f80fd5b506100686004803603810190610063919061052e565b6100d8565b005b348015610075575f80fd5b50610090600480360381019061008b91906105b3565b610245565b60405161009d91906105ed565b60405180910390f35b3480156100b1575f80fd5b506100cc60048036038101906100c79190610606565b61028a565b005b6100d6610461565b005b5f811161011a576040517f08c379a0000000000000000000000000000000000000000000000000000000008152600401610111906106c4565b60405180910390fd5b670de0b6b3a7640000815f803373ffffffffffffffffffffffffffffffffffffffff1673ffffffffffffffffffffffffffffffffffffffff1681526020019081526020015f205461016b919061070f565b10156101ac576040517f08c379a00000000000000000000000000000000000000000000000000000000081526004016101a3906107b2565b60405180910390fd5b805f803373ffffffffffffffffffffffffffffffffffffffff1673ffffffffffffffffffffffffffffffffffffffff1681526020019081526020015f205f8282546101f7919061070f565b925050819055503373ffffffffffffffffffffffffffffffffffffffff166108fc8290811502906040515f60405180830381858888f19350505050158015610241573d5f803e3d5ffd5b5050565b5f805f8373ffffffffffffffffffffffffffffffffffffffff1673ffffffffffffffffffffffffffffffffffffffff1681526020019081526020015f20549050919050565b5f73ffffffffffffffffffffffffffffffffffffffff168273ffffffffffffffffffffffffffffffffffffffff16036102f8576040517f08c379a00000000000000000000000000000000000000000000000000000000081526004016102ef9061081a565b60405180910390fd5b5f811161033a576040517f08c379a0000000000000000000000000000000000000000000000000000000008152600401610331906108a8565b60405180910390fd5b805f803373ffffffffffffffffffffffffffffffffffffffff1673ffffffffffffffffffffffffffffffffffffffff1681526020019081526020015f205410156103b9576040517f08c379a00000000000000000000000000000000000000000000000000000000081526004016103b090610910565b60405180910390fd5b805f803373ffffffffffffffffffffffffffffffffffffffff1673ffffffffffffffffffffffffffffffffffffffff1681526020019081526020015f205f828254610404919061070f565b92505081905550805f808473ffffffffffffffffffffffffffffffffffffffff1673ffffffffffffffffffffffffffffffffffffffff1681526020019081526020015f205f828254610456919061092e565b925050819055505050565b5f34116104a3576040517f08c379a000000000000000000000000000000000000000000000000000000000815260040161049a906109d1565b60405180910390fd5b345f803373ffffffffffffffffffffffffffffffffffffffff1673ffffffffffffffffffffffffffffffffffffffff1681526020019081526020015f205f8282546104ee919061092e565b92505081905550565b5f80fd5b5f819050919050565b61050d816104fb565b8114610517575f80fd5b50565b5f8135905061052881610504565b92915050565b5f60208284031215610543576105426104f7565b5b5f6105508482850161051a565b91505092915050565b5f73ffffffffffffffffffffffffffffffffffffffff82169050919050565b5f61058282610559565b9050919050565b61059281610578565b811461059c575f80fd5b50565b5f813590506105ad81610589565b92915050565b5f602082840312156105c8576105c76104f7565b5b5f6105d58482850161059f565b91505092915050565b6105e7816104fb565b82525050565b5f6020820190506106005f8301846105de565b92915050565b5f806040838503121561061c5761061b6104f7565b5b5f6106298582860161059f565b925050602061063a8582860161051a565b9150509250929050565b5f82825260208201905092915050565b7f5769746864726177616c20616d6f756e742073686f756c6420626520677265615f8201527f746572207468616e203000000000000000000000000000000000000000000000602082015250565b5f6106ae602a83610644565b91506106b982610654565b604082019050919050565b5f6020820190508181035f8301526106db816106a2565b9050919050565b7f4e487b71000000000000000000000000000000000000000000000000000000005f52601160045260245ffd5b5f610719826104fb565b9150610724836104fb565b925082820390508181111561073c5761073b6106e2565b5b92915050565b7f4d696e696d756d2062616c616e63652073686f756c64206265206d61696e74615f8201527f696e656400000000000000000000000000000000000000000000000000000000602082015250565b5f61079c602483610644565b91506107a782610742565b604082019050919050565b5f6020820190508181035f8301526107c981610790565b9050919050565b7f496e76616c696420726563697069656e742061646472657373000000000000005f82015250565b5f610804601983610644565b915061080f826107d0565b602082019050919050565b5f6020820190508181035f830152610831816107f8565b9050919050565b7f5472616e7366657220616d6f756e742073686f756c64206265206772656174655f8201527f72207468616e2030000000000000000000000000000000000000000000000000602082015250565b5f610892602883610644565b915061089d82610838565b604082019050919050565b5f6020820190508181035f8301526108bf81610886565b9050919050565b7f496e73756666696369656e742062616c616e63650000000000000000000000005f82015250565b5f6108fa601483610644565b9150610905826108c6565b602082019050919050565b5f6020820190508181035f830152610927816108ee565b9050919050565b5f610938826104fb565b9150610943836104fb565b925082820190508082111561095b5761095a6106e2565b5b92915050565b7f4465706f73697420616d6f756e742073686f756c6420626520677265617465725f8201527f207468616e203000000000000000000000000000000000000000000000000000602082015250565b5f6109bb602783610644565b91506109c682610961565b604082019050919050565b5f6020820190508181035f8301526109e8816109af565b905091905056fea264697066735822122027ebc5b65fb369b8fd78553be46e59aef1895c9a25653f54f71689831043eab564736f6c63430008160033",
					"opcodes": "PUSH1 0x80 PUSH1 0x40 MSTORE CALLVALUE DUP1 ISZERO PUSH2 0xF JUMPI PUSH0 DUP1 REVERT JUMPDEST POP PUSH2 0xA25 DUP1 PUSH2 0x1D PUSH0 CODECOPY PUSH0 RETURN INVALID PUSH1 0x80 PUSH1 0x40 MSTORE PUSH1 0x4 CALLDATASIZE LT PUSH2 0x3E JUMPI PUSH0 CALLDATALOAD PUSH1 0xE0 SHR DUP1 PUSH4 0x2E1A7D4D EQ PUSH2 0x42 JUMPI DUP1 PUSH4 0x5F515226 EQ PUSH2 0x6A JUMPI DUP1 PUSH4 0xA9059CBB EQ PUSH2 0xA6 JUMPI DUP1 PUSH4 0xD0E30DB0 EQ PUSH2 0xCE JUMPI JUMPDEST PUSH0 DUP1 REVERT JUMPDEST CALLVALUE DUP1 ISZERO PUSH2 0x4D JUMPI PUSH0 DUP1 REVERT JUMPDEST POP PUSH2 0x68 PUSH1 0x4 DUP1 CALLDATASIZE SUB DUP2 ADD SWAP1 PUSH2 0x63 SWAP2 SWAP1 PUSH2 0x52E JUMP JUMPDEST PUSH2 0xD8 JUMP JUMPDEST STOP JUMPDEST CALLVALUE DUP1 ISZERO PUSH2 0x75 JUMPI PUSH0 DUP1 REVERT JUMPDEST POP PUSH2 0x90 PUSH1 0x4 DUP1 CALLDATASIZE SUB DUP2 ADD SWAP1 PUSH2 0x8B SWAP2 SWAP1 PUSH2 0x5B3 JUMP JUMPDEST PUSH2 0x245 JUMP JUMPDEST PUSH1 0x40 MLOAD PUSH2 0x9D SWAP2 SWAP1 PUSH2 0x5ED JUMP JUMPDEST PUSH1 0x40 MLOAD DUP1 SWAP2 SUB SWAP1 RETURN JUMPDEST CALLVALUE DUP1 ISZERO PUSH2 0xB1 JUMPI PUSH0 DUP1 REVERT JUMPDEST POP PUSH2 0xCC PUSH1 0x4 DUP1 CALLDATASIZE SUB DUP2 ADD SWAP1 PUSH2 0xC7 SWAP2 SWAP1 PUSH2 0x606 JUMP JUMPDEST PUSH2 0x28A JUMP JUMPDEST STOP JUMPDEST PUSH2 0xD6 PUSH2 0x461 JUMP JUMPDEST STOP JUMPDEST PUSH0 DUP2 GT PUSH2 0x11A JUMPI PUSH1 0x40 MLOAD PUSH32 0x8C379A000000000000000000000000000000000000000000000000000000000 DUP2 MSTORE PUSH1 0x4 ADD PUSH2 0x111 SWAP1 PUSH2 0x6C4 JUMP JUMPDEST PUSH1 0x40 MLOAD DUP1 SWAP2 SUB SWAP1 REVERT JUMPDEST PUSH8 0xDE0B6B3A7640000 DUP2 PUSH0 DUP1 CALLER PUSH20 0xFFFFFFFFFFFFFFFFFFFFFFFFFFFFFFFFFFFFFFFF AND PUSH20 0xFFFFFFFFFFFFFFFFFFFFFFFFFFFFFFFFFFFFFFFF AND DUP2 MSTORE PUSH1 0x20 ADD SWAP1 DUP2 MSTORE PUSH1 0x20 ADD PUSH0 KECCAK256 SLOAD PUSH2 0x16B SWAP2 SWAP1 PUSH2 0x70F JUMP JUMPDEST LT ISZERO PUSH2 0x1AC JUMPI PUSH1 0x40 MLOAD PUSH32 0x8C379A000000000000000000000000000000000000000000000000000000000 DUP2 MSTORE PUSH1 0x4 ADD PUSH2 0x1A3 SWAP1 PUSH2 0x7B2 JUMP JUMPDEST PUSH1 0x40 MLOAD DUP1 SWAP2 SUB SWAP1 REVERT JUMPDEST DUP1 PUSH0 DUP1 CALLER PUSH20 0xFFFFFFFFFFFFFFFFFFFFFFFFFFFFFFFFFFFFFFFF AND PUSH20 0xFFFFFFFFFFFFFFFFFFFFFFFFFFFFFFFFFFFFFFFF AND DUP2 MSTORE PUSH1 0x20 ADD SWAP1 DUP2 MSTORE PUSH1 0x20 ADD PUSH0 KECCAK256 PUSH0 DUP3 DUP3 SLOAD PUSH2 0x1F7 SWAP2 SWAP1 PUSH2 0x70F JUMP JUMPDEST SWAP3 POP POP DUP2 SWAP1 SSTORE POP CALLER PUSH20 0xFFFFFFFFFFFFFFFFFFFFFFFFFFFFFFFFFFFFFFFF AND PUSH2 0x8FC DUP3 SWAP1 DUP2 ISZERO MUL SWAP1 PUSH1 0x40 MLOAD PUSH0 PUSH1 0x40 MLOAD DUP1 DUP4 SUB DUP2 DUP6 DUP9 DUP9 CALL SWAP4 POP POP POP POP ISZERO DUP1 ISZERO PUSH2 0x241 JUMPI RETURNDATASIZE PUSH0 DUP1 RETURNDATACOPY RETURNDATASIZE PUSH0 REVERT JUMPDEST POP POP JUMP JUMPDEST PUSH0 DUP1 PUSH0 DUP4 PUSH20 0xFFFFFFFFFFFFFFFFFFFFFFFFFFFFFFFFFFFFFFFF AND PUSH20 0xFFFFFFFFFFFFFFFFFFFFFFFFFFFFFFFFFFFFFFFF AND DUP2 MSTORE PUSH1 0x20 ADD SWAP1 DUP2 MSTORE PUSH1 0x20 ADD PUSH0 KECCAK256 SLOAD SWAP1 POP SWAP2 SWAP1 POP JUMP JUMPDEST PUSH0 PUSH20 0xFFFFFFFFFFFFFFFFFFFFFFFFFFFFFFFFFFFFFFFF AND DUP3 PUSH20 0xFFFFFFFFFFFFFFFFFFFFFFFFFFFFFFFFFFFFFFFF AND SUB PUSH2 0x2F8 JUMPI PUSH1 0x40 MLOAD PUSH32 0x8C379A000000000000000000000000000000000000000000000000000000000 DUP2 MSTORE PUSH1 0x4 ADD PUSH2 0x2EF SWAP1 PUSH2 0x81A JUMP JUMPDEST PUSH1 0x40 MLOAD DUP1 SWAP2 SUB SWAP1 REVERT JUMPDEST PUSH0 DUP2 GT PUSH2 0x33A JUMPI PUSH1 0x40 MLOAD PUSH32 0x8C379A000000000000000000000000000000000000000000000000000000000 DUP2 MSTORE PUSH1 0x4 ADD PUSH2 0x331 SWAP1 PUSH2 0x8A8 JUMP JUMPDEST PUSH1 0x40 MLOAD DUP1 SWAP2 SUB SWAP1 REVERT JUMPDEST DUP1 PUSH0 DUP1 CALLER PUSH20 0xFFFFFFFFFFFFFFFFFFFFFFFFFFFFFFFFFFFFFFFF AND PUSH20 0xFFFFFFFFFFFFFFFFFFFFFFFFFFFFFFFFFFFFFFFF AND DUP2 MSTORE PUSH1 0x20 ADD SWAP1 DUP2 MSTORE PUSH1 0x20 ADD PUSH0 KECCAK256 SLOAD LT ISZERO PUSH2 0x3B9 JUMPI PUSH1 0x40 MLOAD PUSH32 0x8C379A000000000000000000000000000000000000000000000000000000000 DUP2 MSTORE PUSH1 0x4 ADD PUSH2 0x3B0 SWAP1 PUSH2 0x910 JUMP JUMPDEST PUSH1 0x40 MLOAD DUP1 SWAP2 SUB SWAP1 REVERT JUMPDEST DUP1 PUSH0 DUP1 CALLER PUSH20 0xFFFFFFFFFFFFFFFFFFFFFFFFFFFFFFFFFFFFFFFF AND PUSH20 0xFFFFFFFFFFFFFFFFFFFFFFFFFFFFFFFFFFFFFFFF AND DUP2 MSTORE PUSH1 0x20 ADD SWAP1 DUP2 MSTORE PUSH1 0x20 ADD PUSH0 KECCAK256 PUSH0 DUP3 DUP3 SLOAD PUSH2 0x404 SWAP2 SWAP1 PUSH2 0x70F JUMP JUMPDEST SWAP3 POP POP DUP2 SWAP1 SSTORE POP DUP1 PUSH0 DUP1 DUP5 PUSH20 0xFFFFFFFFFFFFFFFFFFFFFFFFFFFFFFFFFFFFFFFF AND PUSH20 0xFFFFFFFFFFFFFFFFFFFFFFFFFFFFFFFFFFFFFFFF AND DUP2 MSTORE PUSH1 0x20 ADD SWAP1 DUP2 MSTORE PUSH1 0x20 ADD PUSH0 KECCAK256 PUSH0 DUP3 DUP3 SLOAD PUSH2 0x456 SWAP2 SWAP1 PUSH2 0x92E JUMP JUMPDEST SWAP3 POP POP DUP2 SWAP1 SSTORE POP POP POP JUMP JUMPDEST PUSH0 CALLVALUE GT PUSH2 0x4A3 JUMPI PUSH1 0x40 MLOAD PUSH32 0x8C379A000000000000000000000000000000000000000000000000000000000 DUP2 MSTORE PUSH1 0x4 ADD PUSH2 0x49A SWAP1 PUSH2 0x9D1 JUMP JUMPDEST PUSH1 0x40 MLOAD DUP1 SWAP2 SUB SWAP1 REVERT JUMPDEST CALLVALUE PUSH0 DUP1 CALLER PUSH20 0xFFFFFFFFFFFFFFFFFFFFFFFFFFFFFFFFFFFFFFFF AND PUSH20 0xFFFFFFFFFFFFFFFFFFFFFFFFFFFFFFFFFFFFFFFF AND DUP2 MSTORE PUSH1 0x20 ADD SWAP1 DUP2 MSTORE PUSH1 0x20 ADD PUSH0 KECCAK256 PUSH0 DUP3 DUP3 SLOAD PUSH2 0x4EE SWAP2 SWAP1 PUSH2 0x92E JUMP JUMPDEST SWAP3 POP POP DUP2 SWAP1 SSTORE POP JUMP JUMPDEST PUSH0 DUP1 REVERT JUMPDEST PUSH0 DUP2 SWAP1 POP SWAP2 SWAP1 POP JUMP JUMPDEST PUSH2 0x50D DUP2 PUSH2 0x4FB JUMP JUMPDEST DUP2 EQ PUSH2 0x517 JUMPI PUSH0 DUP1 REVERT JUMPDEST POP JUMP JUMPDEST PUSH0 DUP2 CALLDATALOAD SWAP1 POP PUSH2 0x528 DUP2 PUSH2 0x504 JUMP JUMPDEST SWAP3 SWAP2 POP POP JUMP JUMPDEST PUSH0 PUSH1 0x20 DUP3 DUP5 SUB SLT ISZERO PUSH2 0x543 JUMPI PUSH2 0x542 PUSH2 0x4F7 JUMP JUMPDEST JUMPDEST PUSH0 PUSH2 0x550 DUP5 DUP3 DUP6 ADD PUSH2 0x51A JUMP JUMPDEST SWAP2 POP POP SWAP3 SWAP2 POP POP JUMP JUMPDEST PUSH0 PUSH20 0xFFFFFFFFFFFFFFFFFFFFFFFFFFFFFFFFFFFFFFFF DUP3 AND SWAP1 POP SWAP2 SWAP1 POP JUMP JUMPDEST PUSH0 PUSH2 0x582 DUP3 PUSH2 0x559 JUMP JUMPDEST SWAP1 POP SWAP2 SWAP1 POP JUMP JUMPDEST PUSH2 0x592 DUP2 PUSH2 0x578 JUMP JUMPDEST DUP2 EQ PUSH2 0x59C JUMPI PUSH0 DUP1 REVERT JUMPDEST POP JUMP JUMPDEST PUSH0 DUP2 CALLDATALOAD SWAP1 POP PUSH2 0x5AD DUP2 PUSH2 0x589 JUMP JUMPDEST SWAP3 SWAP2 POP POP JUMP JUMPDEST PUSH0 PUSH1 0x20 DUP3 DUP5 SUB SLT ISZERO PUSH2 0x5C8 JUMPI PUSH2 0x5C7 PUSH2 0x4F7 JUMP JUMPDEST JUMPDEST PUSH0 PUSH2 0x5D5 DUP5 DUP3 DUP6 ADD PUSH2 0x59F JUMP JUMPDEST SWAP2 POP POP SWAP3 SWAP2 POP POP JUMP JUMPDEST PUSH2 0x5E7 DUP2 PUSH2 0x4FB JUMP JUMPDEST DUP3 MSTORE POP POP JUMP JUMPDEST PUSH0 PUSH1 0x20 DUP3 ADD SWAP1 POP PUSH2 0x600 PUSH0 DUP4 ADD DUP5 PUSH2 0x5DE JUMP JUMPDEST SWAP3 SWAP2 POP POP JUMP JUMPDEST PUSH0 DUP1 PUSH1 0x40 DUP4 DUP6 SUB SLT ISZERO PUSH2 0x61C JUMPI PUSH2 0x61B PUSH2 0x4F7 JUMP JUMPDEST JUMPDEST PUSH0 PUSH2 0x629 DUP6 DUP3 DUP7 ADD PUSH2 0x59F JUMP JUMPDEST SWAP3 POP POP PUSH1 0x20 PUSH2 0x63A DUP6 DUP3 DUP7 ADD PUSH2 0x51A JUMP JUMPDEST SWAP2 POP POP SWAP3 POP SWAP3 SWAP1 POP JUMP JUMPDEST PUSH0 DUP3 DUP3 MSTORE PUSH1 0x20 DUP3 ADD SWAP1 POP SWAP3 SWAP2 POP POP JUMP JUMPDEST PUSH32 0x5769746864726177616C20616D6F756E742073686F756C642062652067726561 PUSH0 DUP3 ADD MSTORE PUSH32 0x746572207468616E203000000000000000000000000000000000000000000000 PUSH1 0x20 DUP3 ADD MSTORE POP JUMP JUMPDEST PUSH0 PUSH2 0x6AE PUSH1 0x2A DUP4 PUSH2 0x644 JUMP JUMPDEST SWAP2 POP PUSH2 0x6B9 DUP3 PUSH2 0x654 JUMP JUMPDEST PUSH1 0x40 DUP3 ADD SWAP1 POP SWAP2 SWAP1 POP JUMP JUMPDEST PUSH0 PUSH1 0x20 DUP3 ADD SWAP1 POP DUP2 DUP2 SUB PUSH0 DUP4 ADD MSTORE PUSH2 0x6DB DUP2 PUSH2 0x6A2 JUMP JUMPDEST SWAP1 POP SWAP2 SWAP1 POP JUMP JUMPDEST PUSH32 0x4E487B7100000000000000000000000000000000000000000000000000000000 PUSH0 MSTORE PUSH1 0x11 PUSH1 0x4 MSTORE PUSH1 0x24 PUSH0 REVERT JUMPDEST PUSH0 PUSH2 0x719 DUP3 PUSH2 0x4FB JUMP JUMPDEST SWAP2 POP PUSH2 0x724 DUP4 PUSH2 0x4FB JUMP JUMPDEST SWAP3 POP DUP3 DUP3 SUB SWAP1 POP DUP2 DUP2 GT ISZERO PUSH2 0x73C JUMPI PUSH2 0x73B PUSH2 0x6E2 JUMP JUMPDEST JUMPDEST SWAP3 SWAP2 POP POP JUMP JUMPDEST PUSH32 0x4D696E696D756D2062616C616E63652073686F756C64206265206D61696E7461 PUSH0 DUP3 ADD MSTORE PUSH32 0x696E656400000000000000000000000000000000000000000000000000000000 PUSH1 0x20 DUP3 ADD MSTORE POP JUMP JUMPDEST PUSH0 PUSH2 0x79C PUSH1 0x24 DUP4 PUSH2 0x644 JUMP JUMPDEST SWAP2 POP PUSH2 0x7A7 DUP3 PUSH2 0x742 JUMP JUMPDEST PUSH1 0x40 DUP3 ADD SWAP1 POP SWAP2 SWAP1 POP JUMP JUMPDEST PUSH0 PUSH1 0x20 DUP3 ADD SWAP1 POP DUP2 DUP2 SUB PUSH0 DUP4 ADD MSTORE PUSH2 0x7C9 DUP2 PUSH2 0x790 JUMP JUMPDEST SWAP1 POP SWAP2 SWAP1 POP JUMP JUMPDEST PUSH32 0x496E76616C696420726563697069656E74206164647265737300000000000000 PUSH0 DUP3 ADD MSTORE POP JUMP JUMPDEST PUSH0 PUSH2 0x804 PUSH1 0x19 DUP4 PUSH2 0x644 JUMP JUMPDEST SWAP2 POP PUSH2 0x80F DUP3 PUSH2 0x7D0 JUMP JUMPDEST PUSH1 0x20 DUP3 ADD SWAP1 POP SWAP2 SWAP1 POP JUMP JUMPDEST PUSH0 PUSH1 0x20 DUP3 ADD SWAP1 POP DUP2 DUP2 SUB PUSH0 DUP4 ADD MSTORE PUSH2 0x831 DUP2 PUSH2 0x7F8 JUMP JUMPDEST SWAP1 POP SWAP2 SWAP1 POP JUMP JUMPDEST PUSH32 0x5472616E7366657220616D6F756E742073686F756C6420626520677265617465 PUSH0 DUP3 ADD MSTORE PUSH32 0x72207468616E2030000000000000000000000000000000000000000000000000 PUSH1 0x20 DUP3 ADD MSTORE POP JUMP JUMPDEST PUSH0 PUSH2 0x892 PUSH1 0x28 DUP4 PUSH2 0x644 JUMP JUMPDEST SWAP2 POP PUSH2 0x89D DUP3 PUSH2 0x838 JUMP JUMPDEST PUSH1 0x40 DUP3 ADD SWAP1 POP SWAP2 SWAP1 POP JUMP JUMPDEST PUSH0 PUSH1 0x20 DUP3 ADD SWAP1 POP DUP2 DUP2 SUB PUSH0 DUP4 ADD MSTORE PUSH2 0x8BF DUP2 PUSH2 0x886 JUMP JUMPDEST SWAP1 POP SWAP2 SWAP1 POP JUMP JUMPDEST PUSH32 0x496E73756666696369656E742062616C616E6365000000000000000000000000 PUSH0 DUP3 ADD MSTORE POP JUMP JUMPDEST PUSH0 PUSH2 0x8FA PUSH1 0x14 DUP4 PUSH2 0x644 JUMP JUMPDEST SWAP2 POP PUSH2 0x905 DUP3 PUSH2 0x8C6 JUMP JUMPDEST PUSH1 0x20 DUP3 ADD SWAP1 POP SWAP2 SWAP1 POP JUMP JUMPDEST PUSH0 PUSH1 0x20 DUP3 ADD SWAP1 POP DUP2 DUP2 SUB PUSH0 DUP4 ADD MSTORE PUSH2 0x927 DUP2 PUSH2 0x8EE JUMP JUMPDEST SWAP1 POP SWAP2 SWAP1 POP JUMP JUMPDEST PUSH0 PUSH2 0x938 DUP3 PUSH2 0x4FB JUMP JUMPDEST SWAP2 POP PUSH2 0x943 DUP4 PUSH2 0x4FB JUMP JUMPDEST SWAP3 POP DUP3 DUP3 ADD SWAP1 POP DUP1 DUP3 GT ISZERO PUSH2 0x95B JUMPI PUSH2 0x95A PUSH2 0x6E2 JUMP JUMPDEST JUMPDEST SWAP3 SWAP2 POP POP JUMP JUMPDEST PUSH32 0x4465706F73697420616D6F756E742073686F756C642062652067726561746572 PUSH0 DUP3 ADD MSTORE PUSH32 0x207468616E203000000000000000000000000000000000000000000000000000 PUSH1 0x20 DUP3 ADD MSTORE POP JUMP JUMPDEST PUSH0 PUSH2 0x9BB PUSH1 0x27 DUP4 PUSH2 0x644 JUMP JUMPDEST SWAP2 POP PUSH2 0x9C6 DUP3 PUSH2 0x961 JUMP JUMPDEST PUSH1 0x40 DUP3 ADD SWAP1 POP SWAP2 SWAP1 POP JUMP JUMPDEST PUSH0 PUSH1 0x20 DUP3 ADD SWAP1 POP DUP2 DUP2 SUB PUSH0 DUP4 ADD MSTORE PUSH2 0x9E8 DUP2 PUSH2 0x9AF JUMP JUMPDEST SWAP1 POP SWAP2 SWAP1 POP JUMP INVALID LOG2 PUSH5 0x6970667358 0x22 SLT KECCAK256 0x27 0xEB 0xC5 0xB6 PUSH0 0xB3 PUSH10 0xB8FD78553BE46E59AEF1 DUP10 0x5C SWAP11 0x25 PUSH6 0x3F54F7168983 LT NUMBER 0xEA 0xB5 PUSH5 0x736F6C6343 STOP ADDMOD AND STOP CALLER "
				},
				"gasEstimates": {
					"creation": {
						"codeDepositCost": "519400",
						"executionCost": "554",
						"totalCost": "519954"
					},
					"external": {
						"checkBalance(address)": "2829",
						"deposit()": "infinite",
						"transfer(address,uint256)": "infinite",
						"withdraw(uint256)": "infinite"
					}
				},
				"methodIdentifiers": {
					"checkBalance(address)": "5f515226",
					"deposit()": "d0e30db0",
					"transfer(address,uint256)": "a9059cbb",
					"withdraw(uint256)": "2e1a7d4d"
				}
			},
			"storageLayout": {
				"storage": [
					{
						"astId": 5,
						"contract": "contracts/SimpleBank.sol:SimpleBank",
						"label": "balances",
						"offset": 0,
						"slot": "0",
						"type": "t_mapping(t_address,t_uint256)"
					}
				],
				"types": {
					"t_address": {
						"encoding": "inplace",
						"label": "address",
						"numberOfBytes": "20"
					},
					"t_mapping(t_address,t_uint256)": {
						"encoding": "mapping",
						"key": "t_address",
						"label": "mapping(address => uint256)",
						"numberOfBytes": "32",
						"value": "t_uint256"
					},
					"t_uint256": {
						"encoding": "inplace",
						"label": "uint256",
						"numberOfBytes": "32"
					}
				}
			},
			"userdoc": {
				"kind": "user",
				"methods": {},
				"version": 1
			}
		}
	}
}