{
	"contracts/HelloWorld3.sol": {
		"Ballot": {
			"abi": [
				{
					"inputs": [
						{
							"internalType": "string[]",
							"name": "candidateNames",
							"type": "string[]"
						},
						{
							"internalType": "address[]",
							"name": "voters",
							"type": "address[]"
						}
					],
					"stateMutability": "nonpayable",
					"type": "constructor"
				},
				{
					"inputs": [
						{
							"internalType": "string",
							"name": "candidate",
							"type": "string"
						}
					],
					"name": "castVote",
					"outputs": [],
					"stateMutability": "nonpayable",
					"type": "function"
				},
				{
					"inputs": [],
					"name": "chairperson",
					"outputs": [
						{
							"internalType": "address",
							"name": "",
							"type": "address"
						}
					],
					"stateMutability": "view",
					"type": "function"
				},
				{
					"inputs": [],
					"name": "stopVoting",
					"outputs": [],
					"stateMutability": "nonpayable",
					"type": "function"
				},
				{
					"inputs": [
						{
							"internalType": "string",
							"name": "candidate",
							"type": "string"
						}
					],
					"name": "totalVotesFor",
					"outputs": [
						{
							"internalType": "uint256",
							"name": "",
							"type": "uint256"
						}
					],
					"stateMutability": "view",
					"type": "function"
				},
				{
					"inputs": [],
					"name": "votingState",
					"outputs": [
						{
							"internalType": "bool",
							"name": "",
							"type": "bool"
						}
					],
					"stateMutability": "view",
					"type": "function"
				}
			],
			"devdoc": {
				"kind": "dev",
				"methods": {},
				"version": 1
			},
			"evm": {
				"assembly": "    /* \"contracts/HelloWorld3.sol\":65:1654  contract Ballot {... */\n  mstore(0x40, 0x80)\n    /* \"contracts/HelloWorld3.sol\":274:481  constructor(string[] memory candidateNames, address[] memory voters) {... */\n  callvalue\n  dup1\n  iszero\n  tag_1\n  jumpi\n  0x00\n  dup1\n  revert\ntag_1:\n  pop\n  mload(0x40)\n  sub(codesize, bytecodeSize)\n  dup1\n  bytecodeSize\n  dup4\n  codecopy\n  dup2\n  dup2\n  add\n  0x40\n  mstore\n  dup2\n  add\n  swap1\n  tag_2\n  swap2\n  swap1\n  tag_3\n  jump\t// in\ntag_2:\n    /* \"contracts/HelloWorld3.sol\":367:377  msg.sender */\n  caller\n    /* \"contracts/HelloWorld3.sol\":353:364  chairperson */\n  0x01\n  0x00\n    /* \"contracts/HelloWorld3.sol\":353:377  chairperson = msg.sender */\n  0x0100\n  exp\n  dup2\n  sload\n  dup2\n  0xffffffffffffffffffffffffffffffffffffffff\n  mul\n  not\n  and\n  swap1\n  dup4\n  0xffffffffffffffffffffffffffffffffffffffff\n  and\n  mul\n  or\n  swap1\n  sstore\n  pop\n    /* \"contracts/HelloWorld3.sol\":403:417  candidateNames */\n  dup2\n    /* \"contracts/HelloWorld3.sol\":387:400  candidateList */\n  0x02\n    /* \"contracts/HelloWorld3.sol\":387:417  candidateList = candidateNames */\n  swap1\n  dup1\n  mload\n  swap1\n  0x20\n  add\n  swap1\n  tag_6\n  swap3\n  swap2\n  swap1\n  tag_7\n  jump\t// in\ntag_6:\n  pop\n    /* \"contracts/HelloWorld3.sol\":440:446  voters */\n  dup1\n    /* \"contracts/HelloWorld3.sol\":427:437  votersList */\n  0x03\n    /* \"contracts/HelloWorld3.sol\":427:446  votersList = voters */\n  swap1\n  dup1\n  mload\n  swap1\n  0x20\n  add\n  swap1\n  tag_8\n  swap3\n  swap2\n  swap1\n  tag_9\n  jump\t// in\ntag_8:\n  pop\n    /* \"contracts/HelloWorld3.sol\":470:474  true */\n  0x01\n    /* \"contracts/HelloWorld3.sol\":456:467  votingState */\n  0x04\n  0x00\n    /* \"contracts/HelloWorld3.sol\":456:474  votingState = true */\n  0x0100\n  exp\n  dup2\n  sload\n  dup2\n  0xff\n  mul\n  not\n  and\n  swap1\n  dup4\n  iszero\n  iszero\n  mul\n  or\n  swap1\n  sstore\n  pop\n    /* \"contracts/HelloWorld3.sol\":274:481  constructor(string[] memory candidateNames, address[] memory voters) {... */\n  pop\n  pop\n    /* \"contracts/HelloWorld3.sol\":65:1654  contract Ballot {... */\n  jump(tag_10)\ntag_7:\n  dup3\n  dup1\n  sload\n  dup3\n  dup3\n  sstore\n  swap1\n  0x00\n  mstore\n  keccak256(0x00, 0x20)\n  swap1\n  dup2\n  add\n  swap3\n  dup3\n  iszero\n  tag_11\n  jumpi\n  swap2\n  0x20\n  mul\n  dup3\n  add\ntag_12:\n  dup3\n  dup2\n  gt\n  iszero\n  tag_13\n  jumpi\n  dup3\n  mload\n  dup3\n  swap1\n  dup1\n  mload\n  swap1\n  0x20\n  add\n  swap1\n  tag_14\n  swap3\n  swap2\n  swap1\n  tag_15\n  jump\t// in\ntag_14:\n  pop\n  swap2\n  0x20\n  add\n  swap2\n  swap1\n  0x01\n  add\n  swap1\n  jump(tag_12)\ntag_13:\ntag_11:\n  pop\n  swap1\n  pop\n  tag_16\n  swap2\n  swap1\n  tag_17\n  jump\t// in\ntag_16:\n  pop\n  swap1\n  jump\t// out\ntag_9:\n  dup3\n  dup1\n  sload\n  dup3\n  dup3\n  sstore\n  swap1\n  0x00\n  mstore\n  keccak256(0x00, 0x20)\n  swap1\n  dup2\n  add\n  swap3\n  dup3\n  iszero\n  tag_18\n  jumpi\n  swap2\n  0x20\n  mul\n  dup3\n  add\ntag_19:\n  dup3\n  dup2\n  gt\n  iszero\n  tag_20\n  jumpi\n  dup3\n  mload\n  dup3\n  exp(0x0100, 0x00)\n  dup2\n  sload\n  dup2\n  0xffffffffffffffffffffffffffffffffffffffff\n  mul\n  not\n  and\n  swap1\n  dup4\n  0xffffffffffffffffffffffffffffffffffffffff\n  and\n  mul\n  or\n  swap1\n  sstore\n  pop\n  swap2\n  0x20\n  add\n  swap2\n  swap1\n  0x01\n  add\n  swap1\n  jump(tag_19)\ntag_20:\ntag_18:\n  pop\n  swap1\n  pop\n  tag_21\n  swap2\n  swap1\n  tag_22\n  jump\t// in\ntag_21:\n  pop\n  swap1\n  jump\t// out\ntag_15:\n  dup3\n  dup1\n  sload\n  tag_23\n  swap1\n  tag_24\n  jump\t// in\ntag_23:\n  swap1\n  0x00\n  mstore\n  keccak256(0x00, 0x20)\n  swap1\n  0x1f\n  add\n  0x20\n  swap1\n  div\n  dup2\n  add\n  swap3\n  dup3\n  tag_26\n  jumpi\n  0x00\n  dup6\n  sstore\n  jump(tag_25)\ntag_26:\n  dup3\n  0x1f\n  lt\n  tag_27\n  jumpi\n  dup1\n  mload\n  not(0xff)\n  and\n  dup4\n  dup1\n  add\n  or\n  dup6\n  sstore\n  jump(tag_25)\ntag_27:\n  dup3\n  dup1\n  add\n  0x01\n  add\n  dup6\n  sstore\n  dup3\n  iszero\n  tag_25\n  jumpi\n  swap2\n  dup3\n  add\ntag_28:\n  dup3\n  dup2\n  gt\n  iszero\n  tag_29\n  jumpi\n  dup3\n  mload\n  dup3\n  sstore\n  swap2\n  0x20\n  add\n  swap2\n  swap1\n  0x01\n  add\n  swap1\n  jump(tag_28)\ntag_29:\ntag_25:\n  pop\n  swap1\n  pop\n  tag_30\n  swap2\n  swap1\n  tag_22\n  jump\t// in\ntag_30:\n  pop\n  swap1\n  jump\t// out\ntag_17:\ntag_31:\n  dup1\n  dup3\n  gt\n  iszero\n  tag_32\n  jumpi\n  0x00\n  dup2\n  dup2\n  tag_33\n  swap2\n  swap1\n  tag_34\n  jump\t// in\ntag_33:\n  pop\n  0x01\n  add\n  jump(tag_31)\ntag_32:\n  pop\n  swap1\n  jump\t// out\ntag_22:\ntag_35:\n  dup1\n  dup3\n  gt\n  iszero\n  tag_36\n  jumpi\n  0x00\n  dup2\n  0x00\n  swap1\n  sstore\n  pop\n  0x01\n  add\n  jump(tag_35)\ntag_36:\n  pop\n  swap1\n  jump\t// out\ntag_34:\n  pop\n  dup1\n  sload\n  tag_37\n  swap1\n  tag_24\n  jump\t// in\ntag_37:\n  0x00\n  dup3\n  sstore\n  dup1\n  0x1f\n  lt\n  tag_39\n  jumpi\n  pop\n  jump(tag_38)\ntag_39:\n  0x1f\n  add\n  0x20\n  swap1\n  div\n  swap1\n  0x00\n  mstore\n  keccak256(0x00, 0x20)\n  swap1\n  dup2\n  add\n  swap1\n  tag_40\n  swap2\n  swap1\n  tag_22\n  jump\t// in\ntag_40:\ntag_38:\n  pop\n  jump\t// out\n    /* \"#utility.yul\":24:668   */\ntag_42:\n  0x00\n    /* \"#utility.yul\":156:236   */\n  tag_44\n    /* \"#utility.yul\":171:235   */\n  tag_45\n    /* \"#utility.yul\":228:234   */\n  dup5\n    /* \"#utility.yul\":171:235   */\n  tag_46\n  jump\t// in\ntag_45:\n    /* \"#utility.yul\":156:236   */\n  tag_47\n  jump\t// in\ntag_44:\n    /* \"#utility.yul\":147:236   */\n  swap1\n  pop\n    /* \"#utility.yul\":256:261   */\n  dup1\n    /* \"#utility.yul\":284:290   */\n  dup4\n    /* \"#utility.yul\":277:282   */\n  dup3\n    /* \"#utility.yul\":270:291   */\n  mstore\n    /* \"#utility.yul\":310:314   */\n  0x20\n    /* \"#utility.yul\":303:308   */\n  dup3\n    /* \"#utility.yul\":299:315   */\n  add\n    /* \"#utility.yul\":292:315   */\n  swap1\n  pop\n    /* \"#utility.yul\":335:341   */\n  dup3\n    /* \"#utility.yul\":385:388   */\n  dup6\n    /* \"#utility.yul\":377:381   */\n  0x20\n    /* \"#utility.yul\":369:375   */\n  dup7\n    /* \"#utility.yul\":365:382   */\n  mul\n    /* \"#utility.yul\":360:363   */\n  dup3\n    /* \"#utility.yul\":356:383   */\n  add\n    /* \"#utility.yul\":353:389   */\n  gt\n    /* \"#utility.yul\":350:352   */\n  iszero\n  tag_48\n  jumpi\n    /* \"#utility.yul\":402:403   */\n  0x00\n    /* \"#utility.yul\":399:400   */\n  dup1\n    /* \"#utility.yul\":392:404   */\n  revert\n    /* \"#utility.yul\":350:352   */\ntag_48:\n    /* \"#utility.yul\":430:431   */\n  0x00\n    /* \"#utility.yul\":415:662   */\ntag_49:\n    /* \"#utility.yul\":440:446   */\n  dup6\n    /* \"#utility.yul\":437:438   */\n  dup2\n    /* \"#utility.yul\":434:447   */\n  lt\n    /* \"#utility.yul\":415:662   */\n  iszero\n  tag_51\n  jumpi\n    /* \"#utility.yul\":507:510   */\n  dup2\n    /* \"#utility.yul\":535:583   */\n  tag_52\n    /* \"#utility.yul\":579:582   */\n  dup9\n    /* \"#utility.yul\":567:577   */\n  dup3\n    /* \"#utility.yul\":535:583   */\n  tag_53\n  jump\t// in\ntag_52:\n    /* \"#utility.yul\":530:533   */\n  dup5\n    /* \"#utility.yul\":523:584   */\n  mstore\n    /* \"#utility.yul\":613:617   */\n  0x20\n    /* \"#utility.yul\":608:611   */\n  dup5\n    /* \"#utility.yul\":604:618   */\n  add\n    /* \"#utility.yul\":597:618   */\n  swap4\n  pop\n    /* \"#utility.yul\":647:651   */\n  0x20\n    /* \"#utility.yul\":642:645   */\n  dup4\n    /* \"#utility.yul\":638:652   */\n  add\n    /* \"#utility.yul\":631:652   */\n  swap3\n  pop\n    /* \"#utility.yul\":475:662   */\n  pop\n    /* \"#utility.yul\":462:463   */\n  0x01\n    /* \"#utility.yul\":459:460   */\n  dup2\n    /* \"#utility.yul\":455:464   */\n  add\n    /* \"#utility.yul\":450:464   */\n  swap1\n  pop\n    /* \"#utility.yul\":415:662   */\n  jump(tag_49)\ntag_51:\n    /* \"#utility.yul\":419:433   */\n  pop\n    /* \"#utility.yul\":137:668   */\n  pop\n  pop\n  swap4\n  swap3\n  pop\n  pop\n  pop\n  jump\t// out\n    /* \"#utility.yul\":690:1320   */\ntag_54:\n  0x00\n    /* \"#utility.yul\":832:922   */\n  tag_56\n    /* \"#utility.yul\":847:921   */\n  tag_57\n    /* \"#utility.yul\":914:920   */\n  dup5\n    /* \"#utility.yul\":847:921   */\n  tag_58\n  jump\t// in\ntag_57:\n    /* \"#utility.yul\":832:922   */\n  tag_47\n  jump\t// in\ntag_56:\n    /* \"#utility.yul\":823:922   */\n  swap1\n  pop\n    /* \"#utility.yul\":942:947   */\n  dup1\n    /* \"#utility.yul\":970:976   */\n  dup4\n    /* \"#utility.yul\":963:968   */\n  dup3\n    /* \"#utility.yul\":956:977   */\n  mstore\n    /* \"#utility.yul\":996:1000   */\n  0x20\n    /* \"#utility.yul\":989:994   */\n  dup3\n    /* \"#utility.yul\":985:1001   */\n  add\n    /* \"#utility.yul\":978:1001   */\n  swap1\n  pop\n    /* \"#utility.yul\":1021:1027   */\n  dup3\n    /* \"#utility.yul\":1052:1053   */\n  0x00\n    /* \"#utility.yul\":1037:1314   */\ntag_59:\n    /* \"#utility.yul\":1062:1068   */\n  dup6\n    /* \"#utility.yul\":1059:1060   */\n  dup2\n    /* \"#utility.yul\":1056:1069   */\n  lt\n    /* \"#utility.yul\":1037:1314   */\n  iszero\n  tag_61\n  jumpi\n    /* \"#utility.yul\":1147:1150   */\n  dup2\n    /* \"#utility.yul\":1141:1151   */\n  mload\n    /* \"#utility.yul\":1133:1139   */\n  dup6\n    /* \"#utility.yul\":1129:1152   */\n  add\n    /* \"#utility.yul\":1177:1235   */\n  tag_62\n    /* \"#utility.yul\":1231:1234   */\n  dup9\n    /* \"#utility.yul\":1219:1229   */\n  dup3\n    /* \"#utility.yul\":1177:1235   */\n  tag_63\n  jump\t// in\ntag_62:\n    /* \"#utility.yul\":1172:1175   */\n  dup5\n    /* \"#utility.yul\":1165:1236   */\n  mstore\n    /* \"#utility.yul\":1265:1269   */\n  0x20\n    /* \"#utility.yul\":1260:1263   */\n  dup5\n    /* \"#utility.yul\":1256:1270   */\n  add\n    /* \"#utility.yul\":1249:1270   */\n  swap4\n  pop\n    /* \"#utility.yul\":1299:1303   */\n  0x20\n    /* \"#utility.yul\":1294:1297   */\n  dup4\n    /* \"#utility.yul\":1290:1304   */\n  add\n    /* \"#utility.yul\":1283:1304   */\n  swap3\n  pop\n    /* \"#utility.yul\":1097:1314   */\n  pop\n    /* \"#utility.yul\":1084:1085   */\n  0x01\n    /* \"#utility.yul\":1081:1082   */\n  dup2\n    /* \"#utility.yul\":1077:1086   */\n  add\n    /* \"#utility.yul\":1072:1086   */\n  swap1\n  pop\n    /* \"#utility.yul\":1037:1314   */\n  jump(tag_59)\ntag_61:\n    /* \"#utility.yul\":1041:1055   */\n  pop\n    /* \"#utility.yul\":813:1320   */\n  pop\n  pop\n  swap4\n  swap3\n  pop\n  pop\n  pop\n  jump\t// out\n    /* \"#utility.yul\":1326:1679   */\ntag_64:\n  0x00\n    /* \"#utility.yul\":1440:1505   */\n  tag_66\n    /* \"#utility.yul\":1455:1504   */\n  tag_67\n    /* \"#utility.yul\":1497:1503   */\n  dup5\n    /* \"#utility.yul\":1455:1504   */\n  tag_68\n  jump\t// in\ntag_67:\n    /* \"#utility.yul\":1440:1505   */\n  tag_47\n  jump\t// in\ntag_66:\n    /* \"#utility.yul\":1431:1505   */\n  swap1\n  pop\n    /* \"#utility.yul\":1528:1534   */\n  dup3\n    /* \"#utility.yul\":1521:1526   */\n  dup2\n    /* \"#utility.yul\":1514:1535   */\n  mstore\n    /* \"#utility.yul\":1566:1570   */\n  0x20\n    /* \"#utility.yul\":1559:1564   */\n  dup2\n    /* \"#utility.yul\":1555:1571   */\n  add\n    /* \"#utility.yul\":1604:1607   */\n  dup5\n    /* \"#utility.yul\":1595:1601   */\n  dup5\n    /* \"#utility.yul\":1590:1593   */\n  dup5\n    /* \"#utility.yul\":1586:1602   */\n  add\n    /* \"#utility.yul\":1583:1608   */\n  gt\n    /* \"#utility.yul\":1580:1582   */\n  iszero\n  tag_69\n  jumpi\n    /* \"#utility.yul\":1621:1622   */\n  0x00\n    /* \"#utility.yul\":1618:1619   */\n  dup1\n    /* \"#utility.yul\":1611:1623   */\n  revert\n    /* \"#utility.yul\":1580:1582   */\ntag_69:\n    /* \"#utility.yul\":1634:1673   */\n  tag_70\n    /* \"#utility.yul\":1666:1672   */\n  dup5\n    /* \"#utility.yul\":1661:1664   */\n  dup3\n    /* \"#utility.yul\":1656:1659   */\n  dup6\n    /* \"#utility.yul\":1634:1673   */\n  tag_71\n  jump\t// in\ntag_70:\n    /* \"#utility.yul\":1421:1679   */\n  pop\n  swap4\n  swap3\n  pop\n  pop\n  pop\n  jump\t// out\n    /* \"#utility.yul\":1685:1828   */\ntag_53:\n  0x00\n    /* \"#utility.yul\":1773:1779   */\n  dup2\n    /* \"#utility.yul\":1767:1780   */\n  mload\n    /* \"#utility.yul\":1758:1780   */\n  swap1\n  pop\n    /* \"#utility.yul\":1789:1822   */\n  tag_73\n    /* \"#utility.yul\":1816:1821   */\n  dup2\n    /* \"#utility.yul\":1789:1822   */\n  tag_74\n  jump\t// in\ntag_73:\n    /* \"#utility.yul\":1748:1828   */\n  swap3\n  swap2\n  pop\n  pop\n  jump\t// out\n    /* \"#utility.yul\":1851:2169   */\ntag_75:\n  0x00\n    /* \"#utility.yul\":1982:1985   */\n  dup3\n    /* \"#utility.yul\":1975:1979   */\n  0x1f\n    /* \"#utility.yul\":1967:1973   */\n  dup4\n    /* \"#utility.yul\":1963:1980   */\n  add\n    /* \"#utility.yul\":1959:1986   */\n  slt\n    /* \"#utility.yul\":1949:1951   */\n  tag_77\n  jumpi\n    /* \"#utility.yul\":2000:2001   */\n  0x00\n    /* \"#utility.yul\":1997:1998   */\n  dup1\n    /* \"#utility.yul\":1990:2002   */\n  revert\n    /* \"#utility.yul\":1949:1951   */\ntag_77:\n    /* \"#utility.yul\":2033:2039   */\n  dup2\n    /* \"#utility.yul\":2027:2040   */\n  mload\n    /* \"#utility.yul\":2058:2163   */\n  tag_78\n    /* \"#utility.yul\":2159:2162   */\n  dup5\n    /* \"#utility.yul\":2151:2157   */\n  dup3\n    /* \"#utility.yul\":2144:2148   */\n  0x20\n    /* \"#utility.yul\":2136:2142   */\n  dup7\n    /* \"#utility.yul\":2132:2149   */\n  add\n    /* \"#utility.yul\":2058:2163   */\n  tag_42\n  jump\t// in\ntag_78:\n    /* \"#utility.yul\":2049:2163   */\n  swap2\n  pop\n    /* \"#utility.yul\":1939:2169   */\n  pop\n  swap3\n  swap2\n  pop\n  pop\n  jump\t// out\n    /* \"#utility.yul\":2191:2529   */\ntag_79:\n  0x00\n    /* \"#utility.yul\":2332:2335   */\n  dup3\n    /* \"#utility.yul\":2325:2329   */\n  0x1f\n    /* \"#utility.yul\":2317:2323   */\n  dup4\n    /* \"#utility.yul\":2313:2330   */\n  add\n    /* \"#utility.yul\":2309:2336   */\n  slt\n    /* \"#utility.yul\":2299:2301   */\n  tag_81\n  jumpi\n    /* \"#utility.yul\":2350:2351   */\n  0x00\n    /* \"#utility.yul\":2347:2348   */\n  dup1\n    /* \"#utility.yul\":2340:2352   */\n  revert\n    /* \"#utility.yul\":2299:2301   */\ntag_81:\n    /* \"#utility.yul\":2383:2389   */\n  dup2\n    /* \"#utility.yul\":2377:2390   */\n  mload\n    /* \"#utility.yul\":2408:2523   */\n  tag_82\n    /* \"#utility.yul\":2519:2522   */\n  dup5\n    /* \"#utility.yul\":2511:2517   */\n  dup3\n    /* \"#utility.yul\":2504:2508   */\n  0x20\n    /* \"#utility.yul\":2496:2502   */\n  dup7\n    /* \"#utility.yul\":2492:2509   */\n  add\n    /* \"#utility.yul\":2408:2523   */\n  tag_54\n  jump\t// in\ntag_82:\n    /* \"#utility.yul\":2399:2523   */\n  swap2\n  pop\n    /* \"#utility.yul\":2289:2529   */\n  pop\n  swap3\n  swap2\n  pop\n  pop\n  jump\t// out\n    /* \"#utility.yul\":2549:2837   */\ntag_63:\n  0x00\n    /* \"#utility.yul\":2665:2668   */\n  dup3\n    /* \"#utility.yul\":2658:2662   */\n  0x1f\n    /* \"#utility.yul\":2650:2656   */\n  dup4\n    /* \"#utility.yul\":2646:2663   */\n  add\n    /* \"#utility.yul\":2642:2669   */\n  slt\n    /* \"#utility.yul\":2632:2634   */\n  tag_84\n  jumpi\n    /* \"#utility.yul\":2683:2684   */\n  0x00\n    /* \"#utility.yul\":2680:2681   */\n  dup1\n    /* \"#utility.yul\":2673:2685   */\n  revert\n    /* \"#utility.yul\":2632:2634   */\ntag_84:\n    /* \"#utility.yul\":2716:2722   */\n  dup2\n    /* \"#utility.yul\":2710:2723   */\n  mload\n    /* \"#utility.yul\":2741:2831   */\n  tag_85\n    /* \"#utility.yul\":2827:2830   */\n  dup5\n    /* \"#utility.yul\":2819:2825   */\n  dup3\n    /* \"#utility.yul\":2812:2816   */\n  0x20\n    /* \"#utility.yul\":2804:2810   */\n  dup7\n    /* \"#utility.yul\":2800:2817   */\n  add\n    /* \"#utility.yul\":2741:2831   */\n  tag_64\n  jump\t// in\ntag_85:\n    /* \"#utility.yul\":2732:2831   */\n  swap2\n  pop\n    /* \"#utility.yul\":2622:2837   */\n  pop\n  swap3\n  swap2\n  pop\n  pop\n  jump\t// out\n    /* \"#utility.yul\":2843:3575   */\ntag_3:\n  0x00\n  dup1\n    /* \"#utility.yul\":3039:3041   */\n  0x40\n    /* \"#utility.yul\":3027:3036   */\n  dup4\n    /* \"#utility.yul\":3018:3025   */\n  dup6\n    /* \"#utility.yul\":3014:3037   */\n  sub\n    /* \"#utility.yul\":3010:3042   */\n  slt\n    /* \"#utility.yul\":3007:3009   */\n  iszero\n  tag_87\n  jumpi\n    /* \"#utility.yul\":3055:3056   */\n  0x00\n    /* \"#utility.yul\":3052:3053   */\n  dup1\n    /* \"#utility.yul\":3045:3057   */\n  revert\n    /* \"#utility.yul\":3007:3009   */\ntag_87:\n    /* \"#utility.yul\":3119:3120   */\n  0x00\n    /* \"#utility.yul\":3108:3117   */\n  dup4\n    /* \"#utility.yul\":3104:3121   */\n  add\n    /* \"#utility.yul\":3098:3122   */\n  mload\n    /* \"#utility.yul\":3149:3167   */\n  0xffffffffffffffff\n    /* \"#utility.yul\":3141:3147   */\n  dup2\n    /* \"#utility.yul\":3138:3168   */\n  gt\n    /* \"#utility.yul\":3135:3137   */\n  iszero\n  tag_88\n  jumpi\n    /* \"#utility.yul\":3181:3182   */\n  0x00\n    /* \"#utility.yul\":3178:3179   */\n  dup1\n    /* \"#utility.yul\":3171:3183   */\n  revert\n    /* \"#utility.yul\":3135:3137   */\ntag_88:\n    /* \"#utility.yul\":3209:3308   */\n  tag_89\n    /* \"#utility.yul\":3300:3307   */\n  dup6\n    /* \"#utility.yul\":3291:3297   */\n  dup3\n    /* \"#utility.yul\":3280:3289   */\n  dup7\n    /* \"#utility.yul\":3276:3298   */\n  add\n    /* \"#utility.yul\":3209:3308   */\n  tag_79\n  jump\t// in\ntag_89:\n    /* \"#utility.yul\":3199:3308   */\n  swap3\n  pop\n    /* \"#utility.yul\":3069:3318   */\n  pop\n    /* \"#utility.yul\":3378:3380   */\n  0x20\n    /* \"#utility.yul\":3367:3376   */\n  dup4\n    /* \"#utility.yul\":3363:3381   */\n  add\n    /* \"#utility.yul\":3357:3382   */\n  mload\n    /* \"#utility.yul\":3409:3427   */\n  0xffffffffffffffff\n    /* \"#utility.yul\":3401:3407   */\n  dup2\n    /* \"#utility.yul\":3398:3428   */\n  gt\n    /* \"#utility.yul\":3395:3397   */\n  iszero\n  tag_90\n  jumpi\n    /* \"#utility.yul\":3441:3442   */\n  0x00\n    /* \"#utility.yul\":3438:3439   */\n  dup1\n    /* \"#utility.yul\":3431:3443   */\n  revert\n    /* \"#utility.yul\":3395:3397   */\ntag_90:\n    /* \"#utility.yul\":3469:3558   */\n  tag_91\n    /* \"#utility.yul\":3550:3557   */\n  dup6\n    /* \"#utility.yul\":3541:3547   */\n  dup3\n    /* \"#utility.yul\":3530:3539   */\n  dup7\n    /* \"#utility.yul\":3526:3548   */\n  add\n    /* \"#utility.yul\":3469:3558   */\n  tag_75\n  jump\t// in\ntag_91:\n    /* \"#utility.yul\":3459:3558   */\n  swap2\n  pop\n    /* \"#utility.yul\":3328:3568   */\n  pop\n    /* \"#utility.yul\":2997:3575   */\n  swap3\n  pop\n  swap3\n  swap1\n  pop\n  jump\t// out\n    /* \"#utility.yul\":3581:3864   */\ntag_47:\n  0x00\n    /* \"#utility.yul\":3647:3649   */\n  0x40\n    /* \"#utility.yul\":3641:3650   */\n  mload\n    /* \"#utility.yul\":3631:3650   */\n  swap1\n  pop\n    /* \"#utility.yul\":3689:3693   */\n  dup2\n    /* \"#utility.yul\":3681:3687   */\n  dup2\n    /* \"#utility.yul\":3677:3694   */\n  add\n    /* \"#utility.yul\":3796:3802   */\n  dup2\n    /* \"#utility.yul\":3784:3794   */\n  dup2\n    /* \"#utility.yul\":3781:3803   */\n  lt\n    /* \"#utility.yul\":3760:3778   */\n  0xffffffffffffffff\n    /* \"#utility.yul\":3748:3758   */\n  dup3\n    /* \"#utility.yul\":3745:3779   */\n  gt\n    /* \"#utility.yul\":3742:3804   */\n  or\n    /* \"#utility.yul\":3739:3741   */\n  iszero\n  tag_93\n  jumpi\n    /* \"#utility.yul\":3807:3825   */\n  tag_94\n  tag_95\n  jump\t// in\ntag_94:\n    /* \"#utility.yul\":3739:3741   */\ntag_93:\n    /* \"#utility.yul\":3847:3857   */\n  dup1\n    /* \"#utility.yul\":3843:3845   */\n  0x40\n    /* \"#utility.yul\":3836:3858   */\n  mstore\n    /* \"#utility.yul\":3621:3864   */\n  pop\n  swap2\n  swap1\n  pop\n  jump\t// out\n    /* \"#utility.yul\":3870:4181   */\ntag_46:\n  0x00\n    /* \"#utility.yul\":4037:4055   */\n  0xffffffffffffffff\n    /* \"#utility.yul\":4029:4035   */\n  dup3\n    /* \"#utility.yul\":4026:4056   */\n  gt\n    /* \"#utility.yul\":4023:4025   */\n  iszero\n  tag_97\n  jumpi\n    /* \"#utility.yul\":4059:4077   */\n  tag_98\n  tag_95\n  jump\t// in\ntag_98:\n    /* \"#utility.yul\":4023:4025   */\ntag_97:\n    /* \"#utility.yul\":4109:4113   */\n  0x20\n    /* \"#utility.yul\":4101:4107   */\n  dup3\n    /* \"#utility.yul\":4097:4114   */\n  mul\n    /* \"#utility.yul\":4089:4114   */\n  swap1\n  pop\n    /* \"#utility.yul\":4169:4173   */\n  0x20\n    /* \"#utility.yul\":4163:4167   */\n  dup2\n    /* \"#utility.yul\":4159:4174   */\n  add\n    /* \"#utility.yul\":4151:4174   */\n  swap1\n  pop\n    /* \"#utility.yul\":3952:4181   */\n  swap2\n  swap1\n  pop\n  jump\t// out\n    /* \"#utility.yul\":4187:4508   */\ntag_58:\n  0x00\n    /* \"#utility.yul\":4364:4382   */\n  0xffffffffffffffff\n    /* \"#utility.yul\":4356:4362   */\n  dup3\n    /* \"#utility.yul\":4353:4383   */\n  gt\n    /* \"#utility.yul\":4350:4352   */\n  iszero\n  tag_100\n  jumpi\n    /* \"#utility.yul\":4386:4404   */\n  tag_101\n  tag_95\n  jump\t// in\ntag_101:\n    /* \"#utility.yul\":4350:4352   */\ntag_100:\n    /* \"#utility.yul\":4436:4440   */\n  0x20\n    /* \"#utility.yul\":4428:4434   */\n  dup3\n    /* \"#utility.yul\":4424:4441   */\n  mul\n    /* \"#utility.yul\":4416:4441   */\n  swap1\n  pop\n    /* \"#utility.yul\":4496:4500   */\n  0x20\n    /* \"#utility.yul\":4490:4494   */\n  dup2\n    /* \"#utility.yul\":4486:4501   */\n  add\n    /* \"#utility.yul\":4478:4501   */\n  swap1\n  pop\n    /* \"#utility.yul\":4279:4508   */\n  swap2\n  swap1\n  pop\n  jump\t// out\n    /* \"#utility.yul\":4514:4846   */\ntag_68:\n  0x00\n    /* \"#utility.yul\":4666:4684   */\n  0xffffffffffffffff\n    /* \"#utility.yul\":4658:4664   */\n  dup3\n    /* \"#utility.yul\":4655:4685   */\n  gt\n    /* \"#utility.yul\":4652:4654   */\n  iszero\n  tag_103\n  jumpi\n    /* \"#utility.yul\":4688:4706   */\n  tag_104\n  tag_95\n  jump\t// in\ntag_104:\n    /* \"#utility.yul\":4652:4654   */\ntag_103:\n    /* \"#utility.yul\":4773:4777   */\n  0x1f\n    /* \"#utility.yul\":4769:4778   */\n  not\n    /* \"#utility.yul\":4762:4766   */\n  0x1f\n    /* \"#utility.yul\":4754:4760   */\n  dup4\n    /* \"#utility.yul\":4750:4767   */\n  add\n    /* \"#utility.yul\":4746:4779   */\n  and\n    /* \"#utility.yul\":4738:4779   */\n  swap1\n  pop\n    /* \"#utility.yul\":4834:4838   */\n  0x20\n    /* \"#utility.yul\":4828:4832   */\n  dup2\n    /* \"#utility.yul\":4824:4839   */\n  add\n    /* \"#utility.yul\":4816:4839   */\n  swap1\n  pop\n    /* \"#utility.yul\":4581:4846   */\n  swap2\n  swap1\n  pop\n  jump\t// out\n    /* \"#utility.yul\":4852:4948   */\ntag_105:\n  0x00\n    /* \"#utility.yul\":4918:4942   */\n  tag_107\n    /* \"#utility.yul\":4936:4941   */\n  dup3\n    /* \"#utility.yul\":4918:4942   */\n  tag_108\n  jump\t// in\ntag_107:\n    /* \"#utility.yul\":4907:4942   */\n  swap1\n  pop\n    /* \"#utility.yul\":4897:4948   */\n  swap2\n  swap1\n  pop\n  jump\t// out\n    /* \"#utility.yul\":4954:5080   */\ntag_108:\n  0x00\n    /* \"#utility.yul\":5031:5073   */\n  0xffffffffffffffffffffffffffffffffffffffff\n    /* \"#utility.yul\":5024:5029   */\n  dup3\n    /* \"#utility.yul\":5020:5074   */\n  and\n    /* \"#utility.yul\":5009:5074   */\n  swap1\n  pop\n    /* \"#utility.yul\":4999:5080   */\n  swap2\n  swap1\n  pop\n  jump\t// out\n    /* \"#utility.yul\":5086:5393   */\ntag_71:\n    /* \"#utility.yul\":5154:5155   */\n  0x00\n    /* \"#utility.yul\":5164:5277   */\ntag_111:\n    /* \"#utility.yul\":5178:5184   */\n  dup4\n    /* \"#utility.yul\":5175:5176   */\n  dup2\n    /* \"#utility.yul\":5172:5185   */\n  lt\n    /* \"#utility.yul\":5164:5277   */\n  iszero\n  tag_113\n  jumpi\n    /* \"#utility.yul\":5263:5264   */\n  dup1\n    /* \"#utility.yul\":5258:5261   */\n  dup3\n    /* \"#utility.yul\":5254:5265   */\n  add\n    /* \"#utility.yul\":5248:5266   */\n  mload\n    /* \"#utility.yul\":5244:5245   */\n  dup2\n    /* \"#utility.yul\":5239:5242   */\n  dup5\n    /* \"#utility.yul\":5235:5246   */\n  add\n    /* \"#utility.yul\":5228:5267   */\n  mstore\n    /* \"#utility.yul\":5200:5202   */\n  0x20\n    /* \"#utility.yul\":5197:5198   */\n  dup2\n    /* \"#utility.yul\":5193:5203   */\n  add\n    /* \"#utility.yul\":5188:5203   */\n  swap1\n  pop\n    /* \"#utility.yul\":5164:5277   */\n  jump(tag_111)\ntag_113:\n    /* \"#utility.yul\":5295:5301   */\n  dup4\n    /* \"#utility.yul\":5292:5293   */\n  dup2\n    /* \"#utility.yul\":5289:5302   */\n  gt\n    /* \"#utility.yul\":5286:5288   */\n  iszero\n  tag_114\n  jumpi\n    /* \"#utility.yul\":5375:5376   */\n  0x00\n    /* \"#utility.yul\":5366:5372   */\n  dup5\n    /* \"#utility.yul\":5361:5364   */\n  dup5\n    /* \"#utility.yul\":5357:5373   */\n  add\n    /* \"#utility.yul\":5350:5377   */\n  mstore\n    /* \"#utility.yul\":5286:5288   */\ntag_114:\n    /* \"#utility.yul\":5135:5393   */\n  pop\n  pop\n  pop\n  pop\n  jump\t// out\n    /* \"#utility.yul\":5399:5719   */\ntag_24:\n  0x00\n    /* \"#utility.yul\":5480:5481   */\n  0x02\n    /* \"#utility.yul\":5474:5478   */\n  dup3\n    /* \"#utility.yul\":5470:5482   */\n  div\n    /* \"#utility.yul\":5460:5482   */\n  swap1\n  pop\n    /* \"#utility.yul\":5527:5528   */\n  0x01\n    /* \"#utility.yul\":5521:5525   */\n  dup3\n    /* \"#utility.yul\":5517:5529   */\n  and\n    /* \"#utility.yul\":5548:5566   */\n  dup1\n    /* \"#utility.yul\":5538:5540   */\n  tag_116\n  jumpi\n    /* \"#utility.yul\":5604:5608   */\n  0x7f\n    /* \"#utility.yul\":5596:5602   */\n  dup3\n    /* \"#utility.yul\":5592:5609   */\n  and\n    /* \"#utility.yul\":5582:5609   */\n  swap2\n  pop\n    /* \"#utility.yul\":5538:5540   */\ntag_116:\n    /* \"#utility.yul\":5666:5668   */\n  0x20\n    /* \"#utility.yul\":5658:5664   */\n  dup3\n    /* \"#utility.yul\":5655:5669   */\n  lt\n    /* \"#utility.yul\":5635:5653   */\n  dup2\n    /* \"#utility.yul\":5632:5670   */\n  eq\n    /* \"#utility.yul\":5629:5631   */\n  iszero\n  tag_117\n  jumpi\n    /* \"#utility.yul\":5685:5703   */\n  tag_118\n  tag_119\n  jump\t// in\ntag_118:\n    /* \"#utility.yul\":5629:5631   */\ntag_117:\n    /* \"#utility.yul\":5450:5719   */\n  pop\n  swap2\n  swap1\n  pop\n  jump\t// out\n    /* \"#utility.yul\":5725:5905   */\ntag_119:\n    /* \"#utility.yul\":5773:5850   */\n  0x4e487b7100000000000000000000000000000000000000000000000000000000\n    /* \"#utility.yul\":5770:5771   */\n  0x00\n    /* \"#utility.yul\":5763:5851   */\n  mstore\n    /* \"#utility.yul\":5870:5874   */\n  0x22\n    /* \"#utility.yul\":5867:5868   */\n  0x04\n    /* \"#utility.yul\":5860:5875   */\n  mstore\n    /* \"#utility.yul\":5894:5898   */\n  0x24\n    /* \"#utility.yul\":5891:5892   */\n  0x00\n    /* \"#utility.yul\":5884:5899   */\n  revert\n    /* \"#utility.yul\":5911:6091   */\ntag_95:\n    /* \"#utility.yul\":5959:6036   */\n  0x4e487b7100000000000000000000000000000000000000000000000000000000\n    /* \"#utility.yul\":5956:5957   */\n  0x00\n    /* \"#utility.yul\":5949:6037   */\n  mstore\n    /* \"#utility.yul\":6056:6060   */\n  0x41\n    /* \"#utility.yul\":6053:6054   */\n  0x04\n    /* \"#utility.yul\":6046:6061   */\n  mstore\n    /* \"#utility.yul\":6080:6084   */\n  0x24\n    /* \"#utility.yul\":6077:6078   */\n  0x00\n    /* \"#utility.yul\":6070:6085   */\n  revert\n    /* \"#utility.yul\":6097:6219   */\ntag_74:\n    /* \"#utility.yul\":6170:6194   */\n  tag_123\n    /* \"#utility.yul\":6188:6193   */\n  dup2\n    /* \"#utility.yul\":6170:6194   */\n  tag_105\n  jump\t// in\ntag_123:\n    /* \"#utility.yul\":6163:6168   */\n  dup2\n    /* \"#utility.yul\":6160:6195   */\n  eq\n    /* \"#utility.yul\":6150:6152   */\n  tag_124\n  jumpi\n    /* \"#utility.yul\":6209:6210   */\n  0x00\n    /* \"#utility.yul\":6206:6207   */\n  dup1\n    /* \"#utility.yul\":6199:6211   */\n  revert\n    /* \"#utility.yul\":6150:6152   */\ntag_124:\n    /* \"#utility.yul\":6140:6219   */\n  pop\n  jump\t// out\n    /* \"contracts/HelloWorld3.sol\":65:1654  contract Ballot {... */\ntag_10:\n  dataSize(sub_0)\n  dup1\n  dataOffset(sub_0)\n  0x00\n  codecopy\n  0x00\n  return\nstop\n\nsub_0: assembly {\n        /* \"contracts/HelloWorld3.sol\":65:1654  contract Ballot {... */\n      mstore(0x40, 0x80)\n      callvalue\n      dup1\n      iszero\n      tag_1\n      jumpi\n      0x00\n      dup1\n      revert\n    tag_1:\n      pop\n      jumpi(tag_2, lt(calldatasize, 0x04))\n      shr(0xe0, calldataload(0x00))\n      dup1\n      0x2e4176cf\n      eq\n      tag_3\n      jumpi\n      dup1\n      0x4a3bf377\n      eq\n      tag_4\n      jumpi\n      dup1\n      0x9cc2d993\n      eq\n      tag_5\n      jumpi\n      dup1\n      0xb62312bf\n      eq\n      tag_6\n      jumpi\n      dup1\n      0xfab2f86b\n      eq\n      tag_7\n      jumpi\n    tag_2:\n      0x00\n      dup1\n      revert\n        /* \"contracts/HelloWorld3.sol\":142:168  address public chairperson */\n    tag_3:\n      tag_8\n      tag_9\n      jump\t// in\n    tag_8:\n      mload(0x40)\n      tag_10\n      swap2\n      swap1\n      tag_11\n      jump\t// in\n    tag_10:\n      mload(0x40)\n      dup1\n      swap2\n      sub\n      swap1\n      return\n        /* \"contracts/HelloWorld3.sol\":677:869  function totalVotesFor(string memory candidate) view public returns (uint256)  {... */\n    tag_4:\n      tag_12\n      0x04\n      dup1\n      calldatasize\n      sub\n      dup2\n      add\n      swap1\n      tag_13\n      swap2\n      swap1\n      tag_14\n      jump\t// in\n    tag_13:\n      tag_15\n      jump\t// in\n    tag_12:\n      mload(0x40)\n      tag_16\n      swap2\n      swap1\n      tag_17\n      jump\t// in\n    tag_16:\n      mload(0x40)\n      dup1\n      swap2\n      sub\n      swap1\n      return\n        /* \"contracts/HelloWorld3.sol\":875:1098  function castVote(string memory candidate) public {... */\n    tag_5:\n      tag_18\n      0x04\n      dup1\n      calldatasize\n      sub\n      dup2\n      add\n      swap1\n      tag_19\n      swap2\n      swap1\n      tag_14\n      jump\t// in\n    tag_19:\n      tag_20\n      jump\t// in\n    tag_18:\n      stop\n        /* \"contracts/HelloWorld3.sol\":244:267  bool public votingState */\n    tag_6:\n      tag_21\n      tag_22\n      jump\t// in\n    tag_21:\n      mload(0x40)\n      tag_23\n      swap2\n      swap1\n      tag_24\n      jump\t// in\n    tag_23:\n      mload(0x40)\n      dup1\n      swap2\n      sub\n      swap1\n      return\n        /* \"contracts/HelloWorld3.sol\":596:671  function stopVoting() public onlyChair {... */\n    tag_7:\n      tag_25\n      tag_26\n      jump\t// in\n    tag_25:\n      stop\n        /* \"contracts/HelloWorld3.sol\":142:168  address public chairperson */\n    tag_9:\n      0x01\n      0x00\n      swap1\n      sload\n      swap1\n      0x0100\n      exp\n      swap1\n      div\n      0xffffffffffffffffffffffffffffffffffffffff\n      and\n      dup2\n      jump\t// out\n        /* \"contracts/HelloWorld3.sol\":677:869  function totalVotesFor(string memory candidate) view public returns (uint256)  {... */\n    tag_15:\n        /* \"contracts/HelloWorld3.sol\":746:753  uint256 */\n      0x00\n        /* \"contracts/HelloWorld3.sol\":774:799  validCandidate(candidate) */\n      tag_28\n        /* \"contracts/HelloWorld3.sol\":789:798  candidate */\n      dup3\n        /* \"contracts/HelloWorld3.sol\":774:788  validCandidate */\n      tag_29\n        /* \"contracts/HelloWorld3.sol\":774:799  validCandidate(candidate) */\n      jump\t// in\n    tag_28:\n        /* \"contracts/HelloWorld3.sol\":766:821  require(validCandidate(candidate), \"Invalid candidate\") */\n      tag_30\n      jumpi\n      mload(0x40)\n      0x08c379a000000000000000000000000000000000000000000000000000000000\n      dup2\n      mstore\n      0x04\n      add\n      tag_31\n      swap1\n      tag_32\n      jump\t// in\n    tag_31:\n      mload(0x40)\n      dup1\n      swap2\n      sub\n      swap1\n      revert\n    tag_30:\n        /* \"contracts/HelloWorld3.sol\":838:851  votesReceived */\n      0x00\n        /* \"contracts/HelloWorld3.sol\":852:861  candidate */\n      dup3\n        /* \"contracts/HelloWorld3.sol\":838:862  votesReceived[candidate] */\n      mload(0x40)\n      tag_33\n      swap2\n      swap1\n      tag_34\n      jump\t// in\n    tag_33:\n      swap1\n      dup2\n      mstore\n      0x20\n      add\n      mload(0x40)\n      dup1\n      swap2\n      sub\n      swap1\n      keccak256\n      sload\n        /* \"contracts/HelloWorld3.sol\":831:862  return votesReceived[candidate] */\n      swap1\n      pop\n        /* \"contracts/HelloWorld3.sol\":677:869  function totalVotesFor(string memory candidate) view public returns (uint256)  {... */\n      swap2\n      swap1\n      pop\n      jump\t// out\n        /* \"contracts/HelloWorld3.sol\":875:1098  function castVote(string memory candidate) public {... */\n    tag_20:\n        /* \"contracts/HelloWorld3.sol\":943:965  validVoter(msg.sender) */\n      tag_36\n        /* \"contracts/HelloWorld3.sol\":954:964  msg.sender */\n      caller\n        /* \"contracts/HelloWorld3.sol\":943:953  validVoter */\n      tag_37\n        /* \"contracts/HelloWorld3.sol\":943:965  validVoter(msg.sender) */\n      jump\t// in\n    tag_36:\n        /* \"contracts/HelloWorld3.sol\":935:987  require(validVoter(msg.sender), \"Not a valid voter\") */\n      tag_38\n      jumpi\n      mload(0x40)\n      0x08c379a000000000000000000000000000000000000000000000000000000000\n      dup2\n      mstore\n      0x04\n      add\n      tag_39\n      swap1\n      tag_40\n      jump\t// in\n    tag_39:\n      mload(0x40)\n      dup1\n      swap2\n      sub\n      swap1\n      revert\n    tag_38:\n        /* \"contracts/HelloWorld3.sol\":1005:1030  validCandidate(candidate) */\n      tag_41\n        /* \"contracts/HelloWorld3.sol\":1020:1029  candidate */\n      dup2\n        /* \"contracts/HelloWorld3.sol\":1005:1019  validCandidate */\n      tag_29\n        /* \"contracts/HelloWorld3.sol\":1005:1030  validCandidate(candidate) */\n      jump\t// in\n    tag_41:\n        /* \"contracts/HelloWorld3.sol\":997:1052  require(validCandidate(candidate), \"Invalid candidate\") */\n      tag_42\n      jumpi\n      mload(0x40)\n      0x08c379a000000000000000000000000000000000000000000000000000000000\n      dup2\n      mstore\n      0x04\n      add\n      tag_43\n      swap1\n      tag_32\n      jump\t// in\n    tag_43:\n      mload(0x40)\n      dup1\n      swap2\n      sub\n      swap1\n      revert\n    tag_42:\n        /* \"contracts/HelloWorld3.sol\":1090:1091  1 */\n      0x01\n        /* \"contracts/HelloWorld3.sol\":1062:1075  votesReceived */\n      0x00\n        /* \"contracts/HelloWorld3.sol\":1076:1085  candidate */\n      dup3\n        /* \"contracts/HelloWorld3.sol\":1062:1086  votesReceived[candidate] */\n      mload(0x40)\n      tag_44\n      swap2\n      swap1\n      tag_34\n      jump\t// in\n    tag_44:\n      swap1\n      dup2\n      mstore\n      0x20\n      add\n      mload(0x40)\n      dup1\n      swap2\n      sub\n      swap1\n      keccak256\n      0x00\n        /* \"contracts/HelloWorld3.sol\":1062:1091  votesReceived[candidate] += 1 */\n      dup3\n      dup3\n      sload\n      tag_45\n      swap2\n      swap1\n      tag_46\n      jump\t// in\n    tag_45:\n      swap3\n      pop\n      pop\n      dup2\n      swap1\n      sstore\n      pop\n        /* \"contracts/HelloWorld3.sol\":875:1098  function castVote(string memory candidate) public {... */\n      pop\n      jump\t// out\n        /* \"contracts/HelloWorld3.sol\":244:267  bool public votingState */\n    tag_22:\n      0x04\n      0x00\n      swap1\n      sload\n      swap1\n      0x0100\n      exp\n      swap1\n      div\n      0xff\n      and\n      dup2\n      jump\t// out\n        /* \"contracts/HelloWorld3.sol\":596:671  function stopVoting() public onlyChair {... */\n    tag_26:\n        /* \"contracts/HelloWorld3.sol\":540:551  chairperson */\n      0x01\n      0x00\n      swap1\n      sload\n      swap1\n      0x0100\n      exp\n      swap1\n      div\n      0xffffffffffffffffffffffffffffffffffffffff\n      and\n        /* \"contracts/HelloWorld3.sol\":526:551  msg.sender == chairperson */\n      0xffffffffffffffffffffffffffffffffffffffff\n      and\n        /* \"contracts/HelloWorld3.sol\":526:536  msg.sender */\n      caller\n        /* \"contracts/HelloWorld3.sol\":526:551  msg.sender == chairperson */\n      0xffffffffffffffffffffffffffffffffffffffff\n      and\n      eq\n        /* \"contracts/HelloWorld3.sol\":518:572  require(msg.sender == chairperson, 'Only chairperson') */\n      tag_48\n      jumpi\n      mload(0x40)\n      0x08c379a000000000000000000000000000000000000000000000000000000000\n      dup2\n      mstore\n      0x04\n      add\n      tag_49\n      swap1\n      tag_50\n      jump\t// in\n    tag_49:\n      mload(0x40)\n      dup1\n      swap2\n      sub\n      swap1\n      revert\n    tag_48:\n        /* \"contracts/HelloWorld3.sol\":659:664  false */\n      0x00\n        /* \"contracts/HelloWorld3.sol\":645:656  votingState */\n      0x04\n      0x00\n        /* \"contracts/HelloWorld3.sol\":645:664  votingState = false */\n      0x0100\n      exp\n      dup2\n      sload\n      dup2\n      0xff\n      mul\n      not\n      and\n      swap1\n      dup4\n      iszero\n      iszero\n      mul\n      or\n      swap1\n      sstore\n      pop\n        /* \"contracts/HelloWorld3.sol\":596:671  function stopVoting() public onlyChair {... */\n      jump\t// out\n        /* \"contracts/HelloWorld3.sol\":1104:1405  function validCandidate(string memory candidate) view private returns (bool) {... */\n    tag_29:\n        /* \"contracts/HelloWorld3.sol\":1175:1179  bool */\n      0x00\n        /* \"contracts/HelloWorld3.sol\":1195:1201  uint i */\n      dup1\n        /* \"contracts/HelloWorld3.sol\":1204:1205  0 */\n      0x00\n        /* \"contracts/HelloWorld3.sol\":1195:1205  uint i = 0 */\n      swap1\n      pop\n        /* \"contracts/HelloWorld3.sol\":1191:1377  for(uint i = 0; i < candidateList.length; i++) {... */\n    tag_53:\n        /* \"contracts/HelloWorld3.sol\":1211:1224  candidateList */\n      0x02\n        /* \"contracts/HelloWorld3.sol\":1211:1231  candidateList.length */\n      dup1\n      sload\n      swap1\n      pop\n        /* \"contracts/HelloWorld3.sol\":1207:1208  i */\n      dup2\n        /* \"contracts/HelloWorld3.sol\":1207:1231  i < candidateList.length */\n      lt\n        /* \"contracts/HelloWorld3.sol\":1191:1377  for(uint i = 0; i < candidateList.length; i++) {... */\n      iszero\n      tag_54\n      jumpi\n        /* \"contracts/HelloWorld3.sol\":1310:1319  candidate */\n      dup3\n        /* \"contracts/HelloWorld3.sol\":1294:1321  keccak256(bytes(candidate)) */\n      dup1\n      mload\n      swap1\n      0x20\n      add\n      keccak256\n        /* \"contracts/HelloWorld3.sol\":1272:1285  candidateList */\n      0x02\n        /* \"contracts/HelloWorld3.sol\":1286:1287  i */\n      dup3\n        /* \"contracts/HelloWorld3.sol\":1272:1288  candidateList[i] */\n      dup2\n      sload\n      dup2\n      lt\n      tag_56\n      jumpi\n      mstore(0x00, 0x4e487b7100000000000000000000000000000000000000000000000000000000)\n      mstore(0x04, 0x32)\n      revert(0x00, 0x24)\n    tag_56:\n      swap1\n      0x00\n      mstore\n      keccak256(0x00, 0x20)\n      add\n        /* \"contracts/HelloWorld3.sol\":1256:1290  keccak256(bytes(candidateList[i])) */\n      mload(0x40)\n      tag_58\n      swap2\n      swap1\n      tag_59\n      jump\t// in\n    tag_58:\n      mload(0x40)\n      dup1\n      swap2\n      sub\n      swap1\n      keccak256\n        /* \"contracts/HelloWorld3.sol\":1256:1321  keccak256(bytes(candidateList[i])) == keccak256(bytes(candidate)) */\n      eq\n        /* \"contracts/HelloWorld3.sol\":1252:1367  if (keccak256(bytes(candidateList[i])) == keccak256(bytes(candidate))) {... */\n      iszero\n      tag_60\n      jumpi\n        /* \"contracts/HelloWorld3.sol\":1348:1352  true */\n      0x01\n        /* \"contracts/HelloWorld3.sol\":1341:1352  return true */\n      swap2\n      pop\n      pop\n      jump(tag_52)\n        /* \"contracts/HelloWorld3.sol\":1252:1367  if (keccak256(bytes(candidateList[i])) == keccak256(bytes(candidate))) {... */\n    tag_60:\n        /* \"contracts/HelloWorld3.sol\":1233:1236  i++ */\n      dup1\n      dup1\n      tag_61\n      swap1\n      tag_62\n      jump\t// in\n    tag_61:\n      swap2\n      pop\n      pop\n        /* \"contracts/HelloWorld3.sol\":1191:1377  for(uint i = 0; i < candidateList.length; i++) {... */\n      jump(tag_53)\n    tag_54:\n      pop\n        /* \"contracts/HelloWorld3.sol\":1393:1398  false */\n      0x00\n        /* \"contracts/HelloWorld3.sol\":1386:1398  return false */\n      swap1\n      pop\n        /* \"contracts/HelloWorld3.sol\":1104:1405  function validCandidate(string memory candidate) view private returns (bool) {... */\n    tag_52:\n      swap2\n      swap1\n      pop\n      jump\t// out\n        /* \"contracts/HelloWorld3.sol\":1411:1652  function validVoter(address voter) view private returns (bool) {... */\n    tag_37:\n        /* \"contracts/HelloWorld3.sol\":1468:1472  bool */\n      0x00\n        /* \"contracts/HelloWorld3.sol\":1488:1494  uint i */\n      dup1\n        /* \"contracts/HelloWorld3.sol\":1497:1498  0 */\n      0x00\n        /* \"contracts/HelloWorld3.sol\":1488:1498  uint i = 0 */\n      swap1\n      pop\n        /* \"contracts/HelloWorld3.sol\":1484:1624  for(uint i = 0; i < votersList.length; i++) {... */\n    tag_64:\n        /* \"contracts/HelloWorld3.sol\":1504:1514  votersList */\n      0x03\n        /* \"contracts/HelloWorld3.sol\":1504:1521  votersList.length */\n      dup1\n      sload\n      swap1\n      pop\n        /* \"contracts/HelloWorld3.sol\":1500:1501  i */\n      dup2\n        /* \"contracts/HelloWorld3.sol\":1500:1521  i < votersList.length */\n      lt\n        /* \"contracts/HelloWorld3.sol\":1484:1624  for(uint i = 0; i < votersList.length; i++) {... */\n      iszero\n      tag_65\n      jumpi\n        /* \"contracts/HelloWorld3.sol\":1563:1568  voter */\n      dup3\n        /* \"contracts/HelloWorld3.sol\":1546:1568  votersList[i] == voter */\n      0xffffffffffffffffffffffffffffffffffffffff\n      and\n        /* \"contracts/HelloWorld3.sol\":1546:1556  votersList */\n      0x03\n        /* \"contracts/HelloWorld3.sol\":1557:1558  i */\n      dup3\n        /* \"contracts/HelloWorld3.sol\":1546:1559  votersList[i] */\n      dup2\n      sload\n      dup2\n      lt\n      tag_67\n      jumpi\n      mstore(0x00, 0x4e487b7100000000000000000000000000000000000000000000000000000000)\n      mstore(0x04, 0x32)\n      revert(0x00, 0x24)\n    tag_67:\n      swap1\n      0x00\n      mstore\n      keccak256(0x00, 0x20)\n      add\n      0x00\n      swap1\n      sload\n      swap1\n      0x0100\n      exp\n      swap1\n      div\n      0xffffffffffffffffffffffffffffffffffffffff\n      and\n        /* \"contracts/HelloWorld3.sol\":1546:1568  votersList[i] == voter */\n      0xffffffffffffffffffffffffffffffffffffffff\n      and\n      eq\n        /* \"contracts/HelloWorld3.sol\":1542:1614  if (votersList[i] == voter) {... */\n      iszero\n      tag_69\n      jumpi\n        /* \"contracts/HelloWorld3.sol\":1595:1599  true */\n      0x01\n        /* \"contracts/HelloWorld3.sol\":1588:1599  return true */\n      swap2\n      pop\n      pop\n      jump(tag_63)\n        /* \"contracts/HelloWorld3.sol\":1542:1614  if (votersList[i] == voter) {... */\n    tag_69:\n        /* \"contracts/HelloWorld3.sol\":1523:1526  i++ */\n      dup1\n      dup1\n      tag_70\n      swap1\n      tag_62\n      jump\t// in\n    tag_70:\n      swap2\n      pop\n      pop\n        /* \"contracts/HelloWorld3.sol\":1484:1624  for(uint i = 0; i < votersList.length; i++) {... */\n      jump(tag_64)\n    tag_65:\n      pop\n        /* \"contracts/HelloWorld3.sol\":1640:1645  false */\n      0x00\n        /* \"contracts/HelloWorld3.sol\":1633:1645  return false */\n      swap1\n      pop\n        /* \"contracts/HelloWorld3.sol\":1411:1652  function validVoter(address voter) view private returns (bool) {... */\n    tag_63:\n      swap2\n      swap1\n      pop\n      jump\t// out\n        /* \"#utility.yul\":7:351   */\n    tag_72:\n      0x00\n        /* \"#utility.yul\":110:175   */\n      tag_74\n        /* \"#utility.yul\":125:174   */\n      tag_75\n        /* \"#utility.yul\":167:173   */\n      dup5\n        /* \"#utility.yul\":125:174   */\n      tag_76\n      jump\t// in\n    tag_75:\n        /* \"#utility.yul\":110:175   */\n      tag_77\n      jump\t// in\n    tag_74:\n        /* \"#utility.yul\":101:175   */\n      swap1\n      pop\n        /* \"#utility.yul\":198:204   */\n      dup3\n        /* \"#utility.yul\":191:196   */\n      dup2\n        /* \"#utility.yul\":184:205   */\n      mstore\n        /* \"#utility.yul\":236:240   */\n      0x20\n        /* \"#utility.yul\":229:234   */\n      dup2\n        /* \"#utility.yul\":225:241   */\n      add\n        /* \"#utility.yul\":274:277   */\n      dup5\n        /* \"#utility.yul\":265:271   */\n      dup5\n        /* \"#utility.yul\":260:263   */\n      dup5\n        /* \"#utility.yul\":256:272   */\n      add\n        /* \"#utility.yul\":253:278   */\n      gt\n        /* \"#utility.yul\":250:252   */\n      iszero\n      tag_78\n      jumpi\n        /* \"#utility.yul\":291:292   */\n      0x00\n        /* \"#utility.yul\":288:289   */\n      dup1\n        /* \"#utility.yul\":281:293   */\n      revert\n        /* \"#utility.yul\":250:252   */\n    tag_78:\n        /* \"#utility.yul\":304:345   */\n      tag_79\n        /* \"#utility.yul\":338:344   */\n      dup5\n        /* \"#utility.yul\":333:336   */\n      dup3\n        /* \"#utility.yul\":328:331   */\n      dup6\n        /* \"#utility.yul\":304:345   */\n      tag_80\n      jump\t// in\n    tag_79:\n        /* \"#utility.yul\":91:351   */\n      pop\n      swap4\n      swap3\n      pop\n      pop\n      pop\n      jump\t// out\n        /* \"#utility.yul\":371:644   */\n    tag_81:\n      0x00\n        /* \"#utility.yul\":476:479   */\n      dup3\n        /* \"#utility.yul\":469:473   */\n      0x1f\n        /* \"#utility.yul\":461:467   */\n      dup4\n        /* \"#utility.yul\":457:474   */\n      add\n        /* \"#utility.yul\":453:480   */\n      slt\n        /* \"#utility.yul\":443:445   */\n      tag_83\n      jumpi\n        /* \"#utility.yul\":494:495   */\n      0x00\n        /* \"#utility.yul\":491:492   */\n      dup1\n        /* \"#utility.yul\":484:496   */\n      revert\n        /* \"#utility.yul\":443:445   */\n    tag_83:\n        /* \"#utility.yul\":534:540   */\n      dup2\n        /* \"#utility.yul\":521:541   */\n      calldataload\n        /* \"#utility.yul\":559:638   */\n      tag_84\n        /* \"#utility.yul\":634:637   */\n      dup5\n        /* \"#utility.yul\":626:632   */\n      dup3\n        /* \"#utility.yul\":619:623   */\n      0x20\n        /* \"#utility.yul\":611:617   */\n      dup7\n        /* \"#utility.yul\":607:624   */\n      add\n        /* \"#utility.yul\":559:638   */\n      tag_72\n      jump\t// in\n    tag_84:\n        /* \"#utility.yul\":550:638   */\n      swap2\n      pop\n        /* \"#utility.yul\":433:644   */\n      pop\n      swap3\n      swap2\n      pop\n      pop\n      jump\t// out\n        /* \"#utility.yul\":650:1025   */\n    tag_14:\n      0x00\n        /* \"#utility.yul\":768:770   */\n      0x20\n        /* \"#utility.yul\":756:765   */\n      dup3\n        /* \"#utility.yul\":747:754   */\n      dup5\n        /* \"#utility.yul\":743:766   */\n      sub\n        /* \"#utility.yul\":739:771   */\n      slt\n        /* \"#utility.yul\":736:738   */\n      iszero\n      tag_86\n      jumpi\n        /* \"#utility.yul\":784:785   */\n      0x00\n        /* \"#utility.yul\":781:782   */\n      dup1\n        /* \"#utility.yul\":774:786   */\n      revert\n        /* \"#utility.yul\":736:738   */\n    tag_86:\n        /* \"#utility.yul\":855:856   */\n      0x00\n        /* \"#utility.yul\":844:853   */\n      dup3\n        /* \"#utility.yul\":840:857   */\n      add\n        /* \"#utility.yul\":827:858   */\n      calldataload\n        /* \"#utility.yul\":885:903   */\n      0xffffffffffffffff\n        /* \"#utility.yul\":877:883   */\n      dup2\n        /* \"#utility.yul\":874:904   */\n      gt\n        /* \"#utility.yul\":871:873   */\n      iszero\n      tag_87\n      jumpi\n        /* \"#utility.yul\":917:918   */\n      0x00\n        /* \"#utility.yul\":914:915   */\n      dup1\n        /* \"#utility.yul\":907:919   */\n      revert\n        /* \"#utility.yul\":871:873   */\n    tag_87:\n        /* \"#utility.yul\":945:1008   */\n      tag_88\n        /* \"#utility.yul\":1000:1007   */\n      dup5\n        /* \"#utility.yul\":991:997   */\n      dup3\n        /* \"#utility.yul\":980:989   */\n      dup6\n        /* \"#utility.yul\":976:998   */\n      add\n        /* \"#utility.yul\":945:1008   */\n      tag_81\n      jump\t// in\n    tag_88:\n        /* \"#utility.yul\":935:1008   */\n      swap2\n      pop\n        /* \"#utility.yul\":798:1018   */\n      pop\n        /* \"#utility.yul\":726:1025   */\n      swap3\n      swap2\n      pop\n      pop\n      jump\t// out\n        /* \"#utility.yul\":1031:1149   */\n    tag_89:\n        /* \"#utility.yul\":1118:1142   */\n      tag_91\n        /* \"#utility.yul\":1136:1141   */\n      dup2\n        /* \"#utility.yul\":1118:1142   */\n      tag_92\n      jump\t// in\n    tag_91:\n        /* \"#utility.yul\":1113:1116   */\n      dup3\n        /* \"#utility.yul\":1106:1143   */\n      mstore\n        /* \"#utility.yul\":1096:1149   */\n      pop\n      pop\n      jump\t// out\n        /* \"#utility.yul\":1155:1264   */\n    tag_93:\n        /* \"#utility.yul\":1236:1257   */\n      tag_95\n        /* \"#utility.yul\":1251:1256   */\n      dup2\n        /* \"#utility.yul\":1236:1257   */\n      tag_96\n      jump\t// in\n    tag_95:\n        /* \"#utility.yul\":1231:1234   */\n      dup3\n        /* \"#utility.yul\":1224:1258   */\n      mstore\n        /* \"#utility.yul\":1214:1264   */\n      pop\n      pop\n      jump\t// out\n        /* \"#utility.yul\":1292:2141   */\n    tag_97:\n      0x00\n        /* \"#utility.yul\":1434:1439   */\n      dup2\n        /* \"#utility.yul\":1428:1440   */\n      sload\n        /* \"#utility.yul\":1463:1499   */\n      tag_99\n        /* \"#utility.yul\":1489:1498   */\n      dup2\n        /* \"#utility.yul\":1463:1499   */\n      tag_100\n      jump\t// in\n    tag_99:\n        /* \"#utility.yul\":1515:1603   */\n      tag_101\n        /* \"#utility.yul\":1596:1602   */\n      dup2\n        /* \"#utility.yul\":1591:1594   */\n      dup7\n        /* \"#utility.yul\":1515:1603   */\n      tag_102\n      jump\t// in\n    tag_101:\n        /* \"#utility.yul\":1508:1603   */\n      swap5\n      pop\n        /* \"#utility.yul\":1634:1635   */\n      0x01\n        /* \"#utility.yul\":1623:1632   */\n      dup3\n        /* \"#utility.yul\":1619:1636   */\n      and\n        /* \"#utility.yul\":1650:1651   */\n      0x00\n        /* \"#utility.yul\":1645:1782   */\n      dup2\n      eq\n      tag_104\n      jumpi\n        /* \"#utility.yul\":1796:1797   */\n      0x01\n        /* \"#utility.yul\":1791:2135   */\n      dup2\n      eq\n      tag_105\n      jumpi\n        /* \"#utility.yul\":1612:2135   */\n      jump(tag_103)\n        /* \"#utility.yul\":1645:1782   */\n    tag_104:\n        /* \"#utility.yul\":1729:1733   */\n      0xff\n        /* \"#utility.yul\":1725:1734   */\n      not\n        /* \"#utility.yul\":1714:1723   */\n      dup4\n        /* \"#utility.yul\":1710:1735   */\n      and\n        /* \"#utility.yul\":1705:1708   */\n      dup7\n        /* \"#utility.yul\":1698:1736   */\n      mstore\n        /* \"#utility.yul\":1765:1771   */\n      dup2\n        /* \"#utility.yul\":1760:1763   */\n      dup7\n        /* \"#utility.yul\":1756:1772   */\n      add\n        /* \"#utility.yul\":1749:1772   */\n      swap4\n      pop\n        /* \"#utility.yul\":1645:1782   */\n      jump(tag_103)\n        /* \"#utility.yul\":1791:2135   */\n    tag_105:\n        /* \"#utility.yul\":1858:1899   */\n      tag_106\n        /* \"#utility.yul\":1893:1898   */\n      dup6\n        /* \"#utility.yul\":1858:1899   */\n      tag_107\n      jump\t// in\n    tag_106:\n        /* \"#utility.yul\":1921:1922   */\n      0x00\n        /* \"#utility.yul\":1935:2089   */\n    tag_108:\n        /* \"#utility.yul\":1949:1955   */\n      dup4\n        /* \"#utility.yul\":1946:1947   */\n      dup2\n        /* \"#utility.yul\":1943:1956   */\n      lt\n        /* \"#utility.yul\":1935:2089   */\n      iszero\n      tag_110\n      jumpi\n        /* \"#utility.yul\":2023:2030   */\n      dup2\n        /* \"#utility.yul\":2017:2031   */\n      sload\n        /* \"#utility.yul\":2013:2014   */\n      dup2\n        /* \"#utility.yul\":2008:2011   */\n      dup10\n        /* \"#utility.yul\":2004:2015   */\n      add\n        /* \"#utility.yul\":1997:2032   */\n      mstore\n        /* \"#utility.yul\":2073:2074   */\n      0x01\n        /* \"#utility.yul\":2064:2071   */\n      dup3\n        /* \"#utility.yul\":2060:2075   */\n      add\n        /* \"#utility.yul\":2049:2075   */\n      swap2\n      pop\n        /* \"#utility.yul\":1971:1975   */\n      0x20\n        /* \"#utility.yul\":1968:1969   */\n      dup2\n        /* \"#utility.yul\":1964:1976   */\n      add\n        /* \"#utility.yul\":1959:1976   */\n      swap1\n      pop\n        /* \"#utility.yul\":1935:2089   */\n      jump(tag_108)\n    tag_110:\n        /* \"#utility.yul\":2118:2124   */\n      dup4\n        /* \"#utility.yul\":2113:2116   */\n      dup9\n        /* \"#utility.yul\":2109:2125   */\n      add\n        /* \"#utility.yul\":2102:2125   */\n      swap6\n      pop\n        /* \"#utility.yul\":1798:2135   */\n      pop\n      pop\n        /* \"#utility.yul\":1612:2135   */\n    tag_103:\n      pop\n        /* \"#utility.yul\":1401:2141   */\n      pop\n      pop\n      swap3\n      swap2\n      pop\n      pop\n      jump\t// out\n        /* \"#utility.yul\":2147:2524   */\n    tag_111:\n      0x00\n        /* \"#utility.yul\":2281:2320   */\n      tag_113\n        /* \"#utility.yul\":2314:2319   */\n      dup3\n        /* \"#utility.yul\":2281:2320   */\n      tag_114\n      jump\t// in\n    tag_113:\n        /* \"#utility.yul\":2336:2425   */\n      tag_115\n        /* \"#utility.yul\":2418:2424   */\n      dup2\n        /* \"#utility.yul\":2413:2416   */\n      dup6\n        /* \"#utility.yul\":2336:2425   */\n      tag_116\n      jump\t// in\n    tag_115:\n        /* \"#utility.yul\":2329:2425   */\n      swap4\n      pop\n        /* \"#utility.yul\":2434:2486   */\n      tag_117\n        /* \"#utility.yul\":2479:2485   */\n      dup2\n        /* \"#utility.yul\":2474:2477   */\n      dup6\n        /* \"#utility.yul\":2467:2471   */\n      0x20\n        /* \"#utility.yul\":2460:2465   */\n      dup7\n        /* \"#utility.yul\":2456:2472   */\n      add\n        /* \"#utility.yul\":2434:2486   */\n      tag_118\n      jump\t// in\n    tag_117:\n        /* \"#utility.yul\":2511:2517   */\n      dup1\n        /* \"#utility.yul\":2506:2509   */\n      dup5\n        /* \"#utility.yul\":2502:2518   */\n      add\n        /* \"#utility.yul\":2495:2518   */\n      swap2\n      pop\n        /* \"#utility.yul\":2257:2524   */\n      pop\n      swap3\n      swap2\n      pop\n      pop\n      jump\t// out\n        /* \"#utility.yul\":2530:2844   */\n    tag_119:\n      0x00\n        /* \"#utility.yul\":2693:2760   */\n      tag_121\n        /* \"#utility.yul\":2757:2759   */\n      0x10\n        /* \"#utility.yul\":2752:2755   */\n      dup4\n        /* \"#utility.yul\":2693:2760   */\n      tag_122\n      jump\t// in\n    tag_121:\n        /* \"#utility.yul\":2686:2760   */\n      swap2\n      pop\n        /* \"#utility.yul\":2790:2808   */\n      0x4f6e6c79206368616972706572736f6e00000000000000000000000000000000\n        /* \"#utility.yul\":2786:2787   */\n      0x00\n        /* \"#utility.yul\":2781:2784   */\n      dup4\n        /* \"#utility.yul\":2777:2788   */\n      add\n        /* \"#utility.yul\":2770:2809   */\n      mstore\n        /* \"#utility.yul\":2835:2837   */\n      0x20\n        /* \"#utility.yul\":2830:2833   */\n      dup3\n        /* \"#utility.yul\":2826:2838   */\n      add\n        /* \"#utility.yul\":2819:2838   */\n      swap1\n      pop\n        /* \"#utility.yul\":2676:2844   */\n      swap2\n      swap1\n      pop\n      jump\t// out\n        /* \"#utility.yul\":2850:3165   */\n    tag_123:\n      0x00\n        /* \"#utility.yul\":3013:3080   */\n      tag_125\n        /* \"#utility.yul\":3077:3079   */\n      0x11\n        /* \"#utility.yul\":3072:3075   */\n      dup4\n        /* \"#utility.yul\":3013:3080   */\n      tag_122\n      jump\t// in\n    tag_125:\n        /* \"#utility.yul\":3006:3080   */\n      swap2\n      pop\n        /* \"#utility.yul\":3110:3129   */\n      0x496e76616c69642063616e646964617465000000000000000000000000000000\n        /* \"#utility.yul\":3106:3107   */\n      0x00\n        /* \"#utility.yul\":3101:3104   */\n      dup4\n        /* \"#utility.yul\":3097:3108   */\n      add\n        /* \"#utility.yul\":3090:3130   */\n      mstore\n        /* \"#utility.yul\":3156:3158   */\n      0x20\n        /* \"#utility.yul\":3151:3154   */\n      dup3\n        /* \"#utility.yul\":3147:3159   */\n      add\n        /* \"#utility.yul\":3140:3159   */\n      swap1\n      pop\n        /* \"#utility.yul\":2996:3165   */\n      swap2\n      swap1\n      pop\n      jump\t// out\n        /* \"#utility.yul\":3171:3486   */\n    tag_126:\n      0x00\n        /* \"#utility.yul\":3334:3401   */\n      tag_128\n        /* \"#utility.yul\":3398:3400   */\n      0x11\n        /* \"#utility.yul\":3393:3396   */\n      dup4\n        /* \"#utility.yul\":3334:3401   */\n      tag_122\n      jump\t// in\n    tag_128:\n        /* \"#utility.yul\":3327:3401   */\n      swap2\n      pop\n        /* \"#utility.yul\":3431:3450   */\n      0x4e6f7420612076616c696420766f746572000000000000000000000000000000\n        /* \"#utility.yul\":3427:3428   */\n      0x00\n        /* \"#utility.yul\":3422:3425   */\n      dup4\n        /* \"#utility.yul\":3418:3429   */\n      add\n        /* \"#utility.yul\":3411:3451   */\n      mstore\n        /* \"#utility.yul\":3477:3479   */\n      0x20\n        /* \"#utility.yul\":3472:3475   */\n      dup3\n        /* \"#utility.yul\":3468:3480   */\n      add\n        /* \"#utility.yul\":3461:3480   */\n      swap1\n      pop\n        /* \"#utility.yul\":3317:3486   */\n      swap2\n      swap1\n      pop\n      jump\t// out\n        /* \"#utility.yul\":3492:3610   */\n    tag_129:\n        /* \"#utility.yul\":3579:3603   */\n      tag_131\n        /* \"#utility.yul\":3597:3602   */\n      dup2\n        /* \"#utility.yul\":3579:3603   */\n      tag_132\n      jump\t// in\n    tag_131:\n        /* \"#utility.yul\":3574:3577   */\n      dup3\n        /* \"#utility.yul\":3567:3604   */\n      mstore\n        /* \"#utility.yul\":3557:3610   */\n      pop\n      pop\n      jump\t// out\n        /* \"#utility.yul\":3616:3889   */\n    tag_59:\n      0x00\n        /* \"#utility.yul\":3769:3863   */\n      tag_134\n        /* \"#utility.yul\":3859:3862   */\n      dup3\n        /* \"#utility.yul\":3850:3856   */\n      dup5\n        /* \"#utility.yul\":3769:3863   */\n      tag_97\n      jump\t// in\n    tag_134:\n        /* \"#utility.yul\":3762:3863   */\n      swap2\n      pop\n        /* \"#utility.yul\":3880:3883   */\n      dup2\n        /* \"#utility.yul\":3873:3883   */\n      swap1\n      pop\n        /* \"#utility.yul\":3751:3889   */\n      swap3\n      swap2\n      pop\n      pop\n      jump\t// out\n        /* \"#utility.yul\":3895:4170   */\n    tag_34:\n      0x00\n        /* \"#utility.yul\":4049:4144   */\n      tag_136\n        /* \"#utility.yul\":4140:4143   */\n      dup3\n        /* \"#utility.yul\":4131:4137   */\n      dup5\n        /* \"#utility.yul\":4049:4144   */\n      tag_111\n      jump\t// in\n    tag_136:\n        /* \"#utility.yul\":4042:4144   */\n      swap2\n      pop\n        /* \"#utility.yul\":4161:4164   */\n      dup2\n        /* \"#utility.yul\":4154:4164   */\n      swap1\n      pop\n        /* \"#utility.yul\":4031:4170   */\n      swap3\n      swap2\n      pop\n      pop\n      jump\t// out\n        /* \"#utility.yul\":4176:4398   */\n    tag_11:\n      0x00\n        /* \"#utility.yul\":4307:4309   */\n      0x20\n        /* \"#utility.yul\":4296:4305   */\n      dup3\n        /* \"#utility.yul\":4292:4310   */\n      add\n        /* \"#utility.yul\":4284:4310   */\n      swap1\n      pop\n        /* \"#utility.yul\":4320:4391   */\n      tag_138\n        /* \"#utility.yul\":4388:4389   */\n      0x00\n        /* \"#utility.yul\":4377:4386   */\n      dup4\n        /* \"#utility.yul\":4373:4390   */\n      add\n        /* \"#utility.yul\":4364:4370   */\n      dup5\n        /* \"#utility.yul\":4320:4391   */\n      tag_89\n      jump\t// in\n    tag_138:\n        /* \"#utility.yul\":4274:4398   */\n      swap3\n      swap2\n      pop\n      pop\n      jump\t// out\n        /* \"#utility.yul\":4404:4614   */\n    tag_24:\n      0x00\n        /* \"#utility.yul\":4529:4531   */\n      0x20\n        /* \"#utility.yul\":4518:4527   */\n      dup3\n        /* \"#utility.yul\":4514:4532   */\n      add\n        /* \"#utility.yul\":4506:4532   */\n      swap1\n      pop\n        /* \"#utility.yul\":4542:4607   */\n      tag_140\n        /* \"#utility.yul\":4604:4605   */\n      0x00\n        /* \"#utility.yul\":4593:4602   */\n      dup4\n        /* \"#utility.yul\":4589:4606   */\n      add\n        /* \"#utility.yul\":4580:4586   */\n      dup5\n        /* \"#utility.yul\":4542:4607   */\n      tag_93\n      jump\t// in\n    tag_140:\n        /* \"#utility.yul\":4496:4614   */\n      swap3\n      swap2\n      pop\n      pop\n      jump\t// out\n        /* \"#utility.yul\":4620:5039   */\n    tag_50:\n      0x00\n        /* \"#utility.yul\":4824:4826   */\n      0x20\n        /* \"#utility.yul\":4813:4822   */\n      dup3\n        /* \"#utility.yul\":4809:4827   */\n      add\n        /* \"#utility.yul\":4801:4827   */\n      swap1\n      pop\n        /* \"#utility.yul\":4873:4882   */\n      dup2\n        /* \"#utility.yul\":4867:4871   */\n      dup2\n        /* \"#utility.yul\":4863:4883   */\n      sub\n        /* \"#utility.yul\":4859:4860   */\n      0x00\n        /* \"#utility.yul\":4848:4857   */\n      dup4\n        /* \"#utility.yul\":4844:4861   */\n      add\n        /* \"#utility.yul\":4837:4884   */\n      mstore\n        /* \"#utility.yul\":4901:5032   */\n      tag_142\n        /* \"#utility.yul\":5027:5031   */\n      dup2\n        /* \"#utility.yul\":4901:5032   */\n      tag_119\n      jump\t// in\n    tag_142:\n        /* \"#utility.yul\":4893:5032   */\n      swap1\n      pop\n        /* \"#utility.yul\":4791:5039   */\n      swap2\n      swap1\n      pop\n      jump\t// out\n        /* \"#utility.yul\":5045:5464   */\n    tag_32:\n      0x00\n        /* \"#utility.yul\":5249:5251   */\n      0x20\n        /* \"#utility.yul\":5238:5247   */\n      dup3\n        /* \"#utility.yul\":5234:5252   */\n      add\n        /* \"#utility.yul\":5226:5252   */\n      swap1\n      pop\n        /* \"#utility.yul\":5298:5307   */\n      dup2\n        /* \"#utility.yul\":5292:5296   */\n      dup2\n        /* \"#utility.yul\":5288:5308   */\n      sub\n        /* \"#utility.yul\":5284:5285   */\n      0x00\n        /* \"#utility.yul\":5273:5282   */\n      dup4\n        /* \"#utility.yul\":5269:5286   */\n      add\n        /* \"#utility.yul\":5262:5309   */\n      mstore\n        /* \"#utility.yul\":5326:5457   */\n      tag_144\n        /* \"#utility.yul\":5452:5456   */\n      dup2\n        /* \"#utility.yul\":5326:5457   */\n      tag_123\n      jump\t// in\n    tag_144:\n        /* \"#utility.yul\":5318:5457   */\n      swap1\n      pop\n        /* \"#utility.yul\":5216:5464   */\n      swap2\n      swap1\n      pop\n      jump\t// out\n        /* \"#utility.yul\":5470:5889   */\n    tag_40:\n      0x00\n        /* \"#utility.yul\":5674:5676   */\n      0x20\n        /* \"#utility.yul\":5663:5672   */\n      dup3\n        /* \"#utility.yul\":5659:5677   */\n      add\n        /* \"#utility.yul\":5651:5677   */\n      swap1\n      pop\n        /* \"#utility.yul\":5723:5732   */\n      dup2\n        /* \"#utility.yul\":5717:5721   */\n      dup2\n        /* \"#utility.yul\":5713:5733   */\n      sub\n        /* \"#utility.yul\":5709:5710   */\n      0x00\n        /* \"#utility.yul\":5698:5707   */\n      dup4\n        /* \"#utility.yul\":5694:5711   */\n      add\n        /* \"#utility.yul\":5687:5734   */\n      mstore\n        /* \"#utility.yul\":5751:5882   */\n      tag_146\n        /* \"#utility.yul\":5877:5881   */\n      dup2\n        /* \"#utility.yul\":5751:5882   */\n      tag_126\n      jump\t// in\n    tag_146:\n        /* \"#utility.yul\":5743:5882   */\n      swap1\n      pop\n        /* \"#utility.yul\":5641:5889   */\n      swap2\n      swap1\n      pop\n      jump\t// out\n        /* \"#utility.yul\":5895:6117   */\n    tag_17:\n      0x00\n        /* \"#utility.yul\":6026:6028   */\n      0x20\n        /* \"#utility.yul\":6015:6024   */\n      dup3\n        /* \"#utility.yul\":6011:6029   */\n      add\n        /* \"#utility.yul\":6003:6029   */\n      swap1\n      pop\n        /* \"#utility.yul\":6039:6110   */\n      tag_148\n        /* \"#utility.yul\":6107:6108   */\n      0x00\n        /* \"#utility.yul\":6096:6105   */\n      dup4\n        /* \"#utility.yul\":6092:6109   */\n      add\n        /* \"#utility.yul\":6083:6089   */\n      dup5\n        /* \"#utility.yul\":6039:6110   */\n      tag_129\n      jump\t// in\n    tag_148:\n        /* \"#utility.yul\":5993:6117   */\n      swap3\n      swap2\n      pop\n      pop\n      jump\t// out\n        /* \"#utility.yul\":6123:6406   */\n    tag_77:\n      0x00\n        /* \"#utility.yul\":6189:6191   */\n      0x40\n        /* \"#utility.yul\":6183:6192   */\n      mload\n        /* \"#utility.yul\":6173:6192   */\n      swap1\n      pop\n        /* \"#utility.yul\":6231:6235   */\n      dup2\n        /* \"#utility.yul\":6223:6229   */\n      dup2\n        /* \"#utility.yul\":6219:6236   */\n      add\n        /* \"#utility.yul\":6338:6344   */\n      dup2\n        /* \"#utility.yul\":6326:6336   */\n      dup2\n        /* \"#utility.yul\":6323:6345   */\n      lt\n        /* \"#utility.yul\":6302:6320   */\n      0xffffffffffffffff\n        /* \"#utility.yul\":6290:6300   */\n      dup3\n        /* \"#utility.yul\":6287:6321   */\n      gt\n        /* \"#utility.yul\":6284:6346   */\n      or\n        /* \"#utility.yul\":6281:6283   */\n      iszero\n      tag_150\n      jumpi\n        /* \"#utility.yul\":6349:6367   */\n      tag_151\n      tag_152\n      jump\t// in\n    tag_151:\n        /* \"#utility.yul\":6281:6283   */\n    tag_150:\n        /* \"#utility.yul\":6389:6399   */\n      dup1\n        /* \"#utility.yul\":6385:6387   */\n      0x40\n        /* \"#utility.yul\":6378:6400   */\n      mstore\n        /* \"#utility.yul\":6163:6406   */\n      pop\n      swap2\n      swap1\n      pop\n      jump\t// out\n        /* \"#utility.yul\":6412:6744   */\n    tag_76:\n      0x00\n        /* \"#utility.yul\":6564:6582   */\n      0xffffffffffffffff\n        /* \"#utility.yul\":6556:6562   */\n      dup3\n        /* \"#utility.yul\":6553:6583   */\n      gt\n        /* \"#utility.yul\":6550:6552   */\n      iszero\n      tag_154\n      jumpi\n        /* \"#utility.yul\":6586:6604   */\n      tag_155\n      tag_152\n      jump\t// in\n    tag_155:\n        /* \"#utility.yul\":6550:6552   */\n    tag_154:\n        /* \"#utility.yul\":6671:6675   */\n      0x1f\n        /* \"#utility.yul\":6667:6676   */\n      not\n        /* \"#utility.yul\":6660:6664   */\n      0x1f\n        /* \"#utility.yul\":6652:6658   */\n      dup4\n        /* \"#utility.yul\":6648:6665   */\n      add\n        /* \"#utility.yul\":6644:6677   */\n      and\n        /* \"#utility.yul\":6636:6677   */\n      swap1\n      pop\n        /* \"#utility.yul\":6732:6736   */\n      0x20\n        /* \"#utility.yul\":6726:6730   */\n      dup2\n        /* \"#utility.yul\":6722:6737   */\n      add\n        /* \"#utility.yul\":6714:6737   */\n      swap1\n      pop\n        /* \"#utility.yul\":6479:6744   */\n      swap2\n      swap1\n      pop\n      jump\t// out\n        /* \"#utility.yul\":6750:6894   */\n    tag_107:\n      0x00\n        /* \"#utility.yul\":6825:6828   */\n      dup2\n        /* \"#utility.yul\":6817:6828   */\n      swap1\n      pop\n        /* \"#utility.yul\":6848:6851   */\n      dup2\n        /* \"#utility.yul\":6845:6846   */\n      0x00\n        /* \"#utility.yul\":6838:6852   */\n      mstore\n        /* \"#utility.yul\":6882:6886   */\n      0x20\n        /* \"#utility.yul\":6879:6880   */\n      0x00\n        /* \"#utility.yul\":6869:6887   */\n      keccak256\n        /* \"#utility.yul\":6861:6887   */\n      swap1\n      pop\n        /* \"#utility.yul\":6807:6894   */\n      swap2\n      swap1\n      pop\n      jump\t// out\n        /* \"#utility.yul\":6900:6999   */\n    tag_114:\n      0x00\n        /* \"#utility.yul\":6986:6991   */\n      dup2\n        /* \"#utility.yul\":6980:6992   */\n      mload\n        /* \"#utility.yul\":6970:6992   */\n      swap1\n      pop\n        /* \"#utility.yul\":6959:6999   */\n      swap2\n      swap1\n      pop\n      jump\t// out\n        /* \"#utility.yul\":7005:7152   */\n    tag_102:\n      0x00\n        /* \"#utility.yul\":7143:7146   */\n      dup2\n        /* \"#utility.yul\":7128:7146   */\n      swap1\n      pop\n        /* \"#utility.yul\":7118:7152   */\n      swap3\n      swap2\n      pop\n      pop\n      jump\t// out\n        /* \"#utility.yul\":7158:7327   */\n    tag_122:\n      0x00\n        /* \"#utility.yul\":7276:7282   */\n      dup3\n        /* \"#utility.yul\":7271:7274   */\n      dup3\n        /* \"#utility.yul\":7264:7283   */\n      mstore\n        /* \"#utility.yul\":7316:7320   */\n      0x20\n        /* \"#utility.yul\":7311:7314   */\n      dup3\n        /* \"#utility.yul\":7307:7321   */\n      add\n        /* \"#utility.yul\":7292:7321   */\n      swap1\n      pop\n        /* \"#utility.yul\":7254:7327   */\n      swap3\n      swap2\n      pop\n      pop\n      jump\t// out\n        /* \"#utility.yul\":7333:7481   */\n    tag_116:\n      0x00\n        /* \"#utility.yul\":7472:7475   */\n      dup2\n        /* \"#utility.yul\":7457:7475   */\n      swap1\n      pop\n        /* \"#utility.yul\":7447:7481   */\n      swap3\n      swap2\n      pop\n      pop\n      jump\t// out\n        /* \"#utility.yul\":7487:7792   */\n    tag_46:\n      0x00\n        /* \"#utility.yul\":7546:7566   */\n      tag_162\n        /* \"#utility.yul\":7564:7565   */\n      dup3\n        /* \"#utility.yul\":7546:7566   */\n      tag_132\n      jump\t// in\n    tag_162:\n        /* \"#utility.yul\":7541:7566   */\n      swap2\n      pop\n        /* \"#utility.yul\":7580:7600   */\n      tag_163\n        /* \"#utility.yul\":7598:7599   */\n      dup4\n        /* \"#utility.yul\":7580:7600   */\n      tag_132\n      jump\t// in\n    tag_163:\n        /* \"#utility.yul\":7575:7600   */\n      swap3\n      pop\n        /* \"#utility.yul\":7734:7735   */\n      dup3\n        /* \"#utility.yul\":7666:7732   */\n      0xffffffffffffffffffffffffffffffffffffffffffffffffffffffffffffffff\n        /* \"#utility.yul\":7662:7736   */\n      sub\n        /* \"#utility.yul\":7659:7660   */\n      dup3\n        /* \"#utility.yul\":7656:7737   */\n      gt\n        /* \"#utility.yul\":7653:7655   */\n      iszero\n      tag_164\n      jumpi\n        /* \"#utility.yul\":7740:7758   */\n      tag_165\n      tag_166\n      jump\t// in\n    tag_165:\n        /* \"#utility.yul\":7653:7655   */\n    tag_164:\n        /* \"#utility.yul\":7784:7785   */\n      dup3\n        /* \"#utility.yul\":7781:7782   */\n      dup3\n        /* \"#utility.yul\":7777:7786   */\n      add\n        /* \"#utility.yul\":7770:7786   */\n      swap1\n      pop\n        /* \"#utility.yul\":7531:7792   */\n      swap3\n      swap2\n      pop\n      pop\n      jump\t// out\n        /* \"#utility.yul\":7798:7894   */\n    tag_92:\n      0x00\n        /* \"#utility.yul\":7864:7888   */\n      tag_168\n        /* \"#utility.yul\":7882:7887   */\n      dup3\n        /* \"#utility.yul\":7864:7888   */\n      tag_169\n      jump\t// in\n    tag_168:\n        /* \"#utility.yul\":7853:7888   */\n      swap1\n      pop\n        /* \"#utility.yul\":7843:7894   */\n      swap2\n      swap1\n      pop\n      jump\t// out\n        /* \"#utility.yul\":7900:7990   */\n    tag_96:\n      0x00\n        /* \"#utility.yul\":7977:7982   */\n      dup2\n        /* \"#utility.yul\":7970:7983   */\n      iszero\n        /* \"#utility.yul\":7963:7984   */\n      iszero\n        /* \"#utility.yul\":7952:7984   */\n      swap1\n      pop\n        /* \"#utility.yul\":7942:7990   */\n      swap2\n      swap1\n      pop\n      jump\t// out\n        /* \"#utility.yul\":7996:8122   */\n    tag_169:\n      0x00\n        /* \"#utility.yul\":8073:8115   */\n      0xffffffffffffffffffffffffffffffffffffffff\n        /* \"#utility.yul\":8066:8071   */\n      dup3\n        /* \"#utility.yul\":8062:8116   */\n      and\n        /* \"#utility.yul\":8051:8116   */\n      swap1\n      pop\n        /* \"#utility.yul\":8041:8122   */\n      swap2\n      swap1\n      pop\n      jump\t// out\n        /* \"#utility.yul\":8128:8205   */\n    tag_132:\n      0x00\n        /* \"#utility.yul\":8194:8199   */\n      dup2\n        /* \"#utility.yul\":8183:8199   */\n      swap1\n      pop\n        /* \"#utility.yul\":8173:8205   */\n      swap2\n      swap1\n      pop\n      jump\t// out\n        /* \"#utility.yul\":8211:8365   */\n    tag_80:\n        /* \"#utility.yul\":8295:8301   */\n      dup3\n        /* \"#utility.yul\":8290:8293   */\n      dup2\n        /* \"#utility.yul\":8285:8288   */\n      dup4\n        /* \"#utility.yul\":8272:8302   */\n      calldatacopy\n        /* \"#utility.yul\":8357:8358   */\n      0x00\n        /* \"#utility.yul\":8348:8354   */\n      dup4\n        /* \"#utility.yul\":8343:8346   */\n      dup4\n        /* \"#utility.yul\":8339:8355   */\n      add\n        /* \"#utility.yul\":8332:8359   */\n      mstore\n        /* \"#utility.yul\":8262:8365   */\n      pop\n      pop\n      pop\n      jump\t// out\n        /* \"#utility.yul\":8371:8678   */\n    tag_118:\n        /* \"#utility.yul\":8439:8440   */\n      0x00\n        /* \"#utility.yul\":8449:8562   */\n    tag_175:\n        /* \"#utility.yul\":8463:8469   */\n      dup4\n        /* \"#utility.yul\":8460:8461   */\n      dup2\n        /* \"#utility.yul\":8457:8470   */\n      lt\n        /* \"#utility.yul\":8449:8562   */\n      iszero\n      tag_177\n      jumpi\n        /* \"#utility.yul\":8548:8549   */\n      dup1\n        /* \"#utility.yul\":8543:8546   */\n      dup3\n        /* \"#utility.yul\":8539:8550   */\n      add\n        /* \"#utility.yul\":8533:8551   */\n      mload\n        /* \"#utility.yul\":8529:8530   */\n      dup2\n        /* \"#utility.yul\":8524:8527   */\n      dup5\n        /* \"#utility.yul\":8520:8531   */\n      add\n        /* \"#utility.yul\":8513:8552   */\n      mstore\n        /* \"#utility.yul\":8485:8487   */\n      0x20\n        /* \"#utility.yul\":8482:8483   */\n      dup2\n        /* \"#utility.yul\":8478:8488   */\n      add\n        /* \"#utility.yul\":8473:8488   */\n      swap1\n      pop\n        /* \"#utility.yul\":8449:8562   */\n      jump(tag_175)\n    tag_177:\n        /* \"#utility.yul\":8580:8586   */\n      dup4\n        /* \"#utility.yul\":8577:8578   */\n      dup2\n        /* \"#utility.yul\":8574:8587   */\n      gt\n        /* \"#utility.yul\":8571:8573   */\n      iszero\n      tag_178\n      jumpi\n        /* \"#utility.yul\":8660:8661   */\n      0x00\n        /* \"#utility.yul\":8651:8657   */\n      dup5\n        /* \"#utility.yul\":8646:8649   */\n      dup5\n        /* \"#utility.yul\":8642:8658   */\n      add\n        /* \"#utility.yul\":8635:8662   */\n      mstore\n        /* \"#utility.yul\":8571:8573   */\n    tag_178:\n        /* \"#utility.yul\":8420:8678   */\n      pop\n      pop\n      pop\n      pop\n      jump\t// out\n        /* \"#utility.yul\":8684:9004   */\n    tag_100:\n      0x00\n        /* \"#utility.yul\":8765:8766   */\n      0x02\n        /* \"#utility.yul\":8759:8763   */\n      dup3\n        /* \"#utility.yul\":8755:8767   */\n      div\n        /* \"#utility.yul\":8745:8767   */\n      swap1\n      pop\n        /* \"#utility.yul\":8812:8813   */\n      0x01\n        /* \"#utility.yul\":8806:8810   */\n      dup3\n        /* \"#utility.yul\":8802:8814   */\n      and\n        /* \"#utility.yul\":8833:8851   */\n      dup1\n        /* \"#utility.yul\":8823:8825   */\n      tag_180\n      jumpi\n        /* \"#utility.yul\":8889:8893   */\n      0x7f\n        /* \"#utility.yul\":8881:8887   */\n      dup3\n        /* \"#utility.yul\":8877:8894   */\n      and\n        /* \"#utility.yul\":8867:8894   */\n      swap2\n      pop\n        /* \"#utility.yul\":8823:8825   */\n    tag_180:\n        /* \"#utility.yul\":8951:8953   */\n      0x20\n        /* \"#utility.yul\":8943:8949   */\n      dup3\n        /* \"#utility.yul\":8940:8954   */\n      lt\n        /* \"#utility.yul\":8920:8938   */\n      dup2\n        /* \"#utility.yul\":8917:8955   */\n      eq\n        /* \"#utility.yul\":8914:8916   */\n      iszero\n      tag_181\n      jumpi\n        /* \"#utility.yul\":8970:8988   */\n      tag_182\n      tag_183\n      jump\t// in\n    tag_182:\n        /* \"#utility.yul\":8914:8916   */\n    tag_181:\n        /* \"#utility.yul\":8735:9004   */\n      pop\n      swap2\n      swap1\n      pop\n      jump\t// out\n        /* \"#utility.yul\":9010:9243   */\n    tag_62:\n      0x00\n        /* \"#utility.yul\":9072:9096   */\n      tag_185\n        /* \"#utility.yul\":9090:9095   */\n      dup3\n        /* \"#utility.yul\":9072:9096   */\n      tag_132\n      jump\t// in\n    tag_185:\n        /* \"#utility.yul\":9063:9096   */\n      swap2\n      pop\n        /* \"#utility.yul\":9118:9184   */\n      0xffffffffffffffffffffffffffffffffffffffffffffffffffffffffffffffff\n        /* \"#utility.yul\":9111:9116   */\n      dup3\n        /* \"#utility.yul\":9108:9185   */\n      eq\n        /* \"#utility.yul\":9105:9107   */\n      iszero\n      tag_186\n      jumpi\n        /* \"#utility.yul\":9188:9206   */\n      tag_187\n      tag_166\n      jump\t// in\n    tag_187:\n        /* \"#utility.yul\":9105:9107   */\n    tag_186:\n        /* \"#utility.yul\":9235:9236   */\n      0x01\n        /* \"#utility.yul\":9228:9233   */\n      dup3\n        /* \"#utility.yul\":9224:9237   */\n      add\n        /* \"#utility.yul\":9217:9237   */\n      swap1\n      pop\n        /* \"#utility.yul\":9053:9243   */\n      swap2\n      swap1\n      pop\n      jump\t// out\n        /* \"#utility.yul\":9249:9429   */\n    tag_166:\n        /* \"#utility.yul\":9297:9374   */\n      0x4e487b7100000000000000000000000000000000000000000000000000000000\n        /* \"#utility.yul\":9294:9295   */\n      0x00\n        /* \"#utility.yul\":9287:9375   */\n      mstore\n        /* \"#utility.yul\":9394:9398   */\n      0x11\n        /* \"#utility.yul\":9391:9392   */\n      0x04\n        /* \"#utility.yul\":9384:9399   */\n      mstore\n        /* \"#utility.yul\":9418:9422   */\n      0x24\n        /* \"#utility.yul\":9415:9416   */\n      0x00\n        /* \"#utility.yul\":9408:9423   */\n      revert\n        /* \"#utility.yul\":9435:9615   */\n    tag_183:\n        /* \"#utility.yul\":9483:9560   */\n      0x4e487b7100000000000000000000000000000000000000000000000000000000\n        /* \"#utility.yul\":9480:9481   */\n      0x00\n        /* \"#utility.yul\":9473:9561   */\n      mstore\n        /* \"#utility.yul\":9580:9584   */\n      0x22\n        /* \"#utility.yul\":9577:9578   */\n      0x04\n        /* \"#utility.yul\":9570:9585   */\n      mstore\n        /* \"#utility.yul\":9604:9608   */\n      0x24\n        /* \"#utility.yul\":9601:9602   */\n      0x00\n        /* \"#utility.yul\":9594:9609   */\n      revert\n        /* \"#utility.yul\":9621:9801   */\n    tag_152:\n        /* \"#utility.yul\":9669:9746   */\n      0x4e487b7100000000000000000000000000000000000000000000000000000000\n        /* \"#utility.yul\":9666:9667   */\n      0x00\n        /* \"#utility.yul\":9659:9747   */\n      mstore\n        /* \"#utility.yul\":9766:9770   */\n      0x41\n        /* \"#utility.yul\":9763:9764   */\n      0x04\n        /* \"#utility.yul\":9756:9771   */\n      mstore\n        /* \"#utility.yul\":9790:9794   */\n      0x24\n        /* \"#utility.yul\":9787:9788   */\n      0x00\n        /* \"#utility.yul\":9780:9795   */\n      revert\n\n    auxdata: 0xa2646970667358221220b7aebcb0f3af629c7c787f51cc013000384390a05b464523180058c6ea0750b264736f6c63430008000033\n}\n",
				"bytecode": {
					"linkReferences": {},
					"object": "60806040523480156200001157600080fd5b506040516200116f3803806200116f83398181016040528101906200003791906200049e565b33600160006101000a81548173ffffffffffffffffffffffffffffffffffffffff021916908373ffffffffffffffffffffffffffffffffffffffff160217905550816002908051906020019062000090929190620000cd565b508060039080519060200190620000a992919062000134565b506001600460006101000a81548160ff0219169083151502179055505050620006ee565b82805482825590600052602060002090810192821562000121579160200282015b82811115620001205782518290805190602001906200010f929190620001c3565b5091602001919060010190620000ee565b5b50905062000130919062000254565b5090565b828054828255906000526020600020908101928215620001b0579160200282015b82811115620001af5782518260006101000a81548173ffffffffffffffffffffffffffffffffffffffff021916908373ffffffffffffffffffffffffffffffffffffffff1602179055509160200191906001019062000155565b5b509050620001bf91906200027c565b5090565b828054620001d19062000640565b90600052602060002090601f016020900481019282620001f5576000855562000241565b82601f106200021057805160ff191683800117855562000241565b8280016001018555821562000241579182015b828111156200024057825182559160200191906001019062000223565b5b5090506200025091906200027c565b5090565b5b808211156200027857600081816200026e91906200029b565b5060010162000255565b5090565b5b80821115620002975760008160009055506001016200027d565b5090565b508054620002a99062000640565b6000825580601f10620002bd5750620002de565b601f016020900490600052602060002090810190620002dd91906200027c565b5b50565b6000620002f8620002f28462000545565b62000511565b905080838252602082019050828560208602820111156200031857600080fd5b60005b858110156200034c578162000331888262000400565b8452602084019350602083019250506001810190506200031b565b5050509392505050565b60006200036d620003678462000574565b62000511565b9050808382526020820190508260005b85811015620003b1578151850162000396888262000471565b8452602084019350602083019250506001810190506200037d565b5050509392505050565b6000620003d2620003cc84620005a3565b62000511565b905082815260208101848484011115620003eb57600080fd5b620003f88482856200060a565b509392505050565b6000815190506200041181620006d4565b92915050565b600082601f8301126200042957600080fd5b81516200043b848260208601620002e1565b91505092915050565b600082601f8301126200045657600080fd5b81516200046884826020860162000356565b91505092915050565b600082601f8301126200048357600080fd5b815162000495848260208601620003bb565b91505092915050565b60008060408385031215620004b257600080fd5b600083015167ffffffffffffffff811115620004cd57600080fd5b620004db8582860162000444565b925050602083015167ffffffffffffffff811115620004f957600080fd5b620005078582860162000417565b9150509250929050565b6000604051905081810181811067ffffffffffffffff821117156200053b576200053a620006a5565b5b8060405250919050565b600067ffffffffffffffff821115620005635762000562620006a5565b5b602082029050602081019050919050565b600067ffffffffffffffff821115620005925762000591620006a5565b5b602082029050602081019050919050565b600067ffffffffffffffff821115620005c157620005c0620006a5565b5b601f19601f8301169050602081019050919050565b6000620005e382620005ea565b9050919050565b600073ffffffffffffffffffffffffffffffffffffffff82169050919050565b60005b838110156200062a5780820151818401526020810190506200060d565b838111156200063a576000848401525b50505050565b600060028204905060018216806200065957607f821691505b6020821081141562000670576200066f62000676565b5b50919050565b7f4e487b7100000000000000000000000000000000000000000000000000000000600052602260045260246000fd5b7f4e487b7100000000000000000000000000000000000000000000000000000000600052604160045260246000fd5b620006df81620005d6565b8114620006eb57600080fd5b50565b610a7180620006fe6000396000f3fe608060405234801561001057600080fd5b50600436106100575760003560e01c80632e4176cf1461005c5780634a3bf3771461007a5780639cc2d993146100aa578063b62312bf146100c6578063fab2f86b146100e4575b600080fd5b6100646100ee565b60405161007191906106fa565b60405180910390f35b610094600480360381019061008f91906104ee565b610114565b6040516100a19190610790565b60405180910390f35b6100c460048036038101906100bf91906104ee565b610184565b005b6100ce61024d565b6040516100db9190610715565b60405180910390f35b6100ec610260565b005b600160009054906101000a900473ffffffffffffffffffffffffffffffffffffffff1681565b600061011f8261030d565b61015e576040517f08c379a000000000000000000000000000000000000000000000000000000000815260040161015590610750565b60405180910390fd5b60008260405161016e91906106e3565b9081526020016040518091039020549050919050565b61018d336103b1565b6101cc576040517f08c379a00000000000000000000000000000000000000000000000000000000081526004016101c390610770565b60405180910390fd5b6101d58161030d565b610214576040517f08c379a000000000000000000000000000000000000000000000000000000000815260040161020b90610750565b60405180910390fd5b600160008260405161022691906106e3565b908152602001604051809103902060008282546102439190610853565b9250508190555050565b600460009054906101000a900460ff1681565b600160009054906101000a900473ffffffffffffffffffffffffffffffffffffffff1673ffffffffffffffffffffffffffffffffffffffff163373ffffffffffffffffffffffffffffffffffffffff16146102f0576040517f08c379a00000000000000000000000000000000000000000000000000000000081526004016102e790610730565b60405180910390fd5b6000600460006101000a81548160ff021916908315150217905550565b600080600090505b6002805490508110156103a657828051906020012060028281548110610364577f4e487b7100000000000000000000000000000000000000000000000000000000600052603260045260246000fd5b9060005260206000200160405161037b91906106cc565b604051809103902014156103935760019150506103ac565b808061039e90610965565b915050610315565b50600090505b919050565b600080600090505b60038054905081101561047b578273ffffffffffffffffffffffffffffffffffffffff1660038281548110610417577f4e487b7100000000000000000000000000000000000000000000000000000000600052603260045260246000fd5b9060005260206000200160009054906101000a900473ffffffffffffffffffffffffffffffffffffffff1673ffffffffffffffffffffffffffffffffffffffff161415610468576001915050610481565b808061047390610965565b9150506103b9565b50600090505b919050565b6000610499610494846107dc565b6107ab565b9050828152602081018484840111156104b157600080fd5b6104bc8482856108f1565b509392505050565b600082601f8301126104d557600080fd5b81356104e5848260208601610486565b91505092915050565b60006020828403121561050057600080fd5b600082013567ffffffffffffffff81111561051a57600080fd5b610526848285016104c4565b91505092915050565b610538816108a9565b82525050565b610547816108bb565b82525050565b6000815461055a81610933565b610564818661082c565b9450600182166000811461057f5760018114610590576105c3565b60ff198316865281860193506105c3565b6105998561080c565b60005b838110156105bb5781548189015260018201915060208101905061059c565b838801955050505b50505092915050565b60006105d782610821565b6105e18185610848565b93506105f1818560208601610900565b80840191505092915050565b600061060a601083610837565b91507f4f6e6c79206368616972706572736f6e000000000000000000000000000000006000830152602082019050919050565b600061064a601183610837565b91507f496e76616c69642063616e6469646174650000000000000000000000000000006000830152602082019050919050565b600061068a601183610837565b91507f4e6f7420612076616c696420766f7465720000000000000000000000000000006000830152602082019050919050565b6106c6816108e7565b82525050565b60006106d8828461054d565b915081905092915050565b60006106ef82846105cc565b915081905092915050565b600060208201905061070f600083018461052f565b92915050565b600060208201905061072a600083018461053e565b92915050565b60006020820190508181036000830152610749816105fd565b9050919050565b600060208201905081810360008301526107698161063d565b9050919050565b600060208201905081810360008301526107898161067d565b9050919050565b60006020820190506107a560008301846106bd565b92915050565b6000604051905081810181811067ffffffffffffffff821117156107d2576107d1610a0c565b5b8060405250919050565b600067ffffffffffffffff8211156107f7576107f6610a0c565b5b601f19601f8301169050602081019050919050565b60008190508160005260206000209050919050565b600081519050919050565b600081905092915050565b600082825260208201905092915050565b600081905092915050565b600061085e826108e7565b9150610869836108e7565b9250827fffffffffffffffffffffffffffffffffffffffffffffffffffffffffffffffff0382111561089e5761089d6109ae565b5b828201905092915050565b60006108b4826108c7565b9050919050565b60008115159050919050565b600073ffffffffffffffffffffffffffffffffffffffff82169050919050565b6000819050919050565b82818337600083830152505050565b60005b8381101561091e578082015181840152602081019050610903565b8381111561092d576000848401525b50505050565b6000600282049050600182168061094b57607f821691505b6020821081141561095f5761095e6109dd565b5b50919050565b6000610970826108e7565b91507fffffffffffffffffffffffffffffffffffffffffffffffffffffffffffffffff8214156109a3576109a26109ae565b5b600182019050919050565b7f4e487b7100000000000000000000000000000000000000000000000000000000600052601160045260246000fd5b7f4e487b7100000000000000000000000000000000000000000000000000000000600052602260045260246000fd5b7f4e487b7100000000000000000000000000000000000000000000000000000000600052604160045260246000fdfea2646970667358221220b7aebcb0f3af629c7c787f51cc013000384390a05b464523180058c6ea0750b264736f6c63430008000033",
					"opcodes": "PUSH1 0x80 PUSH1 0x40 MSTORE CALLVALUE DUP1 ISZERO PUSH3 0x11 JUMPI PUSH1 0x0 DUP1 REVERT JUMPDEST POP PUSH1 0x40 MLOAD PUSH3 0x116F CODESIZE SUB DUP1 PUSH3 0x116F DUP4 CODECOPY DUP2 DUP2 ADD PUSH1 0x40 MSTORE DUP2 ADD SWAP1 PUSH3 0x37 SWAP2 SWAP1 PUSH3 0x49E JUMP JUMPDEST CALLER PUSH1 0x1 PUSH1 0x0 PUSH2 0x100 EXP DUP2 SLOAD DUP2 PUSH20 0xFFFFFFFFFFFFFFFFFFFFFFFFFFFFFFFFFFFFFFFF MUL NOT AND SWAP1 DUP4 PUSH20 0xFFFFFFFFFFFFFFFFFFFFFFFFFFFFFFFFFFFFFFFF AND MUL OR SWAP1 SSTORE POP DUP2 PUSH1 0x2 SWAP1 DUP1 MLOAD SWAP1 PUSH1 0x20 ADD SWAP1 PUSH3 0x90 SWAP3 SWAP2 SWAP1 PUSH3 0xCD JUMP JUMPDEST POP DUP1 PUSH1 0x3 SWAP1 DUP1 MLOAD SWAP1 PUSH1 0x20 ADD SWAP1 PUSH3 0xA9 SWAP3 SWAP2 SWAP1 PUSH3 0x134 JUMP JUMPDEST POP PUSH1 0x1 PUSH1 0x4 PUSH1 0x0 PUSH2 0x100 EXP DUP2 SLOAD DUP2 PUSH1 0xFF MUL NOT AND SWAP1 DUP4 ISZERO ISZERO MUL OR SWAP1 SSTORE POP POP POP PUSH3 0x6EE JUMP JUMPDEST DUP3 DUP1 SLOAD DUP3 DUP3 SSTORE SWAP1 PUSH1 0x0 MSTORE PUSH1 0x20 PUSH1 0x0 KECCAK256 SWAP1 DUP2 ADD SWAP3 DUP3 ISZERO PUSH3 0x121 JUMPI SWAP2 PUSH1 0x20 MUL DUP3 ADD JUMPDEST DUP3 DUP2 GT ISZERO PUSH3 0x120 JUMPI DUP3 MLOAD DUP3 SWAP1 DUP1 MLOAD SWAP1 PUSH1 0x20 ADD SWAP1 PUSH3 0x10F SWAP3 SWAP2 SWAP1 PUSH3 0x1C3 JUMP JUMPDEST POP SWAP2 PUSH1 0x20 ADD SWAP2 SWAP1 PUSH1 0x1 ADD SWAP1 PUSH3 0xEE JUMP JUMPDEST JUMPDEST POP SWAP1 POP PUSH3 0x130 SWAP2 SWAP1 PUSH3 0x254 JUMP JUMPDEST POP SWAP1 JUMP JUMPDEST DUP3 DUP1 SLOAD DUP3 DUP3 SSTORE SWAP1 PUSH1 0x0 MSTORE PUSH1 0x20 PUSH1 0x0 KECCAK256 SWAP1 DUP2 ADD SWAP3 DUP3 ISZERO PUSH3 0x1B0 JUMPI SWAP2 PUSH1 0x20 MUL DUP3 ADD JUMPDEST DUP3 DUP2 GT ISZERO PUSH3 0x1AF JUMPI DUP3 MLOAD DUP3 PUSH1 0x0 PUSH2 0x100 EXP DUP2 SLOAD DUP2 PUSH20 0xFFFFFFFFFFFFFFFFFFFFFFFFFFFFFFFFFFFFFFFF MUL NOT AND SWAP1 DUP4 PUSH20 0xFFFFFFFFFFFFFFFFFFFFFFFFFFFFFFFFFFFFFFFF AND MUL OR SWAP1 SSTORE POP SWAP2 PUSH1 0x20 ADD SWAP2 SWAP1 PUSH1 0x1 ADD SWAP1 PUSH3 0x155 JUMP JUMPDEST JUMPDEST POP SWAP1 POP PUSH3 0x1BF SWAP2 SWAP1 PUSH3 0x27C JUMP JUMPDEST POP SWAP1 JUMP JUMPDEST DUP3 DUP1 SLOAD PUSH3 0x1D1 SWAP1 PUSH3 0x640 JUMP JUMPDEST SWAP1 PUSH1 0x0 MSTORE PUSH1 0x20 PUSH1 0x0 KECCAK256 SWAP1 PUSH1 0x1F ADD PUSH1 0x20 SWAP1 DIV DUP2 ADD SWAP3 DUP3 PUSH3 0x1F5 JUMPI PUSH1 0x0 DUP6 SSTORE PUSH3 0x241 JUMP JUMPDEST DUP3 PUSH1 0x1F LT PUSH3 0x210 JUMPI DUP1 MLOAD PUSH1 0xFF NOT AND DUP4 DUP1 ADD OR DUP6 SSTORE PUSH3 0x241 JUMP JUMPDEST DUP3 DUP1 ADD PUSH1 0x1 ADD DUP6 SSTORE DUP3 ISZERO PUSH3 0x241 JUMPI SWAP2 DUP3 ADD JUMPDEST DUP3 DUP2 GT ISZERO PUSH3 0x240 JUMPI DUP3 MLOAD DUP3 SSTORE SWAP2 PUSH1 0x20 ADD SWAP2 SWAP1 PUSH1 0x1 ADD SWAP1 PUSH3 0x223 JUMP JUMPDEST JUMPDEST POP SWAP1 POP PUSH3 0x250 SWAP2 SWAP1 PUSH3 0x27C JUMP JUMPDEST POP SWAP1 JUMP JUMPDEST JUMPDEST DUP1 DUP3 GT ISZERO PUSH3 0x278 JUMPI PUSH1 0x0 DUP2 DUP2 PUSH3 0x26E SWAP2 SWAP1 PUSH3 0x29B JUMP JUMPDEST POP PUSH1 0x1 ADD PUSH3 0x255 JUMP JUMPDEST POP SWAP1 JUMP JUMPDEST JUMPDEST DUP1 DUP3 GT ISZERO PUSH3 0x297 JUMPI PUSH1 0x0 DUP2 PUSH1 0x0 SWAP1 SSTORE POP PUSH1 0x1 ADD PUSH3 0x27D JUMP JUMPDEST POP SWAP1 JUMP JUMPDEST POP DUP1 SLOAD PUSH3 0x2A9 SWAP1 PUSH3 0x640 JUMP JUMPDEST PUSH1 0x0 DUP3 SSTORE DUP1 PUSH1 0x1F LT PUSH3 0x2BD JUMPI POP PUSH3 0x2DE JUMP JUMPDEST PUSH1 0x1F ADD PUSH1 0x20 SWAP1 DIV SWAP1 PUSH1 0x0 MSTORE PUSH1 0x20 PUSH1 0x0 KECCAK256 SWAP1 DUP2 ADD SWAP1 PUSH3 0x2DD SWAP2 SWAP1 PUSH3 0x27C JUMP JUMPDEST JUMPDEST POP JUMP JUMPDEST PUSH1 0x0 PUSH3 0x2F8 PUSH3 0x2F2 DUP5 PUSH3 0x545 JUMP JUMPDEST PUSH3 0x511 JUMP JUMPDEST SWAP1 POP DUP1 DUP4 DUP3 MSTORE PUSH1 0x20 DUP3 ADD SWAP1 POP DUP3 DUP6 PUSH1 0x20 DUP7 MUL DUP3 ADD GT ISZERO PUSH3 0x318 JUMPI PUSH1 0x0 DUP1 REVERT JUMPDEST PUSH1 0x0 JUMPDEST DUP6 DUP2 LT ISZERO PUSH3 0x34C JUMPI DUP2 PUSH3 0x331 DUP9 DUP3 PUSH3 0x400 JUMP JUMPDEST DUP5 MSTORE PUSH1 0x20 DUP5 ADD SWAP4 POP PUSH1 0x20 DUP4 ADD SWAP3 POP POP PUSH1 0x1 DUP2 ADD SWAP1 POP PUSH3 0x31B JUMP JUMPDEST POP POP POP SWAP4 SWAP3 POP POP POP JUMP JUMPDEST PUSH1 0x0 PUSH3 0x36D PUSH3 0x367 DUP5 PUSH3 0x574 JUMP JUMPDEST PUSH3 0x511 JUMP JUMPDEST SWAP1 POP DUP1 DUP4 DUP3 MSTORE PUSH1 0x20 DUP3 ADD SWAP1 POP DUP3 PUSH1 0x0 JUMPDEST DUP6 DUP2 LT ISZERO PUSH3 0x3B1 JUMPI DUP2 MLOAD DUP6 ADD PUSH3 0x396 DUP9 DUP3 PUSH3 0x471 JUMP JUMPDEST DUP5 MSTORE PUSH1 0x20 DUP5 ADD SWAP4 POP PUSH1 0x20 DUP4 ADD SWAP3 POP POP PUSH1 0x1 DUP2 ADD SWAP1 POP PUSH3 0x37D JUMP JUMPDEST POP POP POP SWAP4 SWAP3 POP POP POP JUMP JUMPDEST PUSH1 0x0 PUSH3 0x3D2 PUSH3 0x3CC DUP5 PUSH3 0x5A3 JUMP JUMPDEST PUSH3 0x511 JUMP JUMPDEST SWAP1 POP DUP3 DUP2 MSTORE PUSH1 0x20 DUP2 ADD DUP5 DUP5 DUP5 ADD GT ISZERO PUSH3 0x3EB JUMPI PUSH1 0x0 DUP1 REVERT JUMPDEST PUSH3 0x3F8 DUP5 DUP3 DUP6 PUSH3 0x60A JUMP JUMPDEST POP SWAP4 SWAP3 POP POP POP JUMP JUMPDEST PUSH1 0x0 DUP2 MLOAD SWAP1 POP PUSH3 0x411 DUP2 PUSH3 0x6D4 JUMP JUMPDEST SWAP3 SWAP2 POP POP JUMP JUMPDEST PUSH1 0x0 DUP3 PUSH1 0x1F DUP4 ADD SLT PUSH3 0x429 JUMPI PUSH1 0x0 DUP1 REVERT JUMPDEST DUP2 MLOAD PUSH3 0x43B DUP5 DUP3 PUSH1 0x20 DUP7 ADD PUSH3 0x2E1 JUMP JUMPDEST SWAP2 POP POP SWAP3 SWAP2 POP POP JUMP JUMPDEST PUSH1 0x0 DUP3 PUSH1 0x1F DUP4 ADD SLT PUSH3 0x456 JUMPI PUSH1 0x0 DUP1 REVERT JUMPDEST DUP2 MLOAD PUSH3 0x468 DUP5 DUP3 PUSH1 0x20 DUP7 ADD PUSH3 0x356 JUMP JUMPDEST SWAP2 POP POP SWAP3 SWAP2 POP POP JUMP JUMPDEST PUSH1 0x0 DUP3 PUSH1 0x1F DUP4 ADD SLT PUSH3 0x483 JUMPI PUSH1 0x0 DUP1 REVERT JUMPDEST DUP2 MLOAD PUSH3 0x495 DUP5 DUP3 PUSH1 0x20 DUP7 ADD PUSH3 0x3BB JUMP JUMPDEST SWAP2 POP POP SWAP3 SWAP2 POP POP JUMP JUMPDEST PUSH1 0x0 DUP1 PUSH1 0x40 DUP4 DUP6 SUB SLT ISZERO PUSH3 0x4B2 JUMPI PUSH1 0x0 DUP1 REVERT JUMPDEST PUSH1 0x0 DUP4 ADD MLOAD PUSH8 0xFFFFFFFFFFFFFFFF DUP2 GT ISZERO PUSH3 0x4CD JUMPI PUSH1 0x0 DUP1 REVERT JUMPDEST PUSH3 0x4DB DUP6 DUP3 DUP7 ADD PUSH3 0x444 JUMP JUMPDEST SWAP3 POP POP PUSH1 0x20 DUP4 ADD MLOAD PUSH8 0xFFFFFFFFFFFFFFFF DUP2 GT ISZERO PUSH3 0x4F9 JUMPI PUSH1 0x0 DUP1 REVERT JUMPDEST PUSH3 0x507 DUP6 DUP3 DUP7 ADD PUSH3 0x417 JUMP JUMPDEST SWAP2 POP POP SWAP3 POP SWAP3 SWAP1 POP JUMP JUMPDEST PUSH1 0x0 PUSH1 0x40 MLOAD SWAP1 POP DUP2 DUP2 ADD DUP2 DUP2 LT PUSH8 0xFFFFFFFFFFFFFFFF DUP3 GT OR ISZERO PUSH3 0x53B JUMPI PUSH3 0x53A PUSH3 0x6A5 JUMP JUMPDEST JUMPDEST DUP1 PUSH1 0x40 MSTORE POP SWAP2 SWAP1 POP JUMP JUMPDEST PUSH1 0x0 PUSH8 0xFFFFFFFFFFFFFFFF DUP3 GT ISZERO PUSH3 0x563 JUMPI PUSH3 0x562 PUSH3 0x6A5 JUMP JUMPDEST JUMPDEST PUSH1 0x20 DUP3 MUL SWAP1 POP PUSH1 0x20 DUP2 ADD SWAP1 POP SWAP2 SWAP1 POP JUMP JUMPDEST PUSH1 0x0 PUSH8 0xFFFFFFFFFFFFFFFF DUP3 GT ISZERO PUSH3 0x592 JUMPI PUSH3 0x591 PUSH3 0x6A5 JUMP JUMPDEST JUMPDEST PUSH1 0x20 DUP3 MUL SWAP1 POP PUSH1 0x20 DUP2 ADD SWAP1 POP SWAP2 SWAP1 POP JUMP JUMPDEST PUSH1 0x0 PUSH8 0xFFFFFFFFFFFFFFFF DUP3 GT ISZERO PUSH3 0x5C1 JUMPI PUSH3 0x5C0 PUSH3 0x6A5 JUMP JUMPDEST JUMPDEST PUSH1 0x1F NOT PUSH1 0x1F DUP4 ADD AND SWAP1 POP PUSH1 0x20 DUP2 ADD SWAP1 POP SWAP2 SWAP1 POP JUMP JUMPDEST PUSH1 0x0 PUSH3 0x5E3 DUP3 PUSH3 0x5EA JUMP JUMPDEST SWAP1 POP SWAP2 SWAP1 POP JUMP JUMPDEST PUSH1 0x0 PUSH20 0xFFFFFFFFFFFFFFFFFFFFFFFFFFFFFFFFFFFFFFFF DUP3 AND SWAP1 POP SWAP2 SWAP1 POP JUMP JUMPDEST PUSH1 0x0 JUMPDEST DUP4 DUP2 LT ISZERO PUSH3 0x62A JUMPI DUP1 DUP3 ADD MLOAD DUP2 DUP5 ADD MSTORE PUSH1 0x20 DUP2 ADD SWAP1 POP PUSH3 0x60D JUMP JUMPDEST DUP4 DUP2 GT ISZERO PUSH3 0x63A JUMPI PUSH1 0x0 DUP5 DUP5 ADD MSTORE JUMPDEST POP POP POP POP JUMP JUMPDEST PUSH1 0x0 PUSH1 0x2 DUP3 DIV SWAP1 POP PUSH1 0x1 DUP3 AND DUP1 PUSH3 0x659 JUMPI PUSH1 0x7F DUP3 AND SWAP2 POP JUMPDEST PUSH1 0x20 DUP3 LT DUP2 EQ ISZERO PUSH3 0x670 JUMPI PUSH3 0x66F PUSH3 0x676 JUMP JUMPDEST JUMPDEST POP SWAP2 SWAP1 POP JUMP JUMPDEST PUSH32 0x4E487B7100000000000000000000000000000000000000000000000000000000 PUSH1 0x0 MSTORE PUSH1 0x22 PUSH1 0x4 MSTORE PUSH1 0x24 PUSH1 0x0 REVERT JUMPDEST PUSH32 0x4E487B7100000000000000000000000000000000000000000000000000000000 PUSH1 0x0 MSTORE PUSH1 0x41 PUSH1 0x4 MSTORE PUSH1 0x24 PUSH1 0x0 REVERT JUMPDEST PUSH3 0x6DF DUP2 PUSH3 0x5D6 JUMP JUMPDEST DUP2 EQ PUSH3 0x6EB JUMPI PUSH1 0x0 DUP1 REVERT JUMPDEST POP JUMP JUMPDEST PUSH2 0xA71 DUP1 PUSH3 0x6FE PUSH1 0x0 CODECOPY PUSH1 0x0 RETURN INVALID PUSH1 0x80 PUSH1 0x40 MSTORE CALLVALUE DUP1 ISZERO PUSH2 0x10 JUMPI PUSH1 0x0 DUP1 REVERT JUMPDEST POP PUSH1 0x4 CALLDATASIZE LT PUSH2 0x57 JUMPI PUSH1 0x0 CALLDATALOAD PUSH1 0xE0 SHR DUP1 PUSH4 0x2E4176CF EQ PUSH2 0x5C JUMPI DUP1 PUSH4 0x4A3BF377 EQ PUSH2 0x7A JUMPI DUP1 PUSH4 0x9CC2D993 EQ PUSH2 0xAA JUMPI DUP1 PUSH4 0xB62312BF EQ PUSH2 0xC6 JUMPI DUP1 PUSH4 0xFAB2F86B EQ PUSH2 0xE4 JUMPI JUMPDEST PUSH1 0x0 DUP1 REVERT JUMPDEST PUSH2 0x64 PUSH2 0xEE JUMP JUMPDEST PUSH1 0x40 MLOAD PUSH2 0x71 SWAP2 SWAP1 PUSH2 0x6FA JUMP JUMPDEST PUSH1 0x40 MLOAD DUP1 SWAP2 SUB SWAP1 RETURN JUMPDEST PUSH2 0x94 PUSH1 0x4 DUP1 CALLDATASIZE SUB DUP2 ADD SWAP1 PUSH2 0x8F SWAP2 SWAP1 PUSH2 0x4EE JUMP JUMPDEST PUSH2 0x114 JUMP JUMPDEST PUSH1 0x40 MLOAD PUSH2 0xA1 SWAP2 SWAP1 PUSH2 0x790 JUMP JUMPDEST PUSH1 0x40 MLOAD DUP1 SWAP2 SUB SWAP1 RETURN JUMPDEST PUSH2 0xC4 PUSH1 0x4 DUP1 CALLDATASIZE SUB DUP2 ADD SWAP1 PUSH2 0xBF SWAP2 SWAP1 PUSH2 0x4EE JUMP JUMPDEST PUSH2 0x184 JUMP JUMPDEST STOP JUMPDEST PUSH2 0xCE PUSH2 0x24D JUMP JUMPDEST PUSH1 0x40 MLOAD PUSH2 0xDB SWAP2 SWAP1 PUSH2 0x715 JUMP JUMPDEST PUSH1 0x40 MLOAD DUP1 SWAP2 SUB SWAP1 RETURN JUMPDEST PUSH2 0xEC PUSH2 0x260 JUMP JUMPDEST STOP JUMPDEST PUSH1 0x1 PUSH1 0x0 SWAP1 SLOAD SWAP1 PUSH2 0x100 EXP SWAP1 DIV PUSH20 0xFFFFFFFFFFFFFFFFFFFFFFFFFFFFFFFFFFFFFFFF AND DUP2 JUMP JUMPDEST PUSH1 0x0 PUSH2 0x11F DUP3 PUSH2 0x30D JUMP JUMPDEST PUSH2 0x15E JUMPI PUSH1 0x40 MLOAD PUSH32 0x8C379A000000000000000000000000000000000000000000000000000000000 DUP2 MSTORE PUSH1 0x4 ADD PUSH2 0x155 SWAP1 PUSH2 0x750 JUMP JUMPDEST PUSH1 0x40 MLOAD DUP1 SWAP2 SUB SWAP1 REVERT JUMPDEST PUSH1 0x0 DUP3 PUSH1 0x40 MLOAD PUSH2 0x16E SWAP2 SWAP1 PUSH2 0x6E3 JUMP JUMPDEST SWAP1 DUP2 MSTORE PUSH1 0x20 ADD PUSH1 0x40 MLOAD DUP1 SWAP2 SUB SWAP1 KECCAK256 SLOAD SWAP1 POP SWAP2 SWAP1 POP JUMP JUMPDEST PUSH2 0x18D CALLER PUSH2 0x3B1 JUMP JUMPDEST PUSH2 0x1CC JUMPI PUSH1 0x40 MLOAD PUSH32 0x8C379A000000000000000000000000000000000000000000000000000000000 DUP2 MSTORE PUSH1 0x4 ADD PUSH2 0x1C3 SWAP1 PUSH2 0x770 JUMP JUMPDEST PUSH1 0x40 MLOAD DUP1 SWAP2 SUB SWAP1 REVERT JUMPDEST PUSH2 0x1D5 DUP2 PUSH2 0x30D JUMP JUMPDEST PUSH2 0x214 JUMPI PUSH1 0x40 MLOAD PUSH32 0x8C379A000000000000000000000000000000000000000000000000000000000 DUP2 MSTORE PUSH1 0x4 ADD PUSH2 0x20B SWAP1 PUSH2 0x750 JUMP JUMPDEST PUSH1 0x40 MLOAD DUP1 SWAP2 SUB SWAP1 REVERT JUMPDEST PUSH1 0x1 PUSH1 0x0 DUP3 PUSH1 0x40 MLOAD PUSH2 0x226 SWAP2 SWAP1 PUSH2 0x6E3 JUMP JUMPDEST SWAP1 DUP2 MSTORE PUSH1 0x20 ADD PUSH1 0x40 MLOAD DUP1 SWAP2 SUB SWAP1 KECCAK256 PUSH1 0x0 DUP3 DUP3 SLOAD PUSH2 0x243 SWAP2 SWAP1 PUSH2 0x853 JUMP JUMPDEST SWAP3 POP POP DUP2 SWAP1 SSTORE POP POP JUMP JUMPDEST PUSH1 0x4 PUSH1 0x0 SWAP1 SLOAD SWAP1 PUSH2 0x100 EXP SWAP1 DIV PUSH1 0xFF AND DUP2 JUMP JUMPDEST PUSH1 0x1 PUSH1 0x0 SWAP1 SLOAD SWAP1 PUSH2 0x100 EXP SWAP1 DIV PUSH20 0xFFFFFFFFFFFFFFFFFFFFFFFFFFFFFFFFFFFFFFFF AND PUSH20 0xFFFFFFFFFFFFFFFFFFFFFFFFFFFFFFFFFFFFFFFF AND CALLER PUSH20 0xFFFFFFFFFFFFFFFFFFFFFFFFFFFFFFFFFFFFFFFF AND EQ PUSH2 0x2F0 JUMPI PUSH1 0x40 MLOAD PUSH32 0x8C379A000000000000000000000000000000000000000000000000000000000 DUP2 MSTORE PUSH1 0x4 ADD PUSH2 0x2E7 SWAP1 PUSH2 0x730 JUMP JUMPDEST PUSH1 0x40 MLOAD DUP1 SWAP2 SUB SWAP1 REVERT JUMPDEST PUSH1 0x0 PUSH1 0x4 PUSH1 0x0 PUSH2 0x100 EXP DUP2 SLOAD DUP2 PUSH1 0xFF MUL NOT AND SWAP1 DUP4 ISZERO ISZERO MUL OR SWAP1 SSTORE POP JUMP JUMPDEST PUSH1 0x0 DUP1 PUSH1 0x0 SWAP1 POP JUMPDEST PUSH1 0x2 DUP1 SLOAD SWAP1 POP DUP2 LT ISZERO PUSH2 0x3A6 JUMPI DUP3 DUP1 MLOAD SWAP1 PUSH1 0x20 ADD KECCAK256 PUSH1 0x2 DUP3 DUP2 SLOAD DUP2 LT PUSH2 0x364 JUMPI PUSH32 0x4E487B7100000000000000000000000000000000000000000000000000000000 PUSH1 0x0 MSTORE PUSH1 0x32 PUSH1 0x4 MSTORE PUSH1 0x24 PUSH1 0x0 REVERT JUMPDEST SWAP1 PUSH1 0x0 MSTORE PUSH1 0x20 PUSH1 0x0 KECCAK256 ADD PUSH1 0x40 MLOAD PUSH2 0x37B SWAP2 SWAP1 PUSH2 0x6CC JUMP JUMPDEST PUSH1 0x40 MLOAD DUP1 SWAP2 SUB SWAP1 KECCAK256 EQ ISZERO PUSH2 0x393 JUMPI PUSH1 0x1 SWAP2 POP POP PUSH2 0x3AC JUMP JUMPDEST DUP1 DUP1 PUSH2 0x39E SWAP1 PUSH2 0x965 JUMP JUMPDEST SWAP2 POP POP PUSH2 0x315 JUMP JUMPDEST POP PUSH1 0x0 SWAP1 POP JUMPDEST SWAP2 SWAP1 POP JUMP JUMPDEST PUSH1 0x0 DUP1 PUSH1 0x0 SWAP1 POP JUMPDEST PUSH1 0x3 DUP1 SLOAD SWAP1 POP DUP2 LT ISZERO PUSH2 0x47B JUMPI DUP3 PUSH20 0xFFFFFFFFFFFFFFFFFFFFFFFFFFFFFFFFFFFFFFFF AND PUSH1 0x3 DUP3 DUP2 SLOAD DUP2 LT PUSH2 0x417 JUMPI PUSH32 0x4E487B7100000000000000000000000000000000000000000000000000000000 PUSH1 0x0 MSTORE PUSH1 0x32 PUSH1 0x4 MSTORE PUSH1 0x24 PUSH1 0x0 REVERT JUMPDEST SWAP1 PUSH1 0x0 MSTORE PUSH1 0x20 PUSH1 0x0 KECCAK256 ADD PUSH1 0x0 SWAP1 SLOAD SWAP1 PUSH2 0x100 EXP SWAP1 DIV PUSH20 0xFFFFFFFFFFFFFFFFFFFFFFFFFFFFFFFFFFFFFFFF AND PUSH20 0xFFFFFFFFFFFFFFFFFFFFFFFFFFFFFFFFFFFFFFFF AND EQ ISZERO PUSH2 0x468 JUMPI PUSH1 0x1 SWAP2 POP POP PUSH2 0x481 JUMP JUMPDEST DUP1 DUP1 PUSH2 0x473 SWAP1 PUSH2 0x965 JUMP JUMPDEST SWAP2 POP POP PUSH2 0x3B9 JUMP JUMPDEST POP PUSH1 0x0 SWAP1 POP JUMPDEST SWAP2 SWAP1 POP JUMP JUMPDEST PUSH1 0x0 PUSH2 0x499 PUSH2 0x494 DUP5 PUSH2 0x7DC JUMP JUMPDEST PUSH2 0x7AB JUMP JUMPDEST SWAP1 POP DUP3 DUP2 MSTORE PUSH1 0x20 DUP2 ADD DUP5 DUP5 DUP5 ADD GT ISZERO PUSH2 0x4B1 JUMPI PUSH1 0x0 DUP1 REVERT JUMPDEST PUSH2 0x4BC DUP5 DUP3 DUP6 PUSH2 0x8F1 JUMP JUMPDEST POP SWAP4 SWAP3 POP POP POP JUMP JUMPDEST PUSH1 0x0 DUP3 PUSH1 0x1F DUP4 ADD SLT PUSH2 0x4D5 JUMPI PUSH1 0x0 DUP1 REVERT JUMPDEST DUP2 CALLDATALOAD PUSH2 0x4E5 DUP5 DUP3 PUSH1 0x20 DUP7 ADD PUSH2 0x486 JUMP JUMPDEST SWAP2 POP POP SWAP3 SWAP2 POP POP JUMP JUMPDEST PUSH1 0x0 PUSH1 0x20 DUP3 DUP5 SUB SLT ISZERO PUSH2 0x500 JUMPI PUSH1 0x0 DUP1 REVERT JUMPDEST PUSH1 0x0 DUP3 ADD CALLDATALOAD PUSH8 0xFFFFFFFFFFFFFFFF DUP2 GT ISZERO PUSH2 0x51A JUMPI PUSH1 0x0 DUP1 REVERT JUMPDEST PUSH2 0x526 DUP5 DUP3 DUP6 ADD PUSH2 0x4C4 JUMP JUMPDEST SWAP2 POP POP SWAP3 SWAP2 POP POP JUMP JUMPDEST PUSH2 0x538 DUP2 PUSH2 0x8A9 JUMP JUMPDEST DUP3 MSTORE POP POP JUMP JUMPDEST PUSH2 0x547 DUP2 PUSH2 0x8BB JUMP JUMPDEST DUP3 MSTORE POP POP JUMP JUMPDEST PUSH1 0x0 DUP2 SLOAD PUSH2 0x55A DUP2 PUSH2 0x933 JUMP JUMPDEST PUSH2 0x564 DUP2 DUP7 PUSH2 0x82C JUMP JUMPDEST SWAP5 POP PUSH1 0x1 DUP3 AND PUSH1 0x0 DUP2 EQ PUSH2 0x57F JUMPI PUSH1 0x1 DUP2 EQ PUSH2 0x590 JUMPI PUSH2 0x5C3 JUMP JUMPDEST PUSH1 0xFF NOT DUP4 AND DUP7 MSTORE DUP2 DUP7 ADD SWAP4 POP PUSH2 0x5C3 JUMP JUMPDEST PUSH2 0x599 DUP6 PUSH2 0x80C JUMP JUMPDEST PUSH1 0x0 JUMPDEST DUP4 DUP2 LT ISZERO PUSH2 0x5BB JUMPI DUP2 SLOAD DUP2 DUP10 ADD MSTORE PUSH1 0x1 DUP3 ADD SWAP2 POP PUSH1 0x20 DUP2 ADD SWAP1 POP PUSH2 0x59C JUMP JUMPDEST DUP4 DUP9 ADD SWAP6 POP POP POP JUMPDEST POP POP POP SWAP3 SWAP2 POP POP JUMP JUMPDEST PUSH1 0x0 PUSH2 0x5D7 DUP3 PUSH2 0x821 JUMP JUMPDEST PUSH2 0x5E1 DUP2 DUP6 PUSH2 0x848 JUMP JUMPDEST SWAP4 POP PUSH2 0x5F1 DUP2 DUP6 PUSH1 0x20 DUP7 ADD PUSH2 0x900 JUMP JUMPDEST DUP1 DUP5 ADD SWAP2 POP POP SWAP3 SWAP2 POP POP JUMP JUMPDEST PUSH1 0x0 PUSH2 0x60A PUSH1 0x10 DUP4 PUSH2 0x837 JUMP JUMPDEST SWAP2 POP PUSH32 0x4F6E6C79206368616972706572736F6E00000000000000000000000000000000 PUSH1 0x0 DUP4 ADD MSTORE PUSH1 0x20 DUP3 ADD SWAP1 POP SWAP2 SWAP1 POP JUMP JUMPDEST PUSH1 0x0 PUSH2 0x64A PUSH1 0x11 DUP4 PUSH2 0x837 JUMP JUMPDEST SWAP2 POP PUSH32 0x496E76616C69642063616E646964617465000000000000000000000000000000 PUSH1 0x0 DUP4 ADD MSTORE PUSH1 0x20 DUP3 ADD SWAP1 POP SWAP2 SWAP1 POP JUMP JUMPDEST PUSH1 0x0 PUSH2 0x68A PUSH1 0x11 DUP4 PUSH2 0x837 JUMP JUMPDEST SWAP2 POP PUSH32 0x4E6F7420612076616C696420766F746572000000000000000000000000000000 PUSH1 0x0 DUP4 ADD MSTORE PUSH1 0x20 DUP3 ADD SWAP1 POP SWAP2 SWAP1 POP JUMP JUMPDEST PUSH2 0x6C6 DUP2 PUSH2 0x8E7 JUMP JUMPDEST DUP3 MSTORE POP POP JUMP JUMPDEST PUSH1 0x0 PUSH2 0x6D8 DUP3 DUP5 PUSH2 0x54D JUMP JUMPDEST SWAP2 POP DUP2 SWAP1 POP SWAP3 SWAP2 POP POP JUMP JUMPDEST PUSH1 0x0 PUSH2 0x6EF DUP3 DUP5 PUSH2 0x5CC JUMP JUMPDEST SWAP2 POP DUP2 SWAP1 POP SWAP3 SWAP2 POP POP JUMP JUMPDEST PUSH1 0x0 PUSH1 0x20 DUP3 ADD SWAP1 POP PUSH2 0x70F PUSH1 0x0 DUP4 ADD DUP5 PUSH2 0x52F JUMP JUMPDEST SWAP3 SWAP2 POP POP JUMP JUMPDEST PUSH1 0x0 PUSH1 0x20 DUP3 ADD SWAP1 POP PUSH2 0x72A PUSH1 0x0 DUP4 ADD DUP5 PUSH2 0x53E JUMP JUMPDEST SWAP3 SWAP2 POP POP JUMP JUMPDEST PUSH1 0x0 PUSH1 0x20 DUP3 ADD SWAP1 POP DUP2 DUP2 SUB PUSH1 0x0 DUP4 ADD MSTORE PUSH2 0x749 DUP2 PUSH2 0x5FD JUMP JUMPDEST SWAP1 POP SWAP2 SWAP1 POP JUMP JUMPDEST PUSH1 0x0 PUSH1 0x20 DUP3 ADD SWAP1 POP DUP2 DUP2 SUB PUSH1 0x0 DUP4 ADD MSTORE PUSH2 0x769 DUP2 PUSH2 0x63D JUMP JUMPDEST SWAP1 POP SWAP2 SWAP1 POP JUMP JUMPDEST PUSH1 0x0 PUSH1 0x20 DUP3 ADD SWAP1 POP DUP2 DUP2 SUB PUSH1 0x0 DUP4 ADD MSTORE PUSH2 0x789 DUP2 PUSH2 0x67D JUMP JUMPDEST SWAP1 POP SWAP2 SWAP1 POP JUMP JUMPDEST PUSH1 0x0 PUSH1 0x20 DUP3 ADD SWAP1 POP PUSH2 0x7A5 PUSH1 0x0 DUP4 ADD DUP5 PUSH2 0x6BD JUMP JUMPDEST SWAP3 SWAP2 POP POP JUMP JUMPDEST PUSH1 0x0 PUSH1 0x40 MLOAD SWAP1 POP DUP2 DUP2 ADD DUP2 DUP2 LT PUSH8 0xFFFFFFFFFFFFFFFF DUP3 GT OR ISZERO PUSH2 0x7D2 JUMPI PUSH2 0x7D1 PUSH2 0xA0C JUMP JUMPDEST JUMPDEST DUP1 PUSH1 0x40 MSTORE POP SWAP2 SWAP1 POP JUMP JUMPDEST PUSH1 0x0 PUSH8 0xFFFFFFFFFFFFFFFF DUP3 GT ISZERO PUSH2 0x7F7 JUMPI PUSH2 0x7F6 PUSH2 0xA0C JUMP JUMPDEST JUMPDEST PUSH1 0x1F NOT PUSH1 0x1F DUP4 ADD AND SWAP1 POP PUSH1 0x20 DUP2 ADD SWAP1 POP SWAP2 SWAP1 POP JUMP JUMPDEST PUSH1 0x0 DUP2 SWAP1 POP DUP2 PUSH1 0x0 MSTORE PUSH1 0x20 PUSH1 0x0 KECCAK256 SWAP1 POP SWAP2 SWAP1 POP JUMP JUMPDEST PUSH1 0x0 DUP2 MLOAD SWAP1 POP SWAP2 SWAP1 POP JUMP JUMPDEST PUSH1 0x0 DUP2 SWAP1 POP SWAP3 SWAP2 POP POP JUMP JUMPDEST PUSH1 0x0 DUP3 DUP3 MSTORE PUSH1 0x20 DUP3 ADD SWAP1 POP SWAP3 SWAP2 POP POP JUMP JUMPDEST PUSH1 0x0 DUP2 SWAP1 POP SWAP3 SWAP2 POP POP JUMP JUMPDEST PUSH1 0x0 PUSH2 0x85E DUP3 PUSH2 0x8E7 JUMP JUMPDEST SWAP2 POP PUSH2 0x869 DUP4 PUSH2 0x8E7 JUMP JUMPDEST SWAP3 POP DUP3 PUSH32 0xFFFFFFFFFFFFFFFFFFFFFFFFFFFFFFFFFFFFFFFFFFFFFFFFFFFFFFFFFFFFFFFF SUB DUP3 GT ISZERO PUSH2 0x89E JUMPI PUSH2 0x89D PUSH2 0x9AE JUMP JUMPDEST JUMPDEST DUP3 DUP3 ADD SWAP1 POP SWAP3 SWAP2 POP POP JUMP JUMPDEST PUSH1 0x0 PUSH2 0x8B4 DUP3 PUSH2 0x8C7 JUMP JUMPDEST SWAP1 POP SWAP2 SWAP1 POP JUMP JUMPDEST PUSH1 0x0 DUP2 ISZERO ISZERO SWAP1 POP SWAP2 SWAP1 POP JUMP JUMPDEST PUSH1 0x0 PUSH20 0xFFFFFFFFFFFFFFFFFFFFFFFFFFFFFFFFFFFFFFFF DUP3 AND SWAP1 POP SWAP2 SWAP1 POP JUMP JUMPDEST PUSH1 0x0 DUP2 SWAP1 POP SWAP2 SWAP1 POP JUMP JUMPDEST DUP3 DUP2 DUP4 CALLDATACOPY PUSH1 0x0 DUP4 DUP4 ADD MSTORE POP POP POP JUMP JUMPDEST PUSH1 0x0 JUMPDEST DUP4 DUP2 LT ISZERO PUSH2 0x91E JUMPI DUP1 DUP3 ADD MLOAD DUP2 DUP5 ADD MSTORE PUSH1 0x20 DUP2 ADD SWAP1 POP PUSH2 0x903 JUMP JUMPDEST DUP4 DUP2 GT ISZERO PUSH2 0x92D JUMPI PUSH1 0x0 DUP5 DUP5 ADD MSTORE JUMPDEST POP POP POP POP JUMP JUMPDEST PUSH1 0x0 PUSH1 0x2 DUP3 DIV SWAP1 POP PUSH1 0x1 DUP3 AND DUP1 PUSH2 0x94B JUMPI PUSH1 0x7F DUP3 AND SWAP2 POP JUMPDEST PUSH1 0x20 DUP3 LT DUP2 EQ ISZERO PUSH2 0x95F JUMPI PUSH2 0x95E PUSH2 0x9DD JUMP JUMPDEST JUMPDEST POP SWAP2 SWAP1 POP JUMP JUMPDEST PUSH1 0x0 PUSH2 0x970 DUP3 PUSH2 0x8E7 JUMP JUMPDEST SWAP2 POP PUSH32 0xFFFFFFFFFFFFFFFFFFFFFFFFFFFFFFFFFFFFFFFFFFFFFFFFFFFFFFFFFFFFFFFF DUP3 EQ ISZERO PUSH2 0x9A3 JUMPI PUSH2 0x9A2 PUSH2 0x9AE JUMP JUMPDEST JUMPDEST PUSH1 0x1 DUP3 ADD SWAP1 POP SWAP2 SWAP1 POP JUMP JUMPDEST PUSH32 0x4E487B7100000000000000000000000000000000000000000000000000000000 PUSH1 0x0 MSTORE PUSH1 0x11 PUSH1 0x4 MSTORE PUSH1 0x24 PUSH1 0x0 REVERT JUMPDEST PUSH32 0x4E487B7100000000000000000000000000000000000000000000000000000000 PUSH1 0x0 MSTORE PUSH1 0x22 PUSH1 0x4 MSTORE PUSH1 0x24 PUSH1 0x0 REVERT JUMPDEST PUSH32 0x4E487B7100000000000000000000000000000000000000000000000000000000 PUSH1 0x0 MSTORE PUSH1 0x41 PUSH1 0x4 MSTORE PUSH1 0x24 PUSH1 0x0 REVERT INVALID LOG2 PUSH5 0x6970667358 0x22 SLT KECCAK256 0xB7 0xAE 0xBC 0xB0 RETURN 0xAF PUSH3 0x9C7C78 PUSH32 0x51CC013000384390A05B464523180058C6EA0750B264736F6C63430008000033 "
				},
				"gasEstimates": {
					"creation": {
						"codeDepositCost": "534600",
						"executionCost": "infinite",
						"totalCost": "infinite"
					},
					"external": {
						"castVote(string)": "infinite",
						"chairperson()": "1192",
						"stopVoting()": "21947",
						"totalVotesFor(string)": "infinite",
						"votingState()": "1215"
					},
					"internal": {
						"validCandidate(string memory)": "infinite",
						"validVoter(address)": "infinite"
					}
				},
				"methodIdentifiers": {
					"castVote(string)": "9cc2d993",
					"chairperson()": "2e4176cf",
					"stopVoting()": "fab2f86b",
					"totalVotesFor(string)": "4a3bf377",
					"votingState()": "b62312bf"
				}
			},
			"storageLayout": {
				"storage": [
					{
						"astId": 5,
						"contract": "contracts/HelloWorld3.sol:Ballot",
						"label": "votesReceived",
						"offset": 0,
						"slot": "0",
						"type": "t_mapping(t_string_memory_ptr,t_uint256)"
					},
					{
						"astId": 7,
						"contract": "contracts/HelloWorld3.sol:Ballot",
						"label": "chairperson",
						"offset": 0,
						"slot": "1",
						"type": "t_address"
					},
					{
						"astId": 10,
						"contract": "contracts/HelloWorld3.sol:Ballot",
						"label": "candidateList",
						"offset": 0,
						"slot": "2",
						"type": "t_array(t_string_storage)dyn_storage"
					},
					{
						"astId": 13,
						"contract": "contracts/HelloWorld3.sol:Ballot",
						"label": "votersList",
						"offset": 0,
						"slot": "3",
						"type": "t_array(t_address)dyn_storage"
					},
					{
						"astId": 15,
						"contract": "contracts/HelloWorld3.sol:Ballot",
						"label": "votingState",
						"offset": 0,
						"slot": "4",
						"type": "t_bool"
					}
				],
				"types": {
					"t_address": {
						"encoding": "inplace",
						"label": "address",
						"numberOfBytes": "20"
					},
					"t_array(t_address)dyn_storage": {
						"base": "t_address",
						"encoding": "dynamic_array",
						"label": "address[]",
						"numberOfBytes": "32"
					},
					"t_array(t_string_storage)dyn_storage": {
						"base": "t_string_storage",
						"encoding": "dynamic_array",
						"label": "string[]",
						"numberOfBytes": "32"
					},
					"t_bool": {
						"encoding": "inplace",
						"label": "bool",
						"numberOfBytes": "1"
					},
					"t_mapping(t_string_memory_ptr,t_uint256)": {
						"encoding": "mapping",
						"key": "t_string_memory_ptr",
						"label": "mapping(string => uint256)",
						"numberOfBytes": "32",
						"value": "t_uint256"
					},
					"t_string_memory_ptr": {
						"encoding": "bytes",
						"label": "string",
						"numberOfBytes": "32"
					},
					"t_string_storage": {
						"encoding": "bytes",
						"label": "string",
						"numberOfBytes": "32"
					},
					"t_uint256": {
						"encoding": "inplace",
						"label": "uint256",
						"numberOfBytes": "32"
					}
				}
			},
			"userdoc": {
				"kind": "user",
				"methods": {},
				"version": 1
			}
		}
	}
}