{
	"contracts/HelloWorld5.sol": {
		"Voting": {
			"abi": [
				{
					"inputs": [],
					"stateMutability": "nonpayable",
					"type": "constructor"
				},
				{
					"anonymous": false,
					"inputs": [
						{
							"indexed": true,
							"internalType": "uint256",
							"name": "candidateId",
							"type": "uint256"
						}
					],
					"name": "Voted",
					"type": "event"
				},
				{
					"inputs": [
						{
							"internalType": "string",
							"name": "_name",
							"type": "string"
						}
					],
					"name": "addCandidate",
					"outputs": [],
					"stateMutability": "nonpayable",
					"type": "function"
				},
				{
					"inputs": [
						{
							"internalType": "uint256",
							"name": "",
							"type": "uint256"
						}
					],
					"name": "candidates",
					"outputs": [
						{
							"internalType": "uint256",
							"name": "id",
							"type": "uint256"
						},
						{
							"internalType": "string",
							"name": "name",
							"type": "string"
						},
						{
							"internalType": "uint256",
							"name": "voteCount",
							"type": "uint256"
						}
					],
					"stateMutability": "view",
					"type": "function"
				},
				{
					"inputs": [],
					"name": "candidatesCount",
					"outputs": [
						{
							"internalType": "uint256",
							"name": "",
							"type": "uint256"
						}
					],
					"stateMutability": "view",
					"type": "function"
				},
				{
					"inputs": [],
					"name": "chairperson",
					"outputs": [
						{
							"internalType": "address",
							"name": "",
							"type": "address"
						}
					],
					"stateMutability": "view",
					"type": "function"
				},
				{
					"inputs": [
						{
							"internalType": "address[]",
							"name": "_voters",
							"type": "address[]"
						}
					],
					"name": "specifyVoters",
					"outputs": [],
					"stateMutability": "nonpayable",
					"type": "function"
				},
				{
					"inputs": [],
					"name": "stopVoting",
					"outputs": [],
					"stateMutability": "nonpayable",
					"type": "function"
				},
				{
					"inputs": [
						{
							"internalType": "uint256",
							"name": "_candidateId",
							"type": "uint256"
						}
					],
					"name": "vote",
					"outputs": [],
					"stateMutability": "nonpayable",
					"type": "function"
				},
				{
					"inputs": [
						{
							"internalType": "address",
							"name": "",
							"type": "address"
						}
					],
					"name": "voters",
					"outputs": [
						{
							"internalType": "bool",
							"name": "",
							"type": "bool"
						}
					],
					"stateMutability": "view",
					"type": "function"
				},
				{
					"inputs": [],
					"name": "votingOpen",
					"outputs": [
						{
							"internalType": "bool",
							"name": "",
							"type": "bool"
						}
					],
					"stateMutability": "view",
					"type": "function"
				}
			],
			"devdoc": {
				"kind": "dev",
				"methods": {},
				"version": 1
			},
			"evm": {
				"assembly": "    /* \"contracts/HelloWorld5.sol\":58:1525  contract Voting {... */\n  mstore(0x40, 0x80)\n    /* \"contracts/HelloWorld5.sol\":656:738  constructor() {... */\n  callvalue\n  dup1\n  iszero\n  tag_1\n  jumpi\n  0x00\n  dup1\n  revert\ntag_1:\n  pop\n    /* \"contracts/HelloWorld5.sol\":694:704  msg.sender */\n  caller\n    /* \"contracts/HelloWorld5.sol\":680:691  chairperson */\n  0x00\n  dup1\n    /* \"contracts/HelloWorld5.sol\":680:704  chairperson = msg.sender */\n  0x0100\n  exp\n  dup2\n  sload\n  dup2\n  0xffffffffffffffffffffffffffffffffffffffff\n  mul\n  not\n  and\n  swap1\n  dup4\n  0xffffffffffffffffffffffffffffffffffffffff\n  and\n  mul\n  or\n  swap1\n  sstore\n  pop\n    /* \"contracts/HelloWorld5.sol\":727:731  true */\n  0x01\n    /* \"contracts/HelloWorld5.sol\":714:724  votingOpen */\n  0x02\n  0x00\n    /* \"contracts/HelloWorld5.sol\":714:731  votingOpen = true */\n  0x0100\n  exp\n  dup2\n  sload\n  dup2\n  0xff\n  mul\n  not\n  and\n  swap1\n  dup4\n  iszero\n  iszero\n  mul\n  or\n  swap1\n  sstore\n  pop\n    /* \"contracts/HelloWorld5.sol\":58:1525  contract Voting {... */\n  dataSize(sub_0)\n  dup1\n  dataOffset(sub_0)\n  0x00\n  codecopy\n  0x00\n  return\nstop\n\nsub_0: assembly {\n        /* \"contracts/HelloWorld5.sol\":58:1525  contract Voting {... */\n      mstore(0x40, 0x80)\n      callvalue\n      dup1\n      iszero\n      tag_1\n      jumpi\n      0x00\n      dup1\n      revert\n    tag_1:\n      pop\n      jumpi(tag_2, lt(calldatasize, 0x04))\n      shr(0xe0, calldataload(0x00))\n      dup1\n      0x462e91ec\n      gt\n      tag_12\n      jumpi\n      dup1\n      0x462e91ec\n      eq\n      tag_7\n      jumpi\n      dup1\n      0xa3ec138d\n      eq\n      tag_8\n      jumpi\n      dup1\n      0xa95824b4\n      eq\n      tag_9\n      jumpi\n      dup1\n      0xd434ab70\n      eq\n      tag_10\n      jumpi\n      dup1\n      0xfab2f86b\n      eq\n      tag_11\n      jumpi\n      jump(tag_2)\n    tag_12:\n      dup1\n      0x0121b93f\n      eq\n      tag_3\n      jumpi\n      dup1\n      0x2d35a8a2\n      eq\n      tag_4\n      jumpi\n      dup1\n      0x2e4176cf\n      eq\n      tag_5\n      jumpi\n      dup1\n      0x3477ee2e\n      eq\n      tag_6\n      jumpi\n    tag_2:\n      0x00\n      dup1\n      revert\n        /* \"contracts/HelloWorld5.sol\":939:1248  function vote(uint256 _candidateId) public votingIsOpen {... */\n    tag_3:\n      tag_13\n      0x04\n      dup1\n      calldatasize\n      sub\n      dup2\n      add\n      swap1\n      tag_14\n      swap2\n      swap1\n      tag_15\n      jump\t// in\n    tag_14:\n      tag_16\n      jump\t// in\n    tag_13:\n      stop\n        /* \"contracts/HelloWorld5.sol\":336:366  uint256 public candidatesCount */\n    tag_4:\n      tag_17\n      tag_18\n      jump\t// in\n    tag_17:\n      mload(0x40)\n      tag_19\n      swap2\n      swap1\n      tag_20\n      jump\t// in\n    tag_19:\n      mload(0x40)\n      dup1\n      swap2\n      sub\n      swap1\n      return\n        /* \"contracts/HelloWorld5.sol\":80:106  address public chairperson */\n    tag_5:\n      tag_21\n      tag_22\n      jump\t// in\n    tag_21:\n      mload(0x40)\n      tag_23\n      swap2\n      swap1\n      tag_24\n      jump\t// in\n    tag_23:\n      mload(0x40)\n      dup1\n      swap2\n      sub\n      swap1\n      return\n        /* \"contracts/HelloWorld5.sol\":283:330  mapping(uint256 => Candidate) public candidates */\n    tag_6:\n      tag_25\n      0x04\n      dup1\n      calldatasize\n      sub\n      dup2\n      add\n      swap1\n      tag_26\n      swap2\n      swap1\n      tag_15\n      jump\t// in\n    tag_26:\n      tag_27\n      jump\t// in\n    tag_25:\n      mload(0x40)\n      tag_28\n      swap4\n      swap3\n      swap2\n      swap1\n      tag_29\n      jump\t// in\n    tag_28:\n      mload(0x40)\n      dup1\n      swap2\n      sub\n      swap1\n      return\n        /* \"contracts/HelloWorld5.sol\":744:933  function addCandidate(string memory _name) public onlyChairperson votingIsOpen {... */\n    tag_7:\n      tag_30\n      0x04\n      dup1\n      calldatasize\n      sub\n      dup2\n      add\n      swap1\n      tag_31\n      swap2\n      swap1\n      tag_32\n      jump\t// in\n    tag_31:\n      tag_33\n      jump\t// in\n    tag_30:\n      stop\n        /* \"contracts/HelloWorld5.sol\":112:150  mapping(address => bool) public voters */\n    tag_8:\n      tag_34\n      0x04\n      dup1\n      calldatasize\n      sub\n      dup2\n      add\n      swap1\n      tag_35\n      swap2\n      swap1\n      tag_36\n      jump\t// in\n    tag_35:\n      tag_37\n      jump\t// in\n    tag_34:\n      mload(0x40)\n      tag_38\n      swap2\n      swap1\n      tag_39\n      jump\t// in\n    tag_38:\n      mload(0x40)\n      dup1\n      swap2\n      sub\n      swap1\n      return\n        /* \"contracts/HelloWorld5.sol\":156:178  bool public votingOpen */\n    tag_9:\n      tag_40\n      tag_41\n      jump\t// in\n    tag_40:\n      mload(0x40)\n      tag_42\n      swap2\n      swap1\n      tag_39\n      jump\t// in\n    tag_42:\n      mload(0x40)\n      dup1\n      swap2\n      sub\n      swap1\n      return\n        /* \"contracts/HelloWorld5.sol\":1254:1437  function specifyVoters(address[] memory _voters) public onlyChairperson {... */\n    tag_10:\n      tag_43\n      0x04\n      dup1\n      calldatasize\n      sub\n      dup2\n      add\n      swap1\n      tag_44\n      swap2\n      swap1\n      tag_45\n      jump\t// in\n    tag_44:\n      tag_46\n      jump\t// in\n    tag_43:\n      stop\n        /* \"contracts/HelloWorld5.sol\":1443:1523  function stopVoting() public onlyChairperson {... */\n    tag_11:\n      tag_47\n      tag_48\n      jump\t// in\n    tag_47:\n      stop\n        /* \"contracts/HelloWorld5.sol\":939:1248  function vote(uint256 _candidateId) public votingIsOpen {... */\n    tag_16:\n        /* \"contracts/HelloWorld5.sol\":554:564  votingOpen */\n      0x02\n      0x00\n      swap1\n      sload\n      swap1\n      0x0100\n      exp\n      swap1\n      div\n      0xff\n      and\n        /* \"contracts/HelloWorld5.sol\":546:585  require(votingOpen, \"Voting is closed\") */\n      tag_50\n      jumpi\n      mload(0x40)\n      0x08c379a000000000000000000000000000000000000000000000000000000000\n      dup2\n      mstore\n      0x04\n      add\n      tag_51\n      swap1\n      tag_52\n      jump\t// in\n    tag_51:\n      mload(0x40)\n      dup1\n      swap2\n      sub\n      swap1\n      revert\n    tag_50:\n        /* \"contracts/HelloWorld5.sol\":1013:1019  voters */\n      0x01\n        /* \"contracts/HelloWorld5.sol\":1013:1031  voters[msg.sender] */\n      0x00\n        /* \"contracts/HelloWorld5.sol\":1020:1030  msg.sender */\n      caller\n        /* \"contracts/HelloWorld5.sol\":1013:1031  voters[msg.sender] */\n      0xffffffffffffffffffffffffffffffffffffffff\n      and\n      0xffffffffffffffffffffffffffffffffffffffff\n      and\n      dup2\n      mstore\n      0x20\n      add\n      swap1\n      dup2\n      mstore\n      0x20\n      add\n      0x00\n      keccak256\n      0x00\n      swap1\n      sload\n      swap1\n      0x0100\n      exp\n      swap1\n      div\n      0xff\n      and\n        /* \"contracts/HelloWorld5.sol\":1005:1066  require(voters[msg.sender], \"You are not authorized to vote\") */\n      tag_54\n      jumpi\n      mload(0x40)\n      0x08c379a000000000000000000000000000000000000000000000000000000000\n      dup2\n      mstore\n      0x04\n      add\n      tag_55\n      swap1\n      tag_56\n      jump\t// in\n    tag_55:\n      mload(0x40)\n      dup1\n      swap2\n      sub\n      swap1\n      revert\n    tag_54:\n        /* \"contracts/HelloWorld5.sol\":1099:1100  0 */\n      0x00\n        /* \"contracts/HelloWorld5.sol\":1084:1096  _candidateId */\n      dup2\n        /* \"contracts/HelloWorld5.sol\":1084:1100  _candidateId > 0 */\n      gt\n        /* \"contracts/HelloWorld5.sol\":1084:1135  _candidateId > 0 && _candidateId <= candidatesCount */\n      dup1\n      iszero\n      tag_57\n      jumpi\n      pop\n        /* \"contracts/HelloWorld5.sol\":1120:1135  candidatesCount */\n      sload(0x04)\n        /* \"contracts/HelloWorld5.sol\":1104:1116  _candidateId */\n      dup2\n        /* \"contracts/HelloWorld5.sol\":1104:1135  _candidateId <= candidatesCount */\n      gt\n      iszero\n        /* \"contracts/HelloWorld5.sol\":1084:1135  _candidateId > 0 && _candidateId <= candidatesCount */\n    tag_57:\n        /* \"contracts/HelloWorld5.sol\":1076:1160  require(_candidateId > 0 && _candidateId <= candidatesCount, \"Invalid candidate ID\") */\n      tag_58\n      jumpi\n      mload(0x40)\n      0x08c379a000000000000000000000000000000000000000000000000000000000\n      dup2\n      mstore\n      0x04\n      add\n      tag_59\n      swap1\n      tag_60\n      jump\t// in\n    tag_59:\n      mload(0x40)\n      dup1\n      swap2\n      sub\n      swap1\n      revert\n    tag_58:\n        /* \"contracts/HelloWorld5.sol\":1171:1181  candidates */\n      0x03\n        /* \"contracts/HelloWorld5.sol\":1171:1195  candidates[_candidateId] */\n      0x00\n        /* \"contracts/HelloWorld5.sol\":1182:1194  _candidateId */\n      dup3\n        /* \"contracts/HelloWorld5.sol\":1171:1195  candidates[_candidateId] */\n      dup2\n      mstore\n      0x20\n      add\n      swap1\n      dup2\n      mstore\n      0x20\n      add\n      0x00\n      keccak256\n        /* \"contracts/HelloWorld5.sol\":1171:1205  candidates[_candidateId].voteCount */\n      0x02\n      add\n      0x00\n        /* \"contracts/HelloWorld5.sol\":1171:1207  candidates[_candidateId].voteCount++ */\n      dup2\n      sload\n      dup1\n      swap3\n      swap2\n      swap1\n      tag_61\n      swap1\n      tag_62\n      jump\t// in\n    tag_61:\n      swap2\n      swap1\n      pop\n      sstore\n      pop\n        /* \"contracts/HelloWorld5.sol\":1228:1240  _candidateId */\n      dup1\n        /* \"contracts/HelloWorld5.sol\":1222:1241  Voted(_candidateId) */\n      0x7f511e347bf51eed3be100b3194247d5207f05f3b33de7d31e3e8ee73199a049\n      mload(0x40)\n      mload(0x40)\n      dup1\n      swap2\n      sub\n      swap1\n      log2\n        /* \"contracts/HelloWorld5.sol\":939:1248  function vote(uint256 _candidateId) public votingIsOpen {... */\n      pop\n      jump\t// out\n        /* \"contracts/HelloWorld5.sol\":336:366  uint256 public candidatesCount */\n    tag_18:\n      sload(0x04)\n      dup2\n      jump\t// out\n        /* \"contracts/HelloWorld5.sol\":80:106  address public chairperson */\n    tag_22:\n      0x00\n      dup1\n      sload\n      swap1\n      0x0100\n      exp\n      swap1\n      div\n      0xffffffffffffffffffffffffffffffffffffffff\n      and\n      dup2\n      jump\t// out\n        /* \"contracts/HelloWorld5.sol\":283:330  mapping(uint256 => Candidate) public candidates */\n    tag_27:\n      mstore(0x20, 0x03)\n      dup1\n      0x00\n      mstore\n      keccak256(0x00, 0x40)\n      0x00\n      swap2\n      pop\n      swap1\n      pop\n      dup1\n      0x00\n      add\n      sload\n      swap1\n      dup1\n      0x01\n      add\n      dup1\n      sload\n      tag_63\n      swap1\n      tag_64\n      jump\t// in\n    tag_63:\n      dup1\n      0x1f\n      add\n      0x20\n      dup1\n      swap2\n      div\n      mul\n      0x20\n      add\n      mload(0x40)\n      swap1\n      dup2\n      add\n      0x40\n      mstore\n      dup1\n      swap3\n      swap2\n      swap1\n      dup2\n      dup2\n      mstore\n      0x20\n      add\n      dup3\n      dup1\n      sload\n      tag_65\n      swap1\n      tag_64\n      jump\t// in\n    tag_65:\n      dup1\n      iszero\n      tag_66\n      jumpi\n      dup1\n      0x1f\n      lt\n      tag_67\n      jumpi\n      0x0100\n      dup1\n      dup4\n      sload\n      div\n      mul\n      dup4\n      mstore\n      swap2\n      0x20\n      add\n      swap2\n      jump(tag_66)\n    tag_67:\n      dup3\n      add\n      swap2\n      swap1\n      0x00\n      mstore\n      keccak256(0x00, 0x20)\n      swap1\n    tag_68:\n      dup2\n      sload\n      dup2\n      mstore\n      swap1\n      0x01\n      add\n      swap1\n      0x20\n      add\n      dup1\n      dup4\n      gt\n      tag_68\n      jumpi\n      dup3\n      swap1\n      sub\n      0x1f\n      and\n      dup3\n      add\n      swap2\n    tag_66:\n      pop\n      pop\n      pop\n      pop\n      pop\n      swap1\n      dup1\n      0x02\n      add\n      sload\n      swap1\n      pop\n      dup4\n      jump\t// out\n        /* \"contracts/HelloWorld5.sol\":744:933  function addCandidate(string memory _name) public onlyChairperson votingIsOpen {... */\n    tag_33:\n        /* \"contracts/HelloWorld5.sol\":432:443  chairperson */\n      0x00\n      dup1\n      sload\n      swap1\n      0x0100\n      exp\n      swap1\n      div\n      0xffffffffffffffffffffffffffffffffffffffff\n      and\n        /* \"contracts/HelloWorld5.sol\":418:443  msg.sender == chairperson */\n      0xffffffffffffffffffffffffffffffffffffffff\n      and\n        /* \"contracts/HelloWorld5.sol\":418:428  msg.sender */\n      caller\n        /* \"contracts/HelloWorld5.sol\":418:443  msg.sender == chairperson */\n      0xffffffffffffffffffffffffffffffffffffffff\n      and\n      eq\n        /* \"contracts/HelloWorld5.sol\":410:488  require(msg.sender == chairperson, \"Only chairperson can perform this action\") */\n      tag_70\n      jumpi\n      mload(0x40)\n      0x08c379a000000000000000000000000000000000000000000000000000000000\n      dup2\n      mstore\n      0x04\n      add\n      tag_71\n      swap1\n      tag_72\n      jump\t// in\n    tag_71:\n      mload(0x40)\n      dup1\n      swap2\n      sub\n      swap1\n      revert\n    tag_70:\n        /* \"contracts/HelloWorld5.sol\":554:564  votingOpen */\n      0x02\n      0x00\n      swap1\n      sload\n      swap1\n      0x0100\n      exp\n      swap1\n      div\n      0xff\n      and\n        /* \"contracts/HelloWorld5.sol\":546:585  require(votingOpen, \"Voting is closed\") */\n      tag_74\n      jumpi\n      mload(0x40)\n      0x08c379a000000000000000000000000000000000000000000000000000000000\n      dup2\n      mstore\n      0x04\n      add\n      tag_75\n      swap1\n      tag_52\n      jump\t// in\n    tag_75:\n      mload(0x40)\n      dup1\n      swap2\n      sub\n      swap1\n      revert\n    tag_74:\n        /* \"contracts/HelloWorld5.sol\":833:848  candidatesCount */\n      0x04\n      0x00\n        /* \"contracts/HelloWorld5.sol\":833:850  candidatesCount++ */\n      dup2\n      sload\n      dup1\n      swap3\n      swap2\n      swap1\n      tag_77\n      swap1\n      tag_62\n      jump\t// in\n    tag_77:\n      swap2\n      swap1\n      pop\n      sstore\n      pop\n        /* \"contracts/HelloWorld5.sol\":890:926  Candidate(candidatesCount, _name, 0) */\n      mload(0x40)\n      dup1\n      0x60\n      add\n      0x40\n      mstore\n      dup1\n        /* \"contracts/HelloWorld5.sol\":900:915  candidatesCount */\n      sload(0x04)\n        /* \"contracts/HelloWorld5.sol\":890:926  Candidate(candidatesCount, _name, 0) */\n      dup2\n      mstore\n      0x20\n      add\n        /* \"contracts/HelloWorld5.sol\":917:922  _name */\n      dup3\n        /* \"contracts/HelloWorld5.sol\":890:926  Candidate(candidatesCount, _name, 0) */\n      dup2\n      mstore\n      0x20\n      add\n        /* \"contracts/HelloWorld5.sol\":924:925  0 */\n      0x00\n        /* \"contracts/HelloWorld5.sol\":890:926  Candidate(candidatesCount, _name, 0) */\n      dup2\n      mstore\n      pop\n        /* \"contracts/HelloWorld5.sol\":860:870  candidates */\n      0x03\n        /* \"contracts/HelloWorld5.sol\":860:887  candidates[candidatesCount] */\n      0x00\n        /* \"contracts/HelloWorld5.sol\":871:886  candidatesCount */\n      sload(0x04)\n        /* \"contracts/HelloWorld5.sol\":860:887  candidates[candidatesCount] */\n      dup2\n      mstore\n      0x20\n      add\n      swap1\n      dup2\n      mstore\n      0x20\n      add\n      0x00\n      keccak256\n        /* \"contracts/HelloWorld5.sol\":860:926  candidates[candidatesCount] = Candidate(candidatesCount, _name, 0) */\n      0x00\n      dup3\n      add\n      mload\n      dup2\n      0x00\n      add\n      sstore\n      0x20\n      dup3\n      add\n      mload\n      dup2\n      0x01\n      add\n      swap1\n      dup2\n      tag_78\n      swap2\n      swap1\n      tag_79\n      jump\t// in\n    tag_78:\n      pop\n      0x40\n      dup3\n      add\n      mload\n      dup2\n      0x02\n      add\n      sstore\n      swap1\n      pop\n      pop\n        /* \"contracts/HelloWorld5.sol\":744:933  function addCandidate(string memory _name) public onlyChairperson votingIsOpen {... */\n      pop\n      jump\t// out\n        /* \"contracts/HelloWorld5.sol\":112:150  mapping(address => bool) public voters */\n    tag_37:\n      mstore(0x20, 0x01)\n      dup1\n      0x00\n      mstore\n      keccak256(0x00, 0x40)\n      0x00\n      swap2\n      pop\n      sload\n      swap1\n      0x0100\n      exp\n      swap1\n      div\n      0xff\n      and\n      dup2\n      jump\t// out\n        /* \"contracts/HelloWorld5.sol\":156:178  bool public votingOpen */\n    tag_41:\n      0x02\n      0x00\n      swap1\n      sload\n      swap1\n      0x0100\n      exp\n      swap1\n      div\n      0xff\n      and\n      dup2\n      jump\t// out\n        /* \"contracts/HelloWorld5.sol\":1254:1437  function specifyVoters(address[] memory _voters) public onlyChairperson {... */\n    tag_46:\n        /* \"contracts/HelloWorld5.sol\":432:443  chairperson */\n      0x00\n      dup1\n      sload\n      swap1\n      0x0100\n      exp\n      swap1\n      div\n      0xffffffffffffffffffffffffffffffffffffffff\n      and\n        /* \"contracts/HelloWorld5.sol\":418:443  msg.sender == chairperson */\n      0xffffffffffffffffffffffffffffffffffffffff\n      and\n        /* \"contracts/HelloWorld5.sol\":418:428  msg.sender */\n      caller\n        /* \"contracts/HelloWorld5.sol\":418:443  msg.sender == chairperson */\n      0xffffffffffffffffffffffffffffffffffffffff\n      and\n      eq\n        /* \"contracts/HelloWorld5.sol\":410:488  require(msg.sender == chairperson, \"Only chairperson can perform this action\") */\n      tag_81\n      jumpi\n      mload(0x40)\n      0x08c379a000000000000000000000000000000000000000000000000000000000\n      dup2\n      mstore\n      0x04\n      add\n      tag_82\n      swap1\n      tag_72\n      jump\t// in\n    tag_82:\n      mload(0x40)\n      dup1\n      swap2\n      sub\n      swap1\n      revert\n    tag_81:\n        /* \"contracts/HelloWorld5.sol\":1341:1350  uint256 i */\n      0x00\n        /* \"contracts/HelloWorld5.sol\":1336:1431  for (uint256 i = 0; i < _voters.length; i++) {... */\n    tag_84:\n        /* \"contracts/HelloWorld5.sol\":1360:1367  _voters */\n      dup2\n        /* \"contracts/HelloWorld5.sol\":1360:1374  _voters.length */\n      mload\n        /* \"contracts/HelloWorld5.sol\":1356:1357  i */\n      dup2\n        /* \"contracts/HelloWorld5.sol\":1356:1374  i < _voters.length */\n      lt\n        /* \"contracts/HelloWorld5.sol\":1336:1431  for (uint256 i = 0; i < _voters.length; i++) {... */\n      iszero\n      tag_85\n      jumpi\n        /* \"contracts/HelloWorld5.sol\":1416:1420  true */\n      0x01\n        /* \"contracts/HelloWorld5.sol\":1395:1401  voters */\n      dup1\n        /* \"contracts/HelloWorld5.sol\":1395:1413  voters[_voters[i]] */\n      0x00\n        /* \"contracts/HelloWorld5.sol\":1402:1409  _voters */\n      dup5\n        /* \"contracts/HelloWorld5.sol\":1410:1411  i */\n      dup5\n        /* \"contracts/HelloWorld5.sol\":1402:1412  _voters[i] */\n      dup2\n      mload\n      dup2\n      lt\n      tag_87\n      jumpi\n      tag_88\n      tag_89\n      jump\t// in\n    tag_88:\n    tag_87:\n      0x20\n      mul\n      0x20\n      add\n      add\n      mload\n        /* \"contracts/HelloWorld5.sol\":1395:1413  voters[_voters[i]] */\n      0xffffffffffffffffffffffffffffffffffffffff\n      and\n      0xffffffffffffffffffffffffffffffffffffffff\n      and\n      dup2\n      mstore\n      0x20\n      add\n      swap1\n      dup2\n      mstore\n      0x20\n      add\n      0x00\n      keccak256\n      0x00\n        /* \"contracts/HelloWorld5.sol\":1395:1420  voters[_voters[i]] = true */\n      0x0100\n      exp\n      dup2\n      sload\n      dup2\n      0xff\n      mul\n      not\n      and\n      swap1\n      dup4\n      iszero\n      iszero\n      mul\n      or\n      swap1\n      sstore\n      pop\n        /* \"contracts/HelloWorld5.sol\":1376:1379  i++ */\n      dup1\n      dup1\n      0x01\n      add\n      swap2\n      pop\n      pop\n        /* \"contracts/HelloWorld5.sol\":1336:1431  for (uint256 i = 0; i < _voters.length; i++) {... */\n      jump(tag_84)\n    tag_85:\n      pop\n        /* \"contracts/HelloWorld5.sol\":1254:1437  function specifyVoters(address[] memory _voters) public onlyChairperson {... */\n      pop\n      jump\t// out\n        /* \"contracts/HelloWorld5.sol\":1443:1523  function stopVoting() public onlyChairperson {... */\n    tag_48:\n        /* \"contracts/HelloWorld5.sol\":432:443  chairperson */\n      0x00\n      dup1\n      sload\n      swap1\n      0x0100\n      exp\n      swap1\n      div\n      0xffffffffffffffffffffffffffffffffffffffff\n      and\n        /* \"contracts/HelloWorld5.sol\":418:443  msg.sender == chairperson */\n      0xffffffffffffffffffffffffffffffffffffffff\n      and\n        /* \"contracts/HelloWorld5.sol\":418:428  msg.sender */\n      caller\n        /* \"contracts/HelloWorld5.sol\":418:443  msg.sender == chairperson */\n      0xffffffffffffffffffffffffffffffffffffffff\n      and\n      eq\n        /* \"contracts/HelloWorld5.sol\":410:488  require(msg.sender == chairperson, \"Only chairperson can perform this action\") */\n      tag_91\n      jumpi\n      mload(0x40)\n      0x08c379a000000000000000000000000000000000000000000000000000000000\n      dup2\n      mstore\n      0x04\n      add\n      tag_92\n      swap1\n      tag_72\n      jump\t// in\n    tag_92:\n      mload(0x40)\n      dup1\n      swap2\n      sub\n      swap1\n      revert\n    tag_91:\n        /* \"contracts/HelloWorld5.sol\":1511:1516  false */\n      0x00\n        /* \"contracts/HelloWorld5.sol\":1498:1508  votingOpen */\n      0x02\n      0x00\n        /* \"contracts/HelloWorld5.sol\":1498:1516  votingOpen = false */\n      0x0100\n      exp\n      dup2\n      sload\n      dup2\n      0xff\n      mul\n      not\n      and\n      swap1\n      dup4\n      iszero\n      iszero\n      mul\n      or\n      swap1\n      sstore\n      pop\n        /* \"contracts/HelloWorld5.sol\":1443:1523  function stopVoting() public onlyChairperson {... */\n      jump\t// out\n        /* \"#utility.yul\":7:82   */\n    tag_94:\n        /* \"#utility.yul\":40:46   */\n      0x00\n        /* \"#utility.yul\":73:75   */\n      0x40\n        /* \"#utility.yul\":67:76   */\n      mload\n        /* \"#utility.yul\":57:76   */\n      swap1\n      pop\n        /* \"#utility.yul\":7:82   */\n      swap1\n      jump\t// out\n        /* \"#utility.yul\":88:205   */\n    tag_95:\n        /* \"#utility.yul\":197:198   */\n      0x00\n        /* \"#utility.yul\":194:195   */\n      dup1\n        /* \"#utility.yul\":187:199   */\n      revert\n        /* \"#utility.yul\":211:328   */\n    tag_96:\n        /* \"#utility.yul\":320:321   */\n      0x00\n        /* \"#utility.yul\":317:318   */\n      dup1\n        /* \"#utility.yul\":310:322   */\n      revert\n        /* \"#utility.yul\":334:411   */\n    tag_97:\n        /* \"#utility.yul\":371:378   */\n      0x00\n        /* \"#utility.yul\":400:405   */\n      dup2\n        /* \"#utility.yul\":389:405   */\n      swap1\n      pop\n        /* \"#utility.yul\":334:411   */\n      swap2\n      swap1\n      pop\n      jump\t// out\n        /* \"#utility.yul\":417:539   */\n    tag_98:\n        /* \"#utility.yul\":490:514   */\n      tag_157\n        /* \"#utility.yul\":508:513   */\n      dup2\n        /* \"#utility.yul\":490:514   */\n      tag_97\n      jump\t// in\n    tag_157:\n        /* \"#utility.yul\":483:488   */\n      dup2\n        /* \"#utility.yul\":480:515   */\n      eq\n        /* \"#utility.yul\":470:533   */\n      tag_158\n      jumpi\n        /* \"#utility.yul\":529:530   */\n      0x00\n        /* \"#utility.yul\":526:527   */\n      dup1\n        /* \"#utility.yul\":519:531   */\n      revert\n        /* \"#utility.yul\":470:533   */\n    tag_158:\n        /* \"#utility.yul\":417:539   */\n      pop\n      jump\t// out\n        /* \"#utility.yul\":545:684   */\n    tag_99:\n        /* \"#utility.yul\":591:596   */\n      0x00\n        /* \"#utility.yul\":629:635   */\n      dup2\n        /* \"#utility.yul\":616:636   */\n      calldataload\n        /* \"#utility.yul\":607:636   */\n      swap1\n      pop\n        /* \"#utility.yul\":645:678   */\n      tag_160\n        /* \"#utility.yul\":672:677   */\n      dup2\n        /* \"#utility.yul\":645:678   */\n      tag_98\n      jump\t// in\n    tag_160:\n        /* \"#utility.yul\":545:684   */\n      swap3\n      swap2\n      pop\n      pop\n      jump\t// out\n        /* \"#utility.yul\":690:1019   */\n    tag_15:\n        /* \"#utility.yul\":749:755   */\n      0x00\n        /* \"#utility.yul\":798:800   */\n      0x20\n        /* \"#utility.yul\":786:795   */\n      dup3\n        /* \"#utility.yul\":777:784   */\n      dup5\n        /* \"#utility.yul\":773:796   */\n      sub\n        /* \"#utility.yul\":769:801   */\n      slt\n        /* \"#utility.yul\":766:885   */\n      iszero\n      tag_162\n      jumpi\n        /* \"#utility.yul\":804:883   */\n      tag_163\n      tag_95\n      jump\t// in\n    tag_163:\n        /* \"#utility.yul\":766:885   */\n    tag_162:\n        /* \"#utility.yul\":924:925   */\n      0x00\n        /* \"#utility.yul\":949:1002   */\n      tag_164\n        /* \"#utility.yul\":994:1001   */\n      dup5\n        /* \"#utility.yul\":985:991   */\n      dup3\n        /* \"#utility.yul\":974:983   */\n      dup6\n        /* \"#utility.yul\":970:992   */\n      add\n        /* \"#utility.yul\":949:1002   */\n      tag_99\n      jump\t// in\n    tag_164:\n        /* \"#utility.yul\":939:1002   */\n      swap2\n      pop\n        /* \"#utility.yul\":895:1012   */\n      pop\n        /* \"#utility.yul\":690:1019   */\n      swap3\n      swap2\n      pop\n      pop\n      jump\t// out\n        /* \"#utility.yul\":1025:1143   */\n    tag_100:\n        /* \"#utility.yul\":1112:1136   */\n      tag_166\n        /* \"#utility.yul\":1130:1135   */\n      dup2\n        /* \"#utility.yul\":1112:1136   */\n      tag_97\n      jump\t// in\n    tag_166:\n        /* \"#utility.yul\":1107:1110   */\n      dup3\n        /* \"#utility.yul\":1100:1137   */\n      mstore\n        /* \"#utility.yul\":1025:1143   */\n      pop\n      pop\n      jump\t// out\n        /* \"#utility.yul\":1149:1371   */\n    tag_20:\n        /* \"#utility.yul\":1242:1246   */\n      0x00\n        /* \"#utility.yul\":1280:1282   */\n      0x20\n        /* \"#utility.yul\":1269:1278   */\n      dup3\n        /* \"#utility.yul\":1265:1283   */\n      add\n        /* \"#utility.yul\":1257:1283   */\n      swap1\n      pop\n        /* \"#utility.yul\":1293:1364   */\n      tag_168\n        /* \"#utility.yul\":1361:1362   */\n      0x00\n        /* \"#utility.yul\":1350:1359   */\n      dup4\n        /* \"#utility.yul\":1346:1363   */\n      add\n        /* \"#utility.yul\":1337:1343   */\n      dup5\n        /* \"#utility.yul\":1293:1364   */\n      tag_100\n      jump\t// in\n    tag_168:\n        /* \"#utility.yul\":1149:1371   */\n      swap3\n      swap2\n      pop\n      pop\n      jump\t// out\n        /* \"#utility.yul\":1377:1503   */\n    tag_101:\n        /* \"#utility.yul\":1414:1421   */\n      0x00\n        /* \"#utility.yul\":1454:1496   */\n      0xffffffffffffffffffffffffffffffffffffffff\n        /* \"#utility.yul\":1447:1452   */\n      dup3\n        /* \"#utility.yul\":1443:1497   */\n      and\n        /* \"#utility.yul\":1432:1497   */\n      swap1\n      pop\n        /* \"#utility.yul\":1377:1503   */\n      swap2\n      swap1\n      pop\n      jump\t// out\n        /* \"#utility.yul\":1509:1605   */\n    tag_102:\n        /* \"#utility.yul\":1546:1553   */\n      0x00\n        /* \"#utility.yul\":1575:1599   */\n      tag_171\n        /* \"#utility.yul\":1593:1598   */\n      dup3\n        /* \"#utility.yul\":1575:1599   */\n      tag_101\n      jump\t// in\n    tag_171:\n        /* \"#utility.yul\":1564:1599   */\n      swap1\n      pop\n        /* \"#utility.yul\":1509:1605   */\n      swap2\n      swap1\n      pop\n      jump\t// out\n        /* \"#utility.yul\":1611:1729   */\n    tag_103:\n        /* \"#utility.yul\":1698:1722   */\n      tag_173\n        /* \"#utility.yul\":1716:1721   */\n      dup2\n        /* \"#utility.yul\":1698:1722   */\n      tag_102\n      jump\t// in\n    tag_173:\n        /* \"#utility.yul\":1693:1696   */\n      dup3\n        /* \"#utility.yul\":1686:1723   */\n      mstore\n        /* \"#utility.yul\":1611:1729   */\n      pop\n      pop\n      jump\t// out\n        /* \"#utility.yul\":1735:1957   */\n    tag_24:\n        /* \"#utility.yul\":1828:1832   */\n      0x00\n        /* \"#utility.yul\":1866:1868   */\n      0x20\n        /* \"#utility.yul\":1855:1864   */\n      dup3\n        /* \"#utility.yul\":1851:1869   */\n      add\n        /* \"#utility.yul\":1843:1869   */\n      swap1\n      pop\n        /* \"#utility.yul\":1879:1950   */\n      tag_175\n        /* \"#utility.yul\":1947:1948   */\n      0x00\n        /* \"#utility.yul\":1936:1945   */\n      dup4\n        /* \"#utility.yul\":1932:1949   */\n      add\n        /* \"#utility.yul\":1923:1929   */\n      dup5\n        /* \"#utility.yul\":1879:1950   */\n      tag_103\n      jump\t// in\n    tag_175:\n        /* \"#utility.yul\":1735:1957   */\n      swap3\n      swap2\n      pop\n      pop\n      jump\t// out\n        /* \"#utility.yul\":1963:2062   */\n    tag_104:\n        /* \"#utility.yul\":2015:2021   */\n      0x00\n        /* \"#utility.yul\":2049:2054   */\n      dup2\n        /* \"#utility.yul\":2043:2055   */\n      mload\n        /* \"#utility.yul\":2033:2055   */\n      swap1\n      pop\n        /* \"#utility.yul\":1963:2062   */\n      swap2\n      swap1\n      pop\n      jump\t// out\n        /* \"#utility.yul\":2068:2237   */\n    tag_105:\n        /* \"#utility.yul\":2152:2163   */\n      0x00\n        /* \"#utility.yul\":2186:2192   */\n      dup3\n        /* \"#utility.yul\":2181:2184   */\n      dup3\n        /* \"#utility.yul\":2174:2193   */\n      mstore\n        /* \"#utility.yul\":2226:2230   */\n      0x20\n        /* \"#utility.yul\":2221:2224   */\n      dup3\n        /* \"#utility.yul\":2217:2231   */\n      add\n        /* \"#utility.yul\":2202:2231   */\n      swap1\n      pop\n        /* \"#utility.yul\":2068:2237   */\n      swap3\n      swap2\n      pop\n      pop\n      jump\t// out\n        /* \"#utility.yul\":2243:2489   */\n    tag_106:\n        /* \"#utility.yul\":2324:2325   */\n      0x00\n        /* \"#utility.yul\":2334:2447   */\n    tag_179:\n        /* \"#utility.yul\":2348:2354   */\n      dup4\n        /* \"#utility.yul\":2345:2346   */\n      dup2\n        /* \"#utility.yul\":2342:2355   */\n      lt\n        /* \"#utility.yul\":2334:2447   */\n      iszero\n      tag_181\n      jumpi\n        /* \"#utility.yul\":2433:2434   */\n      dup1\n        /* \"#utility.yul\":2428:2431   */\n      dup3\n        /* \"#utility.yul\":2424:2435   */\n      add\n        /* \"#utility.yul\":2418:2436   */\n      mload\n        /* \"#utility.yul\":2414:2415   */\n      dup2\n        /* \"#utility.yul\":2409:2412   */\n      dup5\n        /* \"#utility.yul\":2405:2416   */\n      add\n        /* \"#utility.yul\":2398:2437   */\n      mstore\n        /* \"#utility.yul\":2370:2372   */\n      0x20\n        /* \"#utility.yul\":2367:2368   */\n      dup2\n        /* \"#utility.yul\":2363:2373   */\n      add\n        /* \"#utility.yul\":2358:2373   */\n      swap1\n      pop\n        /* \"#utility.yul\":2334:2447   */\n      jump(tag_179)\n    tag_181:\n        /* \"#utility.yul\":2481:2482   */\n      0x00\n        /* \"#utility.yul\":2472:2478   */\n      dup5\n        /* \"#utility.yul\":2467:2470   */\n      dup5\n        /* \"#utility.yul\":2463:2479   */\n      add\n        /* \"#utility.yul\":2456:2483   */\n      mstore\n        /* \"#utility.yul\":2305:2489   */\n      pop\n        /* \"#utility.yul\":2243:2489   */\n      pop\n      pop\n      pop\n      jump\t// out\n        /* \"#utility.yul\":2495:2597   */\n    tag_107:\n        /* \"#utility.yul\":2536:2542   */\n      0x00\n        /* \"#utility.yul\":2587:2589   */\n      0x1f\n        /* \"#utility.yul\":2583:2590   */\n      not\n        /* \"#utility.yul\":2578:2580   */\n      0x1f\n        /* \"#utility.yul\":2571:2576   */\n      dup4\n        /* \"#utility.yul\":2567:2581   */\n      add\n        /* \"#utility.yul\":2563:2591   */\n      and\n        /* \"#utility.yul\":2553:2591   */\n      swap1\n      pop\n        /* \"#utility.yul\":2495:2597   */\n      swap2\n      swap1\n      pop\n      jump\t// out\n        /* \"#utility.yul\":2603:2980   */\n    tag_108:\n        /* \"#utility.yul\":2691:2694   */\n      0x00\n        /* \"#utility.yul\":2719:2758   */\n      tag_184\n        /* \"#utility.yul\":2752:2757   */\n      dup3\n        /* \"#utility.yul\":2719:2758   */\n      tag_104\n      jump\t// in\n    tag_184:\n        /* \"#utility.yul\":2774:2845   */\n      tag_185\n        /* \"#utility.yul\":2838:2844   */\n      dup2\n        /* \"#utility.yul\":2833:2836   */\n      dup6\n        /* \"#utility.yul\":2774:2845   */\n      tag_105\n      jump\t// in\n    tag_185:\n        /* \"#utility.yul\":2767:2845   */\n      swap4\n      pop\n        /* \"#utility.yul\":2854:2919   */\n      tag_186\n        /* \"#utility.yul\":2912:2918   */\n      dup2\n        /* \"#utility.yul\":2907:2910   */\n      dup6\n        /* \"#utility.yul\":2900:2904   */\n      0x20\n        /* \"#utility.yul\":2893:2898   */\n      dup7\n        /* \"#utility.yul\":2889:2905   */\n      add\n        /* \"#utility.yul\":2854:2919   */\n      tag_106\n      jump\t// in\n    tag_186:\n        /* \"#utility.yul\":2944:2973   */\n      tag_187\n        /* \"#utility.yul\":2966:2972   */\n      dup2\n        /* \"#utility.yul\":2944:2973   */\n      tag_107\n      jump\t// in\n    tag_187:\n        /* \"#utility.yul\":2939:2942   */\n      dup5\n        /* \"#utility.yul\":2935:2974   */\n      add\n        /* \"#utility.yul\":2928:2974   */\n      swap2\n      pop\n        /* \"#utility.yul\":2695:2980   */\n      pop\n        /* \"#utility.yul\":2603:2980   */\n      swap3\n      swap2\n      pop\n      pop\n      jump\t// out\n        /* \"#utility.yul\":2986:3519   */\n    tag_29:\n        /* \"#utility.yul\":3155:3159   */\n      0x00\n        /* \"#utility.yul\":3193:3195   */\n      0x60\n        /* \"#utility.yul\":3182:3191   */\n      dup3\n        /* \"#utility.yul\":3178:3196   */\n      add\n        /* \"#utility.yul\":3170:3196   */\n      swap1\n      pop\n        /* \"#utility.yul\":3206:3277   */\n      tag_189\n        /* \"#utility.yul\":3274:3275   */\n      0x00\n        /* \"#utility.yul\":3263:3272   */\n      dup4\n        /* \"#utility.yul\":3259:3276   */\n      add\n        /* \"#utility.yul\":3250:3256   */\n      dup7\n        /* \"#utility.yul\":3206:3277   */\n      tag_100\n      jump\t// in\n    tag_189:\n        /* \"#utility.yul\":3324:3333   */\n      dup2\n        /* \"#utility.yul\":3318:3322   */\n      dup2\n        /* \"#utility.yul\":3314:3334   */\n      sub\n        /* \"#utility.yul\":3309:3311   */\n      0x20\n        /* \"#utility.yul\":3298:3307   */\n      dup4\n        /* \"#utility.yul\":3294:3312   */\n      add\n        /* \"#utility.yul\":3287:3335   */\n      mstore\n        /* \"#utility.yul\":3352:3430   */\n      tag_190\n        /* \"#utility.yul\":3425:3429   */\n      dup2\n        /* \"#utility.yul\":3416:3422   */\n      dup6\n        /* \"#utility.yul\":3352:3430   */\n      tag_108\n      jump\t// in\n    tag_190:\n        /* \"#utility.yul\":3344:3430   */\n      swap1\n      pop\n        /* \"#utility.yul\":3440:3512   */\n      tag_191\n        /* \"#utility.yul\":3508:3510   */\n      0x40\n        /* \"#utility.yul\":3497:3506   */\n      dup4\n        /* \"#utility.yul\":3493:3511   */\n      add\n        /* \"#utility.yul\":3484:3490   */\n      dup5\n        /* \"#utility.yul\":3440:3512   */\n      tag_100\n      jump\t// in\n    tag_191:\n        /* \"#utility.yul\":2986:3519   */\n      swap5\n      swap4\n      pop\n      pop\n      pop\n      pop\n      jump\t// out\n        /* \"#utility.yul\":3525:3642   */\n    tag_109:\n        /* \"#utility.yul\":3634:3635   */\n      0x00\n        /* \"#utility.yul\":3631:3632   */\n      dup1\n        /* \"#utility.yul\":3624:3636   */\n      revert\n        /* \"#utility.yul\":3648:3765   */\n    tag_110:\n        /* \"#utility.yul\":3757:3758   */\n      0x00\n        /* \"#utility.yul\":3754:3755   */\n      dup1\n        /* \"#utility.yul\":3747:3759   */\n      revert\n        /* \"#utility.yul\":3771:3951   */\n    tag_111:\n        /* \"#utility.yul\":3819:3896   */\n      0x4e487b7100000000000000000000000000000000000000000000000000000000\n        /* \"#utility.yul\":3816:3817   */\n      0x00\n        /* \"#utility.yul\":3809:3897   */\n      mstore\n        /* \"#utility.yul\":3916:3920   */\n      0x41\n        /* \"#utility.yul\":3913:3914   */\n      0x04\n        /* \"#utility.yul\":3906:3921   */\n      mstore\n        /* \"#utility.yul\":3940:3944   */\n      0x24\n        /* \"#utility.yul\":3937:3938   */\n      0x00\n        /* \"#utility.yul\":3930:3945   */\n      revert\n        /* \"#utility.yul\":3957:4238   */\n    tag_112:\n        /* \"#utility.yul\":4040:4067   */\n      tag_196\n        /* \"#utility.yul\":4062:4066   */\n      dup3\n        /* \"#utility.yul\":4040:4067   */\n      tag_107\n      jump\t// in\n    tag_196:\n        /* \"#utility.yul\":4032:4038   */\n      dup2\n        /* \"#utility.yul\":4028:4068   */\n      add\n        /* \"#utility.yul\":4170:4176   */\n      dup2\n        /* \"#utility.yul\":4158:4168   */\n      dup2\n        /* \"#utility.yul\":4155:4177   */\n      lt\n        /* \"#utility.yul\":4134:4152   */\n      0xffffffffffffffff\n        /* \"#utility.yul\":4122:4132   */\n      dup3\n        /* \"#utility.yul\":4119:4153   */\n      gt\n        /* \"#utility.yul\":4116:4178   */\n      or\n        /* \"#utility.yul\":4113:4201   */\n      iszero\n      tag_197\n      jumpi\n        /* \"#utility.yul\":4181:4199   */\n      tag_198\n      tag_111\n      jump\t// in\n    tag_198:\n        /* \"#utility.yul\":4113:4201   */\n    tag_197:\n        /* \"#utility.yul\":4221:4231   */\n      dup1\n        /* \"#utility.yul\":4217:4219   */\n      0x40\n        /* \"#utility.yul\":4210:4232   */\n      mstore\n        /* \"#utility.yul\":4000:4238   */\n      pop\n        /* \"#utility.yul\":3957:4238   */\n      pop\n      pop\n      jump\t// out\n        /* \"#utility.yul\":4244:4373   */\n    tag_113:\n        /* \"#utility.yul\":4278:4284   */\n      0x00\n        /* \"#utility.yul\":4305:4325   */\n      tag_200\n      tag_94\n      jump\t// in\n    tag_200:\n        /* \"#utility.yul\":4295:4325   */\n      swap1\n      pop\n        /* \"#utility.yul\":4334:4367   */\n      tag_201\n        /* \"#utility.yul\":4362:4366   */\n      dup3\n        /* \"#utility.yul\":4354:4360   */\n      dup3\n        /* \"#utility.yul\":4334:4367   */\n      tag_112\n      jump\t// in\n    tag_201:\n        /* \"#utility.yul\":4244:4373   */\n      swap2\n      swap1\n      pop\n      jump\t// out\n        /* \"#utility.yul\":4379:4687   */\n    tag_114:\n        /* \"#utility.yul\":4441:4445   */\n      0x00\n        /* \"#utility.yul\":4531:4549   */\n      0xffffffffffffffff\n        /* \"#utility.yul\":4523:4529   */\n      dup3\n        /* \"#utility.yul\":4520:4550   */\n      gt\n        /* \"#utility.yul\":4517:4573   */\n      iszero\n      tag_203\n      jumpi\n        /* \"#utility.yul\":4553:4571   */\n      tag_204\n      tag_111\n      jump\t// in\n    tag_204:\n        /* \"#utility.yul\":4517:4573   */\n    tag_203:\n        /* \"#utility.yul\":4591:4620   */\n      tag_205\n        /* \"#utility.yul\":4613:4619   */\n      dup3\n        /* \"#utility.yul\":4591:4620   */\n      tag_107\n      jump\t// in\n    tag_205:\n        /* \"#utility.yul\":4583:4620   */\n      swap1\n      pop\n        /* \"#utility.yul\":4675:4679   */\n      0x20\n        /* \"#utility.yul\":4669:4673   */\n      dup2\n        /* \"#utility.yul\":4665:4680   */\n      add\n        /* \"#utility.yul\":4657:4680   */\n      swap1\n      pop\n        /* \"#utility.yul\":4379:4687   */\n      swap2\n      swap1\n      pop\n      jump\t// out\n        /* \"#utility.yul\":4693:4839   */\n    tag_115:\n        /* \"#utility.yul\":4790:4796   */\n      dup3\n        /* \"#utility.yul\":4785:4788   */\n      dup2\n        /* \"#utility.yul\":4780:4783   */\n      dup4\n        /* \"#utility.yul\":4767:4797   */\n      calldatacopy\n        /* \"#utility.yul\":4831:4832   */\n      0x00\n        /* \"#utility.yul\":4822:4828   */\n      dup4\n        /* \"#utility.yul\":4817:4820   */\n      dup4\n        /* \"#utility.yul\":4813:4829   */\n      add\n        /* \"#utility.yul\":4806:4833   */\n      mstore\n        /* \"#utility.yul\":4693:4839   */\n      pop\n      pop\n      pop\n      jump\t// out\n        /* \"#utility.yul\":4845:5270   */\n    tag_116:\n        /* \"#utility.yul\":4923:4928   */\n      0x00\n        /* \"#utility.yul\":4948:5014   */\n      tag_208\n        /* \"#utility.yul\":4964:5013   */\n      tag_209\n        /* \"#utility.yul\":5006:5012   */\n      dup5\n        /* \"#utility.yul\":4964:5013   */\n      tag_114\n      jump\t// in\n    tag_209:\n        /* \"#utility.yul\":4948:5014   */\n      tag_113\n      jump\t// in\n    tag_208:\n        /* \"#utility.yul\":4939:5014   */\n      swap1\n      pop\n        /* \"#utility.yul\":5037:5043   */\n      dup3\n        /* \"#utility.yul\":5030:5035   */\n      dup2\n        /* \"#utility.yul\":5023:5044   */\n      mstore\n        /* \"#utility.yul\":5075:5079   */\n      0x20\n        /* \"#utility.yul\":5068:5073   */\n      dup2\n        /* \"#utility.yul\":5064:5080   */\n      add\n        /* \"#utility.yul\":5113:5116   */\n      dup5\n        /* \"#utility.yul\":5104:5110   */\n      dup5\n        /* \"#utility.yul\":5099:5102   */\n      dup5\n        /* \"#utility.yul\":5095:5111   */\n      add\n        /* \"#utility.yul\":5092:5117   */\n      gt\n        /* \"#utility.yul\":5089:5201   */\n      iszero\n      tag_210\n      jumpi\n        /* \"#utility.yul\":5120:5199   */\n      tag_211\n      tag_110\n      jump\t// in\n    tag_211:\n        /* \"#utility.yul\":5089:5201   */\n    tag_210:\n        /* \"#utility.yul\":5210:5264   */\n      tag_212\n        /* \"#utility.yul\":5257:5263   */\n      dup5\n        /* \"#utility.yul\":5252:5255   */\n      dup3\n        /* \"#utility.yul\":5247:5250   */\n      dup6\n        /* \"#utility.yul\":5210:5264   */\n      tag_115\n      jump\t// in\n    tag_212:\n        /* \"#utility.yul\":4929:5270   */\n      pop\n        /* \"#utility.yul\":4845:5270   */\n      swap4\n      swap3\n      pop\n      pop\n      pop\n      jump\t// out\n        /* \"#utility.yul\":5290:5630   */\n    tag_117:\n        /* \"#utility.yul\":5346:5351   */\n      0x00\n        /* \"#utility.yul\":5395:5398   */\n      dup3\n        /* \"#utility.yul\":5388:5392   */\n      0x1f\n        /* \"#utility.yul\":5380:5386   */\n      dup4\n        /* \"#utility.yul\":5376:5393   */\n      add\n        /* \"#utility.yul\":5372:5399   */\n      slt\n        /* \"#utility.yul\":5362:5484   */\n      tag_214\n      jumpi\n        /* \"#utility.yul\":5403:5482   */\n      tag_215\n      tag_109\n      jump\t// in\n    tag_215:\n        /* \"#utility.yul\":5362:5484   */\n    tag_214:\n        /* \"#utility.yul\":5520:5526   */\n      dup2\n        /* \"#utility.yul\":5507:5527   */\n      calldataload\n        /* \"#utility.yul\":5545:5624   */\n      tag_216\n        /* \"#utility.yul\":5620:5623   */\n      dup5\n        /* \"#utility.yul\":5612:5618   */\n      dup3\n        /* \"#utility.yul\":5605:5609   */\n      0x20\n        /* \"#utility.yul\":5597:5603   */\n      dup7\n        /* \"#utility.yul\":5593:5610   */\n      add\n        /* \"#utility.yul\":5545:5624   */\n      tag_116\n      jump\t// in\n    tag_216:\n        /* \"#utility.yul\":5536:5624   */\n      swap2\n      pop\n        /* \"#utility.yul\":5352:5630   */\n      pop\n        /* \"#utility.yul\":5290:5630   */\n      swap3\n      swap2\n      pop\n      pop\n      jump\t// out\n        /* \"#utility.yul\":5636:6145   */\n    tag_32:\n        /* \"#utility.yul\":5705:5711   */\n      0x00\n        /* \"#utility.yul\":5754:5756   */\n      0x20\n        /* \"#utility.yul\":5742:5751   */\n      dup3\n        /* \"#utility.yul\":5733:5740   */\n      dup5\n        /* \"#utility.yul\":5729:5752   */\n      sub\n        /* \"#utility.yul\":5725:5757   */\n      slt\n        /* \"#utility.yul\":5722:5841   */\n      iszero\n      tag_218\n      jumpi\n        /* \"#utility.yul\":5760:5839   */\n      tag_219\n      tag_95\n      jump\t// in\n    tag_219:\n        /* \"#utility.yul\":5722:5841   */\n    tag_218:\n        /* \"#utility.yul\":5908:5909   */\n      0x00\n        /* \"#utility.yul\":5897:5906   */\n      dup3\n        /* \"#utility.yul\":5893:5910   */\n      add\n        /* \"#utility.yul\":5880:5911   */\n      calldataload\n        /* \"#utility.yul\":5938:5956   */\n      0xffffffffffffffff\n        /* \"#utility.yul\":5930:5936   */\n      dup2\n        /* \"#utility.yul\":5927:5957   */\n      gt\n        /* \"#utility.yul\":5924:6041   */\n      iszero\n      tag_220\n      jumpi\n        /* \"#utility.yul\":5960:6039   */\n      tag_221\n      tag_96\n      jump\t// in\n    tag_221:\n        /* \"#utility.yul\":5924:6041   */\n    tag_220:\n        /* \"#utility.yul\":6065:6128   */\n      tag_222\n        /* \"#utility.yul\":6120:6127   */\n      dup5\n        /* \"#utility.yul\":6111:6117   */\n      dup3\n        /* \"#utility.yul\":6100:6109   */\n      dup6\n        /* \"#utility.yul\":6096:6118   */\n      add\n        /* \"#utility.yul\":6065:6128   */\n      tag_117\n      jump\t// in\n    tag_222:\n        /* \"#utility.yul\":6055:6128   */\n      swap2\n      pop\n        /* \"#utility.yul\":5851:6138   */\n      pop\n        /* \"#utility.yul\":5636:6145   */\n      swap3\n      swap2\n      pop\n      pop\n      jump\t// out\n        /* \"#utility.yul\":6151:6273   */\n    tag_118:\n        /* \"#utility.yul\":6224:6248   */\n      tag_224\n        /* \"#utility.yul\":6242:6247   */\n      dup2\n        /* \"#utility.yul\":6224:6248   */\n      tag_102\n      jump\t// in\n    tag_224:\n        /* \"#utility.yul\":6217:6222   */\n      dup2\n        /* \"#utility.yul\":6214:6249   */\n      eq\n        /* \"#utility.yul\":6204:6267   */\n      tag_225\n      jumpi\n        /* \"#utility.yul\":6263:6264   */\n      0x00\n        /* \"#utility.yul\":6260:6261   */\n      dup1\n        /* \"#utility.yul\":6253:6265   */\n      revert\n        /* \"#utility.yul\":6204:6267   */\n    tag_225:\n        /* \"#utility.yul\":6151:6273   */\n      pop\n      jump\t// out\n        /* \"#utility.yul\":6279:6418   */\n    tag_119:\n        /* \"#utility.yul\":6325:6330   */\n      0x00\n        /* \"#utility.yul\":6363:6369   */\n      dup2\n        /* \"#utility.yul\":6350:6370   */\n      calldataload\n        /* \"#utility.yul\":6341:6370   */\n      swap1\n      pop\n        /* \"#utility.yul\":6379:6412   */\n      tag_227\n        /* \"#utility.yul\":6406:6411   */\n      dup2\n        /* \"#utility.yul\":6379:6412   */\n      tag_118\n      jump\t// in\n    tag_227:\n        /* \"#utility.yul\":6279:6418   */\n      swap3\n      swap2\n      pop\n      pop\n      jump\t// out\n        /* \"#utility.yul\":6424:6753   */\n    tag_36:\n        /* \"#utility.yul\":6483:6489   */\n      0x00\n        /* \"#utility.yul\":6532:6534   */\n      0x20\n        /* \"#utility.yul\":6520:6529   */\n      dup3\n        /* \"#utility.yul\":6511:6518   */\n      dup5\n        /* \"#utility.yul\":6507:6530   */\n      sub\n        /* \"#utility.yul\":6503:6535   */\n      slt\n        /* \"#utility.yul\":6500:6619   */\n      iszero\n      tag_229\n      jumpi\n        /* \"#utility.yul\":6538:6617   */\n      tag_230\n      tag_95\n      jump\t// in\n    tag_230:\n        /* \"#utility.yul\":6500:6619   */\n    tag_229:\n        /* \"#utility.yul\":6658:6659   */\n      0x00\n        /* \"#utility.yul\":6683:6736   */\n      tag_231\n        /* \"#utility.yul\":6728:6735   */\n      dup5\n        /* \"#utility.yul\":6719:6725   */\n      dup3\n        /* \"#utility.yul\":6708:6717   */\n      dup6\n        /* \"#utility.yul\":6704:6726   */\n      add\n        /* \"#utility.yul\":6683:6736   */\n      tag_119\n      jump\t// in\n    tag_231:\n        /* \"#utility.yul\":6673:6736   */\n      swap2\n      pop\n        /* \"#utility.yul\":6629:6746   */\n      pop\n        /* \"#utility.yul\":6424:6753   */\n      swap3\n      swap2\n      pop\n      pop\n      jump\t// out\n        /* \"#utility.yul\":6759:6849   */\n    tag_120:\n        /* \"#utility.yul\":6793:6800   */\n      0x00\n        /* \"#utility.yul\":6836:6841   */\n      dup2\n        /* \"#utility.yul\":6829:6842   */\n      iszero\n        /* \"#utility.yul\":6822:6843   */\n      iszero\n        /* \"#utility.yul\":6811:6843   */\n      swap1\n      pop\n        /* \"#utility.yul\":6759:6849   */\n      swap2\n      swap1\n      pop\n      jump\t// out\n        /* \"#utility.yul\":6855:6964   */\n    tag_121:\n        /* \"#utility.yul\":6936:6957   */\n      tag_234\n        /* \"#utility.yul\":6951:6956   */\n      dup2\n        /* \"#utility.yul\":6936:6957   */\n      tag_120\n      jump\t// in\n    tag_234:\n        /* \"#utility.yul\":6931:6934   */\n      dup3\n        /* \"#utility.yul\":6924:6958   */\n      mstore\n        /* \"#utility.yul\":6855:6964   */\n      pop\n      pop\n      jump\t// out\n        /* \"#utility.yul\":6970:7180   */\n    tag_39:\n        /* \"#utility.yul\":7057:7061   */\n      0x00\n        /* \"#utility.yul\":7095:7097   */\n      0x20\n        /* \"#utility.yul\":7084:7093   */\n      dup3\n        /* \"#utility.yul\":7080:7098   */\n      add\n        /* \"#utility.yul\":7072:7098   */\n      swap1\n      pop\n        /* \"#utility.yul\":7108:7173   */\n      tag_236\n        /* \"#utility.yul\":7170:7171   */\n      0x00\n        /* \"#utility.yul\":7159:7168   */\n      dup4\n        /* \"#utility.yul\":7155:7172   */\n      add\n        /* \"#utility.yul\":7146:7152   */\n      dup5\n        /* \"#utility.yul\":7108:7173   */\n      tag_121\n      jump\t// in\n    tag_236:\n        /* \"#utility.yul\":6970:7180   */\n      swap3\n      swap2\n      pop\n      pop\n      jump\t// out\n        /* \"#utility.yul\":7186:7497   */\n    tag_122:\n        /* \"#utility.yul\":7263:7267   */\n      0x00\n        /* \"#utility.yul\":7353:7371   */\n      0xffffffffffffffff\n        /* \"#utility.yul\":7345:7351   */\n      dup3\n        /* \"#utility.yul\":7342:7372   */\n      gt\n        /* \"#utility.yul\":7339:7395   */\n      iszero\n      tag_238\n      jumpi\n        /* \"#utility.yul\":7375:7393   */\n      tag_239\n      tag_111\n      jump\t// in\n    tag_239:\n        /* \"#utility.yul\":7339:7395   */\n    tag_238:\n        /* \"#utility.yul\":7425:7429   */\n      0x20\n        /* \"#utility.yul\":7417:7423   */\n      dup3\n        /* \"#utility.yul\":7413:7430   */\n      mul\n        /* \"#utility.yul\":7405:7430   */\n      swap1\n      pop\n        /* \"#utility.yul\":7485:7489   */\n      0x20\n        /* \"#utility.yul\":7479:7483   */\n      dup2\n        /* \"#utility.yul\":7475:7490   */\n      add\n        /* \"#utility.yul\":7467:7490   */\n      swap1\n      pop\n        /* \"#utility.yul\":7186:7497   */\n      swap2\n      swap1\n      pop\n      jump\t// out\n        /* \"#utility.yul\":7503:7620   */\n    tag_123:\n        /* \"#utility.yul\":7612:7613   */\n      0x00\n        /* \"#utility.yul\":7609:7610   */\n      dup1\n        /* \"#utility.yul\":7602:7614   */\n      revert\n        /* \"#utility.yul\":7643:8353   */\n    tag_124:\n        /* \"#utility.yul\":7739:7744   */\n      0x00\n        /* \"#utility.yul\":7764:7845   */\n      tag_242\n        /* \"#utility.yul\":7780:7844   */\n      tag_243\n        /* \"#utility.yul\":7837:7843   */\n      dup5\n        /* \"#utility.yul\":7780:7844   */\n      tag_122\n      jump\t// in\n    tag_243:\n        /* \"#utility.yul\":7764:7845   */\n      tag_113\n      jump\t// in\n    tag_242:\n        /* \"#utility.yul\":7755:7845   */\n      swap1\n      pop\n        /* \"#utility.yul\":7865:7870   */\n      dup1\n        /* \"#utility.yul\":7894:7900   */\n      dup4\n        /* \"#utility.yul\":7887:7892   */\n      dup3\n        /* \"#utility.yul\":7880:7901   */\n      mstore\n        /* \"#utility.yul\":7928:7932   */\n      0x20\n        /* \"#utility.yul\":7921:7926   */\n      dup3\n        /* \"#utility.yul\":7917:7933   */\n      add\n        /* \"#utility.yul\":7910:7933   */\n      swap1\n      pop\n        /* \"#utility.yul\":7981:7985   */\n      0x20\n        /* \"#utility.yul\":7973:7979   */\n      dup5\n        /* \"#utility.yul\":7969:7986   */\n      mul\n        /* \"#utility.yul\":7961:7967   */\n      dup4\n        /* \"#utility.yul\":7957:7987   */\n      add\n        /* \"#utility.yul\":8010:8013   */\n      dup6\n        /* \"#utility.yul\":8002:8008   */\n      dup2\n        /* \"#utility.yul\":7999:8014   */\n      gt\n        /* \"#utility.yul\":7996:8118   */\n      iszero\n      tag_244\n      jumpi\n        /* \"#utility.yul\":8029:8108   */\n      tag_245\n      tag_123\n      jump\t// in\n    tag_245:\n        /* \"#utility.yul\":7996:8118   */\n    tag_244:\n        /* \"#utility.yul\":8144:8150   */\n      dup4\n        /* \"#utility.yul\":8127:8347   */\n    tag_246:\n        /* \"#utility.yul\":8161:8167   */\n      dup2\n        /* \"#utility.yul\":8156:8159   */\n      dup2\n        /* \"#utility.yul\":8153:8168   */\n      lt\n        /* \"#utility.yul\":8127:8347   */\n      iszero\n      tag_248\n      jumpi\n        /* \"#utility.yul\":8236:8239   */\n      dup1\n        /* \"#utility.yul\":8265:8302   */\n      tag_249\n        /* \"#utility.yul\":8298:8301   */\n      dup9\n        /* \"#utility.yul\":8286:8296   */\n      dup3\n        /* \"#utility.yul\":8265:8302   */\n      tag_119\n      jump\t// in\n    tag_249:\n        /* \"#utility.yul\":8260:8263   */\n      dup5\n        /* \"#utility.yul\":8253:8303   */\n      mstore\n        /* \"#utility.yul\":8332:8336   */\n      0x20\n        /* \"#utility.yul\":8327:8330   */\n      dup5\n        /* \"#utility.yul\":8323:8337   */\n      add\n        /* \"#utility.yul\":8316:8337   */\n      swap4\n      pop\n        /* \"#utility.yul\":8203:8347   */\n      pop\n        /* \"#utility.yul\":8187:8191   */\n      0x20\n        /* \"#utility.yul\":8182:8185   */\n      dup2\n        /* \"#utility.yul\":8178:8192   */\n      add\n        /* \"#utility.yul\":8171:8192   */\n      swap1\n      pop\n        /* \"#utility.yul\":8127:8347   */\n      jump(tag_246)\n    tag_248:\n        /* \"#utility.yul\":8131:8152   */\n      pop\n        /* \"#utility.yul\":7745:8353   */\n      pop\n      pop\n        /* \"#utility.yul\":7643:8353   */\n      swap4\n      swap3\n      pop\n      pop\n      pop\n      jump\t// out\n        /* \"#utility.yul\":8376:8746   */\n    tag_125:\n        /* \"#utility.yul\":8447:8452   */\n      0x00\n        /* \"#utility.yul\":8496:8499   */\n      dup3\n        /* \"#utility.yul\":8489:8493   */\n      0x1f\n        /* \"#utility.yul\":8481:8487   */\n      dup4\n        /* \"#utility.yul\":8477:8494   */\n      add\n        /* \"#utility.yul\":8473:8500   */\n      slt\n        /* \"#utility.yul\":8463:8585   */\n      tag_251\n      jumpi\n        /* \"#utility.yul\":8504:8583   */\n      tag_252\n      tag_109\n      jump\t// in\n    tag_252:\n        /* \"#utility.yul\":8463:8585   */\n    tag_251:\n        /* \"#utility.yul\":8621:8627   */\n      dup2\n        /* \"#utility.yul\":8608:8628   */\n      calldataload\n        /* \"#utility.yul\":8646:8740   */\n      tag_253\n        /* \"#utility.yul\":8736:8739   */\n      dup5\n        /* \"#utility.yul\":8728:8734   */\n      dup3\n        /* \"#utility.yul\":8721:8725   */\n      0x20\n        /* \"#utility.yul\":8713:8719   */\n      dup7\n        /* \"#utility.yul\":8709:8726   */\n      add\n        /* \"#utility.yul\":8646:8740   */\n      tag_124\n      jump\t// in\n    tag_253:\n        /* \"#utility.yul\":8637:8740   */\n      swap2\n      pop\n        /* \"#utility.yul\":8453:8746   */\n      pop\n        /* \"#utility.yul\":8376:8746   */\n      swap3\n      swap2\n      pop\n      pop\n      jump\t// out\n        /* \"#utility.yul\":8752:9291   */\n    tag_45:\n        /* \"#utility.yul\":8836:8842   */\n      0x00\n        /* \"#utility.yul\":8885:8887   */\n      0x20\n        /* \"#utility.yul\":8873:8882   */\n      dup3\n        /* \"#utility.yul\":8864:8871   */\n      dup5\n        /* \"#utility.yul\":8860:8883   */\n      sub\n        /* \"#utility.yul\":8856:8888   */\n      slt\n        /* \"#utility.yul\":8853:8972   */\n      iszero\n      tag_255\n      jumpi\n        /* \"#utility.yul\":8891:8970   */\n      tag_256\n      tag_95\n      jump\t// in\n    tag_256:\n        /* \"#utility.yul\":8853:8972   */\n    tag_255:\n        /* \"#utility.yul\":9039:9040   */\n      0x00\n        /* \"#utility.yul\":9028:9037   */\n      dup3\n        /* \"#utility.yul\":9024:9041   */\n      add\n        /* \"#utility.yul\":9011:9042   */\n      calldataload\n        /* \"#utility.yul\":9069:9087   */\n      0xffffffffffffffff\n        /* \"#utility.yul\":9061:9067   */\n      dup2\n        /* \"#utility.yul\":9058:9088   */\n      gt\n        /* \"#utility.yul\":9055:9172   */\n      iszero\n      tag_257\n      jumpi\n        /* \"#utility.yul\":9091:9170   */\n      tag_258\n      tag_96\n      jump\t// in\n    tag_258:\n        /* \"#utility.yul\":9055:9172   */\n    tag_257:\n        /* \"#utility.yul\":9196:9274   */\n      tag_259\n        /* \"#utility.yul\":9266:9273   */\n      dup5\n        /* \"#utility.yul\":9257:9263   */\n      dup3\n        /* \"#utility.yul\":9246:9255   */\n      dup6\n        /* \"#utility.yul\":9242:9264   */\n      add\n        /* \"#utility.yul\":9196:9274   */\n      tag_125\n      jump\t// in\n    tag_259:\n        /* \"#utility.yul\":9186:9274   */\n      swap2\n      pop\n        /* \"#utility.yul\":8982:9284   */\n      pop\n        /* \"#utility.yul\":8752:9291   */\n      swap3\n      swap2\n      pop\n      pop\n      jump\t// out\n        /* \"#utility.yul\":9297:9463   */\n    tag_126:\n        /* \"#utility.yul\":9437:9455   */\n      0x566f74696e6720697320636c6f73656400000000000000000000000000000000\n        /* \"#utility.yul\":9433:9434   */\n      0x00\n        /* \"#utility.yul\":9425:9431   */\n      dup3\n        /* \"#utility.yul\":9421:9435   */\n      add\n        /* \"#utility.yul\":9414:9456   */\n      mstore\n        /* \"#utility.yul\":9297:9463   */\n      pop\n      jump\t// out\n        /* \"#utility.yul\":9469:9835   */\n    tag_127:\n        /* \"#utility.yul\":9611:9614   */\n      0x00\n        /* \"#utility.yul\":9632:9699   */\n      tag_262\n        /* \"#utility.yul\":9696:9698   */\n      0x10\n        /* \"#utility.yul\":9691:9694   */\n      dup4\n        /* \"#utility.yul\":9632:9699   */\n      tag_105\n      jump\t// in\n    tag_262:\n        /* \"#utility.yul\":9625:9699   */\n      swap2\n      pop\n        /* \"#utility.yul\":9708:9801   */\n      tag_263\n        /* \"#utility.yul\":9797:9800   */\n      dup3\n        /* \"#utility.yul\":9708:9801   */\n      tag_126\n      jump\t// in\n    tag_263:\n        /* \"#utility.yul\":9826:9828   */\n      0x20\n        /* \"#utility.yul\":9821:9824   */\n      dup3\n        /* \"#utility.yul\":9817:9829   */\n      add\n        /* \"#utility.yul\":9810:9829   */\n      swap1\n      pop\n        /* \"#utility.yul\":9469:9835   */\n      swap2\n      swap1\n      pop\n      jump\t// out\n        /* \"#utility.yul\":9841:10260   */\n    tag_52:\n        /* \"#utility.yul\":10007:10011   */\n      0x00\n        /* \"#utility.yul\":10045:10047   */\n      0x20\n        /* \"#utility.yul\":10034:10043   */\n      dup3\n        /* \"#utility.yul\":10030:10048   */\n      add\n        /* \"#utility.yul\":10022:10048   */\n      swap1\n      pop\n        /* \"#utility.yul\":10094:10103   */\n      dup2\n        /* \"#utility.yul\":10088:10092   */\n      dup2\n        /* \"#utility.yul\":10084:10104   */\n      sub\n        /* \"#utility.yul\":10080:10081   */\n      0x00\n        /* \"#utility.yul\":10069:10078   */\n      dup4\n        /* \"#utility.yul\":10065:10082   */\n      add\n        /* \"#utility.yul\":10058:10105   */\n      mstore\n        /* \"#utility.yul\":10122:10253   */\n      tag_265\n        /* \"#utility.yul\":10248:10252   */\n      dup2\n        /* \"#utility.yul\":10122:10253   */\n      tag_127\n      jump\t// in\n    tag_265:\n        /* \"#utility.yul\":10114:10253   */\n      swap1\n      pop\n        /* \"#utility.yul\":9841:10260   */\n      swap2\n      swap1\n      pop\n      jump\t// out\n        /* \"#utility.yul\":10266:10446   */\n    tag_128:\n        /* \"#utility.yul\":10406:10438   */\n      0x596f7520617265206e6f7420617574686f72697a656420746f20766f74650000\n        /* \"#utility.yul\":10402:10403   */\n      0x00\n        /* \"#utility.yul\":10394:10400   */\n      dup3\n        /* \"#utility.yul\":10390:10404   */\n      add\n        /* \"#utility.yul\":10383:10439   */\n      mstore\n        /* \"#utility.yul\":10266:10446   */\n      pop\n      jump\t// out\n        /* \"#utility.yul\":10452:10818   */\n    tag_129:\n        /* \"#utility.yul\":10594:10597   */\n      0x00\n        /* \"#utility.yul\":10615:10682   */\n      tag_268\n        /* \"#utility.yul\":10679:10681   */\n      0x1e\n        /* \"#utility.yul\":10674:10677   */\n      dup4\n        /* \"#utility.yul\":10615:10682   */\n      tag_105\n      jump\t// in\n    tag_268:\n        /* \"#utility.yul\":10608:10682   */\n      swap2\n      pop\n        /* \"#utility.yul\":10691:10784   */\n      tag_269\n        /* \"#utility.yul\":10780:10783   */\n      dup3\n        /* \"#utility.yul\":10691:10784   */\n      tag_128\n      jump\t// in\n    tag_269:\n        /* \"#utility.yul\":10809:10811   */\n      0x20\n        /* \"#utility.yul\":10804:10807   */\n      dup3\n        /* \"#utility.yul\":10800:10812   */\n      add\n        /* \"#utility.yul\":10793:10812   */\n      swap1\n      pop\n        /* \"#utility.yul\":10452:10818   */\n      swap2\n      swap1\n      pop\n      jump\t// out\n        /* \"#utility.yul\":10824:11243   */\n    tag_56:\n        /* \"#utility.yul\":10990:10994   */\n      0x00\n        /* \"#utility.yul\":11028:11030   */\n      0x20\n        /* \"#utility.yul\":11017:11026   */\n      dup3\n        /* \"#utility.yul\":11013:11031   */\n      add\n        /* \"#utility.yul\":11005:11031   */\n      swap1\n      pop\n        /* \"#utility.yul\":11077:11086   */\n      dup2\n        /* \"#utility.yul\":11071:11075   */\n      dup2\n        /* \"#utility.yul\":11067:11087   */\n      sub\n        /* \"#utility.yul\":11063:11064   */\n      0x00\n        /* \"#utility.yul\":11052:11061   */\n      dup4\n        /* \"#utility.yul\":11048:11065   */\n      add\n        /* \"#utility.yul\":11041:11088   */\n      mstore\n        /* \"#utility.yul\":11105:11236   */\n      tag_271\n        /* \"#utility.yul\":11231:11235   */\n      dup2\n        /* \"#utility.yul\":11105:11236   */\n      tag_129\n      jump\t// in\n    tag_271:\n        /* \"#utility.yul\":11097:11236   */\n      swap1\n      pop\n        /* \"#utility.yul\":10824:11243   */\n      swap2\n      swap1\n      pop\n      jump\t// out\n        /* \"#utility.yul\":11249:11419   */\n    tag_130:\n        /* \"#utility.yul\":11389:11411   */\n      0x496e76616c69642063616e646964617465204944000000000000000000000000\n        /* \"#utility.yul\":11385:11386   */\n      0x00\n        /* \"#utility.yul\":11377:11383   */\n      dup3\n        /* \"#utility.yul\":11373:11387   */\n      add\n        /* \"#utility.yul\":11366:11412   */\n      mstore\n        /* \"#utility.yul\":11249:11419   */\n      pop\n      jump\t// out\n        /* \"#utility.yul\":11425:11791   */\n    tag_131:\n        /* \"#utility.yul\":11567:11570   */\n      0x00\n        /* \"#utility.yul\":11588:11655   */\n      tag_274\n        /* \"#utility.yul\":11652:11654   */\n      0x14\n        /* \"#utility.yul\":11647:11650   */\n      dup4\n        /* \"#utility.yul\":11588:11655   */\n      tag_105\n      jump\t// in\n    tag_274:\n        /* \"#utility.yul\":11581:11655   */\n      swap2\n      pop\n        /* \"#utility.yul\":11664:11757   */\n      tag_275\n        /* \"#utility.yul\":11753:11756   */\n      dup3\n        /* \"#utility.yul\":11664:11757   */\n      tag_130\n      jump\t// in\n    tag_275:\n        /* \"#utility.yul\":11782:11784   */\n      0x20\n        /* \"#utility.yul\":11777:11780   */\n      dup3\n        /* \"#utility.yul\":11773:11785   */\n      add\n        /* \"#utility.yul\":11766:11785   */\n      swap1\n      pop\n        /* \"#utility.yul\":11425:11791   */\n      swap2\n      swap1\n      pop\n      jump\t// out\n        /* \"#utility.yul\":11797:12216   */\n    tag_60:\n        /* \"#utility.yul\":11963:11967   */\n      0x00\n        /* \"#utility.yul\":12001:12003   */\n      0x20\n        /* \"#utility.yul\":11990:11999   */\n      dup3\n        /* \"#utility.yul\":11986:12004   */\n      add\n        /* \"#utility.yul\":11978:12004   */\n      swap1\n      pop\n        /* \"#utility.yul\":12050:12059   */\n      dup2\n        /* \"#utility.yul\":12044:12048   */\n      dup2\n        /* \"#utility.yul\":12040:12060   */\n      sub\n        /* \"#utility.yul\":12036:12037   */\n      0x00\n        /* \"#utility.yul\":12025:12034   */\n      dup4\n        /* \"#utility.yul\":12021:12038   */\n      add\n        /* \"#utility.yul\":12014:12061   */\n      mstore\n        /* \"#utility.yul\":12078:12209   */\n      tag_277\n        /* \"#utility.yul\":12204:12208   */\n      dup2\n        /* \"#utility.yul\":12078:12209   */\n      tag_131\n      jump\t// in\n    tag_277:\n        /* \"#utility.yul\":12070:12209   */\n      swap1\n      pop\n        /* \"#utility.yul\":11797:12216   */\n      swap2\n      swap1\n      pop\n      jump\t// out\n        /* \"#utility.yul\":12222:12402   */\n    tag_132:\n        /* \"#utility.yul\":12270:12347   */\n      0x4e487b7100000000000000000000000000000000000000000000000000000000\n        /* \"#utility.yul\":12267:12268   */\n      0x00\n        /* \"#utility.yul\":12260:12348   */\n      mstore\n        /* \"#utility.yul\":12367:12371   */\n      0x11\n        /* \"#utility.yul\":12364:12365   */\n      0x04\n        /* \"#utility.yul\":12357:12372   */\n      mstore\n        /* \"#utility.yul\":12391:12395   */\n      0x24\n        /* \"#utility.yul\":12388:12389   */\n      0x00\n        /* \"#utility.yul\":12381:12396   */\n      revert\n        /* \"#utility.yul\":12408:12641   */\n    tag_62:\n        /* \"#utility.yul\":12447:12450   */\n      0x00\n        /* \"#utility.yul\":12470:12494   */\n      tag_280\n        /* \"#utility.yul\":12488:12493   */\n      dup3\n        /* \"#utility.yul\":12470:12494   */\n      tag_97\n      jump\t// in\n    tag_280:\n        /* \"#utility.yul\":12461:12494   */\n      swap2\n      pop\n        /* \"#utility.yul\":12516:12582   */\n      0xffffffffffffffffffffffffffffffffffffffffffffffffffffffffffffffff\n        /* \"#utility.yul\":12509:12514   */\n      dup3\n        /* \"#utility.yul\":12506:12583   */\n      sub\n        /* \"#utility.yul\":12503:12606   */\n      tag_281\n      jumpi\n        /* \"#utility.yul\":12586:12604   */\n      tag_282\n      tag_132\n      jump\t// in\n    tag_282:\n        /* \"#utility.yul\":12503:12606   */\n    tag_281:\n        /* \"#utility.yul\":12633:12634   */\n      0x01\n        /* \"#utility.yul\":12626:12631   */\n      dup3\n        /* \"#utility.yul\":12622:12635   */\n      add\n        /* \"#utility.yul\":12615:12635   */\n      swap1\n      pop\n        /* \"#utility.yul\":12408:12641   */\n      swap2\n      swap1\n      pop\n      jump\t// out\n        /* \"#utility.yul\":12647:12827   */\n    tag_133:\n        /* \"#utility.yul\":12695:12772   */\n      0x4e487b7100000000000000000000000000000000000000000000000000000000\n        /* \"#utility.yul\":12692:12693   */\n      0x00\n        /* \"#utility.yul\":12685:12773   */\n      mstore\n        /* \"#utility.yul\":12792:12796   */\n      0x22\n        /* \"#utility.yul\":12789:12790   */\n      0x04\n        /* \"#utility.yul\":12782:12797   */\n      mstore\n        /* \"#utility.yul\":12816:12820   */\n      0x24\n        /* \"#utility.yul\":12813:12814   */\n      0x00\n        /* \"#utility.yul\":12806:12821   */\n      revert\n        /* \"#utility.yul\":12833:13153   */\n    tag_64:\n        /* \"#utility.yul\":12877:12883   */\n      0x00\n        /* \"#utility.yul\":12914:12915   */\n      0x02\n        /* \"#utility.yul\":12908:12912   */\n      dup3\n        /* \"#utility.yul\":12904:12916   */\n      div\n        /* \"#utility.yul\":12894:12916   */\n      swap1\n      pop\n        /* \"#utility.yul\":12961:12962   */\n      0x01\n        /* \"#utility.yul\":12955:12959   */\n      dup3\n        /* \"#utility.yul\":12951:12963   */\n      and\n        /* \"#utility.yul\":12982:13000   */\n      dup1\n        /* \"#utility.yul\":12972:13053   */\n      tag_285\n      jumpi\n        /* \"#utility.yul\":13038:13042   */\n      0x7f\n        /* \"#utility.yul\":13030:13036   */\n      dup3\n        /* \"#utility.yul\":13026:13043   */\n      and\n        /* \"#utility.yul\":13016:13043   */\n      swap2\n      pop\n        /* \"#utility.yul\":12972:13053   */\n    tag_285:\n        /* \"#utility.yul\":13100:13102   */\n      0x20\n        /* \"#utility.yul\":13092:13098   */\n      dup3\n        /* \"#utility.yul\":13089:13103   */\n      lt\n        /* \"#utility.yul\":13069:13087   */\n      dup2\n        /* \"#utility.yul\":13066:13104   */\n      sub\n        /* \"#utility.yul\":13063:13147   */\n      tag_286\n      jumpi\n        /* \"#utility.yul\":13119:13137   */\n      tag_287\n      tag_133\n      jump\t// in\n    tag_287:\n        /* \"#utility.yul\":13063:13147   */\n    tag_286:\n        /* \"#utility.yul\":12884:13153   */\n      pop\n        /* \"#utility.yul\":12833:13153   */\n      swap2\n      swap1\n      pop\n      jump\t// out\n        /* \"#utility.yul\":13159:13386   */\n    tag_134:\n        /* \"#utility.yul\":13299:13333   */\n      0x4f6e6c79206368616972706572736f6e2063616e20706572666f726d20746869\n        /* \"#utility.yul\":13295:13296   */\n      0x00\n        /* \"#utility.yul\":13287:13293   */\n      dup3\n        /* \"#utility.yul\":13283:13297   */\n      add\n        /* \"#utility.yul\":13276:13334   */\n      mstore\n        /* \"#utility.yul\":13368:13378   */\n      0x7320616374696f6e000000000000000000000000000000000000000000000000\n        /* \"#utility.yul\":13363:13365   */\n      0x20\n        /* \"#utility.yul\":13355:13361   */\n      dup3\n        /* \"#utility.yul\":13351:13366   */\n      add\n        /* \"#utility.yul\":13344:13379   */\n      mstore\n        /* \"#utility.yul\":13159:13386   */\n      pop\n      jump\t// out\n        /* \"#utility.yul\":13392:13758   */\n    tag_135:\n        /* \"#utility.yul\":13534:13537   */\n      0x00\n        /* \"#utility.yul\":13555:13622   */\n      tag_290\n        /* \"#utility.yul\":13619:13621   */\n      0x28\n        /* \"#utility.yul\":13614:13617   */\n      dup4\n        /* \"#utility.yul\":13555:13622   */\n      tag_105\n      jump\t// in\n    tag_290:\n        /* \"#utility.yul\":13548:13622   */\n      swap2\n      pop\n        /* \"#utility.yul\":13631:13724   */\n      tag_291\n        /* \"#utility.yul\":13720:13723   */\n      dup3\n        /* \"#utility.yul\":13631:13724   */\n      tag_134\n      jump\t// in\n    tag_291:\n        /* \"#utility.yul\":13749:13751   */\n      0x40\n        /* \"#utility.yul\":13744:13747   */\n      dup3\n        /* \"#utility.yul\":13740:13752   */\n      add\n        /* \"#utility.yul\":13733:13752   */\n      swap1\n      pop\n        /* \"#utility.yul\":13392:13758   */\n      swap2\n      swap1\n      pop\n      jump\t// out\n        /* \"#utility.yul\":13764:14183   */\n    tag_72:\n        /* \"#utility.yul\":13930:13934   */\n      0x00\n        /* \"#utility.yul\":13968:13970   */\n      0x20\n        /* \"#utility.yul\":13957:13966   */\n      dup3\n        /* \"#utility.yul\":13953:13971   */\n      add\n        /* \"#utility.yul\":13945:13971   */\n      swap1\n      pop\n        /* \"#utility.yul\":14017:14026   */\n      dup2\n        /* \"#utility.yul\":14011:14015   */\n      dup2\n        /* \"#utility.yul\":14007:14027   */\n      sub\n        /* \"#utility.yul\":14003:14004   */\n      0x00\n        /* \"#utility.yul\":13992:14001   */\n      dup4\n        /* \"#utility.yul\":13988:14005   */\n      add\n        /* \"#utility.yul\":13981:14028   */\n      mstore\n        /* \"#utility.yul\":14045:14176   */\n      tag_293\n        /* \"#utility.yul\":14171:14175   */\n      dup2\n        /* \"#utility.yul\":14045:14176   */\n      tag_135\n      jump\t// in\n    tag_293:\n        /* \"#utility.yul\":14037:14176   */\n      swap1\n      pop\n        /* \"#utility.yul\":13764:14183   */\n      swap2\n      swap1\n      pop\n      jump\t// out\n        /* \"#utility.yul\":14189:14330   */\n    tag_136:\n        /* \"#utility.yul\":14238:14242   */\n      0x00\n        /* \"#utility.yul\":14261:14264   */\n      dup2\n        /* \"#utility.yul\":14253:14264   */\n      swap1\n      pop\n        /* \"#utility.yul\":14284:14287   */\n      dup2\n        /* \"#utility.yul\":14281:14282   */\n      0x00\n        /* \"#utility.yul\":14274:14288   */\n      mstore\n        /* \"#utility.yul\":14318:14322   */\n      0x20\n        /* \"#utility.yul\":14315:14316   */\n      0x00\n        /* \"#utility.yul\":14305:14323   */\n      keccak256\n        /* \"#utility.yul\":14297:14323   */\n      swap1\n      pop\n        /* \"#utility.yul\":14189:14330   */\n      swap2\n      swap1\n      pop\n      jump\t// out\n        /* \"#utility.yul\":14336:14429   */\n    tag_137:\n        /* \"#utility.yul\":14373:14379   */\n      0x00\n        /* \"#utility.yul\":14420:14422   */\n      0x20\n        /* \"#utility.yul\":14415:14417   */\n      0x1f\n        /* \"#utility.yul\":14408:14413   */\n      dup4\n        /* \"#utility.yul\":14404:14418   */\n      add\n        /* \"#utility.yul\":14400:14423   */\n      div\n        /* \"#utility.yul\":14390:14423   */\n      swap1\n      pop\n        /* \"#utility.yul\":14336:14429   */\n      swap2\n      swap1\n      pop\n      jump\t// out\n        /* \"#utility.yul\":14435:14542   */\n    tag_138:\n        /* \"#utility.yul\":14479:14487   */\n      0x00\n        /* \"#utility.yul\":14529:14534   */\n      dup3\n        /* \"#utility.yul\":14523:14527   */\n      dup3\n        /* \"#utility.yul\":14519:14535   */\n      shl\n        /* \"#utility.yul\":14498:14535   */\n      swap1\n      pop\n        /* \"#utility.yul\":14435:14542   */\n      swap3\n      swap2\n      pop\n      pop\n      jump\t// out\n        /* \"#utility.yul\":14548:14941   */\n    tag_139:\n        /* \"#utility.yul\":14617:14623   */\n      0x00\n        /* \"#utility.yul\":14667:14668   */\n      0x08\n        /* \"#utility.yul\":14655:14665   */\n      dup4\n        /* \"#utility.yul\":14651:14669   */\n      mul\n        /* \"#utility.yul\":14690:14787   */\n      tag_298\n        /* \"#utility.yul\":14720:14786   */\n      0xffffffffffffffffffffffffffffffffffffffffffffffffffffffffffffffff\n        /* \"#utility.yul\":14709:14718   */\n      dup3\n        /* \"#utility.yul\":14690:14787   */\n      tag_138\n      jump\t// in\n    tag_298:\n        /* \"#utility.yul\":14808:14847   */\n      tag_299\n        /* \"#utility.yul\":14838:14846   */\n      dup7\n        /* \"#utility.yul\":14827:14836   */\n      dup4\n        /* \"#utility.yul\":14808:14847   */\n      tag_138\n      jump\t// in\n    tag_299:\n        /* \"#utility.yul\":14796:14847   */\n      swap6\n      pop\n        /* \"#utility.yul\":14880:14884   */\n      dup1\n        /* \"#utility.yul\":14876:14885   */\n      not\n        /* \"#utility.yul\":14869:14874   */\n      dup5\n        /* \"#utility.yul\":14865:14886   */\n      and\n        /* \"#utility.yul\":14856:14886   */\n      swap4\n      pop\n        /* \"#utility.yul\":14929:14933   */\n      dup1\n        /* \"#utility.yul\":14919:14927   */\n      dup7\n        /* \"#utility.yul\":14915:14934   */\n      and\n        /* \"#utility.yul\":14908:14913   */\n      dup5\n        /* \"#utility.yul\":14905:14935   */\n      or\n        /* \"#utility.yul\":14895:14935   */\n      swap3\n      pop\n        /* \"#utility.yul\":14624:14941   */\n      pop\n      pop\n        /* \"#utility.yul\":14548:14941   */\n      swap4\n      swap3\n      pop\n      pop\n      pop\n      jump\t// out\n        /* \"#utility.yul\":14947:15007   */\n    tag_140:\n        /* \"#utility.yul\":14975:14978   */\n      0x00\n        /* \"#utility.yul\":14996:15001   */\n      dup2\n        /* \"#utility.yul\":14989:15001   */\n      swap1\n      pop\n        /* \"#utility.yul\":14947:15007   */\n      swap2\n      swap1\n      pop\n      jump\t// out\n        /* \"#utility.yul\":15013:15155   */\n    tag_141:\n        /* \"#utility.yul\":15063:15072   */\n      0x00\n        /* \"#utility.yul\":15096:15149   */\n      tag_302\n        /* \"#utility.yul\":15114:15148   */\n      tag_303\n        /* \"#utility.yul\":15123:15147   */\n      tag_304\n        /* \"#utility.yul\":15141:15146   */\n      dup5\n        /* \"#utility.yul\":15123:15147   */\n      tag_97\n      jump\t// in\n    tag_304:\n        /* \"#utility.yul\":15114:15148   */\n      tag_140\n      jump\t// in\n    tag_303:\n        /* \"#utility.yul\":15096:15149   */\n      tag_97\n      jump\t// in\n    tag_302:\n        /* \"#utility.yul\":15083:15149   */\n      swap1\n      pop\n        /* \"#utility.yul\":15013:15155   */\n      swap2\n      swap1\n      pop\n      jump\t// out\n        /* \"#utility.yul\":15161:15236   */\n    tag_142:\n        /* \"#utility.yul\":15204:15207   */\n      0x00\n        /* \"#utility.yul\":15225:15230   */\n      dup2\n        /* \"#utility.yul\":15218:15230   */\n      swap1\n      pop\n        /* \"#utility.yul\":15161:15236   */\n      swap2\n      swap1\n      pop\n      jump\t// out\n        /* \"#utility.yul\":15242:15511   */\n    tag_143:\n        /* \"#utility.yul\":15352:15391   */\n      tag_307\n        /* \"#utility.yul\":15383:15390   */\n      dup4\n        /* \"#utility.yul\":15352:15391   */\n      tag_141\n      jump\t// in\n    tag_307:\n        /* \"#utility.yul\":15413:15504   */\n      tag_308\n        /* \"#utility.yul\":15462:15503   */\n      tag_309\n        /* \"#utility.yul\":15486:15502   */\n      dup3\n        /* \"#utility.yul\":15462:15503   */\n      tag_142\n      jump\t// in\n    tag_309:\n        /* \"#utility.yul\":15454:15460   */\n      dup5\n        /* \"#utility.yul\":15447:15451   */\n      dup5\n        /* \"#utility.yul\":15441:15452   */\n      sload\n        /* \"#utility.yul\":15413:15504   */\n      tag_139\n      jump\t// in\n    tag_308:\n        /* \"#utility.yul\":15407:15411   */\n      dup3\n        /* \"#utility.yul\":15400:15505   */\n      sstore\n        /* \"#utility.yul\":15318:15511   */\n      pop\n        /* \"#utility.yul\":15242:15511   */\n      pop\n      pop\n      pop\n      jump\t// out\n        /* \"#utility.yul\":15517:15590   */\n    tag_144:\n        /* \"#utility.yul\":15562:15565   */\n      0x00\n        /* \"#utility.yul\":15517:15590   */\n      swap1\n      jump\t// out\n        /* \"#utility.yul\":15596:15785   */\n    tag_145:\n        /* \"#utility.yul\":15673:15705   */\n      tag_312\n      tag_144\n      jump\t// in\n    tag_312:\n        /* \"#utility.yul\":15714:15779   */\n      tag_313\n        /* \"#utility.yul\":15772:15778   */\n      dup2\n        /* \"#utility.yul\":15764:15770   */\n      dup5\n        /* \"#utility.yul\":15758:15762   */\n      dup5\n        /* \"#utility.yul\":15714:15779   */\n      tag_143\n      jump\t// in\n    tag_313:\n        /* \"#utility.yul\":15649:15785   */\n      pop\n        /* \"#utility.yul\":15596:15785   */\n      pop\n      pop\n      jump\t// out\n        /* \"#utility.yul\":15791:15977   */\n    tag_146:\n        /* \"#utility.yul\":15851:15971   */\n    tag_315:\n        /* \"#utility.yul\":15868:15871   */\n      dup2\n        /* \"#utility.yul\":15861:15866   */\n      dup2\n        /* \"#utility.yul\":15858:15872   */\n      lt\n        /* \"#utility.yul\":15851:15971   */\n      iszero\n      tag_317\n      jumpi\n        /* \"#utility.yul\":15922:15961   */\n      tag_318\n        /* \"#utility.yul\":15959:15960   */\n      0x00\n        /* \"#utility.yul\":15952:15957   */\n      dup3\n        /* \"#utility.yul\":15922:15961   */\n      tag_145\n      jump\t// in\n    tag_318:\n        /* \"#utility.yul\":15895:15896   */\n      0x01\n        /* \"#utility.yul\":15888:15893   */\n      dup2\n        /* \"#utility.yul\":15884:15897   */\n      add\n        /* \"#utility.yul\":15875:15897   */\n      swap1\n      pop\n        /* \"#utility.yul\":15851:15971   */\n      jump(tag_315)\n    tag_317:\n        /* \"#utility.yul\":15791:15977   */\n      pop\n      pop\n      jump\t// out\n        /* \"#utility.yul\":15983:16526   */\n    tag_147:\n        /* \"#utility.yul\":16084:16086   */\n      0x1f\n        /* \"#utility.yul\":16079:16082   */\n      dup3\n        /* \"#utility.yul\":16076:16087   */\n      gt\n        /* \"#utility.yul\":16073:16519   */\n      iszero\n      tag_320\n      jumpi\n        /* \"#utility.yul\":16118:16156   */\n      tag_321\n        /* \"#utility.yul\":16150:16155   */\n      dup2\n        /* \"#utility.yul\":16118:16156   */\n      tag_136\n      jump\t// in\n    tag_321:\n        /* \"#utility.yul\":16202:16231   */\n      tag_322\n        /* \"#utility.yul\":16220:16230   */\n      dup5\n        /* \"#utility.yul\":16202:16231   */\n      tag_137\n      jump\t// in\n    tag_322:\n        /* \"#utility.yul\":16192:16200   */\n      dup2\n        /* \"#utility.yul\":16188:16232   */\n      add\n        /* \"#utility.yul\":16385:16387   */\n      0x20\n        /* \"#utility.yul\":16373:16383   */\n      dup6\n        /* \"#utility.yul\":16370:16388   */\n      lt\n        /* \"#utility.yul\":16367:16416   */\n      iszero\n      tag_323\n      jumpi\n        /* \"#utility.yul\":16406:16414   */\n      dup2\n        /* \"#utility.yul\":16391:16414   */\n      swap1\n      pop\n        /* \"#utility.yul\":16367:16416   */\n    tag_323:\n        /* \"#utility.yul\":16429:16509   */\n      tag_324\n        /* \"#utility.yul\":16485:16507   */\n      tag_325\n        /* \"#utility.yul\":16503:16506   */\n      dup6\n        /* \"#utility.yul\":16485:16507   */\n      tag_137\n      jump\t// in\n    tag_325:\n        /* \"#utility.yul\":16475:16483   */\n      dup4\n        /* \"#utility.yul\":16471:16508   */\n      add\n        /* \"#utility.yul\":16458:16469   */\n      dup3\n        /* \"#utility.yul\":16429:16509   */\n      tag_146\n      jump\t// in\n    tag_324:\n        /* \"#utility.yul\":16088:16519   */\n      pop\n      pop\n        /* \"#utility.yul\":16073:16519   */\n    tag_320:\n        /* \"#utility.yul\":15983:16526   */\n      pop\n      pop\n      pop\n      jump\t// out\n        /* \"#utility.yul\":16532:16649   */\n    tag_148:\n        /* \"#utility.yul\":16586:16594   */\n      0x00\n        /* \"#utility.yul\":16636:16641   */\n      dup3\n        /* \"#utility.yul\":16630:16634   */\n      dup3\n        /* \"#utility.yul\":16626:16642   */\n      shr\n        /* \"#utility.yul\":16605:16642   */\n      swap1\n      pop\n        /* \"#utility.yul\":16532:16649   */\n      swap3\n      swap2\n      pop\n      pop\n      jump\t// out\n        /* \"#utility.yul\":16655:16824   */\n    tag_149:\n        /* \"#utility.yul\":16699:16705   */\n      0x00\n        /* \"#utility.yul\":16732:16783   */\n      tag_328\n        /* \"#utility.yul\":16780:16781   */\n      0x00\n        /* \"#utility.yul\":16776:16782   */\n      not\n        /* \"#utility.yul\":16768:16773   */\n      dup5\n        /* \"#utility.yul\":16765:16766   */\n      0x08\n        /* \"#utility.yul\":16761:16774   */\n      mul\n        /* \"#utility.yul\":16732:16783   */\n      tag_148\n      jump\t// in\n    tag_328:\n        /* \"#utility.yul\":16728:16784   */\n      not\n        /* \"#utility.yul\":16813:16817   */\n      dup1\n        /* \"#utility.yul\":16807:16811   */\n      dup4\n        /* \"#utility.yul\":16803:16818   */\n      and\n        /* \"#utility.yul\":16793:16818   */\n      swap2\n      pop\n        /* \"#utility.yul\":16706:16824   */\n      pop\n        /* \"#utility.yul\":16655:16824   */\n      swap3\n      swap2\n      pop\n      pop\n      jump\t// out\n        /* \"#utility.yul\":16829:17124   */\n    tag_150:\n        /* \"#utility.yul\":16905:16909   */\n      0x00\n        /* \"#utility.yul\":17051:17080   */\n      tag_330\n        /* \"#utility.yul\":17076:17079   */\n      dup4\n        /* \"#utility.yul\":17070:17074   */\n      dup4\n        /* \"#utility.yul\":17051:17080   */\n      tag_149\n      jump\t// in\n    tag_330:\n        /* \"#utility.yul\":17043:17080   */\n      swap2\n      pop\n        /* \"#utility.yul\":17113:17116   */\n      dup3\n        /* \"#utility.yul\":17110:17111   */\n      0x02\n        /* \"#utility.yul\":17106:17117   */\n      mul\n        /* \"#utility.yul\":17100:17104   */\n      dup3\n        /* \"#utility.yul\":17097:17118   */\n      or\n        /* \"#utility.yul\":17089:17118   */\n      swap1\n      pop\n        /* \"#utility.yul\":16829:17124   */\n      swap3\n      swap2\n      pop\n      pop\n      jump\t// out\n        /* \"#utility.yul\":17129:18524   */\n    tag_79:\n        /* \"#utility.yul\":17246:17283   */\n      tag_332\n        /* \"#utility.yul\":17279:17282   */\n      dup3\n        /* \"#utility.yul\":17246:17283   */\n      tag_104\n      jump\t// in\n    tag_332:\n        /* \"#utility.yul\":17348:17366   */\n      0xffffffffffffffff\n        /* \"#utility.yul\":17340:17346   */\n      dup2\n        /* \"#utility.yul\":17337:17367   */\n      gt\n        /* \"#utility.yul\":17334:17390   */\n      iszero\n      tag_333\n      jumpi\n        /* \"#utility.yul\":17370:17388   */\n      tag_334\n      tag_111\n      jump\t// in\n    tag_334:\n        /* \"#utility.yul\":17334:17390   */\n    tag_333:\n        /* \"#utility.yul\":17414:17452   */\n      tag_335\n        /* \"#utility.yul\":17446:17450   */\n      dup3\n        /* \"#utility.yul\":17440:17451   */\n      sload\n        /* \"#utility.yul\":17414:17452   */\n      tag_64\n      jump\t// in\n    tag_335:\n        /* \"#utility.yul\":17499:17566   */\n      tag_336\n        /* \"#utility.yul\":17559:17565   */\n      dup3\n        /* \"#utility.yul\":17551:17557   */\n      dup3\n        /* \"#utility.yul\":17545:17549   */\n      dup6\n        /* \"#utility.yul\":17499:17566   */\n      tag_147\n      jump\t// in\n    tag_336:\n        /* \"#utility.yul\":17593:17594   */\n      0x00\n        /* \"#utility.yul\":17617:17621   */\n      0x20\n        /* \"#utility.yul\":17604:17621   */\n      swap1\n      pop\n        /* \"#utility.yul\":17649:17651   */\n      0x1f\n        /* \"#utility.yul\":17641:17647   */\n      dup4\n        /* \"#utility.yul\":17638:17652   */\n      gt\n        /* \"#utility.yul\":17666:17667   */\n      0x01\n        /* \"#utility.yul\":17661:18279   */\n      dup2\n      eq\n      tag_338\n      jumpi\n        /* \"#utility.yul\":18323:18324   */\n      0x00\n        /* \"#utility.yul\":18340:18346   */\n      dup5\n        /* \"#utility.yul\":18337:18414   */\n      iszero\n      tag_339\n      jumpi\n        /* \"#utility.yul\":18389:18398   */\n      dup3\n        /* \"#utility.yul\":18384:18387   */\n      dup8\n        /* \"#utility.yul\":18380:18399   */\n      add\n        /* \"#utility.yul\":18374:18400   */\n      mload\n        /* \"#utility.yul\":18365:18400   */\n      swap1\n      pop\n        /* \"#utility.yul\":18337:18414   */\n    tag_339:\n        /* \"#utility.yul\":18440:18507   */\n      tag_340\n        /* \"#utility.yul\":18500:18506   */\n      dup6\n        /* \"#utility.yul\":18493:18498   */\n      dup3\n        /* \"#utility.yul\":18440:18507   */\n      tag_150\n      jump\t// in\n    tag_340:\n        /* \"#utility.yul\":18434:18438   */\n      dup7\n        /* \"#utility.yul\":18427:18508   */\n      sstore\n        /* \"#utility.yul\":18296:18518   */\n      pop\n        /* \"#utility.yul\":17631:18518   */\n      jump(tag_337)\n        /* \"#utility.yul\":17661:18279   */\n    tag_338:\n        /* \"#utility.yul\":17713:17717   */\n      0x1f\n        /* \"#utility.yul\":17709:17718   */\n      not\n        /* \"#utility.yul\":17701:17707   */\n      dup5\n        /* \"#utility.yul\":17697:17719   */\n      and\n        /* \"#utility.yul\":17747:17784   */\n      tag_341\n        /* \"#utility.yul\":17779:17783   */\n      dup7\n        /* \"#utility.yul\":17747:17784   */\n      tag_136\n      jump\t// in\n    tag_341:\n        /* \"#utility.yul\":17806:17807   */\n      0x00\n        /* \"#utility.yul\":17820:18028   */\n    tag_342:\n        /* \"#utility.yul\":17834:17841   */\n      dup3\n        /* \"#utility.yul\":17831:17832   */\n      dup2\n        /* \"#utility.yul\":17828:17842   */\n      lt\n        /* \"#utility.yul\":17820:18028   */\n      iszero\n      tag_344\n      jumpi\n        /* \"#utility.yul\":17913:17922   */\n      dup5\n        /* \"#utility.yul\":17908:17911   */\n      dup10\n        /* \"#utility.yul\":17904:17923   */\n      add\n        /* \"#utility.yul\":17898:17924   */\n      mload\n        /* \"#utility.yul\":17890:17896   */\n      dup3\n        /* \"#utility.yul\":17883:17925   */\n      sstore\n        /* \"#utility.yul\":17964:17965   */\n      0x01\n        /* \"#utility.yul\":17956:17962   */\n      dup3\n        /* \"#utility.yul\":17952:17966   */\n      add\n        /* \"#utility.yul\":17942:17966   */\n      swap2\n      pop\n        /* \"#utility.yul\":18011:18013   */\n      0x20\n        /* \"#utility.yul\":18000:18009   */\n      dup6\n        /* \"#utility.yul\":17996:18014   */\n      add\n        /* \"#utility.yul\":17983:18014   */\n      swap5\n      pop\n        /* \"#utility.yul\":17857:17861   */\n      0x20\n        /* \"#utility.yul\":17854:17855   */\n      dup2\n        /* \"#utility.yul\":17850:17862   */\n      add\n        /* \"#utility.yul\":17845:17862   */\n      swap1\n      pop\n        /* \"#utility.yul\":17820:18028   */\n      jump(tag_342)\n    tag_344:\n        /* \"#utility.yul\":18056:18062   */\n      dup7\n        /* \"#utility.yul\":18047:18054   */\n      dup4\n        /* \"#utility.yul\":18044:18063   */\n      lt\n        /* \"#utility.yul\":18041:18220   */\n      iszero\n      tag_345\n      jumpi\n        /* \"#utility.yul\":18114:18123   */\n      dup5\n        /* \"#utility.yul\":18109:18112   */\n      dup10\n        /* \"#utility.yul\":18105:18124   */\n      add\n        /* \"#utility.yul\":18099:18125   */\n      mload\n        /* \"#utility.yul\":18157:18205   */\n      tag_346\n        /* \"#utility.yul\":18199:18203   */\n      0x1f\n        /* \"#utility.yul\":18191:18197   */\n      dup10\n        /* \"#utility.yul\":18187:18204   */\n      and\n        /* \"#utility.yul\":18176:18185   */\n      dup3\n        /* \"#utility.yul\":18157:18205   */\n      tag_149\n      jump\t// in\n    tag_346:\n        /* \"#utility.yul\":18149:18155   */\n      dup4\n        /* \"#utility.yul\":18142:18206   */\n      sstore\n        /* \"#utility.yul\":18064:18220   */\n      pop\n        /* \"#utility.yul\":18041:18220   */\n    tag_345:\n        /* \"#utility.yul\":18266:18267   */\n      0x01\n        /* \"#utility.yul\":18262:18263   */\n      0x02\n        /* \"#utility.yul\":18254:18260   */\n      dup9\n        /* \"#utility.yul\":18250:18264   */\n      mul\n        /* \"#utility.yul\":18246:18268   */\n      add\n        /* \"#utility.yul\":18240:18244   */\n      dup9\n        /* \"#utility.yul\":18233:18269   */\n      sstore\n        /* \"#utility.yul\":17668:18279   */\n      pop\n      pop\n      pop\n        /* \"#utility.yul\":17631:18518   */\n    tag_337:\n      pop\n        /* \"#utility.yul\":17221:18524   */\n      pop\n      pop\n      pop\n        /* \"#utility.yul\":17129:18524   */\n      pop\n      pop\n      jump\t// out\n        /* \"#utility.yul\":18530:18710   */\n    tag_89:\n        /* \"#utility.yul\":18578:18655   */\n      0x4e487b7100000000000000000000000000000000000000000000000000000000\n        /* \"#utility.yul\":18575:18576   */\n      0x00\n        /* \"#utility.yul\":18568:18656   */\n      mstore\n        /* \"#utility.yul\":18675:18679   */\n      0x32\n        /* \"#utility.yul\":18672:18673   */\n      0x04\n        /* \"#utility.yul\":18665:18680   */\n      mstore\n        /* \"#utility.yul\":18699:18703   */\n      0x24\n        /* \"#utility.yul\":18696:18697   */\n      0x00\n        /* \"#utility.yul\":18689:18704   */\n      revert\n\n    auxdata: 0xa264697066735822122093403ca51991cd14b6bc3588ac8859cc67abf48f4b31d7391194011edab20ce364736f6c63430008160033\n}\n",
				"bytecode": {
					"linkReferences": {},
					"object": "608060405234801561000f575f80fd5b50335f806101000a81548173ffffffffffffffffffffffffffffffffffffffff021916908373ffffffffffffffffffffffffffffffffffffffff160217905550600160025f6101000a81548160ff021916908315150217905550611163806100765f395ff3fe608060405234801561000f575f80fd5b5060043610610091575f3560e01c8063462e91ec11610064578063462e91ec1461011f578063a3ec138d1461013b578063a95824b41461016b578063d434ab7014610189578063fab2f86b146101a557610091565b80630121b93f146100955780632d35a8a2146100b15780632e4176cf146100cf5780633477ee2e146100ed575b5f80fd5b6100af60048036038101906100aa9190610786565b6101af565b005b6100b961032f565b6040516100c691906107c0565b60405180910390f35b6100d7610335565b6040516100e49190610818565b60405180910390f35b61010760048036038101906101029190610786565b610358565b604051610116939291906108bb565b60405180910390f35b61013960048036038101906101349190610a23565b610404565b005b61015560048036038101906101509190610a94565b610554565b6040516101629190610ad9565b60405180910390f35b610173610571565b6040516101809190610ad9565b60405180910390f35b6101a3600480360381019061019e9190610bb6565b610583565b005b6101ad61069a565b005b60025f9054906101000a900460ff166101fd576040517f08c379a00000000000000000000000000000000000000000000000000000000081526004016101f490610c47565b60405180910390fd5b60015f3373ffffffffffffffffffffffffffffffffffffffff1673ffffffffffffffffffffffffffffffffffffffff1681526020019081526020015f205f9054906101000a900460ff16610286576040517f08c379a000000000000000000000000000000000000000000000000000000000815260040161027d90610caf565b60405180910390fd5b5f8111801561029757506004548111155b6102d6576040517f08c379a00000000000000000000000000000000000000000000000000000000081526004016102cd90610d17565b60405180910390fd5b60035f8281526020019081526020015f206002015f8154809291906102fa90610d62565b9190505550807f7f511e347bf51eed3be100b3194247d5207f05f3b33de7d31e3e8ee73199a04960405160405180910390a250565b60045481565b5f8054906101000a900473ffffffffffffffffffffffffffffffffffffffff1681565b6003602052805f5260405f205f91509050805f01549080600101805461037d90610dd6565b80601f01602080910402602001604051908101604052809291908181526020018280546103a990610dd6565b80156103f45780601f106103cb576101008083540402835291602001916103f4565b820191905f5260205f20905b8154815290600101906020018083116103d757829003601f168201915b5050505050908060020154905083565b5f8054906101000a900473ffffffffffffffffffffffffffffffffffffffff1673ffffffffffffffffffffffffffffffffffffffff163373ffffffffffffffffffffffffffffffffffffffff1614610491576040517f08c379a000000000000000000000000000000000000000000000000000000000815260040161048890610e76565b60405180910390fd5b60025f9054906101000a900460ff166104df576040517f08c379a00000000000000000000000000000000000000000000000000000000081526004016104d690610c47565b60405180910390fd5b60045f8154809291906104f190610d62565b9190505550604051806060016040528060045481526020018281526020015f81525060035f60045481526020019081526020015f205f820151815f015560208201518160010190816105439190611031565b506040820151816002015590505050565b6001602052805f5260405f205f915054906101000a900460ff1681565b60025f9054906101000a900460ff1681565b5f8054906101000a900473ffffffffffffffffffffffffffffffffffffffff1673ffffffffffffffffffffffffffffffffffffffff163373ffffffffffffffffffffffffffffffffffffffff1614610610576040517f08c379a000000000000000000000000000000000000000000000000000000000815260040161060790610e76565b60405180910390fd5b5f5b8151811015610696576001805f84848151811061063257610631611100565b5b602002602001015173ffffffffffffffffffffffffffffffffffffffff1673ffffffffffffffffffffffffffffffffffffffff1681526020019081526020015f205f6101000a81548160ff0219169083151502179055508080600101915050610612565b5050565b5f8054906101000a900473ffffffffffffffffffffffffffffffffffffffff1673ffffffffffffffffffffffffffffffffffffffff163373ffffffffffffffffffffffffffffffffffffffff1614610727576040517f08c379a000000000000000000000000000000000000000000000000000000000815260040161071e90610e76565b60405180910390fd5b5f60025f6101000a81548160ff021916908315150217905550565b5f604051905090565b5f80fd5b5f80fd5b5f819050919050565b61076581610753565b811461076f575f80fd5b50565b5f813590506107808161075c565b92915050565b5f6020828403121561079b5761079a61074b565b5b5f6107a884828501610772565b91505092915050565b6107ba81610753565b82525050565b5f6020820190506107d35f8301846107b1565b92915050565b5f73ffffffffffffffffffffffffffffffffffffffff82169050919050565b5f610802826107d9565b9050919050565b610812816107f8565b82525050565b5f60208201905061082b5f830184610809565b92915050565b5f81519050919050565b5f82825260208201905092915050565b5f5b8381101561086857808201518184015260208101905061084d565b5f8484015250505050565b5f601f19601f8301169050919050565b5f61088d82610831565b610897818561083b565b93506108a781856020860161084b565b6108b081610873565b840191505092915050565b5f6060820190506108ce5f8301866107b1565b81810360208301526108e08185610883565b90506108ef60408301846107b1565b949350505050565b5f80fd5b5f80fd5b7f4e487b71000000000000000000000000000000000000000000000000000000005f52604160045260245ffd5b61093582610873565b810181811067ffffffffffffffff82111715610954576109536108ff565b5b80604052505050565b5f610966610742565b9050610972828261092c565b919050565b5f67ffffffffffffffff821115610991576109906108ff565b5b61099a82610873565b9050602081019050919050565b828183375f83830152505050565b5f6109c76109c284610977565b61095d565b9050828152602081018484840111156109e3576109e26108fb565b5b6109ee8482856109a7565b509392505050565b5f82601f830112610a0a57610a096108f7565b5b8135610a1a8482602086016109b5565b91505092915050565b5f60208284031215610a3857610a3761074b565b5b5f82013567ffffffffffffffff811115610a5557610a5461074f565b5b610a61848285016109f6565b91505092915050565b610a73816107f8565b8114610a7d575f80fd5b50565b5f81359050610a8e81610a6a565b92915050565b5f60208284031215610aa957610aa861074b565b5b5f610ab684828501610a80565b91505092915050565b5f8115159050919050565b610ad381610abf565b82525050565b5f602082019050610aec5f830184610aca565b92915050565b5f67ffffffffffffffff821115610b0c57610b0b6108ff565b5b602082029050602081019050919050565b5f80fd5b5f610b33610b2e84610af2565b61095d565b90508083825260208201905060208402830185811115610b5657610b55610b1d565b5b835b81811015610b7f5780610b6b8882610a80565b845260208401935050602081019050610b58565b5050509392505050565b5f82601f830112610b9d57610b9c6108f7565b5b8135610bad848260208601610b21565b91505092915050565b5f60208284031215610bcb57610bca61074b565b5b5f82013567ffffffffffffffff811115610be857610be761074f565b5b610bf484828501610b89565b91505092915050565b7f566f74696e6720697320636c6f736564000000000000000000000000000000005f82015250565b5f610c3160108361083b565b9150610c3c82610bfd565b602082019050919050565b5f6020820190508181035f830152610c5e81610c25565b9050919050565b7f596f7520617265206e6f7420617574686f72697a656420746f20766f746500005f82015250565b5f610c99601e8361083b565b9150610ca482610c65565b602082019050919050565b5f6020820190508181035f830152610cc681610c8d565b9050919050565b7f496e76616c69642063616e6469646174652049440000000000000000000000005f82015250565b5f610d0160148361083b565b9150610d0c82610ccd565b602082019050919050565b5f6020820190508181035f830152610d2e81610cf5565b9050919050565b7f4e487b71000000000000000000000000000000000000000000000000000000005f52601160045260245ffd5b5f610d6c82610753565b91507fffffffffffffffffffffffffffffffffffffffffffffffffffffffffffffffff8203610d9e57610d9d610d35565b5b600182019050919050565b7f4e487b71000000000000000000000000000000000000000000000000000000005f52602260045260245ffd5b5f6002820490506001821680610ded57607f821691505b602082108103610e0057610dff610da9565b5b50919050565b7f4f6e6c79206368616972706572736f6e2063616e20706572666f726d207468695f8201527f7320616374696f6e000000000000000000000000000000000000000000000000602082015250565b5f610e6060288361083b565b9150610e6b82610e06565b604082019050919050565b5f6020820190508181035f830152610e8d81610e54565b9050919050565b5f819050815f5260205f209050919050565b5f6020601f8301049050919050565b5f82821b905092915050565b5f60088302610ef07fffffffffffffffffffffffffffffffffffffffffffffffffffffffffffffffff82610eb5565b610efa8683610eb5565b95508019841693508086168417925050509392505050565b5f819050919050565b5f610f35610f30610f2b84610753565b610f12565b610753565b9050919050565b5f819050919050565b610f4e83610f1b565b610f62610f5a82610f3c565b848454610ec1565b825550505050565b5f90565b610f76610f6a565b610f81818484610f45565b505050565b5b81811015610fa457610f995f82610f6e565b600181019050610f87565b5050565b601f821115610fe957610fba81610e94565b610fc384610ea6565b81016020851015610fd2578190505b610fe6610fde85610ea6565b830182610f86565b50505b505050565b5f82821c905092915050565b5f6110095f1984600802610fee565b1980831691505092915050565b5f6110218383610ffa565b9150826002028217905092915050565b61103a82610831565b67ffffffffffffffff811115611053576110526108ff565b5b61105d8254610dd6565b611068828285610fa8565b5f60209050601f831160018114611099575f8415611087578287015190505b6110918582611016565b8655506110f8565b601f1984166110a786610e94565b5f5b828110156110ce578489015182556001820191506020850194506020810190506110a9565b868310156110eb57848901516110e7601f891682610ffa565b8355505b6001600288020188555050505b505050505050565b7f4e487b71000000000000000000000000000000000000000000000000000000005f52603260045260245ffdfea264697066735822122093403ca51991cd14b6bc3588ac8859cc67abf48f4b31d7391194011edab20ce364736f6c63430008160033",
					"opcodes": "PUSH1 0x80 PUSH1 0x40 MSTORE CALLVALUE DUP1 ISZERO PUSH2 0xF JUMPI PUSH0 DUP1 REVERT JUMPDEST POP CALLER PUSH0 DUP1 PUSH2 0x100 EXP DUP2 SLOAD DUP2 PUSH20 0xFFFFFFFFFFFFFFFFFFFFFFFFFFFFFFFFFFFFFFFF MUL NOT AND SWAP1 DUP4 PUSH20 0xFFFFFFFFFFFFFFFFFFFFFFFFFFFFFFFFFFFFFFFF AND MUL OR SWAP1 SSTORE POP PUSH1 0x1 PUSH1 0x2 PUSH0 PUSH2 0x100 EXP DUP2 SLOAD DUP2 PUSH1 0xFF MUL NOT AND SWAP1 DUP4 ISZERO ISZERO MUL OR SWAP1 SSTORE POP PUSH2 0x1163 DUP1 PUSH2 0x76 PUSH0 CODECOPY PUSH0 RETURN INVALID PUSH1 0x80 PUSH1 0x40 MSTORE CALLVALUE DUP1 ISZERO PUSH2 0xF JUMPI PUSH0 DUP1 REVERT JUMPDEST POP PUSH1 0x4 CALLDATASIZE LT PUSH2 0x91 JUMPI PUSH0 CALLDATALOAD PUSH1 0xE0 SHR DUP1 PUSH4 0x462E91EC GT PUSH2 0x64 JUMPI DUP1 PUSH4 0x462E91EC EQ PUSH2 0x11F JUMPI DUP1 PUSH4 0xA3EC138D EQ PUSH2 0x13B JUMPI DUP1 PUSH4 0xA95824B4 EQ PUSH2 0x16B JUMPI DUP1 PUSH4 0xD434AB70 EQ PUSH2 0x189 JUMPI DUP1 PUSH4 0xFAB2F86B EQ PUSH2 0x1A5 JUMPI PUSH2 0x91 JUMP JUMPDEST DUP1 PUSH4 0x121B93F EQ PUSH2 0x95 JUMPI DUP1 PUSH4 0x2D35A8A2 EQ PUSH2 0xB1 JUMPI DUP1 PUSH4 0x2E4176CF EQ PUSH2 0xCF JUMPI DUP1 PUSH4 0x3477EE2E EQ PUSH2 0xED JUMPI JUMPDEST PUSH0 DUP1 REVERT JUMPDEST PUSH2 0xAF PUSH1 0x4 DUP1 CALLDATASIZE SUB DUP2 ADD SWAP1 PUSH2 0xAA SWAP2 SWAP1 PUSH2 0x786 JUMP JUMPDEST PUSH2 0x1AF JUMP JUMPDEST STOP JUMPDEST PUSH2 0xB9 PUSH2 0x32F JUMP JUMPDEST PUSH1 0x40 MLOAD PUSH2 0xC6 SWAP2 SWAP1 PUSH2 0x7C0 JUMP JUMPDEST PUSH1 0x40 MLOAD DUP1 SWAP2 SUB SWAP1 RETURN JUMPDEST PUSH2 0xD7 PUSH2 0x335 JUMP JUMPDEST PUSH1 0x40 MLOAD PUSH2 0xE4 SWAP2 SWAP1 PUSH2 0x818 JUMP JUMPDEST PUSH1 0x40 MLOAD DUP1 SWAP2 SUB SWAP1 RETURN JUMPDEST PUSH2 0x107 PUSH1 0x4 DUP1 CALLDATASIZE SUB DUP2 ADD SWAP1 PUSH2 0x102 SWAP2 SWAP1 PUSH2 0x786 JUMP JUMPDEST PUSH2 0x358 JUMP JUMPDEST PUSH1 0x40 MLOAD PUSH2 0x116 SWAP4 SWAP3 SWAP2 SWAP1 PUSH2 0x8BB JUMP JUMPDEST PUSH1 0x40 MLOAD DUP1 SWAP2 SUB SWAP1 RETURN JUMPDEST PUSH2 0x139 PUSH1 0x4 DUP1 CALLDATASIZE SUB DUP2 ADD SWAP1 PUSH2 0x134 SWAP2 SWAP1 PUSH2 0xA23 JUMP JUMPDEST PUSH2 0x404 JUMP JUMPDEST STOP JUMPDEST PUSH2 0x155 PUSH1 0x4 DUP1 CALLDATASIZE SUB DUP2 ADD SWAP1 PUSH2 0x150 SWAP2 SWAP1 PUSH2 0xA94 JUMP JUMPDEST PUSH2 0x554 JUMP JUMPDEST PUSH1 0x40 MLOAD PUSH2 0x162 SWAP2 SWAP1 PUSH2 0xAD9 JUMP JUMPDEST PUSH1 0x40 MLOAD DUP1 SWAP2 SUB SWAP1 RETURN JUMPDEST PUSH2 0x173 PUSH2 0x571 JUMP JUMPDEST PUSH1 0x40 MLOAD PUSH2 0x180 SWAP2 SWAP1 PUSH2 0xAD9 JUMP JUMPDEST PUSH1 0x40 MLOAD DUP1 SWAP2 SUB SWAP1 RETURN JUMPDEST PUSH2 0x1A3 PUSH1 0x4 DUP1 CALLDATASIZE SUB DUP2 ADD SWAP1 PUSH2 0x19E SWAP2 SWAP1 PUSH2 0xBB6 JUMP JUMPDEST PUSH2 0x583 JUMP JUMPDEST STOP JUMPDEST PUSH2 0x1AD PUSH2 0x69A JUMP JUMPDEST STOP JUMPDEST PUSH1 0x2 PUSH0 SWAP1 SLOAD SWAP1 PUSH2 0x100 EXP SWAP1 DIV PUSH1 0xFF AND PUSH2 0x1FD JUMPI PUSH1 0x40 MLOAD PUSH32 0x8C379A000000000000000000000000000000000000000000000000000000000 DUP2 MSTORE PUSH1 0x4 ADD PUSH2 0x1F4 SWAP1 PUSH2 0xC47 JUMP JUMPDEST PUSH1 0x40 MLOAD DUP1 SWAP2 SUB SWAP1 REVERT JUMPDEST PUSH1 0x1 PUSH0 CALLER PUSH20 0xFFFFFFFFFFFFFFFFFFFFFFFFFFFFFFFFFFFFFFFF AND PUSH20 0xFFFFFFFFFFFFFFFFFFFFFFFFFFFFFFFFFFFFFFFF AND DUP2 MSTORE PUSH1 0x20 ADD SWAP1 DUP2 MSTORE PUSH1 0x20 ADD PUSH0 KECCAK256 PUSH0 SWAP1 SLOAD SWAP1 PUSH2 0x100 EXP SWAP1 DIV PUSH1 0xFF AND PUSH2 0x286 JUMPI PUSH1 0x40 MLOAD PUSH32 0x8C379A000000000000000000000000000000000000000000000000000000000 DUP2 MSTORE PUSH1 0x4 ADD PUSH2 0x27D SWAP1 PUSH2 0xCAF JUMP JUMPDEST PUSH1 0x40 MLOAD DUP1 SWAP2 SUB SWAP1 REVERT JUMPDEST PUSH0 DUP2 GT DUP1 ISZERO PUSH2 0x297 JUMPI POP PUSH1 0x4 SLOAD DUP2 GT ISZERO JUMPDEST PUSH2 0x2D6 JUMPI PUSH1 0x40 MLOAD PUSH32 0x8C379A000000000000000000000000000000000000000000000000000000000 DUP2 MSTORE PUSH1 0x4 ADD PUSH2 0x2CD SWAP1 PUSH2 0xD17 JUMP JUMPDEST PUSH1 0x40 MLOAD DUP1 SWAP2 SUB SWAP1 REVERT JUMPDEST PUSH1 0x3 PUSH0 DUP3 DUP2 MSTORE PUSH1 0x20 ADD SWAP1 DUP2 MSTORE PUSH1 0x20 ADD PUSH0 KECCAK256 PUSH1 0x2 ADD PUSH0 DUP2 SLOAD DUP1 SWAP3 SWAP2 SWAP1 PUSH2 0x2FA SWAP1 PUSH2 0xD62 JUMP JUMPDEST SWAP2 SWAP1 POP SSTORE POP DUP1 PUSH32 0x7F511E347BF51EED3BE100B3194247D5207F05F3B33DE7D31E3E8EE73199A049 PUSH1 0x40 MLOAD PUSH1 0x40 MLOAD DUP1 SWAP2 SUB SWAP1 LOG2 POP JUMP JUMPDEST PUSH1 0x4 SLOAD DUP2 JUMP JUMPDEST PUSH0 DUP1 SLOAD SWAP1 PUSH2 0x100 EXP SWAP1 DIV PUSH20 0xFFFFFFFFFFFFFFFFFFFFFFFFFFFFFFFFFFFFFFFF AND DUP2 JUMP JUMPDEST PUSH1 0x3 PUSH1 0x20 MSTORE DUP1 PUSH0 MSTORE PUSH1 0x40 PUSH0 KECCAK256 PUSH0 SWAP2 POP SWAP1 POP DUP1 PUSH0 ADD SLOAD SWAP1 DUP1 PUSH1 0x1 ADD DUP1 SLOAD PUSH2 0x37D SWAP1 PUSH2 0xDD6 JUMP JUMPDEST DUP1 PUSH1 0x1F ADD PUSH1 0x20 DUP1 SWAP2 DIV MUL PUSH1 0x20 ADD PUSH1 0x40 MLOAD SWAP1 DUP2 ADD PUSH1 0x40 MSTORE DUP1 SWAP3 SWAP2 SWAP1 DUP2 DUP2 MSTORE PUSH1 0x20 ADD DUP3 DUP1 SLOAD PUSH2 0x3A9 SWAP1 PUSH2 0xDD6 JUMP JUMPDEST DUP1 ISZERO PUSH2 0x3F4 JUMPI DUP1 PUSH1 0x1F LT PUSH2 0x3CB JUMPI PUSH2 0x100 DUP1 DUP4 SLOAD DIV MUL DUP4 MSTORE SWAP2 PUSH1 0x20 ADD SWAP2 PUSH2 0x3F4 JUMP JUMPDEST DUP3 ADD SWAP2 SWAP1 PUSH0 MSTORE PUSH1 0x20 PUSH0 KECCAK256 SWAP1 JUMPDEST DUP2 SLOAD DUP2 MSTORE SWAP1 PUSH1 0x1 ADD SWAP1 PUSH1 0x20 ADD DUP1 DUP4 GT PUSH2 0x3D7 JUMPI DUP3 SWAP1 SUB PUSH1 0x1F AND DUP3 ADD SWAP2 JUMPDEST POP POP POP POP POP SWAP1 DUP1 PUSH1 0x2 ADD SLOAD SWAP1 POP DUP4 JUMP JUMPDEST PUSH0 DUP1 SLOAD SWAP1 PUSH2 0x100 EXP SWAP1 DIV PUSH20 0xFFFFFFFFFFFFFFFFFFFFFFFFFFFFFFFFFFFFFFFF AND PUSH20 0xFFFFFFFFFFFFFFFFFFFFFFFFFFFFFFFFFFFFFFFF AND CALLER PUSH20 0xFFFFFFFFFFFFFFFFFFFFFFFFFFFFFFFFFFFFFFFF AND EQ PUSH2 0x491 JUMPI PUSH1 0x40 MLOAD PUSH32 0x8C379A000000000000000000000000000000000000000000000000000000000 DUP2 MSTORE PUSH1 0x4 ADD PUSH2 0x488 SWAP1 PUSH2 0xE76 JUMP JUMPDEST PUSH1 0x40 MLOAD DUP1 SWAP2 SUB SWAP1 REVERT JUMPDEST PUSH1 0x2 PUSH0 SWAP1 SLOAD SWAP1 PUSH2 0x100 EXP SWAP1 DIV PUSH1 0xFF AND PUSH2 0x4DF JUMPI PUSH1 0x40 MLOAD PUSH32 0x8C379A000000000000000000000000000000000000000000000000000000000 DUP2 MSTORE PUSH1 0x4 ADD PUSH2 0x4D6 SWAP1 PUSH2 0xC47 JUMP JUMPDEST PUSH1 0x40 MLOAD DUP1 SWAP2 SUB SWAP1 REVERT JUMPDEST PUSH1 0x4 PUSH0 DUP2 SLOAD DUP1 SWAP3 SWAP2 SWAP1 PUSH2 0x4F1 SWAP1 PUSH2 0xD62 JUMP JUMPDEST SWAP2 SWAP1 POP SSTORE POP PUSH1 0x40 MLOAD DUP1 PUSH1 0x60 ADD PUSH1 0x40 MSTORE DUP1 PUSH1 0x4 SLOAD DUP2 MSTORE PUSH1 0x20 ADD DUP3 DUP2 MSTORE PUSH1 0x20 ADD PUSH0 DUP2 MSTORE POP PUSH1 0x3 PUSH0 PUSH1 0x4 SLOAD DUP2 MSTORE PUSH1 0x20 ADD SWAP1 DUP2 MSTORE PUSH1 0x20 ADD PUSH0 KECCAK256 PUSH0 DUP3 ADD MLOAD DUP2 PUSH0 ADD SSTORE PUSH1 0x20 DUP3 ADD MLOAD DUP2 PUSH1 0x1 ADD SWAP1 DUP2 PUSH2 0x543 SWAP2 SWAP1 PUSH2 0x1031 JUMP JUMPDEST POP PUSH1 0x40 DUP3 ADD MLOAD DUP2 PUSH1 0x2 ADD SSTORE SWAP1 POP POP POP JUMP JUMPDEST PUSH1 0x1 PUSH1 0x20 MSTORE DUP1 PUSH0 MSTORE PUSH1 0x40 PUSH0 KECCAK256 PUSH0 SWAP2 POP SLOAD SWAP1 PUSH2 0x100 EXP SWAP1 DIV PUSH1 0xFF AND DUP2 JUMP JUMPDEST PUSH1 0x2 PUSH0 SWAP1 SLOAD SWAP1 PUSH2 0x100 EXP SWAP1 DIV PUSH1 0xFF AND DUP2 JUMP JUMPDEST PUSH0 DUP1 SLOAD SWAP1 PUSH2 0x100 EXP SWAP1 DIV PUSH20 0xFFFFFFFFFFFFFFFFFFFFFFFFFFFFFFFFFFFFFFFF AND PUSH20 0xFFFFFFFFFFFFFFFFFFFFFFFFFFFFFFFFFFFFFFFF AND CALLER PUSH20 0xFFFFFFFFFFFFFFFFFFFFFFFFFFFFFFFFFFFFFFFF AND EQ PUSH2 0x610 JUMPI PUSH1 0x40 MLOAD PUSH32 0x8C379A000000000000000000000000000000000000000000000000000000000 DUP2 MSTORE PUSH1 0x4 ADD PUSH2 0x607 SWAP1 PUSH2 0xE76 JUMP JUMPDEST PUSH1 0x40 MLOAD DUP1 SWAP2 SUB SWAP1 REVERT JUMPDEST PUSH0 JUMPDEST DUP2 MLOAD DUP2 LT ISZERO PUSH2 0x696 JUMPI PUSH1 0x1 DUP1 PUSH0 DUP5 DUP5 DUP2 MLOAD DUP2 LT PUSH2 0x632 JUMPI PUSH2 0x631 PUSH2 0x1100 JUMP JUMPDEST JUMPDEST PUSH1 0x20 MUL PUSH1 0x20 ADD ADD MLOAD PUSH20 0xFFFFFFFFFFFFFFFFFFFFFFFFFFFFFFFFFFFFFFFF AND PUSH20 0xFFFFFFFFFFFFFFFFFFFFFFFFFFFFFFFFFFFFFFFF AND DUP2 MSTORE PUSH1 0x20 ADD SWAP1 DUP2 MSTORE PUSH1 0x20 ADD PUSH0 KECCAK256 PUSH0 PUSH2 0x100 EXP DUP2 SLOAD DUP2 PUSH1 0xFF MUL NOT AND SWAP1 DUP4 ISZERO ISZERO MUL OR SWAP1 SSTORE POP DUP1 DUP1 PUSH1 0x1 ADD SWAP2 POP POP PUSH2 0x612 JUMP JUMPDEST POP POP JUMP JUMPDEST PUSH0 DUP1 SLOAD SWAP1 PUSH2 0x100 EXP SWAP1 DIV PUSH20 0xFFFFFFFFFFFFFFFFFFFFFFFFFFFFFFFFFFFFFFFF AND PUSH20 0xFFFFFFFFFFFFFFFFFFFFFFFFFFFFFFFFFFFFFFFF AND CALLER PUSH20 0xFFFFFFFFFFFFFFFFFFFFFFFFFFFFFFFFFFFFFFFF AND EQ PUSH2 0x727 JUMPI PUSH1 0x40 MLOAD PUSH32 0x8C379A000000000000000000000000000000000000000000000000000000000 DUP2 MSTORE PUSH1 0x4 ADD PUSH2 0x71E SWAP1 PUSH2 0xE76 JUMP JUMPDEST PUSH1 0x40 MLOAD DUP1 SWAP2 SUB SWAP1 REVERT JUMPDEST PUSH0 PUSH1 0x2 PUSH0 PUSH2 0x100 EXP DUP2 SLOAD DUP2 PUSH1 0xFF MUL NOT AND SWAP1 DUP4 ISZERO ISZERO MUL OR SWAP1 SSTORE POP JUMP JUMPDEST PUSH0 PUSH1 0x40 MLOAD SWAP1 POP SWAP1 JUMP JUMPDEST PUSH0 DUP1 REVERT JUMPDEST PUSH0 DUP1 REVERT JUMPDEST PUSH0 DUP2 SWAP1 POP SWAP2 SWAP1 POP JUMP JUMPDEST PUSH2 0x765 DUP2 PUSH2 0x753 JUMP JUMPDEST DUP2 EQ PUSH2 0x76F JUMPI PUSH0 DUP1 REVERT JUMPDEST POP JUMP JUMPDEST PUSH0 DUP2 CALLDATALOAD SWAP1 POP PUSH2 0x780 DUP2 PUSH2 0x75C JUMP JUMPDEST SWAP3 SWAP2 POP POP JUMP JUMPDEST PUSH0 PUSH1 0x20 DUP3 DUP5 SUB SLT ISZERO PUSH2 0x79B JUMPI PUSH2 0x79A PUSH2 0x74B JUMP JUMPDEST JUMPDEST PUSH0 PUSH2 0x7A8 DUP5 DUP3 DUP6 ADD PUSH2 0x772 JUMP JUMPDEST SWAP2 POP POP SWAP3 SWAP2 POP POP JUMP JUMPDEST PUSH2 0x7BA DUP2 PUSH2 0x753 JUMP JUMPDEST DUP3 MSTORE POP POP JUMP JUMPDEST PUSH0 PUSH1 0x20 DUP3 ADD SWAP1 POP PUSH2 0x7D3 PUSH0 DUP4 ADD DUP5 PUSH2 0x7B1 JUMP JUMPDEST SWAP3 SWAP2 POP POP JUMP JUMPDEST PUSH0 PUSH20 0xFFFFFFFFFFFFFFFFFFFFFFFFFFFFFFFFFFFFFFFF DUP3 AND SWAP1 POP SWAP2 SWAP1 POP JUMP JUMPDEST PUSH0 PUSH2 0x802 DUP3 PUSH2 0x7D9 JUMP JUMPDEST SWAP1 POP SWAP2 SWAP1 POP JUMP JUMPDEST PUSH2 0x812 DUP2 PUSH2 0x7F8 JUMP JUMPDEST DUP3 MSTORE POP POP JUMP JUMPDEST PUSH0 PUSH1 0x20 DUP3 ADD SWAP1 POP PUSH2 0x82B PUSH0 DUP4 ADD DUP5 PUSH2 0x809 JUMP JUMPDEST SWAP3 SWAP2 POP POP JUMP JUMPDEST PUSH0 DUP2 MLOAD SWAP1 POP SWAP2 SWAP1 POP JUMP JUMPDEST PUSH0 DUP3 DUP3 MSTORE PUSH1 0x20 DUP3 ADD SWAP1 POP SWAP3 SWAP2 POP POP JUMP JUMPDEST PUSH0 JUMPDEST DUP4 DUP2 LT ISZERO PUSH2 0x868 JUMPI DUP1 DUP3 ADD MLOAD DUP2 DUP5 ADD MSTORE PUSH1 0x20 DUP2 ADD SWAP1 POP PUSH2 0x84D JUMP JUMPDEST PUSH0 DUP5 DUP5 ADD MSTORE POP POP POP POP JUMP JUMPDEST PUSH0 PUSH1 0x1F NOT PUSH1 0x1F DUP4 ADD AND SWAP1 POP SWAP2 SWAP1 POP JUMP JUMPDEST PUSH0 PUSH2 0x88D DUP3 PUSH2 0x831 JUMP JUMPDEST PUSH2 0x897 DUP2 DUP6 PUSH2 0x83B JUMP JUMPDEST SWAP4 POP PUSH2 0x8A7 DUP2 DUP6 PUSH1 0x20 DUP7 ADD PUSH2 0x84B JUMP JUMPDEST PUSH2 0x8B0 DUP2 PUSH2 0x873 JUMP JUMPDEST DUP5 ADD SWAP2 POP POP SWAP3 SWAP2 POP POP JUMP JUMPDEST PUSH0 PUSH1 0x60 DUP3 ADD SWAP1 POP PUSH2 0x8CE PUSH0 DUP4 ADD DUP7 PUSH2 0x7B1 JUMP JUMPDEST DUP2 DUP2 SUB PUSH1 0x20 DUP4 ADD MSTORE PUSH2 0x8E0 DUP2 DUP6 PUSH2 0x883 JUMP JUMPDEST SWAP1 POP PUSH2 0x8EF PUSH1 0x40 DUP4 ADD DUP5 PUSH2 0x7B1 JUMP JUMPDEST SWAP5 SWAP4 POP POP POP POP JUMP JUMPDEST PUSH0 DUP1 REVERT JUMPDEST PUSH0 DUP1 REVERT JUMPDEST PUSH32 0x4E487B7100000000000000000000000000000000000000000000000000000000 PUSH0 MSTORE PUSH1 0x41 PUSH1 0x4 MSTORE PUSH1 0x24 PUSH0 REVERT JUMPDEST PUSH2 0x935 DUP3 PUSH2 0x873 JUMP JUMPDEST DUP2 ADD DUP2 DUP2 LT PUSH8 0xFFFFFFFFFFFFFFFF DUP3 GT OR ISZERO PUSH2 0x954 JUMPI PUSH2 0x953 PUSH2 0x8FF JUMP JUMPDEST JUMPDEST DUP1 PUSH1 0x40 MSTORE POP POP POP JUMP JUMPDEST PUSH0 PUSH2 0x966 PUSH2 0x742 JUMP JUMPDEST SWAP1 POP PUSH2 0x972 DUP3 DUP3 PUSH2 0x92C JUMP JUMPDEST SWAP2 SWAP1 POP JUMP JUMPDEST PUSH0 PUSH8 0xFFFFFFFFFFFFFFFF DUP3 GT ISZERO PUSH2 0x991 JUMPI PUSH2 0x990 PUSH2 0x8FF JUMP JUMPDEST JUMPDEST PUSH2 0x99A DUP3 PUSH2 0x873 JUMP JUMPDEST SWAP1 POP PUSH1 0x20 DUP2 ADD SWAP1 POP SWAP2 SWAP1 POP JUMP JUMPDEST DUP3 DUP2 DUP4 CALLDATACOPY PUSH0 DUP4 DUP4 ADD MSTORE POP POP POP JUMP JUMPDEST PUSH0 PUSH2 0x9C7 PUSH2 0x9C2 DUP5 PUSH2 0x977 JUMP JUMPDEST PUSH2 0x95D JUMP JUMPDEST SWAP1 POP DUP3 DUP2 MSTORE PUSH1 0x20 DUP2 ADD DUP5 DUP5 DUP5 ADD GT ISZERO PUSH2 0x9E3 JUMPI PUSH2 0x9E2 PUSH2 0x8FB JUMP JUMPDEST JUMPDEST PUSH2 0x9EE DUP5 DUP3 DUP6 PUSH2 0x9A7 JUMP JUMPDEST POP SWAP4 SWAP3 POP POP POP JUMP JUMPDEST PUSH0 DUP3 PUSH1 0x1F DUP4 ADD SLT PUSH2 0xA0A JUMPI PUSH2 0xA09 PUSH2 0x8F7 JUMP JUMPDEST JUMPDEST DUP2 CALLDATALOAD PUSH2 0xA1A DUP5 DUP3 PUSH1 0x20 DUP7 ADD PUSH2 0x9B5 JUMP JUMPDEST SWAP2 POP POP SWAP3 SWAP2 POP POP JUMP JUMPDEST PUSH0 PUSH1 0x20 DUP3 DUP5 SUB SLT ISZERO PUSH2 0xA38 JUMPI PUSH2 0xA37 PUSH2 0x74B JUMP JUMPDEST JUMPDEST PUSH0 DUP3 ADD CALLDATALOAD PUSH8 0xFFFFFFFFFFFFFFFF DUP2 GT ISZERO PUSH2 0xA55 JUMPI PUSH2 0xA54 PUSH2 0x74F JUMP JUMPDEST JUMPDEST PUSH2 0xA61 DUP5 DUP3 DUP6 ADD PUSH2 0x9F6 JUMP JUMPDEST SWAP2 POP POP SWAP3 SWAP2 POP POP JUMP JUMPDEST PUSH2 0xA73 DUP2 PUSH2 0x7F8 JUMP JUMPDEST DUP2 EQ PUSH2 0xA7D JUMPI PUSH0 DUP1 REVERT JUMPDEST POP JUMP JUMPDEST PUSH0 DUP2 CALLDATALOAD SWAP1 POP PUSH2 0xA8E DUP2 PUSH2 0xA6A JUMP JUMPDEST SWAP3 SWAP2 POP POP JUMP JUMPDEST PUSH0 PUSH1 0x20 DUP3 DUP5 SUB SLT ISZERO PUSH2 0xAA9 JUMPI PUSH2 0xAA8 PUSH2 0x74B JUMP JUMPDEST JUMPDEST PUSH0 PUSH2 0xAB6 DUP5 DUP3 DUP6 ADD PUSH2 0xA80 JUMP JUMPDEST SWAP2 POP POP SWAP3 SWAP2 POP POP JUMP JUMPDEST PUSH0 DUP2 ISZERO ISZERO SWAP1 POP SWAP2 SWAP1 POP JUMP JUMPDEST PUSH2 0xAD3 DUP2 PUSH2 0xABF JUMP JUMPDEST DUP3 MSTORE POP POP JUMP JUMPDEST PUSH0 PUSH1 0x20 DUP3 ADD SWAP1 POP PUSH2 0xAEC PUSH0 DUP4 ADD DUP5 PUSH2 0xACA JUMP JUMPDEST SWAP3 SWAP2 POP POP JUMP JUMPDEST PUSH0 PUSH8 0xFFFFFFFFFFFFFFFF DUP3 GT ISZERO PUSH2 0xB0C JUMPI PUSH2 0xB0B PUSH2 0x8FF JUMP JUMPDEST JUMPDEST PUSH1 0x20 DUP3 MUL SWAP1 POP PUSH1 0x20 DUP2 ADD SWAP1 POP SWAP2 SWAP1 POP JUMP JUMPDEST PUSH0 DUP1 REVERT JUMPDEST PUSH0 PUSH2 0xB33 PUSH2 0xB2E DUP5 PUSH2 0xAF2 JUMP JUMPDEST PUSH2 0x95D JUMP JUMPDEST SWAP1 POP DUP1 DUP4 DUP3 MSTORE PUSH1 0x20 DUP3 ADD SWAP1 POP PUSH1 0x20 DUP5 MUL DUP4 ADD DUP6 DUP2 GT ISZERO PUSH2 0xB56 JUMPI PUSH2 0xB55 PUSH2 0xB1D JUMP JUMPDEST JUMPDEST DUP4 JUMPDEST DUP2 DUP2 LT ISZERO PUSH2 0xB7F JUMPI DUP1 PUSH2 0xB6B DUP9 DUP3 PUSH2 0xA80 JUMP JUMPDEST DUP5 MSTORE PUSH1 0x20 DUP5 ADD SWAP4 POP POP PUSH1 0x20 DUP2 ADD SWAP1 POP PUSH2 0xB58 JUMP JUMPDEST POP POP POP SWAP4 SWAP3 POP POP POP JUMP JUMPDEST PUSH0 DUP3 PUSH1 0x1F DUP4 ADD SLT PUSH2 0xB9D JUMPI PUSH2 0xB9C PUSH2 0x8F7 JUMP JUMPDEST JUMPDEST DUP2 CALLDATALOAD PUSH2 0xBAD DUP5 DUP3 PUSH1 0x20 DUP7 ADD PUSH2 0xB21 JUMP JUMPDEST SWAP2 POP POP SWAP3 SWAP2 POP POP JUMP JUMPDEST PUSH0 PUSH1 0x20 DUP3 DUP5 SUB SLT ISZERO PUSH2 0xBCB JUMPI PUSH2 0xBCA PUSH2 0x74B JUMP JUMPDEST JUMPDEST PUSH0 DUP3 ADD CALLDATALOAD PUSH8 0xFFFFFFFFFFFFFFFF DUP2 GT ISZERO PUSH2 0xBE8 JUMPI PUSH2 0xBE7 PUSH2 0x74F JUMP JUMPDEST JUMPDEST PUSH2 0xBF4 DUP5 DUP3 DUP6 ADD PUSH2 0xB89 JUMP JUMPDEST SWAP2 POP POP SWAP3 SWAP2 POP POP JUMP JUMPDEST PUSH32 0x566F74696E6720697320636C6F73656400000000000000000000000000000000 PUSH0 DUP3 ADD MSTORE POP JUMP JUMPDEST PUSH0 PUSH2 0xC31 PUSH1 0x10 DUP4 PUSH2 0x83B JUMP JUMPDEST SWAP2 POP PUSH2 0xC3C DUP3 PUSH2 0xBFD JUMP JUMPDEST PUSH1 0x20 DUP3 ADD SWAP1 POP SWAP2 SWAP1 POP JUMP JUMPDEST PUSH0 PUSH1 0x20 DUP3 ADD SWAP1 POP DUP2 DUP2 SUB PUSH0 DUP4 ADD MSTORE PUSH2 0xC5E DUP2 PUSH2 0xC25 JUMP JUMPDEST SWAP1 POP SWAP2 SWAP1 POP JUMP JUMPDEST PUSH32 0x596F7520617265206E6F7420617574686F72697A656420746F20766F74650000 PUSH0 DUP3 ADD MSTORE POP JUMP JUMPDEST PUSH0 PUSH2 0xC99 PUSH1 0x1E DUP4 PUSH2 0x83B JUMP JUMPDEST SWAP2 POP PUSH2 0xCA4 DUP3 PUSH2 0xC65 JUMP JUMPDEST PUSH1 0x20 DUP3 ADD SWAP1 POP SWAP2 SWAP1 POP JUMP JUMPDEST PUSH0 PUSH1 0x20 DUP3 ADD SWAP1 POP DUP2 DUP2 SUB PUSH0 DUP4 ADD MSTORE PUSH2 0xCC6 DUP2 PUSH2 0xC8D JUMP JUMPDEST SWAP1 POP SWAP2 SWAP1 POP JUMP JUMPDEST PUSH32 0x496E76616C69642063616E646964617465204944000000000000000000000000 PUSH0 DUP3 ADD MSTORE POP JUMP JUMPDEST PUSH0 PUSH2 0xD01 PUSH1 0x14 DUP4 PUSH2 0x83B JUMP JUMPDEST SWAP2 POP PUSH2 0xD0C DUP3 PUSH2 0xCCD JUMP JUMPDEST PUSH1 0x20 DUP3 ADD SWAP1 POP SWAP2 SWAP1 POP JUMP JUMPDEST PUSH0 PUSH1 0x20 DUP3 ADD SWAP1 POP DUP2 DUP2 SUB PUSH0 DUP4 ADD MSTORE PUSH2 0xD2E DUP2 PUSH2 0xCF5 JUMP JUMPDEST SWAP1 POP SWAP2 SWAP1 POP JUMP JUMPDEST PUSH32 0x4E487B7100000000000000000000000000000000000000000000000000000000 PUSH0 MSTORE PUSH1 0x11 PUSH1 0x4 MSTORE PUSH1 0x24 PUSH0 REVERT JUMPDEST PUSH0 PUSH2 0xD6C DUP3 PUSH2 0x753 JUMP JUMPDEST SWAP2 POP PUSH32 0xFFFFFFFFFFFFFFFFFFFFFFFFFFFFFFFFFFFFFFFFFFFFFFFFFFFFFFFFFFFFFFFF DUP3 SUB PUSH2 0xD9E JUMPI PUSH2 0xD9D PUSH2 0xD35 JUMP JUMPDEST JUMPDEST PUSH1 0x1 DUP3 ADD SWAP1 POP SWAP2 SWAP1 POP JUMP JUMPDEST PUSH32 0x4E487B7100000000000000000000000000000000000000000000000000000000 PUSH0 MSTORE PUSH1 0x22 PUSH1 0x4 MSTORE PUSH1 0x24 PUSH0 REVERT JUMPDEST PUSH0 PUSH1 0x2 DUP3 DIV SWAP1 POP PUSH1 0x1 DUP3 AND DUP1 PUSH2 0xDED JUMPI PUSH1 0x7F DUP3 AND SWAP2 POP JUMPDEST PUSH1 0x20 DUP3 LT DUP2 SUB PUSH2 0xE00 JUMPI PUSH2 0xDFF PUSH2 0xDA9 JUMP JUMPDEST JUMPDEST POP SWAP2 SWAP1 POP JUMP JUMPDEST PUSH32 0x4F6E6C79206368616972706572736F6E2063616E20706572666F726D20746869 PUSH0 DUP3 ADD MSTORE PUSH32 0x7320616374696F6E000000000000000000000000000000000000000000000000 PUSH1 0x20 DUP3 ADD MSTORE POP JUMP JUMPDEST PUSH0 PUSH2 0xE60 PUSH1 0x28 DUP4 PUSH2 0x83B JUMP JUMPDEST SWAP2 POP PUSH2 0xE6B DUP3 PUSH2 0xE06 JUMP JUMPDEST PUSH1 0x40 DUP3 ADD SWAP1 POP SWAP2 SWAP1 POP JUMP JUMPDEST PUSH0 PUSH1 0x20 DUP3 ADD SWAP1 POP DUP2 DUP2 SUB PUSH0 DUP4 ADD MSTORE PUSH2 0xE8D DUP2 PUSH2 0xE54 JUMP JUMPDEST SWAP1 POP SWAP2 SWAP1 POP JUMP JUMPDEST PUSH0 DUP2 SWAP1 POP DUP2 PUSH0 MSTORE PUSH1 0x20 PUSH0 KECCAK256 SWAP1 POP SWAP2 SWAP1 POP JUMP JUMPDEST PUSH0 PUSH1 0x20 PUSH1 0x1F DUP4 ADD DIV SWAP1 POP SWAP2 SWAP1 POP JUMP JUMPDEST PUSH0 DUP3 DUP3 SHL SWAP1 POP SWAP3 SWAP2 POP POP JUMP JUMPDEST PUSH0 PUSH1 0x8 DUP4 MUL PUSH2 0xEF0 PUSH32 0xFFFFFFFFFFFFFFFFFFFFFFFFFFFFFFFFFFFFFFFFFFFFFFFFFFFFFFFFFFFFFFFF DUP3 PUSH2 0xEB5 JUMP JUMPDEST PUSH2 0xEFA DUP7 DUP4 PUSH2 0xEB5 JUMP JUMPDEST SWAP6 POP DUP1 NOT DUP5 AND SWAP4 POP DUP1 DUP7 AND DUP5 OR SWAP3 POP POP POP SWAP4 SWAP3 POP POP POP JUMP JUMPDEST PUSH0 DUP2 SWAP1 POP SWAP2 SWAP1 POP JUMP JUMPDEST PUSH0 PUSH2 0xF35 PUSH2 0xF30 PUSH2 0xF2B DUP5 PUSH2 0x753 JUMP JUMPDEST PUSH2 0xF12 JUMP JUMPDEST PUSH2 0x753 JUMP JUMPDEST SWAP1 POP SWAP2 SWAP1 POP JUMP JUMPDEST PUSH0 DUP2 SWAP1 POP SWAP2 SWAP1 POP JUMP JUMPDEST PUSH2 0xF4E DUP4 PUSH2 0xF1B JUMP JUMPDEST PUSH2 0xF62 PUSH2 0xF5A DUP3 PUSH2 0xF3C JUMP JUMPDEST DUP5 DUP5 SLOAD PUSH2 0xEC1 JUMP JUMPDEST DUP3 SSTORE POP POP POP POP JUMP JUMPDEST PUSH0 SWAP1 JUMP JUMPDEST PUSH2 0xF76 PUSH2 0xF6A JUMP JUMPDEST PUSH2 0xF81 DUP2 DUP5 DUP5 PUSH2 0xF45 JUMP JUMPDEST POP POP POP JUMP JUMPDEST JUMPDEST DUP2 DUP2 LT ISZERO PUSH2 0xFA4 JUMPI PUSH2 0xF99 PUSH0 DUP3 PUSH2 0xF6E JUMP JUMPDEST PUSH1 0x1 DUP2 ADD SWAP1 POP PUSH2 0xF87 JUMP JUMPDEST POP POP JUMP JUMPDEST PUSH1 0x1F DUP3 GT ISZERO PUSH2 0xFE9 JUMPI PUSH2 0xFBA DUP2 PUSH2 0xE94 JUMP JUMPDEST PUSH2 0xFC3 DUP5 PUSH2 0xEA6 JUMP JUMPDEST DUP2 ADD PUSH1 0x20 DUP6 LT ISZERO PUSH2 0xFD2 JUMPI DUP2 SWAP1 POP JUMPDEST PUSH2 0xFE6 PUSH2 0xFDE DUP6 PUSH2 0xEA6 JUMP JUMPDEST DUP4 ADD DUP3 PUSH2 0xF86 JUMP JUMPDEST POP POP JUMPDEST POP POP POP JUMP JUMPDEST PUSH0 DUP3 DUP3 SHR SWAP1 POP SWAP3 SWAP2 POP POP JUMP JUMPDEST PUSH0 PUSH2 0x1009 PUSH0 NOT DUP5 PUSH1 0x8 MUL PUSH2 0xFEE JUMP JUMPDEST NOT DUP1 DUP4 AND SWAP2 POP POP SWAP3 SWAP2 POP POP JUMP JUMPDEST PUSH0 PUSH2 0x1021 DUP4 DUP4 PUSH2 0xFFA JUMP JUMPDEST SWAP2 POP DUP3 PUSH1 0x2 MUL DUP3 OR SWAP1 POP SWAP3 SWAP2 POP POP JUMP JUMPDEST PUSH2 0x103A DUP3 PUSH2 0x831 JUMP JUMPDEST PUSH8 0xFFFFFFFFFFFFFFFF DUP2 GT ISZERO PUSH2 0x1053 JUMPI PUSH2 0x1052 PUSH2 0x8FF JUMP JUMPDEST JUMPDEST PUSH2 0x105D DUP3 SLOAD PUSH2 0xDD6 JUMP JUMPDEST PUSH2 0x1068 DUP3 DUP3 DUP6 PUSH2 0xFA8 JUMP JUMPDEST PUSH0 PUSH1 0x20 SWAP1 POP PUSH1 0x1F DUP4 GT PUSH1 0x1 DUP2 EQ PUSH2 0x1099 JUMPI PUSH0 DUP5 ISZERO PUSH2 0x1087 JUMPI DUP3 DUP8 ADD MLOAD SWAP1 POP JUMPDEST PUSH2 0x1091 DUP6 DUP3 PUSH2 0x1016 JUMP JUMPDEST DUP7 SSTORE POP PUSH2 0x10F8 JUMP JUMPDEST PUSH1 0x1F NOT DUP5 AND PUSH2 0x10A7 DUP7 PUSH2 0xE94 JUMP JUMPDEST PUSH0 JUMPDEST DUP3 DUP2 LT ISZERO PUSH2 0x10CE JUMPI DUP5 DUP10 ADD MLOAD DUP3 SSTORE PUSH1 0x1 DUP3 ADD SWAP2 POP PUSH1 0x20 DUP6 ADD SWAP5 POP PUSH1 0x20 DUP2 ADD SWAP1 POP PUSH2 0x10A9 JUMP JUMPDEST DUP7 DUP4 LT ISZERO PUSH2 0x10EB JUMPI DUP5 DUP10 ADD MLOAD PUSH2 0x10E7 PUSH1 0x1F DUP10 AND DUP3 PUSH2 0xFFA JUMP JUMPDEST DUP4 SSTORE POP JUMPDEST PUSH1 0x1 PUSH1 0x2 DUP9 MUL ADD DUP9 SSTORE POP POP POP JUMPDEST POP POP POP POP POP POP JUMP JUMPDEST PUSH32 0x4E487B7100000000000000000000000000000000000000000000000000000000 PUSH0 MSTORE PUSH1 0x32 PUSH1 0x4 MSTORE PUSH1 0x24 PUSH0 REVERT INVALID LOG2 PUSH5 0x6970667358 0x22 SLT KECCAK256 SWAP4 BLOCKHASH EXTCODECOPY 0xA5 NOT SWAP2 0xCD EQ 0xB6 0xBC CALLDATALOAD DUP9 0xAC DUP9 MSIZE 0xCC PUSH8 0xABF48F4B31D73911 SWAP5 ADD 0x1E 0xDA 0xB2 0xC 0xE3 PUSH5 0x736F6C6343 STOP ADDMOD AND STOP CALLER "
				},
				"gasEstimates": {
					"creation": {
						"codeDepositCost": "890200",
						"executionCost": "49458",
						"totalCost": "939658"
					},
					"external": {
						"addCandidate(string)": "infinite",
						"candidates(uint256)": "infinite",
						"candidatesCount()": "2448",
						"chairperson()": "2550",
						"specifyVoters(address[])": "infinite",
						"stopVoting()": "26662",
						"vote(uint256)": "infinite",
						"voters(address)": "2855",
						"votingOpen()": "2510"
					}
				},
				"methodIdentifiers": {
					"addCandidate(string)": "462e91ec",
					"candidates(uint256)": "3477ee2e",
					"candidatesCount()": "2d35a8a2",
					"chairperson()": "2e4176cf",
					"specifyVoters(address[])": "d434ab70",
					"stopVoting()": "fab2f86b",
					"vote(uint256)": "0121b93f",
					"voters(address)": "a3ec138d",
					"votingOpen()": "a95824b4"
				}
			},
			"storageLayout": {
				"storage": [
					{
						"astId": 3,
						"contract": "contracts/HelloWorld5.sol:Voting",
						"label": "chairperson",
						"offset": 0,
						"slot": "0",
						"type": "t_address"
					},
					{
						"astId": 7,
						"contract": "contracts/HelloWorld5.sol:Voting",
						"label": "voters",
						"offset": 0,
						"slot": "1",
						"type": "t_mapping(t_address,t_bool)"
					},
					{
						"astId": 9,
						"contract": "contracts/HelloWorld5.sol:Voting",
						"label": "votingOpen",
						"offset": 0,
						"slot": "2",
						"type": "t_bool"
					},
					{
						"astId": 21,
						"contract": "contracts/HelloWorld5.sol:Voting",
						"label": "candidates",
						"offset": 0,
						"slot": "3",
						"type": "t_mapping(t_uint256,t_struct(Candidate)16_storage)"
					},
					{
						"astId": 23,
						"contract": "contracts/HelloWorld5.sol:Voting",
						"label": "candidatesCount",
						"offset": 0,
						"slot": "4",
						"type": "t_uint256"
					}
				],
				"types": {
					"t_address": {
						"encoding": "inplace",
						"label": "address",
						"numberOfBytes": "20"
					},
					"t_bool": {
						"encoding": "inplace",
						"label": "bool",
						"numberOfBytes": "1"
					},
					"t_mapping(t_address,t_bool)": {
						"encoding": "mapping",
						"key": "t_address",
						"label": "mapping(address => bool)",
						"numberOfBytes": "32",
						"value": "t_bool"
					},
					"t_mapping(t_uint256,t_struct(Candidate)16_storage)": {
						"encoding": "mapping",
						"key": "t_uint256",
						"label": "mapping(uint256 => struct Voting.Candidate)",
						"numberOfBytes": "32",
						"value": "t_struct(Candidate)16_storage"
					},
					"t_string_storage": {
						"encoding": "bytes",
						"label": "string",
						"numberOfBytes": "32"
					},
					"t_struct(Candidate)16_storage": {
						"encoding": "inplace",
						"label": "struct Voting.Candidate",
						"members": [
							{
								"astId": 11,
								"contract": "contracts/HelloWorld5.sol:Voting",
								"label": "id",
								"offset": 0,
								"slot": "0",
								"type": "t_uint256"
							},
							{
								"astId": 13,
								"contract": "contracts/HelloWorld5.sol:Voting",
								"label": "name",
								"offset": 0,
								"slot": "1",
								"type": "t_string_storage"
							},
							{
								"astId": 15,
								"contract": "contracts/HelloWorld5.sol:Voting",
								"label": "voteCount",
								"offset": 0,
								"slot": "2",
								"type": "t_uint256"
							}
						],
						"numberOfBytes": "96"
					},
					"t_uint256": {
						"encoding": "inplace",
						"label": "uint256",
						"numberOfBytes": "32"
					}
				}
			},
			"userdoc": {
				"kind": "user",
				"methods": {},
				"version": 1
			}
		}
	}
}